{
  "_format": "hh-sol-artifact-1",
  "contractName": "AuditRegistry",
  "sourceName": "contracts/AuditRegistry.sol",
  "abi": [
    {
      "inputs": [],
      "name": "AccessControlBadConfirmation",
      "type": "error"
    },
    {
      "inputs": [
        {
          "internalType": "address",
          "name": "account",
          "type": "address"
        },
        {
          "internalType": "bytes32",
          "name": "neededRole",
          "type": "bytes32"
        }
      ],
      "name": "AccessControlUnauthorizedAccount",
      "type": "error"
    },
    {
      "inputs": [],
      "name": "InvalidInitialization",
      "type": "error"
    },
    {
      "inputs": [],
      "name": "NotInitializing",
      "type": "error"
    },
    {
      "anonymous": false,
      "inputs": [
        {
          "indexed": true,
          "internalType": "bytes32",
          "name": "templateId",
          "type": "bytes32"
        },
        {
          "indexed": false,
          "internalType": "uint256",
          "name": "auditIndex",
          "type": "uint256"
        },
        {
          "indexed": true,
          "internalType": "address",
          "name": "disputor",
          "type": "address"
        },
        {
          "indexed": false,
          "internalType": "string",
          "name": "disputeReason",
          "type": "string"
        }
      ],
      "name": "AuditDisputed",
      "type": "event"
    },
    {
      "anonymous": false,
      "inputs": [
        {
          "indexed": true,
          "internalType": "address",
          "name": "auditor",
          "type": "address"
        },
        {
          "indexed": false,
          "internalType": "uint256",
          "name": "amount",
          "type": "uint256"
        },
        {
          "indexed": false,
          "internalType": "address",
          "name": "beneficiary",
          "type": "address"
        }
      ],
      "name": "AuditPenalized",
      "type": "event"
    },
    {
      "anonymous": false,
      "inputs": [
        {
          "indexed": true,
          "internalType": "address",
          "name": "auditor",
          "type": "address"
        },
        {
          "indexed": false,
          "internalType": "uint256",
          "name": "amount",
          "type": "uint256"
        }
      ],
      "name": "AuditRewarded",
      "type": "event"
    },
    {
      "anonymous": false,
      "inputs": [
        {
          "indexed": true,
          "internalType": "bytes32",
          "name": "templateId",
          "type": "bytes32"
        },
        {
          "indexed": true,
          "internalType": "address",
          "name": "auditor",
          "type": "address"
        },
        {
          "indexed": false,
          "internalType": "string",
          "name": "reportURI",
          "type": "string"
        },
        {
          "indexed": false,
          "internalType": "uint8",
          "name": "auditorTier",
          "type": "uint8"
        }
      ],
      "name": "AuditSubmitted",
      "type": "event"
    },
    {
      "anonymous": false,
      "inputs": [
        {
          "indexed": true,
          "internalType": "bytes32",
          "name": "templateId",
          "type": "bytes32"
        },
        {
          "indexed": false,
          "internalType": "uint256",
          "name": "auditIndex",
          "type": "uint256"
        },
        {
          "indexed": true,
          "internalType": "address",
          "name": "verifier",
          "type": "address"
        }
      ],
      "name": "AuditVerified",
      "type": "event"
    },
    {
      "anonymous": false,
      "inputs": [
        {
          "indexed": false,
          "internalType": "uint64",
          "name": "version",
          "type": "uint64"
        }
      ],
      "name": "Initialized",
      "type": "event"
    },
    {
      "anonymous": false,
      "inputs": [
        {
          "indexed": true,
          "internalType": "bytes32",
          "name": "role",
          "type": "bytes32"
        },
        {
          "indexed": true,
          "internalType": "bytes32",
          "name": "previousAdminRole",
          "type": "bytes32"
        },
        {
          "indexed": true,
          "internalType": "bytes32",
          "name": "newAdminRole",
          "type": "bytes32"
        }
      ],
      "name": "RoleAdminChanged",
      "type": "event"
    },
    {
      "anonymous": false,
      "inputs": [
        {
          "indexed": true,
          "internalType": "bytes32",
          "name": "role",
          "type": "bytes32"
        },
        {
          "indexed": true,
          "internalType": "address",
          "name": "account",
          "type": "address"
        },
        {
          "indexed": true,
          "internalType": "address",
          "name": "sender",
          "type": "address"
        }
      ],
      "name": "RoleGranted",
      "type": "event"
    },
    {
      "anonymous": false,
      "inputs": [
        {
          "indexed": true,
          "internalType": "bytes32",
          "name": "role",
          "type": "bytes32"
        },
        {
          "indexed": true,
          "internalType": "address",
          "name": "account",
          "type": "address"
        },
        {
          "indexed": true,
          "internalType": "address",
          "name": "sender",
          "type": "address"
        }
      ],
      "name": "RoleRevoked",
      "type": "event"
    },
    {
      "inputs": [],
      "name": "AUDITOR_ROLE",
      "outputs": [
        {
          "internalType": "bytes32",
          "name": "",
          "type": "bytes32"
        }
      ],
      "stateMutability": "view",
      "type": "function"
    },
    {
      "inputs": [],
      "name": "DEFAULT_ADMIN_ROLE",
      "outputs": [
        {
          "internalType": "bytes32",
          "name": "",
          "type": "bytes32"
        }
      ],
      "stateMutability": "view",
      "type": "function"
    },
    {
      "inputs": [],
      "name": "VERIFIER_ROLE",
      "outputs": [
        {
          "internalType": "bytes32",
          "name": "",
          "type": "bytes32"
        }
      ],
      "stateMutability": "view",
      "type": "function"
    },
    {
      "inputs": [
        {
          "internalType": "bytes32",
          "name": "",
          "type": "bytes32"
        },
        {
          "internalType": "uint256",
          "name": "",
          "type": "uint256"
        }
      ],
      "name": "audits",
      "outputs": [
        {
          "internalType": "address",
          "name": "template",
          "type": "address"
        },
        {
          "internalType": "address",
          "name": "auditor",
          "type": "address"
        },
        {
          "internalType": "enum AuditRegistry.AuditStatus",
          "name": "status",
          "type": "uint8"
        },
        {
          "internalType": "uint256",
          "name": "timestamp",
          "type": "uint256"
        },
        {
          "internalType": "string",
          "name": "reportURI",
          "type": "string"
        },
        {
          "internalType": "uint8",
          "name": "auditorTier",
          "type": "uint8"
        },
        {
          "internalType": "string",
          "name": "disputeReason",
          "type": "string"
        },
        {
          "internalType": "address",
          "name": "verifier",
          "type": "address"
        }
      ],
      "stateMutability": "view",
      "type": "function"
    },
    {
      "inputs": [
        {
          "internalType": "bytes32",
          "name": "templateId",
          "type": "bytes32"
        },
        {
          "internalType": "uint256",
          "name": "auditIndex",
          "type": "uint256"
        },
        {
          "internalType": "string",
          "name": "disputeReason",
          "type": "string"
        }
      ],
      "name": "disputeAudit",
      "outputs": [],
      "stateMutability": "nonpayable",
      "type": "function"
    },
    {
      "inputs": [
        {
          "internalType": "bytes32",
          "name": "templateId",
          "type": "bytes32"
        }
      ],
      "name": "getAudits",
      "outputs": [
        {
          "components": [
            {
              "internalType": "address",
              "name": "template",
              "type": "address"
            },
            {
              "internalType": "address",
              "name": "auditor",
              "type": "address"
            },
            {
              "internalType": "enum AuditRegistry.AuditStatus",
              "name": "status",
              "type": "uint8"
            },
            {
              "internalType": "uint256",
              "name": "timestamp",
              "type": "uint256"
            },
            {
              "internalType": "string",
              "name": "reportURI",
              "type": "string"
            },
            {
              "internalType": "uint8",
              "name": "auditorTier",
              "type": "uint8"
            },
            {
              "internalType": "string",
              "name": "disputeReason",
              "type": "string"
            },
            {
              "internalType": "address",
              "name": "verifier",
              "type": "address"
            }
          ],
          "internalType": "struct AuditRegistry.Audit[]",
          "name": "",
          "type": "tuple[]"
        }
      ],
      "stateMutability": "view",
      "type": "function"
    },
    {
      "inputs": [
        {
          "internalType": "bytes32",
          "name": "templateId",
          "type": "bytes32"
        }
      ],
      "name": "getLatestStatus",
      "outputs": [
        {
          "internalType": "enum AuditRegistry.AuditStatus",
          "name": "",
          "type": "uint8"
        }
      ],
      "stateMutability": "view",
      "type": "function"
    },
    {
      "inputs": [
        {
          "internalType": "bytes32",
          "name": "role",
          "type": "bytes32"
        }
      ],
      "name": "getRoleAdmin",
      "outputs": [
        {
          "internalType": "bytes32",
          "name": "",
          "type": "bytes32"
        }
      ],
      "stateMutability": "view",
      "type": "function"
    },
    {
      "inputs": [],
      "name": "getTrustedForwarder",
      "outputs": [
        {
          "internalType": "address",
          "name": "forwarder",
          "type": "address"
        }
      ],
      "stateMutability": "view",
      "type": "function"
    },
    {
      "inputs": [
        {
          "internalType": "bytes32",
          "name": "role",
          "type": "bytes32"
        },
        {
          "internalType": "address",
          "name": "account",
          "type": "address"
        }
      ],
      "name": "grantRole",
      "outputs": [],
      "stateMutability": "nonpayable",
      "type": "function"
    },
    {
      "inputs": [
        {
          "internalType": "bytes32",
          "name": "role",
          "type": "bytes32"
        },
        {
          "internalType": "address",
          "name": "account",
          "type": "address"
        }
      ],
      "name": "hasRole",
      "outputs": [
        {
          "internalType": "bool",
          "name": "",
          "type": "bool"
        }
      ],
      "stateMutability": "view",
      "type": "function"
    },
    {
      "inputs": [
        {
          "internalType": "address",
          "name": "trustedForwarder",
          "type": "address"
        },
        {
          "internalType": "address",
          "name": "templateRegistryAddress",
          "type": "address"
        },
        {
          "internalType": "address",
          "name": "modlTokenAddress",
          "type": "address"
        },
        {
          "internalType": "address",
          "name": "stakeManagerAddress",
          "type": "address"
        },
        {
          "internalType": "uint256",
          "name": "_rewardAmount",
          "type": "uint256"
        },
        {
          "internalType": "uint256",
          "name": "_slashAmount",
          "type": "uint256"
        },
        {
          "internalType": "address",
          "name": "_slashBeneficiary",
          "type": "address"
        }
      ],
      "name": "initialize",
      "outputs": [],
      "stateMutability": "nonpayable",
      "type": "function"
    },
    {
      "inputs": [
        {
          "internalType": "address",
          "name": "forwarder",
          "type": "address"
        }
      ],
      "name": "isTrustedForwarder",
      "outputs": [
        {
          "internalType": "bool",
          "name": "",
          "type": "bool"
        }
      ],
      "stateMutability": "view",
      "type": "function"
    },
    {
      "inputs": [],
      "name": "modlToken",
      "outputs": [
        {
          "internalType": "contract IMODLToken",
          "name": "",
          "type": "address"
        }
      ],
      "stateMutability": "view",
      "type": "function"
    },
    {
      "inputs": [
        {
          "internalType": "bytes32",
          "name": "role",
          "type": "bytes32"
        },
        {
          "internalType": "address",
          "name": "callerConfirmation",
          "type": "address"
        }
      ],
      "name": "renounceRole",
      "outputs": [],
      "stateMutability": "nonpayable",
      "type": "function"
    },
    {
      "inputs": [
        {
          "internalType": "bytes32",
          "name": "role",
          "type": "bytes32"
        },
        {
          "internalType": "address",
          "name": "account",
          "type": "address"
        }
      ],
      "name": "revokeRole",
      "outputs": [],
      "stateMutability": "nonpayable",
      "type": "function"
    },
    {
      "inputs": [],
      "name": "rewardAmount",
      "outputs": [
        {
          "internalType": "uint256",
          "name": "",
          "type": "uint256"
        }
      ],
      "stateMutability": "view",
      "type": "function"
    },
    {
      "inputs": [
        {
          "internalType": "uint256",
          "name": "newAmount",
          "type": "uint256"
        }
      ],
      "name": "setRewardAmount",
      "outputs": [],
      "stateMutability": "nonpayable",
      "type": "function"
    },
    {
      "inputs": [
        {
          "internalType": "uint256",
          "name": "newAmount",
          "type": "uint256"
        }
      ],
      "name": "setSlashAmount",
      "outputs": [],
      "stateMutability": "nonpayable",
      "type": "function"
    },
    {
      "inputs": [
        {
          "internalType": "address",
          "name": "newBeneficiary",
          "type": "address"
        }
      ],
      "name": "setSlashBeneficiary",
      "outputs": [],
      "stateMutability": "nonpayable",
      "type": "function"
    },
    {
      "inputs": [
        {
          "internalType": "address",
          "name": "newRegistry",
          "type": "address"
        }
      ],
      "name": "setTemplateRegistry",
      "outputs": [],
      "stateMutability": "nonpayable",
      "type": "function"
    },
    {
      "inputs": [],
      "name": "slashAmount",
      "outputs": [
        {
          "internalType": "uint256",
          "name": "",
          "type": "uint256"
        }
      ],
      "stateMutability": "view",
      "type": "function"
    },
    {
      "inputs": [],
      "name": "slashBeneficiary",
      "outputs": [
        {
          "internalType": "address",
          "name": "",
          "type": "address"
        }
      ],
      "stateMutability": "view",
      "type": "function"
    },
    {
      "inputs": [],
      "name": "stakeManager",
      "outputs": [
        {
          "internalType": "contract IStakeManager",
          "name": "",
          "type": "address"
        }
      ],
      "stateMutability": "view",
      "type": "function"
    },
    {
      "inputs": [
        {
          "internalType": "bytes32",
          "name": "templateId",
          "type": "bytes32"
        },
        {
          "internalType": "address",
          "name": "template",
          "type": "address"
        },
        {
          "internalType": "string",
          "name": "reportURI",
          "type": "string"
        },
        {
          "internalType": "uint8",
          "name": "auditorTier",
          "type": "uint8"
        }
      ],
      "name": "submitAudit",
      "outputs": [],
      "stateMutability": "nonpayable",
      "type": "function"
    },
    {
      "inputs": [
        {
          "internalType": "bytes4",
          "name": "interfaceId",
          "type": "bytes4"
        }
      ],
      "name": "supportsInterface",
      "outputs": [
        {
          "internalType": "bool",
          "name": "",
          "type": "bool"
        }
      ],
      "stateMutability": "view",
      "type": "function"
    },
    {
      "inputs": [],
      "name": "templateRegistry",
      "outputs": [
        {
          "internalType": "contract ITemplateRegistry",
          "name": "",
          "type": "address"
        }
      ],
      "stateMutability": "view",
      "type": "function"
    },
    {
      "inputs": [
        {
          "internalType": "bytes32",
          "name": "templateId",
          "type": "bytes32"
        },
        {
          "internalType": "uint256",
          "name": "auditIndex",
          "type": "uint256"
        },
        {
          "internalType": "bool",
          "name": "approve",
          "type": "bool"
        }
      ],
      "name": "verifyAudit",
      "outputs": [],
      "stateMutability": "nonpayable",
      "type": "function"
    }
  ],
  "bytecode": "0x6080806040523461001657611f19908161001c8239f35b600080fdfe608080604052600436101561001357600080fd5b600090813560e01c90816301ffc9a7146117ce57508063075b143e146116f657806311f03a4d146116aa578063248a9ca3146116705780632da63103146111115780632ea47822146110c55780632f2ff15d1461107a57806336568abe146110285780634b7449b914610bfa578063572b6c0514610bc45780636dca3b02146108ab5780636e1d616e146108705780637542ff95146108475780638802834e1461082957806391d14854146107d0578063a0af81f0146107a7578063a217fddf1461078b578063a8a65a7814610768578063c843dd9d146104cd578063ca37d26b146104a4578063cce94c3814610481578063ce1b815f1461045a578063d0c77a2f1461042c578063d547741f146103dd578063e2db774d146101d9578063e7705db61461019e578063f0ef6c53146101755763f7b2a7be1461015557600080fd5b346101725780600319360112610172576020600554604051908152f35b80fd5b50346101725780600319360112610172576007546040516001600160a01b039091168152602090f35b503461017257806003193601126101725760206040517f0ce23c3e399818cfee81a7ab0880f714e53d7672b08df0fa62f2843416e1ea098152f35b5034610172576020366003190112610172576004358152600260205260408120805467ffffffffffffffff81116103c9576040519061021e60208260051b01836118da565b80825291835260208084209082019284845b82821061030f57868587604051928392602084019060208552518091526040840160408260051b8601019392905b82821061026d57505050500390f35b919360019193955060208091603f1989820301855287519060e0610100816102f86102d8898060a01b0393848851168752848989015116898801526102ba604089015160408901906119a1565b6060808901519088015260809080828a0151928901528701906119ae565b60a060ff81890151169087015260c08088015190878303908801526119ae565b94015116910152960192019201859493919261025e565b60405161031b81611893565b84546001600160a01b03908116825260018601549081166020830152600560a082901c60ff1610156103b35760019260079260ff60209360a01c16604082015260028801546060820152610371600389016118fc565b608082015260ff60048901541660a082015261038f600589016118fc565b60c0820152848060a01b0360068901541660e0820152815201940191019092610230565b634e487b7160e01b600052602160045260246000fd5b634e487b7160e01b83526041600452602483fd5b5034610172576040366003190112610172576104286004356103fd611a04565b90808452600080516020611ec48339815191526020526104236001604086200154611c04565b611d8c565b5080f35b503461017257602036600319011261017257602061044b600435611b63565b61045860405180926119a1565bf35b5034610172578060031936011261017257546040516001600160a01b039091168152602090f35b50346101725760203660031901126101725761049b611bb9565b60043560065580f35b50346101725780600319360112610172576003546040516001600160a01b039091168152602090f35b50346101725760603660031901126101725760243560043567ffffffffffffffff60443581811161076457610506903690600401611a1a565b93908386526020926002845261052160408820548410611b21565b848752600284526105358360408920611827565b5060019060018101805460ff8160a01c166005811015610750578015908115610745575b50156107005789156106c95760ff60a01b1916600360a01b1790556005019187116106b55786906105948261058e8554611859565b85611aaa565b8890601f83116001146106275750916105eb827ff75d98aa7060d187f5a28e156b1b2424e35eb678dd34bc1133ad0f266b11012697969593610616958c9161061c575b508160011b916000199060031b1c19161790565b90555b6001600160a01b036105fe611e8f565b16966040805195869586528501526040840191611b00565b0390a380f35b9050840135386105d7565b91601f198116848b52878b20938b905b82821061069b575050917ff75d98aa7060d187f5a28e156b1b2424e35eb678dd34bc1133ad0f266b1101269796959391610616959310610681575b5050600188811b0190556105ee565b83013560001960038b901b60f8161c191690553880610672565b87850135865594850194938901938b935090890190610637565b634e487b7160e01b88526041600452602488fd5b60405162461bcd60e51b815260048101899052600f60248201526e1499585cdbdb881c995c5d5a5c9959608a1b6044820152606490fd5b60405162461bcd60e51b815260048101899052601c60248201527f43616e6e6f7420646973707574652061742074686973207374616765000000006044820152606490fd5b600191501438610559565b634e487b7160e01b8c52602160045260248cfd5b8480fd5b503461017257602036600319011261017257610782611bb9565b60043560055580f35b5034610172578060031936011261017257602090604051908152f35b50346101725780600319360112610172576001546040516001600160a01b039091168152602090f35b50346101725760403660031901126101725760406107ec611a04565b916004358152600080516020611ec4833981519152602052209060018060a01b0316600052602052602060ff604060002054166040519015158152f35b50346101725780600319360112610172576020600654604051908152f35b50346101725780600319360112610172576004546040516001600160a01b039091168152602090f35b503461017257806003193601126101725760206040517f59a1c48e5837ad7a7f3dcedcbe129bf3249ec4fbf651fd4f5e2600ead39fe2f58152f35b50346101725760e0366003190112610172576108c56119ee565b6108cd611a04565b6001600160a01b03919060448035848116929190839003610bbf57606492833591868316809303610bbf5760c43594878616809603610bbf577ff0c57e16840df040f15088dc2f81fe391c3923bec73e23a9662efc9c229c6a0097885460ff8160401c16159867ffffffffffffffff821680159081610bb7575b6001149081610bad575b159081610ba4575b50610b925767ffffffffffffffff1982166001178b5582918a610b73575b5016958615610b3c5716918215610afb578315610ac5578415610a8d578615610a5657505060ff875460401c1615610a44576001600160601b0360a01b9384600054161760005583600154161760015582600354161760035581600454161760045560843560055560a43560065560075416176007556109fd6109f8611e8f565b611c4b565b50610a06575080f35b68ff00000000000000001981541690557fc7f505b2f371ae2175ee4913f4499e1f2633a7b5936321eed1cdaeb6115181d2602060405160018152a180f35b604051631afcd79f60e31b8152600490fd5b72496e76616c69642062656e656669636961727960681b6040519162461bcd60e51b83526020600484015260136024840152820152fd5b7324b73b30b634b21029ba30b5b2a6b0b730b3b2b960611b6040519162461bcd60e51b83526020600484015260146024840152820152fd5b7124b73b30b634b21026a7a226103a37b5b2b760711b6040519162461bcd60e51b83526020600484015260126024840152820152fd5b7f496e76616c69642054656d706c617465526567697374727900000000000000006040519162461bcd60e51b83526020600484015260186024840152820152fd5b60405162461bcd60e51b815260206004820152601160248201527024b73b30b634b2103337b93bb0b93232b960791b818601528390fd5b68ffffffffffffffffff191668010000000000000001178b5538610977565b60405163f92ee8a960e01b8152600490fd5b90501538610959565b303b159150610951565b8b9150610947565b600080fd5b503461017257602036600319011261017257602090610be16119ee565b90546040516001600160a01b0392831691909216148152f35b503461017257606036600319011261017257602460448035906004359083358315158403610ea557610c2a611e8f565b927f0ce23c3e399818cfee81a7ab0880f714e53d7672b08df0fa62f2843416e1ea0994858852602095600080516020611ec48339815191528752604089209060018060a01b0380971691828b52885260ff60408b2054161561100c57505081885260028652610c9e60408920548410611b21565b81885260028652610cb28360408a20611827565b5092600184019360ff855460a01c166005811015610ff9578015908115610fee575b5015610fab578994939291908215610fa157610cf260045b86611a86565b876006610cfd611e8f565b920191166001600160601b0360a01b825416179055827f51eea25b75165aee28c7f42ee6df01337c6309f4244a12a76ca638eca5982bfd8989610d3e611e8f565b1693604051908152a315610eba57846001541690813b15610eb6578391888392604051968793849263218551c760e21b845260048401525af1928315610ea9578593610e8c575b5050541693858460055494610d9b881515611e10565b610da6861515611e4e565b60035416846040518094819363a9059cbb60e01b83528b600484015289888401525af1908115610e81578791610e47575b5015610e0c575050907f9a1627289da79485003f5648c535f257192c91674c605be6824027a48ebc3fd691604051908152a280f35b7514995dd85c99081d1c985b9cd9995c8819985a5b195960521b606492601686936040519462461bcd60e51b86526004860152840152820152fd5b90508481813d8311610e7a575b610e5e81836118da565b81010312610e7657518015158103610e765738610dd7565b8680fd5b503d610e54565b6040513d89823e3d90fd5b610e98919293506118c6565b610ea55782908638610d85565b8580fd5b50604051903d90823e3d90fd5b8380fd5b50839295949391505416938560065494610ed5871515611e10565b610ee0861515611e4e565b836004541692846007541693803b15610eb65783899189606494604051988997889663026822bd60e21b885260048801528601528401525af18015610f9657610f5c575b50916040917fb68a5ac007587c738ef712500f44ce64af45fa122117578d1f6f70a4dc12ae9c9360075416908351928352820152a280f35b917fb68a5ac007587c738ef712500f44ce64af45fa122117578d1f6f70a4dc12ae9c939195610f8c6040946118c6565b9591935091610f24565b6040513d88823e3d90fd5b610cf26002610cec565b60405162461bcd60e51b815260048101899052601d818b01527f4e6f7420656c696769626c6520666f7220766572696669636174696f6e00000081880152606490fd5b600391501438610cd4565b634e487b7160e01b8b526021600452898bfd5b859250886040519263e2517d3f60e01b84526004840152820152fd5b503461017257604036600319011261017257611042611a04565b6001600160a01b0380611053611e8f565b16908216036110685761042890600435611d8c565b60405163334bd91960e11b8152600490fd5b50346101725760403660031901126101725761042860043561109a611a04565b90808452600080516020611ec48339815191526020526110c06001604086200154611c04565b611cf6565b5034610172576020366003190112610172576110df6119ee565b6110e7611bb9565b6001600160a01b03166110fb811515611a48565b6001600160601b0360a01b600154161760015580f35b50346101725760803660031901126101725761112b611a04565b60443567ffffffffffffffff811161166c5761114b903690600401611a1a565b6064929192359160ff8316830361076457611164611e8f565b7f59a1c48e5837ad7a7f3dcedcbe129bf3249ec4fbf651fd4f5e2600ead39fe2f5808752600080516020611ec4833981519152602052604087209160018060a01b03169182885260205260ff6040882054161561164e5750506001600160a01b031680156116095781156115ce5760043585526002602052604085206111e8611e8f565b604051926111f584611893565b83526001600160a01b031660208301526040820186905242606083015267ffffffffffffffff83116115ba57604051611238601f8501601f1916602001826118da565b8381523684870111610e7657838660208301378660208583010152608083015260ff841660a083015260405180602081011067ffffffffffffffff6020830111176115a6576020810160405286815260c08301528560e0830152805490680100000000000000008210156115a657906112b691600182018155611827565b61159257815181546001600160a01b039182166001600160a01b03199182161783556020840151600184018054919093169116178155604083015190600582101561157e579061130591611a86565b60608201516002820155608082015180519067ffffffffffffffff82116106b557611340826113376003860154611859565b60038601611aaa565b602090601f831160011461150f576113709291899183611465575b50508160011b916000199060031b1c19161790565b60038201555b6004810160ff60a08401511660ff198254161790556005810160c083015180519067ffffffffffffffff82116114fb576113b48261058e8554611859565b602090601f831160011461147057827f95683ac8e92dc631cb270befe5ba3943d968560efbc682b727b47ab3ef6c579f979695936006959361140b938d926114655750508160011b916000199060031b1c19161790565b90555b60e090920151910180546001600160a01b0319166001600160a01b0392831617905560ff906114539061143f611e8f565b169560405193604085526040850191611b00565b9316602082015280600435930390a380f35b01519050388061135b565b838a5260208a209190601f1984168b5b8181106114e357509260019285927f95683ac8e92dc631cb270befe5ba3943d968560efbc682b727b47ab3ef6c579f9a99989660069896106114ca575b505050811b01905561140e565b015160001960f88460031b161c191690553880806114bd565b92936020600181928786015181550195019301611480565b634e487b7160e01b89526041600452602489fd5b9190600384018952602089209089935b601f1984168510611563576001945083601f1981161061154a575b505050811b016003820155611376565b015160001960f88460031b161c1916905538808061153a565b8181015183556020948501946001909301929091019061151f565b634e487b7160e01b88526021600452602488fd5b634e487b7160e01b86526004869052602486fd5b634e487b7160e01b87526041600452602487fd5b634e487b7160e01b86526041600452602486fd5b60405162461bcd60e51b815260206004820152601360248201527214995c1bdc9d08155492481c995c5d5a5c9959606a1b6044820152606490fd5b60405162461bcd60e51b815260206004820152601860248201527f496e76616c69642074656d706c617465206164647265737300000000000000006044820152606490fd5b604492506040519163e2517d3f60e01b835260048301526024820152fd5b8280fd5b503461017257602036600319011261017257600160406020926004358152600080516020611ec48339815191528452200154604051908152f35b5034610172576020366003190112610172576116c46119ee565b6116cc611bb9565b6001600160a01b03166116e0811515611a48565b6001600160601b0360a01b600754161760075580f35b5034610172576040366003190112610172576024356004358252600260205260408220805482101561166c5761172c9250611827565b5080546001820154600283015490926001600160a01b03926117c491908416906117b161175b600383016118fc565b60ff60048401541693876006611773600587016118fc565b950154169661179e6040519a8b9a610100948c52811660208c015260ff60408c019160a01c166119a1565b60608901528060808901528701906119ae565b9160a086015284820360c08601526119ae565b9060e08301520390f35b9050346118235760203660031901126118235760043563ffffffff60e01b811680910361166c5760209250637965db0b60e01b8114908115611812575b5015158152f35b6301ffc9a760e01b1490503861180b565b5080fd5b8054821015611843576000526007602060002091020190600090565b634e487b7160e01b600052603260045260246000fd5b90600182811c92168015611889575b602083101461187357565b634e487b7160e01b600052602260045260246000fd5b91607f1691611868565b610100810190811067ffffffffffffffff8211176118b057604052565b634e487b7160e01b600052604160045260246000fd5b67ffffffffffffffff81116118b057604052565b90601f8019910116810190811067ffffffffffffffff8211176118b057604052565b9060405191826000825461190f81611859565b9081845260209460019160018116908160001461197f5750600114611940575b50505061193e925003836118da565b565b600090815285812095935091905b81831061196757505061193e935082010138808061192f565b8554888401850152948501948794509183019161194e565b9250505061193e94925060ff191682840152151560051b82010138808061192f565b9060058210156103b35752565b919082519283825260005b8481106119da575050826000602080949584010152601f8019910116010190565b6020818301810151848301820152016119b9565b600435906001600160a01b0382168203610bbf57565b602435906001600160a01b0382168203610bbf57565b9181601f84011215610bbf5782359167ffffffffffffffff8311610bbf5760208381860195010111610bbf57565b15611a4f57565b60405162461bcd60e51b815260206004820152600f60248201526e496e76616c6964206164647265737360881b6044820152606490fd5b9060058110156103b357815460ff60a01b191660a09190911b60ff60a01b16179055565b90601f8111611ab857505050565b6000916000526020600020906020601f850160051c83019410611af6575b601f0160051c01915b828110611aeb57505050565b818155600101611adf565b9092508290611ad6565b908060209392818452848401376000828201840152601f01601f1916010190565b15611b2857565b60405162461bcd60e51b8152602060048201526013602482015272092dcecc2d8d2c840c2eac8d2e840d2dcc8caf606b1b6044820152606490fd5b6000526002602052604060002080548015611bb2576000198101908111611b9c57611b9260019160ff93611827565b50015460a01c1690565b634e487b7160e01b600052601160045260246000fd5b5050600090565b611bc1611e8f565b6001600160a01b031660008181527fb7db2dd08fcb62d0c9e08c51941cae53c267786a0b75803fb7960902fc8ef97d602052604081205460ff161561164e575050565b611c0c611e8f565b9080600052600080516020611ec483398151915260205260406000209160018060a01b0316918260005260205260ff604060002054161561164e575050565b6001600160a01b0390811660008181527fb7db2dd08fcb62d0c9e08c51941cae53c267786a0b75803fb7960902fc8ef97d6020526040812054909290600080516020611ec48339815191529060ff16611cf0578380526020526040832082845260205260408320600160ff19825416179055611cc5611e8f565b16917f2f8788117e7eff1d82e926ec794901d17c78024a50270940304540a733656f0d8180a4600190565b50505090565b6000818152600080516020611ec4833981519152602081815260408084206001600160a01b039687168086529252832054929490939260ff16611d85577f2f8788117e7eff1d82e926ec794901d17c78024a50270940304540a733656f0d918386526020526040852084865260205260408520600160ff19825416179055611d7c611e8f565b169380a4600190565b5050505090565b6000818152600080516020611ec4833981519152602081815260408084206001600160a01b039687168086529252832054929490939260ff1615611d85577ff6391f5c32d9c69d2a47ea670b442974b53935d1edc7fd64eb21e047a839171b91838652602052604085208486526020526040852060ff198154169055611d7c611e8f565b15611e1757565b60405162461bcd60e51b815260206004820152600f60248201526e24b73b30b634b21030bab234ba37b960891b6044820152606490fd5b15611e5557565b60405162461bcd60e51b81526020600482015260126024820152710416d6f756e74206d757374206265203e20360741b6044820152606490fd5b601436101580611eaf575b15611eab5736601319013560601c90565b3390565b506000546001600160a01b03163314611e9a56fe02dd7bc7dec4dceedda775e58dd541e08a116c6c53815c0bd028192f7b626800a26469706673582212207bb70f79c5776065e9756b888d9272066e22dc054e9798b7a2427cce19a616fb64736f6c63430008160033",
  "linkReferences": {},
  "deployedLinkReferences": {}
}