{
  "_format": "hh-sol-artifact-1",
  "contractName": "DeploymentManager",
  "sourceName": "contracts/DeploymentManager.sol",
  "abi": [
    {
      "inputs": [],
      "stateMutability": "nonpayable",
      "type": "constructor"
    },
    {
      "inputs": [],
      "name": "AccessControlBadConfirmation",
      "type": "error"
    },
    {
      "inputs": [
        {
          "internalType": "address",
          "name": "account",
          "type": "address"
        },
        {
          "internalType": "bytes32",
          "name": "neededRole",
          "type": "bytes32"
        }
      ],
      "name": "AccessControlUnauthorizedAccount",
      "type": "error"
    },
    {
      "inputs": [
        {
          "internalType": "address",
          "name": "target",
          "type": "address"
        }
      ],
      "name": "AddressEmptyCode",
      "type": "error"
    },
    {
      "inputs": [
        {
          "internalType": "address",
          "name": "implementation",
          "type": "address"
        }
      ],
      "name": "ERC1967InvalidImplementation",
      "type": "error"
    },
    {
      "inputs": [],
      "name": "ERC1967NonPayable",
      "type": "error"
    },
    {
      "inputs": [],
      "name": "FailedCall",
      "type": "error"
    },
    {
      "inputs": [],
      "name": "InvalidInitialization",
      "type": "error"
    },
    {
      "inputs": [],
      "name": "NotInitializing",
      "type": "error"
    },
    {
      "inputs": [],
      "name": "ReentrancyGuardReentrantCall",
      "type": "error"
    },
    {
      "inputs": [],
      "name": "UUPSUnauthorizedCallContext",
      "type": "error"
    },
    {
      "inputs": [
        {
          "internalType": "bytes32",
          "name": "slot",
          "type": "bytes32"
        }
      ],
      "name": "UUPSUnsupportedProxiableUUID",
      "type": "error"
    },
    {
      "anonymous": false,
      "inputs": [
        {
          "indexed": false,
          "internalType": "string",
          "name": "msg",
          "type": "string"
        }
      ],
      "name": "DebugLog",
      "type": "event"
    },
    {
      "anonymous": false,
      "inputs": [
        {
          "indexed": true,
          "internalType": "address",
          "name": "oldFeeManager",
          "type": "address"
        },
        {
          "indexed": true,
          "internalType": "address",
          "name": "newFeeManager",
          "type": "address"
        }
      ],
      "name": "FeeManagerUpdated",
      "type": "event"
    },
    {
      "anonymous": false,
      "inputs": [
        {
          "indexed": false,
          "internalType": "uint64",
          "name": "version",
          "type": "uint64"
        }
      ],
      "name": "Initialized",
      "type": "event"
    },
    {
      "anonymous": false,
      "inputs": [
        {
          "indexed": true,
          "internalType": "uint256",
          "name": "projectId",
          "type": "uint256"
        },
        {
          "indexed": false,
          "internalType": "string",
          "name": "templateId",
          "type": "string"
        },
        {
          "indexed": false,
          "internalType": "address",
          "name": "moduleAddress",
          "type": "address"
        }
      ],
      "name": "ModuleDeployed",
      "type": "event"
    },
    {
      "anonymous": false,
      "inputs": [
        {
          "indexed": true,
          "internalType": "uint256",
          "name": "projectId",
          "type": "uint256"
        },
        {
          "indexed": true,
          "internalType": "address",
          "name": "owner",
          "type": "address"
        },
        {
          "indexed": false,
          "internalType": "string",
          "name": "name",
          "type": "string"
        }
      ],
      "name": "ProjectCreated",
      "type": "event"
    },
    {
      "anonymous": false,
      "inputs": [
        {
          "indexed": true,
          "internalType": "bytes32",
          "name": "role",
          "type": "bytes32"
        },
        {
          "indexed": true,
          "internalType": "bytes32",
          "name": "previousAdminRole",
          "type": "bytes32"
        },
        {
          "indexed": true,
          "internalType": "bytes32",
          "name": "newAdminRole",
          "type": "bytes32"
        }
      ],
      "name": "RoleAdminChanged",
      "type": "event"
    },
    {
      "anonymous": false,
      "inputs": [
        {
          "indexed": true,
          "internalType": "bytes32",
          "name": "role",
          "type": "bytes32"
        },
        {
          "indexed": true,
          "internalType": "address",
          "name": "account",
          "type": "address"
        },
        {
          "indexed": true,
          "internalType": "address",
          "name": "sender",
          "type": "address"
        }
      ],
      "name": "RoleGranted",
      "type": "event"
    },
    {
      "anonymous": false,
      "inputs": [
        {
          "indexed": true,
          "internalType": "bytes32",
          "name": "role",
          "type": "bytes32"
        },
        {
          "indexed": true,
          "internalType": "address",
          "name": "account",
          "type": "address"
        },
        {
          "indexed": true,
          "internalType": "address",
          "name": "sender",
          "type": "address"
        }
      ],
      "name": "RoleRevoked",
      "type": "event"
    },
    {
      "anonymous": false,
      "inputs": [
        {
          "indexed": true,
          "internalType": "address",
          "name": "user",
          "type": "address"
        },
        {
          "indexed": true,
          "internalType": "address",
          "name": "instance",
          "type": "address"
        },
        {
          "indexed": false,
          "internalType": "bytes32",
          "name": "templateId",
          "type": "bytes32"
        }
      ],
      "name": "TemplateDeployed",
      "type": "event"
    },
    {
      "anonymous": false,
      "inputs": [
        {
          "indexed": true,
          "internalType": "address",
          "name": "oldFactory",
          "type": "address"
        },
        {
          "indexed": true,
          "internalType": "address",
          "name": "newFactory",
          "type": "address"
        }
      ],
      "name": "TemplateFactoryUpdated",
      "type": "event"
    },
    {
      "anonymous": false,
      "inputs": [
        {
          "indexed": true,
          "internalType": "address",
          "name": "oldTierSystem",
          "type": "address"
        },
        {
          "indexed": true,
          "internalType": "address",
          "name": "newTierSystem",
          "type": "address"
        }
      ],
      "name": "TierSystemUpdated",
      "type": "event"
    },
    {
      "anonymous": false,
      "inputs": [
        {
          "indexed": true,
          "internalType": "address",
          "name": "implementation",
          "type": "address"
        }
      ],
      "name": "Upgraded",
      "type": "event"
    },
    {
      "inputs": [],
      "name": "DEFAULT_ADMIN_ROLE",
      "outputs": [
        {
          "internalType": "bytes32",
          "name": "",
          "type": "bytes32"
        }
      ],
      "stateMutability": "view",
      "type": "function"
    },
    {
      "inputs": [],
      "name": "UPGRADER_ROLE",
      "outputs": [
        {
          "internalType": "bytes32",
          "name": "",
          "type": "bytes32"
        }
      ],
      "stateMutability": "view",
      "type": "function"
    },
    {
      "inputs": [],
      "name": "UPGRADE_INTERFACE_VERSION",
      "outputs": [
        {
          "internalType": "string",
          "name": "",
          "type": "string"
        }
      ],
      "stateMutability": "view",
      "type": "function"
    },
    {
      "inputs": [
        {
          "internalType": "string",
          "name": "name",
          "type": "string"
        }
      ],
      "name": "createProject",
      "outputs": [
        {
          "internalType": "uint256",
          "name": "projectId",
          "type": "uint256"
        }
      ],
      "stateMutability": "nonpayable",
      "type": "function"
    },
    {
      "inputs": [
        {
          "internalType": "uint256",
          "name": "projectId",
          "type": "uint256"
        }
      ],
      "name": "deleteProject",
      "outputs": [],
      "stateMutability": "nonpayable",
      "type": "function"
    },
    {
      "inputs": [
        {
          "internalType": "uint256",
          "name": "projectId",
          "type": "uint256"
        },
        {
          "internalType": "bytes32",
          "name": "templateId",
          "type": "bytes32"
        },
        {
          "internalType": "bytes",
          "name": "initData",
          "type": "bytes"
        },
        {
          "internalType": "string",
          "name": "metadata",
          "type": "string"
        }
      ],
      "name": "deployTemplateToProject",
      "outputs": [
        {
          "internalType": "address",
          "name": "clone",
          "type": "address"
        }
      ],
      "stateMutability": "nonpayable",
      "type": "function"
    },
    {
      "inputs": [
        {
          "internalType": "bytes32",
          "name": "templateId",
          "type": "bytes32"
        },
        {
          "internalType": "bytes",
          "name": "initData",
          "type": "bytes"
        }
      ],
      "name": "deployWithFee",
      "outputs": [
        {
          "internalType": "address",
          "name": "clone",
          "type": "address"
        }
      ],
      "stateMutability": "nonpayable",
      "type": "function"
    },
    {
      "inputs": [],
      "name": "emitDebug",
      "outputs": [],
      "stateMutability": "nonpayable",
      "type": "function"
    },
    {
      "inputs": [],
      "name": "feeManager",
      "outputs": [
        {
          "internalType": "contract IFeeManager",
          "name": "",
          "type": "address"
        }
      ],
      "stateMutability": "view",
      "type": "function"
    },
    {
      "inputs": [
        {
          "internalType": "uint256",
          "name": "projectId",
          "type": "uint256"
        }
      ],
      "name": "getProjectModules",
      "outputs": [
        {
          "components": [
            {
              "internalType": "bytes32",
              "name": "templateId",
              "type": "bytes32"
            },
            {
              "internalType": "address",
              "name": "deployedAddress",
              "type": "address"
            },
            {
              "internalType": "string",
              "name": "metadata",
              "type": "string"
            }
          ],
          "internalType": "struct DeploymentManager.Module[]",
          "name": "modules",
          "type": "tuple[]"
        }
      ],
      "stateMutability": "view",
      "type": "function"
    },
    {
      "inputs": [
        {
          "internalType": "bytes32",
          "name": "role",
          "type": "bytes32"
        }
      ],
      "name": "getRoleAdmin",
      "outputs": [
        {
          "internalType": "bytes32",
          "name": "",
          "type": "bytes32"
        }
      ],
      "stateMutability": "view",
      "type": "function"
    },
    {
      "inputs": [],
      "name": "getTemplateFactoryAddress",
      "outputs": [
        {
          "internalType": "address",
          "name": "",
          "type": "address"
        }
      ],
      "stateMutability": "view",
      "type": "function"
    },
    {
      "inputs": [
        {
          "internalType": "address",
          "name": "module",
          "type": "address"
        }
      ],
      "name": "getTemplateIdForModule",
      "outputs": [
        {
          "internalType": "bytes32",
          "name": "",
          "type": "bytes32"
        }
      ],
      "stateMutability": "view",
      "type": "function"
    },
    {
      "inputs": [],
      "name": "getTrustedForwarder",
      "outputs": [
        {
          "internalType": "address",
          "name": "forwarder",
          "type": "address"
        }
      ],
      "stateMutability": "view",
      "type": "function"
    },
    {
      "inputs": [
        {
          "internalType": "address",
          "name": "user",
          "type": "address"
        }
      ],
      "name": "getUserProjects",
      "outputs": [
        {
          "components": [
            {
              "internalType": "uint256",
              "name": "projectId",
              "type": "uint256"
            },
            {
              "internalType": "string",
              "name": "name",
              "type": "string"
            },
            {
              "internalType": "address",
              "name": "owner",
              "type": "address"
            },
            {
              "internalType": "address[]",
              "name": "moduleAddresses",
              "type": "address[]"
            }
          ],
          "internalType": "struct DeploymentManager.Project[]",
          "name": "projects",
          "type": "tuple[]"
        }
      ],
      "stateMutability": "view",
      "type": "function"
    },
    {
      "inputs": [
        {
          "internalType": "bytes32",
          "name": "role",
          "type": "bytes32"
        },
        {
          "internalType": "address",
          "name": "account",
          "type": "address"
        }
      ],
      "name": "grantRole",
      "outputs": [],
      "stateMutability": "nonpayable",
      "type": "function"
    },
    {
      "inputs": [
        {
          "internalType": "bytes32",
          "name": "role",
          "type": "bytes32"
        },
        {
          "internalType": "address",
          "name": "account",
          "type": "address"
        }
      ],
      "name": "hasRole",
      "outputs": [
        {
          "internalType": "bool",
          "name": "",
          "type": "bool"
        }
      ],
      "stateMutability": "view",
      "type": "function"
    },
    {
      "inputs": [
        {
          "internalType": "address",
          "name": "_templateFactory",
          "type": "address"
        },
        {
          "internalType": "address",
          "name": "_tierSystem",
          "type": "address"
        },
        {
          "internalType": "address",
          "name": "_feeManager",
          "type": "address"
        },
        {
          "internalType": "address",
          "name": "trustedForwarder",
          "type": "address"
        }
      ],
      "name": "initialize",
      "outputs": [],
      "stateMutability": "nonpayable",
      "type": "function"
    },
    {
      "inputs": [
        {
          "internalType": "address",
          "name": "forwarder",
          "type": "address"
        }
      ],
      "name": "isTrustedForwarder",
      "outputs": [
        {
          "internalType": "bool",
          "name": "",
          "type": "bool"
        }
      ],
      "stateMutability": "view",
      "type": "function"
    },
    {
      "inputs": [],
      "name": "proxiableUUID",
      "outputs": [
        {
          "internalType": "bytes32",
          "name": "",
          "type": "bytes32"
        }
      ],
      "stateMutability": "view",
      "type": "function"
    },
    {
      "inputs": [
        {
          "internalType": "bytes32",
          "name": "role",
          "type": "bytes32"
        },
        {
          "internalType": "address",
          "name": "callerConfirmation",
          "type": "address"
        }
      ],
      "name": "renounceRole",
      "outputs": [],
      "stateMutability": "nonpayable",
      "type": "function"
    },
    {
      "inputs": [
        {
          "internalType": "bytes32",
          "name": "role",
          "type": "bytes32"
        },
        {
          "internalType": "address",
          "name": "account",
          "type": "address"
        }
      ],
      "name": "revokeRole",
      "outputs": [],
      "stateMutability": "nonpayable",
      "type": "function"
    },
    {
      "inputs": [
        {
          "internalType": "bytes4",
          "name": "interfaceId",
          "type": "bytes4"
        }
      ],
      "name": "supportsInterface",
      "outputs": [
        {
          "internalType": "bool",
          "name": "",
          "type": "bool"
        }
      ],
      "stateMutability": "view",
      "type": "function"
    },
    {
      "inputs": [],
      "name": "templateFactory",
      "outputs": [
        {
          "internalType": "contract ITemplateFactory",
          "name": "",
          "type": "address"
        }
      ],
      "stateMutability": "view",
      "type": "function"
    },
    {
      "inputs": [],
      "name": "tierSystem",
      "outputs": [
        {
          "internalType": "contract ITierSystem",
          "name": "",
          "type": "address"
        }
      ],
      "stateMutability": "view",
      "type": "function"
    },
    {
      "inputs": [
        {
          "internalType": "address",
          "name": "newFeeManager",
          "type": "address"
        }
      ],
      "name": "updateFeeManager",
      "outputs": [],
      "stateMutability": "nonpayable",
      "type": "function"
    },
    {
      "inputs": [
        {
          "internalType": "address",
          "name": "newTemplateFactory",
          "type": "address"
        }
      ],
      "name": "updateTemplateFactory",
      "outputs": [],
      "stateMutability": "nonpayable",
      "type": "function"
    },
    {
      "inputs": [
        {
          "internalType": "address",
          "name": "newTierSystem",
          "type": "address"
        }
      ],
      "name": "updateTierSystem",
      "outputs": [],
      "stateMutability": "nonpayable",
      "type": "function"
    },
    {
      "inputs": [
        {
          "internalType": "address",
          "name": "newImplementation",
          "type": "address"
        },
        {
          "internalType": "bytes",
          "name": "data",
          "type": "bytes"
        }
      ],
      "name": "upgradeToAndCall",
      "outputs": [],
      "stateMutability": "payable",
      "type": "function"
    }
  ],
  "bytecode": "0x60a080604052346100cc57306080527ff0c57e16840df040f15088dc2f81fe391c3923bec73e23a9662efc9c229c6a009081549060ff8260401c166100bd57506001600160401b036002600160401b031982821601610078575b60405161266290816100d282396080518181816109e80152610aa20152f35b6001600160401b031990911681179091556040519081527fc7f505b2f371ae2175ee4913f4499e1f2633a7b5936321eed1cdaeb6115181d290602090a1388080610059565b63f92ee8a960e01b8152600490fd5b600080fdfe608080604052600436101561001357600080fd5b60003560e01c90816301ffc9a714611c89575080630e574c5514611a8d57806312e7d2a014611a0857806315ee4df1146117f35780631dc5314f14611735578063248a9ca3146116f95780632aa2fdf11461118d5780632f2ff15d14611141578063346383bf1461063457806336568abe146110f05780633ebe12e414610fcd5780634cd0cb2814610cce5780634f1ef28614610a5257806352d1902d146109d5578063572b6c05146109a057806362eb9c80146108dd5780636b52a17f1461087b57806391d1485414610821578063a217fddf14610805578063ad3cb1cc146107bb578063c6acd274146106fd578063ce1b815f146106d4578063d0fb0203146106ab578063d547741f1461065d578063d81e44e414610634578063e32e723c146103f6578063f72c0d8b146103bb578063f8c8765e1461018c5763f8caa7e51461015e57600080fd5b34610187576000366003190112610187576002546040516001600160a01b039091168152602090f35b600080fd5b34610187576080366003190112610187576101a5611d09565b6101ad611d1f565b6001600160a01b03916044358381169291908390036101875760643590848216809203610187577ff0c57e16840df040f15088dc2f81fe391c3923bec73e23a9662efc9c229c6a009384549560ff8760401c1615946001600160401b038816978815806103b4575b6001809a1490816103aa575b1590816103a1575b5061038f5767ffffffffffffffff1981168917885586610370575b50841561031f57610253612548565b61025b612548565b610263612548565b61026b612548565b8760008051602061260d83398151915255610284612548565b816bffffffffffffffffffffffff60a01b9416848954161788551682600254161760025581600354161760035560005416176000556102c96102c4612514565b612295565b506102da6102d5612514565b612340565b506102e157005b805468ff0000000000000000191690556040519081527fc7f505b2f371ae2175ee4913f4499e1f2633a7b5936321eed1cdaeb6115181d290602090a1005b60405162461bcd60e51b8152602060048201526024808201527f5472757374656420666f72776172646572206164647265737320697320696e76604482015263185b1a5960e21b6064820152608490fd5b68ffffffffffffffffff19166801000000000000000117875588610244565b60405163f92ee8a960e01b8152600490fd5b9050158a610229565b303b159150610221565b5086610215565b346101875760003660031901126101875760206040517f189ab7a9244df0848122154315af71fe140f3db0fe014031783b0946b8c9d2e38152f35b3461018757602080600319360112610187576001600160a01b03908161041a611d09565b1660005260058152604060002080546104328161209e565b916104406040519384611dc6565b81835261044c8261209e565b601f190160005b8181106105fd57505060005b8281106105375750505060405192828493840190808552835180925260408501928160408460051b8801019501936000915b84831061049e5787870388f35b91939583959750603f939193198982030184528751906104cf60808351835284840151908086850152830190611d35565b90846040840151166040820152606080930151928183039101528280835192838152019201906000905b80821061051c575050509080600192980193019301909287969593949294610491565b919380600192948787511681520194019201879392916104f9565b610545818397959697612086565b9054600391821b1c6000526006875260406000206040519161056683611d90565b815483526001916105788382016120b5565b8a8501528760028201541660408501520160405180928a83549283815201926000528a600020916000905b8c8183106105e6575050505050906105c18160019594930382611dc6565b60608201526105d082886121a1565b526105db81876121a1565b50019493929461045f565b84548c1686529094019392820192908201906105a3565b948096949560405161060e81611d90565b600081526060808483015260006040830152808201528282890101520195949395610453565b34610187576000366003190112610187576001546040516001600160a01b039091168152602090f35b34610187576040366003190112610187576106a960043561067c611d1f565b90806000526000805160206125ed8339815191526020526106a460016040600020015461224e565b612494565b005b34610187576000366003190112610187576003546040516001600160a01b039091168152602090f35b34610187576000366003190112610187576000546040516001600160a01b039091168152602090f35b3461018757602036600319011261018757610716611d09565b61071e6121e5565b6001600160a01b0390811690811561076c57816003549182167fe139a19f7890c89603e0d013fb99aed7d286ef55ef5a092ddd2980a3afd2138d600080a36001600160a01b03191617600355005b60405162461bcd60e51b815260206004820152602160248201527f4e6577204665654d616e61676572206164647265737320697320696e76616c696044820152601960fa1b6064820152608490fd5b34610187576000366003190112610187576108016040516107db81611dab565b60058152640352e302e360dc1b6020820152604051918291602083526020830190611d35565b0390f35b3461018757600036600319011261018757602060405160008152f35b346101875760403660031901126101875761083a611d1f565b6004356000526000805160206125ed83398151915260205260406000209060018060a01b0316600052602052602060ff604060002054166040519015158152f35b34610187576000366003190112610187577f4be5e2ddd7b814bfc07153581bbbda6ea3d62d61c270f9788cae2f0297e18ae8606060405160208152601460208201527313995dc81d995c9cda5bdb8819195c1b1bde595960621b6040820152a1005b34610187576020366003190112610187576108f6611d09565b6108fe6121e5565b6001600160a01b0390811690811561094c57816001549182167f8cf6a04e7310d6a4c1d321a291f8fa36181a73ce2e90f1dcd19e59e528fd5dc9600080a36001600160a01b03191617600155005b60405162461bcd60e51b815260206004820152602660248201527f4e65772054656d706c617465466163746f7279206164647265737320697320696044820152651b9d985b1a5960d21b6064820152608490fd5b346101875760203660031901126101875760206109bb611d09565b6000546040516001600160a01b0392831691909216148152f35b34610187576000366003190112610187577f00000000000000000000000000000000000000000000000000000000000000006001600160a01b03163003610a405760206040517f360894a13ba1a3210667c828492db98dca3e2076cc3735a920a3ca505d382bbc8152f35b60405163703e46dd60e11b8152600490fd5b604036600319011261018757610a66611d09565b60249081356001600160401b038111610187573660238201121561018757610a979036908481600401359101611e02565b6001600160a01b03917f00000000000000000000000000000000000000000000000000000000000000008316308114908115610ca0575b50610a4057610adb612514565b831660008181527fab71e3f32666744d246edff3f96e4bdafee2e9867098cdd118a979a7464786a86020908152604090912054909491907f189ab7a9244df0848122154315af71fe140f3db0fe014031783b0946b8c9d2e39060ff1615610c835750508116926040516352d1902d60e01b81528181600481885afa60009181610c54575b50610b7c57604051634c9c8ce360e01b8152600481018690528690fd5b8490867f360894a13ba1a3210667c828492db98dca3e2076cc3735a920a3ca505d382bbc91828103610c3f5750843b15610c29575080546001600160a01b03191682179055604051907fbc7cd75a20ee27fd9adebab32041f755214dbc6bffa90cc0225b39da2e5c2d3b600080a2835115610c0f575060008381926106a995519101845af4610c09611f35565b91612589565b9250505034610c1a57005b63b398979f60e01b8152600490fd5b604051634c9c8ce360e01b815260048101849052fd5b60405190632a87526960e21b82526004820152fd5b9091508281813d8311610c7c575b610c6c8183611dc6565b8101031261018757519087610b5f565b503d610c62565b60449250866040519263e2517d3f60e01b84526004840152820152fd5b9050837f360894a13ba1a3210667c828492db98dca3e2076cc3735a920a3ca505d382bbc5416141585610ace565b34610187576020806003193601126101875760043590610cec6121b5565b816000526006815260406000209060018060a01b039260028460028501541685610d14612514565b1603610f7e57610d28600180950154611fee565b15610f40578394610d37612514565b16600052600583526040600020846000905b610e7f575b505090809293506000526006835260406000209160008355610d71858401612158565b60006002840155600380930180546000825580610e64575b5050600052600783526040600020908154916000815582610e0f575b857f4be5e2ddd7b814bfc07153581bbbda6ea3d62d61c270f9788cae2f0297e18ae8606087601c604051918083528201527f50726f6a6563742064656c65746564207375636365737366756c6c79000000006040820152a160008051602061260d83398151915255005b82600302926003840403610e4e5760005283600020918201915b82811015610da557806000859255600087820155610e48838201612158565b01610e29565b634e487b7160e01b600052601160045260246000fd5b610e78916000528560002090810190612028565b8580610d89565b815480821015610f3a578490610e958385612086565b929054600393841b1c14610ead575050850185610d49565b9190939495965060001991828101908111610e4e57610edf610ed2610ef69286612086565b905490871b1c9285612086565b819391549060031b91821b91600019901b19161790565b905581548015610f2457810192610f0d8484612086565b81939154921b1b1916905555908392918580610d4e565b634e487b7160e01b600052603160045260246000fd5b50610d4e565b60405162461bcd60e51b8152600481018490526016602482015275141c9bda9958dd08191bd95cc81b9bdd08195e1a5cdd60521b6044820152606490fd5b60405162461bcd60e51b815260048101849052602160248201527f4f6e6c79207468652070726f6a656374206f776e65722063616e2064656c65746044820152606560f81b6064820152608490fd5b34610187576020806003193601126101875760043560005260078152604060002090815491610ffb8361209e565b926110096040519485611dc6565b8084528284018092600052836000206000915b8383106110a65750505050604051918083019381845251809452604083019360408160051b85010192916000955b8287106110575785850386f35b909192938280611096600193603f198a82030186528851604060609180518452878060a01b038682015116868501520151918160408201520190611d35565b960192019601959291909261104a565b6003866001926040999899516110bb81611d75565b85548152848060a01b038587015416838201526110da600287016120b5565b604082015281520192019201919095949561101c565b3461018757604036600319011261018757611109611d1f565b6001600160a01b038061111a612514565b169082160361112f576106a990600435612494565b60405163334bd91960e11b8152600490fd5b34610187576040366003190112610187576106a9600435611160611d1f565b90806000526000805160206125ed83398151915260205261118860016040600020015461224e565b61240e565b34610187576080366003190112610187576044356001600160401b038111610187576111bd903690600401611cdc565b906064356001600160401b038111610187576111dd903690600401611cdc565b926111e66121b5565b600435600090815260066020526040902060028101549093906001600160a01b0390811690611213612514565b160361169c576112266001850154611fee565b15611645576112386024351515611e39565b6002546001600160a01b0316602061124e612514565b604051635a2d572960e11b81526001600160a01b03909116600482015291829060249082905afa90811561160c576112da91602091600091611618575b506003546001600160a01b03166112a0612514565b60405163625fd85160e01b81526001600160a01b03909116600482015260ff90921660248301529092839190829060009082906044820190565b03925af190811561160c576000916115d7575b50906000926112fe84931515611e97565b61134a60018060a01b03600154169161133c6040519485926352876d8b60e11b60208501526024356024850152604060448501526064840191611f14565b03601f198101845283611dc6565b82602083519301915af161136561135f611f35565b91611f65565b80516001600160a01b039161138291810160209081019101611fcf565b16918260005260086020526024356040600020556003810154600160401b8110156115ab5760036113bb92600183018282015501612086565b81549060031b9084821b9160018060a01b03901b19161790556004356000526007602052611407604060002091604051946113f586611d75565b60243586528460208701523691611e02565b6040840152805490600160401b8210156115ab57600182018082558210156115c15760409160029160005260036020600020910201845181556001810160018060a01b036020870151166bffffffffffffffffffffffff60a01b82541617905501920151908151926001600160401b0384116115ab578361149460209561148e8454611fee565b8461203f565b8493601f8211600114611548576114c6929394829160009261153d575b50508160011b916000199060031b1c19161790565b90555b604051602435838201528281526114df81611dab565b7fcedd43909fe80016050e45e5dbd0dd3e7018b614fe8ccefb0e3610dbcdf5d70961151560405192604084526040840190611d35565b91838582015280600435930390a2600160008051602061260d83398151915255604051908152f35b0151905086806114b1565b601f1982169483600052866000209160005b87811061159457508360019596971061157b575b505050811b0190556114c9565b015160001960f88460031b161c1916905585808061156e565b91928860018192868501518155019401920161155a565b634e487b7160e01b600052604160045260246000fd5b634e487b7160e01b600052603260045260246000fd5b9190506020823d602011611604575b816115f360209383611dc6565b8101031261018757905160006112ed565b3d91506115e6565b6040513d6000823e3d90fd5b6116389150823d841161163e575b6116308183611dc6565b810190611e7e565b8861128b565b503d611626565b60405162461bcd60e51b815260206004820152602960248201527f50726f6a65637420646f6573206e6f742065786973743a20696e76616c6964206044820152681c1c9bda9958dd125960ba1b6064820152608490fd5b60405162461bcd60e51b815260206004820152602f60248201527f50726f6a656374206f776e6572206d69736d617463683a2063616c6c6572206960448201526e39903737ba103a34329037bbb732b960891b6064820152608490fd5b34610187576020366003190112610187576004356000526000805160206125ed8339815191526020526020600160406000200154604051908152f35b346101875760203660031901126101875761174e611d09565b6117566121e5565b6001600160a01b039081169081156117a457816002549182167f2971f5c9b80101ff2419623548fd61c507483f353d38c2fd4e431aa9bac6bc3d600080a36001600160a01b03191617600255005b60405162461bcd60e51b815260206004820152602160248201527f4e6577205469657253797374656d206164647265737320697320696e76616c696044820152601960fa1b6064820152608490fd5b3461018757602080600319360112610187576001600160401b0360043581811161018757611825903690600401611cdc565b9081156119c35760045460001991828214610e4e576001809201948560045585600052600687526040600020938685558385019186116115ab5785906118758261186f8554611fee565b8561203f565b600090601f8311600114611960575090806118a692600091611955575b508160011b916000199060031b1c19161790565b90555b60026118b3612514565b930180546001600160a01b0319166001600160a01b03948516179055826118d8612514565b16600052600586526040600020928354600160401b8110156115ab57611929610edf8289977f9d9ec461f162f3f4fdb9f6d189bfe13c59e48d8acd23a4c3bfcf7cc0fe4e84ed978995018155612086565b9055611933612514565b169361194a60405192839289845289840191611f14565b0390a3604051908152f35b90508401358a611892565b60008481528a812093508890601f198216905b8c898383106119ac5750505010611994575b5050508285811b0190556118a9565b60f88860031b161c1990840135169055878080611985565b868a0135885590960195948501948b935001611973565b60405162461bcd60e51b815260048101859052601860248201527f50726f6a656374206e616d6520697320726571756972656400000000000000006044820152606490fd5b34610187576020366003190112610187576001600160a01b03611a29611d09565b1660005260086020526040600020548015611a4957602090604051908152f35b606460405162461bcd60e51b815260206004820152602060248201527f54656d706c617465204944206e6f7420666f756e6420666f72206d6f64756c656044820152fd5b34610187576040366003190112610187576004356024356001600160401b03811161018757611ac0903690600401611cdc565b91611ac96121b5565b611ad4811515611e39565b611adc612514565b9160018060a01b0380600254169160405195635a2d572960e11b8752868387169485600483015281602460209a8b935afa801561160c57611b60978992600092611c6a575b5060035460405163625fd85160e01b81526001600160a01b03909216600483015260ff9092166024820152978891861690829060009082906044820190565b03925af1801561160c578796600091611c32575b5060007f5244239ee2f0e64cc64acf681cf90f096a5d6241ea6f090e68b27e280f1ac58294938782611c0d95611bac82961515611e97565b611bf08c611be28a60015416966040519485938401976352876d8b60e11b89526024850152604060448501526064840191611f14565b03601f198101835282611dc6565b51925af1611bff61135f611f35565b868082518301019101611fcf565b16938493604051908152a3600160008051602061260d83398151915255604051908152f35b87819594939892503d8311611c63575b611c4c8183611dc6565b810103126101875791518695919291906000611b74565b503d611c42565b611c82919250833d851161163e576116308183611dc6565b908a611b21565b34610187576020366003190112610187576004359063ffffffff60e01b821680920361018757602091637965db0b60e01b8114908115611ccb575b5015158152f35b6301ffc9a760e01b14905083611cc4565b9181601f84011215610187578235916001600160401b038311610187576020838186019501011161018757565b600435906001600160a01b038216820361018757565b602435906001600160a01b038216820361018757565b919082519283825260005b848110611d61575050826000602080949584010152601f8019910116010190565b602081830181015184830182015201611d40565b606081019081106001600160401b038211176115ab57604052565b608081019081106001600160401b038211176115ab57604052565b604081019081106001600160401b038211176115ab57604052565b90601f801991011681019081106001600160401b038211176115ab57604052565b6001600160401b0381116115ab57601f01601f191660200190565b929192611e0e82611de7565b91611e1c6040519384611dc6565b829481845281830111610187578281602093846000960137010152565b15611e4057565b60405162461bcd60e51b815260206004820152601660248201527515195b5c1b185d19481251081a5cc81a5b9d985b1a5960521b6044820152606490fd5b90816020910312610187575160ff811681036101875790565b15611e9e57565b60405162461bcd60e51b815260206004820152604260248201527f46656520636f6c6c656374696f6e206661696c65643a2075736572206d61792060448201527f6c61636b2073756666696369656e74204d4f444c206f72207065726d6973736960648201526137b760f11b608482015260a490fd5b908060209392818452848401376000828201840152601f01601f1916010190565b3d15611f60573d90611f4682611de7565b91611f546040519384611dc6565b82523d6000602084013e565b606090565b15611f6c57565b60405162461bcd60e51b815260206004820152603560248201527f54656d706c617465206465706c6f796d656e74206661696c65643a20666163746044820152741bdc9e4818d85b1b081d5b9cdd58d8d95cdcd99d5b605a1b6064820152608490fd5b9081602091031261018757516001600160a01b03811681036101875790565b90600182811c9216801561201e575b602083101461200857565b634e487b7160e01b600052602260045260246000fd5b91607f1691611ffd565b818110612033575050565b60008155600101612028565b9190601f811161204e57505050565b61207a926000526020600020906020601f840160051c8301931061207c575b601f0160051c0190612028565b565b909150819061206d565b80548210156115c15760005260206000200190600090565b6001600160401b0381116115ab5760051b60200190565b906040519182600082546120c881611fee565b9081845260209460019160018116908160001461213657506001146120f7575b50505061207a92500383611dc6565b600090815285812095935091905b81831061211e57505061207a93508201013880806120e8565b85548884018501529485019487945091830191612105565b9250505061207a94925060ff191682840152151560051b8201013880806120e8565b6121628154611fee565b908161216c575050565b81601f6000931160011461217e575055565b90808391825261219d601f60208420940160051c840160018501612028565b5555565b80518210156115c15760209160051b010190565b60008051602061260d83398151915260028154146121d35760029055565b604051633ee5aeb560e01b8152600490fd5b6121ed612514565b6001600160a01b031660008181527fb7db2dd08fcb62d0c9e08c51941cae53c267786a0b75803fb7960902fc8ef97d602052604081205460ff1615612230575050565b604492506040519163e2517d3f60e01b835260048301526024820152fd5b612256612514565b90806000526000805160206125ed83398151915260205260406000209160018060a01b0316918260005260205260ff6040600020541615612230575050565b6001600160a01b0390811660008181527fb7db2dd08fcb62d0c9e08c51941cae53c267786a0b75803fb7960902fc8ef97d60205260408120549092906000805160206125ed8339815191529060ff1661233a578380526020526040832082845260205260408320600160ff1982541617905561230f612514565b16917f2f8788117e7eff1d82e926ec794901d17c78024a50270940304540a733656f0d8180a4600190565b50505090565b6001600160a01b0390811660008181527fab71e3f32666744d246edff3f96e4bdafee2e9867098cdd118a979a7464786a8602052604081205490927f189ab7a9244df0848122154315af71fe140f3db0fe014031783b0946b8c9d2e3916000805160206125ed833981519152919060ff16612407577f2f8788117e7eff1d82e926ec794901d17c78024a50270940304540a733656f0d918386526020526040852084865260205260408520600160ff198254161790556123fe612514565b169380a4600190565b5050505090565b60008181526000805160206125ed833981519152602081815260408084206001600160a01b039687168086529252832054929490939260ff16612407577f2f8788117e7eff1d82e926ec794901d17c78024a50270940304540a733656f0d918386526020526040852084865260205260408520600160ff198254161790556123fe612514565b60008181526000805160206125ed833981519152602081815260408084206001600160a01b039687168086529252832054929490939260ff1615612407577ff6391f5c32d9c69d2a47ea670b442974b53935d1edc7fd64eb21e047a839171b91838652602052604085208486526020526040852060ff1981541690556123fe5b601436101580612534575b156125305736601319013560601c90565b3390565b506000546001600160a01b0316331461251f565b60ff7ff0c57e16840df040f15088dc2f81fe391c3923bec73e23a9662efc9c229c6a005460401c161561257757565b604051631afcd79f60e31b8152600490fd5b906125b0575080511561259e57805190602001fd5b60405163d6bda27560e01b8152600490fd5b815115806125e3575b6125c1575090565b604051639996b31560e01b81526001600160a01b039091166004820152602490fd5b50803b156125b956fe02dd7bc7dec4dceedda775e58dd541e08a116c6c53815c0bd028192f7b6268009b779b17422d0df92223018b32b4d1fa46e071723d6817e2486d003becc55f00a2646970667358221220deb3dc9153bde88f49ea0dcddd1165efb5d298e5f8e8b40db1c2d9cb4af7ab5064736f6c63430008160033",
  "linkReferences": {},
  "deployedLinkReferences": {}
}