{
  "_format": "hh-sol-artifact-1",
  "contractName": "MODLToken",
  "sourceName": "contracts/MODLToken.sol",
  "abi": [
    {
      "inputs": [
        {
          "internalType": "address",
          "name": "initialOwner",
          "type": "address"
        }
      ],
      "stateMutability": "nonpayable",
      "type": "constructor"
    },
    {
      "inputs": [],
      "name": "AccessControlBadConfirmation",
      "type": "error"
    },
    {
      "inputs": [
        {
          "internalType": "address",
          "name": "account",
          "type": "address"
        },
        {
          "internalType": "bytes32",
          "name": "neededRole",
          "type": "bytes32"
        }
      ],
      "name": "AccessControlUnauthorizedAccount",
      "type": "error"
    },
    {
      "inputs": [],
      "name": "CheckpointUnorderedInsertion",
      "type": "error"
    },
    {
      "inputs": [],
      "name": "ECDSAInvalidSignature",
      "type": "error"
    },
    {
      "inputs": [
        {
          "internalType": "uint256",
          "name": "length",
          "type": "uint256"
        }
      ],
      "name": "ECDSAInvalidSignatureLength",
      "type": "error"
    },
    {
      "inputs": [
        {
          "internalType": "bytes32",
          "name": "s",
          "type": "bytes32"
        }
      ],
      "name": "ECDSAInvalidSignatureS",
      "type": "error"
    },
    {
      "inputs": [
        {
          "internalType": "uint256",
          "name": "increasedSupply",
          "type": "uint256"
        },
        {
          "internalType": "uint256",
          "name": "cap",
          "type": "uint256"
        }
      ],
      "name": "ERC20ExceededSafeSupply",
      "type": "error"
    },
    {
      "inputs": [
        {
          "internalType": "address",
          "name": "spender",
          "type": "address"
        },
        {
          "internalType": "uint256",
          "name": "allowance",
          "type": "uint256"
        },
        {
          "internalType": "uint256",
          "name": "needed",
          "type": "uint256"
        }
      ],
      "name": "ERC20InsufficientAllowance",
      "type": "error"
    },
    {
      "inputs": [
        {
          "internalType": "address",
          "name": "sender",
          "type": "address"
        },
        {
          "internalType": "uint256",
          "name": "balance",
          "type": "uint256"
        },
        {
          "internalType": "uint256",
          "name": "needed",
          "type": "uint256"
        }
      ],
      "name": "ERC20InsufficientBalance",
      "type": "error"
    },
    {
      "inputs": [
        {
          "internalType": "address",
          "name": "approver",
          "type": "address"
        }
      ],
      "name": "ERC20InvalidApprover",
      "type": "error"
    },
    {
      "inputs": [
        {
          "internalType": "address",
          "name": "receiver",
          "type": "address"
        }
      ],
      "name": "ERC20InvalidReceiver",
      "type": "error"
    },
    {
      "inputs": [
        {
          "internalType": "address",
          "name": "sender",
          "type": "address"
        }
      ],
      "name": "ERC20InvalidSender",
      "type": "error"
    },
    {
      "inputs": [
        {
          "internalType": "address",
          "name": "spender",
          "type": "address"
        }
      ],
      "name": "ERC20InvalidSpender",
      "type": "error"
    },
    {
      "inputs": [
        {
          "internalType": "uint256",
          "name": "deadline",
          "type": "uint256"
        }
      ],
      "name": "ERC2612ExpiredSignature",
      "type": "error"
    },
    {
      "inputs": [
        {
          "internalType": "address",
          "name": "signer",
          "type": "address"
        },
        {
          "internalType": "address",
          "name": "owner",
          "type": "address"
        }
      ],
      "name": "ERC2612InvalidSigner",
      "type": "error"
    },
    {
      "inputs": [
        {
          "internalType": "uint256",
          "name": "timepoint",
          "type": "uint256"
        },
        {
          "internalType": "uint48",
          "name": "clock",
          "type": "uint48"
        }
      ],
      "name": "ERC5805FutureLookup",
      "type": "error"
    },
    {
      "inputs": [],
      "name": "ERC6372InconsistentClock",
      "type": "error"
    },
    {
      "inputs": [
        {
          "internalType": "address",
          "name": "account",
          "type": "address"
        },
        {
          "internalType": "uint256",
          "name": "currentNonce",
          "type": "uint256"
        }
      ],
      "name": "InvalidAccountNonce",
      "type": "error"
    },
    {
      "inputs": [],
      "name": "InvalidShortString",
      "type": "error"
    },
    {
      "inputs": [
        {
          "internalType": "uint8",
          "name": "bits",
          "type": "uint8"
        },
        {
          "internalType": "uint256",
          "name": "value",
          "type": "uint256"
        }
      ],
      "name": "SafeCastOverflowedUintDowncast",
      "type": "error"
    },
    {
      "inputs": [
        {
          "internalType": "string",
          "name": "str",
          "type": "string"
        }
      ],
      "name": "StringTooLong",
      "type": "error"
    },
    {
      "inputs": [
        {
          "internalType": "uint256",
          "name": "expiry",
          "type": "uint256"
        }
      ],
      "name": "VotesExpiredSignature",
      "type": "error"
    },
    {
      "anonymous": false,
      "inputs": [
        {
          "indexed": true,
          "internalType": "address",
          "name": "owner",
          "type": "address"
        },
        {
          "indexed": true,
          "internalType": "address",
          "name": "spender",
          "type": "address"
        },
        {
          "indexed": false,
          "internalType": "uint256",
          "name": "value",
          "type": "uint256"
        }
      ],
      "name": "Approval",
      "type": "event"
    },
    {
      "anonymous": false,
      "inputs": [
        {
          "indexed": true,
          "internalType": "address",
          "name": "delegator",
          "type": "address"
        },
        {
          "indexed": true,
          "internalType": "address",
          "name": "fromDelegate",
          "type": "address"
        },
        {
          "indexed": true,
          "internalType": "address",
          "name": "toDelegate",
          "type": "address"
        }
      ],
      "name": "DelegateChanged",
      "type": "event"
    },
    {
      "anonymous": false,
      "inputs": [
        {
          "indexed": true,
          "internalType": "address",
          "name": "delegate",
          "type": "address"
        },
        {
          "indexed": false,
          "internalType": "uint256",
          "name": "previousVotes",
          "type": "uint256"
        },
        {
          "indexed": false,
          "internalType": "uint256",
          "name": "newVotes",
          "type": "uint256"
        }
      ],
      "name": "DelegateVotesChanged",
      "type": "event"
    },
    {
      "anonymous": false,
      "inputs": [],
      "name": "EIP712DomainChanged",
      "type": "event"
    },
    {
      "anonymous": false,
      "inputs": [
        {
          "indexed": true,
          "internalType": "bytes32",
          "name": "role",
          "type": "bytes32"
        },
        {
          "indexed": true,
          "internalType": "bytes32",
          "name": "previousAdminRole",
          "type": "bytes32"
        },
        {
          "indexed": true,
          "internalType": "bytes32",
          "name": "newAdminRole",
          "type": "bytes32"
        }
      ],
      "name": "RoleAdminChanged",
      "type": "event"
    },
    {
      "anonymous": false,
      "inputs": [
        {
          "indexed": true,
          "internalType": "bytes32",
          "name": "role",
          "type": "bytes32"
        },
        {
          "indexed": true,
          "internalType": "address",
          "name": "account",
          "type": "address"
        },
        {
          "indexed": true,
          "internalType": "address",
          "name": "sender",
          "type": "address"
        }
      ],
      "name": "RoleGranted",
      "type": "event"
    },
    {
      "anonymous": false,
      "inputs": [
        {
          "indexed": true,
          "internalType": "bytes32",
          "name": "role",
          "type": "bytes32"
        },
        {
          "indexed": true,
          "internalType": "address",
          "name": "account",
          "type": "address"
        },
        {
          "indexed": true,
          "internalType": "address",
          "name": "sender",
          "type": "address"
        }
      ],
      "name": "RoleRevoked",
      "type": "event"
    },
    {
      "anonymous": false,
      "inputs": [
        {
          "indexed": true,
          "internalType": "address",
          "name": "from",
          "type": "address"
        },
        {
          "indexed": true,
          "internalType": "address",
          "name": "to",
          "type": "address"
        },
        {
          "indexed": false,
          "internalType": "uint256",
          "name": "value",
          "type": "uint256"
        }
      ],
      "name": "Transfer",
      "type": "event"
    },
    {
      "inputs": [],
      "name": "CLOCK_MODE",
      "outputs": [
        {
          "internalType": "string",
          "name": "",
          "type": "string"
        }
      ],
      "stateMutability": "view",
      "type": "function"
    },
    {
      "inputs": [],
      "name": "DEFAULT_ADMIN_ROLE",
      "outputs": [
        {
          "internalType": "bytes32",
          "name": "",
          "type": "bytes32"
        }
      ],
      "stateMutability": "view",
      "type": "function"
    },
    {
      "inputs": [],
      "name": "DOMAIN_SEPARATOR",
      "outputs": [
        {
          "internalType": "bytes32",
          "name": "",
          "type": "bytes32"
        }
      ],
      "stateMutability": "view",
      "type": "function"
    },
    {
      "inputs": [],
      "name": "MAX_SUPPLY",
      "outputs": [
        {
          "internalType": "uint256",
          "name": "",
          "type": "uint256"
        }
      ],
      "stateMutability": "view",
      "type": "function"
    },
    {
      "inputs": [],
      "name": "MINTER_ROLE",
      "outputs": [
        {
          "internalType": "bytes32",
          "name": "",
          "type": "bytes32"
        }
      ],
      "stateMutability": "view",
      "type": "function"
    },
    {
      "inputs": [
        {
          "internalType": "address",
          "name": "owner",
          "type": "address"
        },
        {
          "internalType": "address",
          "name": "spender",
          "type": "address"
        }
      ],
      "name": "allowance",
      "outputs": [
        {
          "internalType": "uint256",
          "name": "",
          "type": "uint256"
        }
      ],
      "stateMutability": "view",
      "type": "function"
    },
    {
      "inputs": [
        {
          "internalType": "address",
          "name": "spender",
          "type": "address"
        },
        {
          "internalType": "uint256",
          "name": "value",
          "type": "uint256"
        }
      ],
      "name": "approve",
      "outputs": [
        {
          "internalType": "bool",
          "name": "",
          "type": "bool"
        }
      ],
      "stateMutability": "nonpayable",
      "type": "function"
    },
    {
      "inputs": [
        {
          "internalType": "address",
          "name": "account",
          "type": "address"
        }
      ],
      "name": "balanceOf",
      "outputs": [
        {
          "internalType": "uint256",
          "name": "",
          "type": "uint256"
        }
      ],
      "stateMutability": "view",
      "type": "function"
    },
    {
      "inputs": [
        {
          "internalType": "uint256",
          "name": "value",
          "type": "uint256"
        }
      ],
      "name": "burn",
      "outputs": [],
      "stateMutability": "nonpayable",
      "type": "function"
    },
    {
      "inputs": [
        {
          "internalType": "address",
          "name": "account",
          "type": "address"
        },
        {
          "internalType": "uint256",
          "name": "value",
          "type": "uint256"
        }
      ],
      "name": "burnFrom",
      "outputs": [],
      "stateMutability": "nonpayable",
      "type": "function"
    },
    {
      "inputs": [
        {
          "internalType": "address",
          "name": "account",
          "type": "address"
        },
        {
          "internalType": "uint32",
          "name": "pos",
          "type": "uint32"
        }
      ],
      "name": "checkpoints",
      "outputs": [
        {
          "components": [
            {
              "internalType": "uint48",
              "name": "_key",
              "type": "uint48"
            },
            {
              "internalType": "uint208",
              "name": "_value",
              "type": "uint208"
            }
          ],
          "internalType": "struct Checkpoints.Checkpoint208",
          "name": "",
          "type": "tuple"
        }
      ],
      "stateMutability": "view",
      "type": "function"
    },
    {
      "inputs": [],
      "name": "clock",
      "outputs": [
        {
          "internalType": "uint48",
          "name": "",
          "type": "uint48"
        }
      ],
      "stateMutability": "view",
      "type": "function"
    },
    {
      "inputs": [],
      "name": "decimals",
      "outputs": [
        {
          "internalType": "uint8",
          "name": "",
          "type": "uint8"
        }
      ],
      "stateMutability": "view",
      "type": "function"
    },
    {
      "inputs": [
        {
          "internalType": "address",
          "name": "delegatee",
          "type": "address"
        }
      ],
      "name": "delegate",
      "outputs": [],
      "stateMutability": "nonpayable",
      "type": "function"
    },
    {
      "inputs": [
        {
          "internalType": "address",
          "name": "delegatee",
          "type": "address"
        },
        {
          "internalType": "uint256",
          "name": "nonce",
          "type": "uint256"
        },
        {
          "internalType": "uint256",
          "name": "expiry",
          "type": "uint256"
        },
        {
          "internalType": "uint8",
          "name": "v",
          "type": "uint8"
        },
        {
          "internalType": "bytes32",
          "name": "r",
          "type": "bytes32"
        },
        {
          "internalType": "bytes32",
          "name": "s",
          "type": "bytes32"
        }
      ],
      "name": "delegateBySig",
      "outputs": [],
      "stateMutability": "nonpayable",
      "type": "function"
    },
    {
      "inputs": [
        {
          "internalType": "address",
          "name": "account",
          "type": "address"
        }
      ],
      "name": "delegates",
      "outputs": [
        {
          "internalType": "address",
          "name": "",
          "type": "address"
        }
      ],
      "stateMutability": "view",
      "type": "function"
    },
    {
      "inputs": [],
      "name": "eip712Domain",
      "outputs": [
        {
          "internalType": "bytes1",
          "name": "fields",
          "type": "bytes1"
        },
        {
          "internalType": "string",
          "name": "name",
          "type": "string"
        },
        {
          "internalType": "string",
          "name": "version",
          "type": "string"
        },
        {
          "internalType": "uint256",
          "name": "chainId",
          "type": "uint256"
        },
        {
          "internalType": "address",
          "name": "verifyingContract",
          "type": "address"
        },
        {
          "internalType": "bytes32",
          "name": "salt",
          "type": "bytes32"
        },
        {
          "internalType": "uint256[]",
          "name": "extensions",
          "type": "uint256[]"
        }
      ],
      "stateMutability": "view",
      "type": "function"
    },
    {
      "inputs": [
        {
          "internalType": "uint256",
          "name": "timepoint",
          "type": "uint256"
        }
      ],
      "name": "getPastTotalSupply",
      "outputs": [
        {
          "internalType": "uint256",
          "name": "",
          "type": "uint256"
        }
      ],
      "stateMutability": "view",
      "type": "function"
    },
    {
      "inputs": [
        {
          "internalType": "address",
          "name": "account",
          "type": "address"
        },
        {
          "internalType": "uint256",
          "name": "timepoint",
          "type": "uint256"
        }
      ],
      "name": "getPastVotes",
      "outputs": [
        {
          "internalType": "uint256",
          "name": "",
          "type": "uint256"
        }
      ],
      "stateMutability": "view",
      "type": "function"
    },
    {
      "inputs": [
        {
          "internalType": "bytes32",
          "name": "role",
          "type": "bytes32"
        }
      ],
      "name": "getRoleAdmin",
      "outputs": [
        {
          "internalType": "bytes32",
          "name": "",
          "type": "bytes32"
        }
      ],
      "stateMutability": "view",
      "type": "function"
    },
    {
      "inputs": [
        {
          "internalType": "address",
          "name": "account",
          "type": "address"
        }
      ],
      "name": "getVotes",
      "outputs": [
        {
          "internalType": "uint256",
          "name": "",
          "type": "uint256"
        }
      ],
      "stateMutability": "view",
      "type": "function"
    },
    {
      "inputs": [
        {
          "internalType": "bytes32",
          "name": "role",
          "type": "bytes32"
        },
        {
          "internalType": "address",
          "name": "account",
          "type": "address"
        }
      ],
      "name": "grantRole",
      "outputs": [],
      "stateMutability": "nonpayable",
      "type": "function"
    },
    {
      "inputs": [
        {
          "internalType": "bytes32",
          "name": "role",
          "type": "bytes32"
        },
        {
          "internalType": "address",
          "name": "account",
          "type": "address"
        }
      ],
      "name": "hasRole",
      "outputs": [
        {
          "internalType": "bool",
          "name": "",
          "type": "bool"
        }
      ],
      "stateMutability": "view",
      "type": "function"
    },
    {
      "inputs": [
        {
          "internalType": "address",
          "name": "to",
          "type": "address"
        },
        {
          "internalType": "uint256",
          "name": "amount",
          "type": "uint256"
        }
      ],
      "name": "mint",
      "outputs": [],
      "stateMutability": "nonpayable",
      "type": "function"
    },
    {
      "inputs": [],
      "name": "name",
      "outputs": [
        {
          "internalType": "string",
          "name": "",
          "type": "string"
        }
      ],
      "stateMutability": "view",
      "type": "function"
    },
    {
      "inputs": [
        {
          "internalType": "address",
          "name": "owner",
          "type": "address"
        }
      ],
      "name": "nonces",
      "outputs": [
        {
          "internalType": "uint256",
          "name": "",
          "type": "uint256"
        }
      ],
      "stateMutability": "view",
      "type": "function"
    },
    {
      "inputs": [
        {
          "internalType": "address",
          "name": "account",
          "type": "address"
        }
      ],
      "name": "numCheckpoints",
      "outputs": [
        {
          "internalType": "uint32",
          "name": "",
          "type": "uint32"
        }
      ],
      "stateMutability": "view",
      "type": "function"
    },
    {
      "inputs": [
        {
          "internalType": "address",
          "name": "owner",
          "type": "address"
        },
        {
          "internalType": "address",
          "name": "spender",
          "type": "address"
        },
        {
          "internalType": "uint256",
          "name": "value",
          "type": "uint256"
        },
        {
          "internalType": "uint256",
          "name": "deadline",
          "type": "uint256"
        },
        {
          "internalType": "uint8",
          "name": "v",
          "type": "uint8"
        },
        {
          "internalType": "bytes32",
          "name": "r",
          "type": "bytes32"
        },
        {
          "internalType": "bytes32",
          "name": "s",
          "type": "bytes32"
        }
      ],
      "name": "permit",
      "outputs": [],
      "stateMutability": "nonpayable",
      "type": "function"
    },
    {
      "inputs": [
        {
          "internalType": "bytes32",
          "name": "role",
          "type": "bytes32"
        },
        {
          "internalType": "address",
          "name": "callerConfirmation",
          "type": "address"
        }
      ],
      "name": "renounceRole",
      "outputs": [],
      "stateMutability": "nonpayable",
      "type": "function"
    },
    {
      "inputs": [
        {
          "internalType": "bytes32",
          "name": "role",
          "type": "bytes32"
        },
        {
          "internalType": "address",
          "name": "account",
          "type": "address"
        }
      ],
      "name": "revokeRole",
      "outputs": [],
      "stateMutability": "nonpayable",
      "type": "function"
    },
    {
      "inputs": [
        {
          "internalType": "bytes4",
          "name": "interfaceId",
          "type": "bytes4"
        }
      ],
      "name": "supportsInterface",
      "outputs": [
        {
          "internalType": "bool",
          "name": "",
          "type": "bool"
        }
      ],
      "stateMutability": "view",
      "type": "function"
    },
    {
      "inputs": [],
      "name": "symbol",
      "outputs": [
        {
          "internalType": "string",
          "name": "",
          "type": "string"
        }
      ],
      "stateMutability": "view",
      "type": "function"
    },
    {
      "inputs": [],
      "name": "totalSupply",
      "outputs": [
        {
          "internalType": "uint256",
          "name": "",
          "type": "uint256"
        }
      ],
      "stateMutability": "view",
      "type": "function"
    },
    {
      "inputs": [
        {
          "internalType": "address",
          "name": "to",
          "type": "address"
        },
        {
          "internalType": "uint256",
          "name": "value",
          "type": "uint256"
        }
      ],
      "name": "transfer",
      "outputs": [
        {
          "internalType": "bool",
          "name": "",
          "type": "bool"
        }
      ],
      "stateMutability": "nonpayable",
      "type": "function"
    },
    {
      "inputs": [
        {
          "internalType": "address",
          "name": "from",
          "type": "address"
        },
        {
          "internalType": "address",
          "name": "to",
          "type": "address"
        },
        {
          "internalType": "uint256",
          "name": "value",
          "type": "uint256"
        }
      ],
      "name": "transferFrom",
      "outputs": [
        {
          "internalType": "bool",
          "name": "",
          "type": "bool"
        }
      ],
      "stateMutability": "nonpayable",
      "type": "function"
    }
  ],
  "bytecode": "0x6101608060405234620000995760206200373280380380916200002282620000b4565b8439126200009957516001600160a01b0381168103620000995762000047906200015f565b60405161257f9081620011538239608051816115ad015260a05181611668015260c05181611577015260e051816115fc0152610100518161162201526101205181610a0b01526101405181610a350152f35b600080fd5b634e487b7160e01b600052604160045260246000fd5b601f01601f1916610160908101906001600160401b03821190821017620000da57604052565b6200009e565b604081019081106001600160401b03821117620000da57604052565b604051906200010b82620000e0565b565b604051906200011c82620000e0565b60048252565b604051906200013182620000e0565b60018252565b604051906200014682620000e0565b600a82526926a7a226102a37b5b2b760b11b6020830152565b906200016a62000137565b916200017562000137565b92620001806200010d565b90602090631353d11360e21b828401526200019a62000122565b9180830193603160f81b8552875160018060401b038111620000da57620001ce81620001c860035462000313565b62000350565b82601f82116001146200028057816200021493926200020b926200010b9b9c60009262000274575b50508160011b916000199060031b1c19161790565b600355620004bc565b6200021f82620007ee565b610120526200022e83620008fe565b61014052815191012060e052519020610100524660a0526200024f62000a0b565b6080523060c0526200026181620005aa565b506200026d8162000640565b50620006f9565b015190503880620001f6565b6003600052601f198216997fc2575a0e9e593c00f959f8c92f12db2869c3395a3b0502d05e2516446f71f85b9a60005b818110620002fb57509a60019284926200021496956200010b9d9e10620002e1575b505050811b01600355620004bc565b015160001960f88460031b161c19169055388080620002d2565b838301518d556001909c019b928601928601620002b0565b90600182811c9216801562000345575b60208310146200032f57565b634e487b7160e01b600052602260045260246000fd5b91607f169162000323565b601f81116200035d575050565b60009060036000526020600020906020601f850160051c83019410620003a0575b601f0160051c01915b8281106200039457505050565b81815560010162000387565b90925082906200037e565b601f8111620003b8575050565b60009060046000526020600020906020601f850160051c83019410620003fb575b601f0160051c01915b828110620003ef57505050565b818155600101620003e2565b9092508290620003d9565b601f811162000413575050565b60009060056000526020600020906020601f850160051c8301941062000456575b601f0160051c01915b8281106200044a57505050565b8181556001016200043d565b909250829062000434565b601f81116200046e575050565b60009060066000526020600020906020601f850160051c83019410620004b1575b601f0160051c01915b828110620004a557505050565b81815560010162000498565b90925082906200048f565b80519091906001600160401b038111620000da57620004e881620004e260045462000313565b620003ab565b602080601f831160011462000522575081906200051d9394600092620002745750508160011b916000199060031b1c19161790565b600455565b6004600052601f198316949091907f8a35acfbc15ff81a39ae7d344fd709f28e8600b4aa8c65c6b64bfe7fe36bd19b926000905b8782106200059157505083600195961062000577575b505050811b01600455565b015160001960f88460031b161c191690553880806200056c565b8060018596829496860151815501950193019062000556565b6001600160a01b03811660009081527fdf7de25b7f1fd6d0b5205f0e18f1f35bd7b8d84cce336588d184533ce43a6f76602052604081205460ff166200063b57808052600b602090815260408083206001600160a01b038516600090815292529020805460ff1916600117905533916001600160a01b031690600080516020620036d28339815191528180a4600190565b905090565b6001600160a01b03811660009081527ff70e363b3d7895af770c4a138460777d52eebd3cb9962ccc6b58721f6127bbc860205260408120547f9f2df0fed2c77648de5860a4cc508cd0818c85b8b8a1ab4ceeef8d981c8956a69060ff16620006f357808252600b602090815260408084206001600160a01b038616600090815292529020805460ff1916600117905533926001600160a01b031691600080516020620036d28339815191529080a4600190565b50905090565b6001600160a01b0381168015620007d5576002546a52b7d2dcc80cd2e400000090818101809111620007cf576002556001600160a01b038316600090815260208190526040902090815401905560007fddf252ad1be2c89b69c2b068fc378daa952ba7f163c4a11628f55a4df523b3ef604051806200078781906a52b7d2dcc80cd2e4000000602083019252565b0390a36002546001600160d01b038111620007a857506200010b9062000b2e565b604051630e58ae9360e11b815260048101919091526001600160d01b036024820152604490fd5b62000b18565b60405163ec442f0560e01b815260006004820152602490fd5b90815160208082106000146200080f575050906200080c9062000a9b565b90565b6001600160401b038211620000da5762000836826200083060055462000313565b62000406565b602090601f831160011462000873575081906200086b9394600092620002745750508160011b916000199060031b1c19161790565b60055560ff90565b6005600052601f198316949091907f036b6384b5eca791c62761152d0c79bb0604c104a5fb6f4eb0703f3154bb3db0926000905b878210620008e5575050836001959610620008cb575b505050811b0160055560ff90565b015160001960f88460031b161c19169055388080620008bd565b80600185968294968601518155019501930190620008a7565b90815160208082106000146200091c575050906200080c9062000a9b565b6001600160401b038211620000da5762000943826200093d60065462000313565b62000461565b602090601f83116001146200098057508190620009789394600092620002745750508160011b916000199060031b1c19161790565b60065560ff90565b6006600052601f198316949091907ff652222313e28459528d920b65115c16c04f3efc82aaedc97be59f3f377c0d3f926000905b878210620009f2575050836001959610620009d8575b505050811b0160065560ff90565b015160001960f88460031b161c19169055388080620009ca565b80600185968294968601518155019501930190620009b4565b60e051610100516040519060208201927f8b73c3c69bb8fe3d512ecc4cf759cc79239f7b179b0ffacaa9a75d522b39400f8452604083015260608201524660808201523060a082015260a0815260c0810181811060018060401b03821117620000da5760405251902090565b60208151910151906020811062000a8c575090565b6000199060200360031b1b1690565b601f81511162000ab65762000ab08162000a77565b90511790565b6040519063305a27a960e01b82528160208060048301528251908160248401526000935b82851062000afe575050604492506000838284010152601f80199101168101030190fd5b848101820151868601604401529381019385935062000ada565b634e487b7160e01b600052601160045260246000fd5b65ffffffffffff9081431162000bfd57600a548062000bca575062000b666200010b9262000b5d60006200110b565b90431662000f42565b50506001600160a01b0390811690811562000bb8575b60086020527f5eff886ea0ce6ca488a3d6e336d6c0f75f46d19b42c06ce5ee98e42c96d256c75460009283526040909220548116911662000d08565b62000bc262000c1c565b505062000b7c565b91600019908382810111620007cf5762000b5d62000b66926200010b95600a600052602060002001015460301c6200110b565b6040516306dfcc6560e41b815260306004820152436024820152604490fd5b65ffffffffffff80431162000bfd57600a548062000c6a575060005b6001600160d01b039081166a52b7d2dcc80cd2e3ffffff1901908111620007cf5762000c6691431662000f42565b9091565b600019908082810111620007cf57600a60005201600080516020620036f2833981519152015460301c62000c38565b65ffffffffffff9081431162000bfd5780548062000ce457506000905b6001600160d01b039182166a52b7d2dcc80cd2e400000001918211620007cf5762000c66924316906200103e565b600019908082810111620007cf5782600052602060002001015460301c9062000cb6565b6001600160a01b03808316929190811690818414158062000e5b575b62000d30575b50505050565b8162000d9e575b50508162000d48575b808062000d2a565b6001600160a01b03166000908152600960205260409020600080516020620037128339815191529062000d7b9062000c99565b604080516001600160d01b039384168152919092166020820152a2388062000d40565b6001600160a01b0316600090815260096020526040902065ffffffffffff9081431162000bfd5780548062000e1d5750600080516020620037128339815191529162000dfa9162000df060006200112e565b914316906200103e565b604080516001600160d01b039384168152919092166020820152a2388062000d37565b91600019918383810111620007cf5762000df062000dfa93600080516020620037128339815191529583600052602060002001015460301c6200112e565b50600162000d24565b600019810191908211620007cf57565b600a549068010000000000000000821015620000da576001820180600a5582101562000ed657600a60005280516020919091015160301b65ffffffffffff191665ffffffffffff9190911617600080516020620036f283398151915290910155565b634e487b7160e01b600052603260045260246000fd5b90815468010000000000000000811015620000da576001810180845581101562000ed65760009283526020928390208251929093015160301b65ffffffffffff191665ffffffffffff9290921691909117910155565b600a5491929180156200100f5762000f5e62000f779162000e64565b600a600052600080516020620036f28339815191520190565b9081549165ffffffffffff9081841691831680831162000ffd5786920362000fbf5762000fb892509065ffffffffffff82549181199060301b169116179055565b60301c9190565b505062000ff79062000fe262000fd4620000fc565b65ffffffffffff9092168252565b6001600160d01b038516602082015262000e74565b62000fb8565b604051632520601d60e01b8152600490fd5b5062001038906200102362000fd4620000fc565b6001600160d01b038416602082015262000e74565b60009190565b80549293928015620010e15762001059620010669162000e64565b8260005260206000200190565b9182549265ffffffffffff9182851692811680841162000ffd57879303620010a8575062000fb892509065ffffffffffff82549181199060301b169116179055565b91505062000ff791620010cc620010be620000fc565b65ffffffffffff9093168352565b6001600160d01b038616602083015262000eec565b50906200103891620010f6620010be620000fc565b6001600160d01b038516602083015262000eec565b6001600160d01b039081166a52b7d2dcc80cd2e400000001908111620007cf5790565b6001600160d01b039081166a52b7d2dcc80cd2e3ffffff1901908111620007cf579056fe6080604052600436101561001257600080fd5b60003560e01c806301ffc9a71461024757806306fdde0314610242578063095ea7b31461023d57806318160ddd1461023857806323b872dd14610233578063248a9ca31461022e5780632f2ff15d14610229578063313ce5671461022457806332cb6b0c1461021f5780633644e5151461021a57806336568abe146102155780633a46b1a81461021057806340c10f191461020b57806342966c68146102065780634bf5d7e914610201578063587cde1e146101fc5780635c19a95c146101f75780636fcfff45146101f257806370a08231146101ed57806379cc6790146101e85780637ecebe00146101e357806384b0196e146101de5780638e539e8c146101d957806391d14854146101d457806391ddadf4146101cf57806395d89b41146101ca5780639ab24eb0146101c5578063a217fddf146101c0578063a9059cbb146101bb578063c3cda520146101b6578063d505accf146101b1578063d5391393146101ac578063d547741f146101a7578063dd62ed3e146101a25763f1127ed81461019d57600080fd5b611059565b611001565b610fc2565b610f87565b610e53565b610d8a565b610d44565b610d28565b610cdf565b610c37565b610c0b565b610bb9565b610aeb565b6109f0565b6109b6565b610986565b61094d565b6108e5565b6108c3565b610888565b6107f6565b6107d9565b610697565b6105af565b610568565b610545565b61051e565b610502565b6104c1565b610492565b61045a565b61043c565b61040b565b6102f6565b3461029d57602036600319011261029d5760043563ffffffff60e01b811680910361029d57602090637965db0b60e01b811490811561028c575b506040519015158152f35b6301ffc9a760e01b14905038610281565b600080fd5b919082519283825260005b8481106102ce575050826000602080949584010152601f8019910116010190565b6020818301810151848301820152016102ad565b9060206102f39281815201906102a2565b90565b3461029d576000806003193601126103dc5760405190806003549061031a82611122565b808552916020916001918281169081156103af5750600114610357575b61035386610347818803826111e7565b604051918291826102e2565b0390f35b9350600384527fc2575a0e9e593c00f959f8c92f12db2869c3395a3b0502d05e2516446f71f85b5b83851061039c575050505081016020016103478261035338610337565b805486860184015293820193810161037f565b90508695506103539693506020925061034794915060ff191682840152151560051b820101929338610337565b80fd5b600435906001600160a01b038216820361029d57565b602435906001600160a01b038216820361029d57565b3461029d57604036600319011261029d576104316104276103df565b60243590336119ed565b602060405160018152f35b3461029d57600036600319011261029d576020600254604051908152f35b3461029d57606036600319011261029d576104316104766103df565b61047e6103f5565b6044359161048d83338361124c565b611344565b3461029d57602036600319011261029d57600435600052600b6020526020600160406000200154604051908152f35b3461029d57604036600319011261029d576105006004356104e06103f5565b9080600052600b6020526104fb6001604060002001546114b9565b6114da565b005b3461029d57600036600319011261029d57602060405160128152f35b3461029d57600036600319011261029d5760206040516b033b2e3c9fd0803ce80000008152f35b3461029d57600036600319011261029d576020610560611574565b604051908152f35b3461029d57604036600319011261029d576105816103f5565b336001600160a01b0382160361059d576105009060043561168e565b60405163334bd91960e11b8152600490fd5b3461029d57604036600319011261029d576105c86103df565b6001600160a01b03166000908152600960205260408120906105eb602435611720565b9180548293816005811161063d575b50906020946106099284611c3e565b806106235750505b6040516001600160d01b039091168152f35b9161062f849293611761565b92815220015460301c610611565b9461064786611aaa565b8603958611610692576020956106099385875265ffffffffffff80838a8a20015416908516106000146106805750915b919250946105fa565b92915061068c90611209565b90610677565b61110c565b3461029d57604036600319011261029d576106b06103df565b6024356106bb61143d565b600254818101808211610692576b033b2e3c9fd0803ce80000001061079f576001600160a01b038316908115610786576106f8836106fd92611217565b600255565b6001600160a01b038316600090815260208181526040808320805486019055518481527fddf252ad1be2c89b69c2b068fc378daa952ba7f163c4a11628f55a4df523b3ef9190a3600254916001600160d01b0383116107605761050092506121e9565b604051630e58ae9360e11b8152600481018490526001600160d01b036024820152604490fd5b60405163ec442f0560e01b815260006004820152602490fd5b60405162461bcd60e51b81526020600482015260126024820152711353d1130e8818d85c08195e18d95959195960721b6044820152606490fd5b3461029d57602036600319011261029d5761050060043533611770565b3461029d57600036600319011261029d5761081043611a58565b65ffffffffffff8061082143611a58565b169116036108765761035360405161083881611172565b601d81527f6d6f64653d626c6f636b6e756d6265722666726f6d3d64656661756c7400000060208201526040519182916020835260208301906102a2565b6040516301bfc1c560e61b8152600490fd5b3461029d57602036600319011261029d5760206001600160a01b03806108ac6103df565b166000526008825260406000205416604051908152f35b3461029d57602036600319011261029d576105006108df6103df565b33611863565b3461029d57602036600319011261029d576001600160a01b036109066103df565b16600052600960205260406000205463ffffffff9081811161092e5760209160405191168152f35b604490604051906306dfcc6560e41b8252602060048301526024820152fd5b3461029d57602036600319011261029d57602061056061096b6103df565b6001600160a01b031660009081526020819052604090205490565b3461029d57604036600319011261029d576105006109a26103df565b602435906109b182338361124c565b611770565b3461029d57602036600319011261029d576001600160a01b036109d76103df565b1660005260076020526020604060002054604051908152f35b3461029d576000806003193601126103dc57610a8e90610a2f7f0000000000000000000000000000000000000000000000000000000000000000611df1565b90610a597f0000000000000000000000000000000000000000000000000000000000000000611ef2565b9060405191610a6783611193565b818352610a9c602091604051968796600f60f81b885260e0602089015260e08801906102a2565b9086820360408801526102a2565b904660608601523060808601528260a086015284820360c0860152602080855193848152019401925b828110610ad457505050500390f35b835185528695509381019392810192600101610ac5565b3461029d57602036600319011261029d57610b07600435611720565b600a54906000829160058411610b5d575b610b229350611bd5565b80610b34575060405160008152602090f35b610b3f602091611761565b600a60005260008051602061252a833981519152015460301c610611565b9192610b6881611aaa565b810390811161069257610b2293600a60005265ffffffffffff808360008051602061252a83398151915201541690851610600014610ba7575091610b18565b929150610bb390611209565b90610b18565b3461029d57604036600319011261029d57602060ff610bff610bd96103f5565b600435600052600b845260406000209060018060a01b0316600052602052604060002090565b54166040519015158152f35b3461029d57600036600319011261029d576020610c2743611a58565b65ffffffffffff60405191168152f35b3461029d576000806003193601126103dc57604051908060045490610c5b82611122565b808552916020916001918281169081156103af5750600114610c875761035386610347818803826111e7565b9350600484527f8a35acfbc15ff81a39ae7d344fd709f28e8600b4aa8c65c6b64bfe7fe36bd19b5b838510610ccc575050505081016020016103478261035338610337565b8054868601840152938201938101610caf565b3461029d57602036600319011261029d576001600160a01b03610d006103df565b166000526009602052602060018060d01b03610d1f604060002061192d565b16604051908152f35b3461029d57600036600319011261029d57602060405160008152f35b3461029d57604036600319011261029d57610431610d606103df565b6024359033611344565b6064359060ff8216820361029d57565b6084359060ff8216820361029d57565b3461029d5760c036600319011261029d57610da36103df565b60443590602435610db2610d6a565b834211610e3a57610e2e61050094610e35926040519060208201927fe48329057bfd03d55e49b547132e39cffd9c1820ad7b9d4c5307691425d15adf845260018060a01b0388166040840152866060840152608083015260808252610e16826111af565b610e2960a4359360843593519020611959565b61197f565b9182611997565b611863565b604051632341d78760e11b815260048101859052602490fd5b3461029d5760e036600319011261029d57610e6c6103df565b610e746103f5565b60443590606435610e83610d7a565b814211610f6e576001600160a01b0385811660008181526007602090815260409182902080546001810190915582517f6e71edae12b1b97f4d1f60370fef10105fa2faae0126114a169c64845d6126c99281019283529283019390935292861660608201526080810187905260a081019190915260c080820194909452928352610f27929091610f1460e0836111e7565b610e2960c4359360a43593519020611959565b6001600160a01b0384811690821603610f445750610500926119ed565b6040516325c0072360e11b81526001600160a01b0391821660048201529084166024820152604490fd5b60405163313c898160e11b815260048101839052602490fd5b3461029d57600036600319011261029d5760206040517f9f2df0fed2c77648de5860a4cc508cd0818c85b8b8a1ab4ceeef8d981c8956a68152f35b3461029d57604036600319011261029d57610500600435610fe16103f5565b9080600052600b602052610ffc6001604060002001546114b9565b61168e565b3461029d57604036600319011261029d57602061105061101f6103df565b6110276103f5565b6001600160a01b0391821660009081526001855260408082209290931681526020919091522090565b54604051908152f35b3461029d57604036600319011261029d576110726103df565b6024359063ffffffff8216820361029d57610353916110c291611093611233565b5061109c611233565b506001600160a01b031660009081526009602052604090206110bc611233565b506120ef565b50604051906110d082611172565b5465ffffffffffff811680835260309190911c60209283019081526040805192835290516001600160d01b031692820192909252918291820190565b634e487b7160e01b600052601160045260246000fd5b90600182811c92168015611152575b602083101461113c57565b634e487b7160e01b600052602260045260246000fd5b91607f1691611131565b634e487b7160e01b600052604160045260246000fd5b6040810190811067ffffffffffffffff82111761118e57604052565b61115c565b6020810190811067ffffffffffffffff82111761118e57604052565b60a0810190811067ffffffffffffffff82111761118e57604052565b60c0810190811067ffffffffffffffff82111761118e57604052565b90601f8019910116810190811067ffffffffffffffff82111761118e57604052565b906001820180921161069257565b9190820180921161069257565b6040519061123182611172565b565b6040519061124082611172565b60006020838281520152565b6001600160a01b0381811660008181526001602090815260408083208786168452909152902054929493929190600019831061128b575b505050505050565b84831061131557156112fc578216156112e3576112d7926112c091039360018060a01b03166000526001602052604060002090565b9060018060a01b0316600052602052604060002090565b55388080808080611283565b604051634a1406b160e11b815260006004820152602490fd5b60405163e602df0560e01b815260006004820152602490fd5b604051637dc7a0d960e11b81526001600160a01b03851660048201526024810184905260448101869052606490fd5b6001600160a01b03808216949392919085156114245782168015610786576001600160a01b038216600090815260208190526040902054958487106113f557846112319697036113a68460018060a01b03166000526000602052604060002090565b556001600160a01b0384166000908152602081815260409182902080548801905590518681527fddf252ad1be2c89b69c2b068fc378daa952ba7f163c4a11628f55a4df523b3ef9190a3612262565b60405163391434e360e21b81526001600160a01b03841660048201526024810188905260448101869052606490fd5b604051634b637e8f60e11b815260006004820152602490fd5b3360009081527ff70e363b3d7895af770c4a138460777d52eebd3cb9962ccc6b58721f6127bbc8602052604090207f9f2df0fed2c77648de5860a4cc508cd0818c85b8b8a1ab4ceeef8d981c8956a69060ff905b54161561149b5750565b6044906040519063e2517d3f60e01b82523360048301526024820152fd5b6000818152600b60209081526040808320338452909152902060ff90611491565b600090808252600b60205260ff61150684604085209060018060a01b0316600052602052604060002090565b541661156e57808252600b602090815260408084206001600160a01b038616600090815292529020805460ff1916600117905533926001600160a01b0316917f2f8788117e7eff1d82e926ec794901d17c78024a50270940304540a733656f0d9080a4600190565b50905090565b307f00000000000000000000000000000000000000000000000000000000000000006001600160a01b03161480611665575b156115cf577f000000000000000000000000000000000000000000000000000000000000000090565b60405160208101907f8b73c3c69bb8fe3d512ecc4cf759cc79239f7b179b0ffacaa9a75d522b39400f82527f000000000000000000000000000000000000000000000000000000000000000060408201527f000000000000000000000000000000000000000000000000000000000000000060608201524660808201523060a082015260a0815261165f816111cb565b51902090565b507f000000000000000000000000000000000000000000000000000000000000000046146115a6565b600090808252600b60205260ff6116ba84604085209060018060a01b0316600052602052604060002090565b54161561156e57808252600b602090815260408084206001600160a01b038616600090815292529020805460ff1916905533926001600160a01b0316917ff6391f5c32d9c69d2a47ea670b442974b53935d1edc7fd64eb21e047a839171b9080a4600190565b65ffffffffffff61173043611a58565b168082101561174357506102f390611a58565b6044925060405191637669fc0f60e11b835260048301526024820152fd5b60001981019190821161069257565b91906001600160a01b038084168015611424576001600160a01b038516600090815260208190526040902054948386106118325790602092916117cc856112319798039160018060a01b03166000526000602052604060002090565b558360025403600255604051848152817fddf252ad1be2c89b69c2b068fc378daa952ba7f163c4a11628f55a4df523b3ef6000958693a361181461180f8561211d565b6121b7565b50508252600860205260408181842054169280805220541690611c9f565b60405163391434e360e21b81526001600160a01b039190911660048201526024810186905260448101849052606490fd5b6001600160a01b03818116600081815260086020526040812080548685166001600160a01b031982168117909255611231969416946118e09390928691907f3134e8a2e6d97e929a7e54011ea5485d7d196dd5f0ba4d4ef95803e8e3fc257f9080a46001600160a01b031660009081526020819052604090205490565b91611c9f565b600a54806118f45750600090565b8060001981011161069257600a6000527fc65a7bb8d6351c1cf70c95a316cc6a92839c986682d98bc35f958f4883f9d2a7015460301c90565b80548061193b575050600090565b60001991818381011161069257600052602060002001015460301c90565b604290611964611574565b906040519161190160f01b8352600283015260228201522090565b916102f3939161198e93611fb2565b90929192612062565b6001600160a01b038116600090815260076020526040902080546001810190915590918190036119c5575050565b6040516301d4b62360e61b81526001600160a01b039092166004830152602482015260449150fd5b6001600160a01b0380821692919083156112fc5782169384156112e35780611a4e7f8c5be1e5ebec7d5bd14f71427d1e84f3dd0314c0f7b2291e5b200ac8c7c3b925946112c060209560018060a01b03166000526001602052604060002090565b55604051908152a3565b65ffffffffffff90818111611a6b571690565b604490604051906306dfcc6560e41b8252603060048301526024820152fd5b8115611a94570490565b634e487b7160e01b600052601260045260246000fd5b60018111156102f357600181600160801b811015611bc3575b611b6b611b61611b57611b4d611b43611b39611b7797600488600160401b611b729a1015611bb6575b640100000000811015611ba9575b62010000811015611b9c575b610100811015611b90575b6010811015611b84575b1015611b7c575b60030260011c611b32818b611a8a565b0160011c90565b611b32818a611a8a565b611b328189611a8a565b611b328188611a8a565b611b328187611a8a565b611b328186611a8a565b8093611a8a565b821190565b900390565b60011b611b22565b811c9160021b91611b1b565b60081c91811b91611b11565b60101c9160081b91611b06565b60201c9160101b91611afa565b60401c9160201b91611aec565b50600160401b9050608082901c611ac3565b905b828110611be357505090565b90918082169080831860011c820180921161069257600a60005265ffffffffffff808360008051602061252a83398151915201541690851610600014611c2c5750915b90611bd7565b929150611c3890611209565b90611c26565b91905b838210611c4e5750505090565b9091928083169080841860011c82018092116106925760008581526020902082015465ffffffffffff9081169084161015611c8d5750925b9190611c41565b939250611c9990611209565b91611c86565b6001600160a01b03808316939291908116908185141580611de8575b611cc7575b5050505050565b81611d4c575b505082611cdc575b8080611cc0565b6001600160a01b031660009081526009602052604090207fdec2bacdd2f05b59de34da9b523dff8be42e5e38e818c82fdb0bae774387a72491611d2991611d23909161211d565b90612150565b604080516001600160d01b039384168152919092166020820152a2388080611cd5565b6001600160a01b03166000908152600960205260409020611d6c8461211d565b611d7543611a58565b6001600160d01b03918280611d898661192d565b169116900392828411610692577fdec2bacdd2f05b59de34da9b523dff8be42e5e38e818c82fdb0bae774387a72493611dde92611dc59261246d565b6040805192851683529316602082015291829190820190565b0390a23880611ccd565b50831515611cbb565b60ff8114611e2f5760ff811690601f8211611e1d5760405191611e1383611172565b8252602082015290565b604051632cd44ac360e21b8152600490fd5b50604051600554816000611e4283611122565b80835292602090600190818116908115611ece5750600114611e6d575b50506102f3925003826111e7565b91509260056000527f036b6384b5eca791c62761152d0c79bb0604c104a5fb6f4eb0703f3154bb3db0936000925b828410611eb657506102f39450505081016020013880611e5f565b85548785018301529485019486945092810192611e9b565b915050602092506102f394915060ff191682840152151560051b8201013880611e5f565b60ff8114611f145760ff811690601f8211611e1d5760405191611e1383611172565b50604051600654816000611f2783611122565b80835292602090600190818116908115611ece5750600114611f515750506102f3925003826111e7565b91509260066000527ff652222313e28459528d920b65115c16c04f3efc82aaedc97be59f3f377c0d3f936000925b828410611f9a57506102f39450505081016020013880611e5f565b85548785018301529485019486945092810192611f7f565b91907f7fffffffffffffffffffffffffffffff5d576e7357a4501ddfe92f46681b20a0841161203657926020929160ff608095604051948552168484015260408301526060820152600092839182805260015afa1561202a5780516001600160a01b0381161561202157918190565b50809160019190565b604051903d90823e3d90fd5b50505060009160039190565b6004111561204c57565b634e487b7160e01b600052602160045260246000fd5b61206b81612042565b80612074575050565b61207d81612042565b600181036120975760405163f645eedf60e01b8152600490fd5b6120a081612042565b600281036120c15760405163fce698f760e01b815260048101839052602490fd5b806120cd600392612042565b146120d55750565b6040516335e2f38360e21b81526004810191909152602490fd5b80548210156121075760005260206000200190600090565b634e487b7160e01b600052603260045260246000fd5b6001600160d01b0390818111612131571690565b604490604051906306dfcc6560e41b825260d060048301526024820152fd5b9061215a43611a58565b6001600160d01b0391828061216e8661192d565b16911601918211610692576121829261246d565b9091565b61218f43611a58565b906001600160d01b039081806121a36118e6565b169116019081116106925761218291612384565b6121c043611a58565b906001600160d01b039081806121d46118e6565b16911690039081116106925761218291612384565b90611231916121ff6121fa8361211d565b612186565b50506001600160a01b0390811690811561224f575b60086020527f5eff886ea0ce6ca488a3d6e336d6c0f75f46d19b42c06ce5ee98e42c96d256c754600092835260409092205481169116611c9f565b61225b61180f8461211d565b5050612214565b61123192916001600160a01b039182169190819083156122ba575b169182156122a7575b60005260086020528060406000205416916000526040600020541690611c9f565b6122b361180f8561211d565b5050612286565b6122c66121fa8661211d565b505061227d565b600a5490600160401b82101561118e576001820180600a5582101561210757600a600052805160209091015160301b65ffffffffffff191665ffffffffffff919091161760008051602061252a83398151915290910155565b8054600160401b81101561118e57612343916001820181556120ef565b61236e57815160209092015160301b65ffffffffffff191665ffffffffffff92909216919091179055565b634e487b7160e01b600052600060045260246000fd5b600a5491929180156124435761239c6123b491611761565b600a60005260008051602061252a8339815191520190565b9081549165ffffffffffff90818416918316808311612431578692036123f9576123f292509065ffffffffffff82549181199060301b169116179055565b60301c9190565b505061242c9061241861240a611224565b65ffffffffffff9092168252565b6001600160d01b03851660208201526122cd565b6123f2565b604051632520601d60e01b8152600490fd5b506124679061245361240a611224565b6001600160d01b03841660208201526122cd565b60009190565b805492939280156125045761248461249191611761565b8260005260206000200190565b9182549265ffffffffffff91828516928116808411612431578793036124d057506123f292509065ffffffffffff82549181199060301b169116179055565b91505061242c916124f06124e2611224565b65ffffffffffff9093168352565b6001600160d01b0386166020830152612326565b5090612467916125156124e2611224565b6001600160d01b038516602083015261232656fec65a7bb8d6351c1cf70c95a316cc6a92839c986682d98bc35f958f4883f9d2a8a26469706673582212203da1f1291dc3e728ef9c46202ca8ad94c5a1b2f6053333ad68b4d9888bca5f0764736f6c634300081600332f8788117e7eff1d82e926ec794901d17c78024a50270940304540a733656f0dc65a7bb8d6351c1cf70c95a316cc6a92839c986682d98bc35f958f4883f9d2a8dec2bacdd2f05b59de34da9b523dff8be42e5e38e818c82fdb0bae774387a724",
  "linkReferences": {},
  "deployedLinkReferences": {}
}