{
  "_format": "hh-sol-artifact-1",
  "contractName": "TemplateRegistry",
  "sourceName": "contracts/TemplateRegistry.sol",
  "abi": [
    {
      "inputs": [],
      "stateMutability": "nonpayable",
      "type": "constructor"
    },
    {
      "inputs": [],
      "name": "AccessControlBadConfirmation",
      "type": "error"
    },
    {
      "inputs": [
        {
          "internalType": "address",
          "name": "account",
          "type": "address"
        },
        {
          "internalType": "bytes32",
          "name": "neededRole",
          "type": "bytes32"
        }
      ],
      "name": "AccessControlUnauthorizedAccount",
      "type": "error"
    },
    {
      "inputs": [
        {
          "internalType": "address",
          "name": "target",
          "type": "address"
        }
      ],
      "name": "AddressEmptyCode",
      "type": "error"
    },
    {
      "inputs": [
        {
          "internalType": "address",
          "name": "implementation",
          "type": "address"
        }
      ],
      "name": "ERC1967InvalidImplementation",
      "type": "error"
    },
    {
      "inputs": [],
      "name": "ERC1967NonPayable",
      "type": "error"
    },
    {
      "inputs": [],
      "name": "FailedCall",
      "type": "error"
    },
    {
      "inputs": [],
      "name": "InvalidInitialization",
      "type": "error"
    },
    {
      "inputs": [],
      "name": "NotInitializing",
      "type": "error"
    },
    {
      "inputs": [],
      "name": "UUPSUnauthorizedCallContext",
      "type": "error"
    },
    {
      "inputs": [
        {
          "internalType": "bytes32",
          "name": "slot",
          "type": "bytes32"
        }
      ],
      "name": "UUPSUnsupportedProxiableUUID",
      "type": "error"
    },
    {
      "anonymous": false,
      "inputs": [
        {
          "indexed": false,
          "internalType": "string",
          "name": "msg",
          "type": "string"
        }
      ],
      "name": "DebugUpgrade",
      "type": "event"
    },
    {
      "anonymous": false,
      "inputs": [
        {
          "indexed": false,
          "internalType": "uint64",
          "name": "version",
          "type": "uint64"
        }
      ],
      "name": "Initialized",
      "type": "event"
    },
    {
      "anonymous": false,
      "inputs": [
        {
          "indexed": true,
          "internalType": "bytes32",
          "name": "role",
          "type": "bytes32"
        },
        {
          "indexed": true,
          "internalType": "bytes32",
          "name": "previousAdminRole",
          "type": "bytes32"
        },
        {
          "indexed": true,
          "internalType": "bytes32",
          "name": "newAdminRole",
          "type": "bytes32"
        }
      ],
      "name": "RoleAdminChanged",
      "type": "event"
    },
    {
      "anonymous": false,
      "inputs": [
        {
          "indexed": true,
          "internalType": "bytes32",
          "name": "role",
          "type": "bytes32"
        },
        {
          "indexed": true,
          "internalType": "address",
          "name": "account",
          "type": "address"
        },
        {
          "indexed": true,
          "internalType": "address",
          "name": "sender",
          "type": "address"
        }
      ],
      "name": "RoleGranted",
      "type": "event"
    },
    {
      "anonymous": false,
      "inputs": [
        {
          "indexed": true,
          "internalType": "bytes32",
          "name": "role",
          "type": "bytes32"
        },
        {
          "indexed": true,
          "internalType": "address",
          "name": "account",
          "type": "address"
        },
        {
          "indexed": true,
          "internalType": "address",
          "name": "sender",
          "type": "address"
        }
      ],
      "name": "RoleRevoked",
      "type": "event"
    },
    {
      "anonymous": false,
      "inputs": [
        {
          "indexed": true,
          "internalType": "bytes32",
          "name": "templateId",
          "type": "bytes32"
        }
      ],
      "name": "TemplateDeprecated",
      "type": "event"
    },
    {
      "anonymous": false,
      "inputs": [
        {
          "indexed": true,
          "internalType": "bytes32",
          "name": "templateId",
          "type": "bytes32"
        },
        {
          "indexed": false,
          "internalType": "address",
          "name": "implementation",
          "type": "address"
        },
        {
          "indexed": false,
          "internalType": "string",
          "name": "name",
          "type": "string"
        },
        {
          "indexed": false,
          "internalType": "string",
          "name": "version",
          "type": "string"
        },
        {
          "indexed": false,
          "internalType": "address",
          "name": "author",
          "type": "address"
        }
      ],
      "name": "TemplateRegistered",
      "type": "event"
    },
    {
      "anonymous": false,
      "inputs": [
        {
          "indexed": true,
          "internalType": "bytes32",
          "name": "templateId",
          "type": "bytes32"
        },
        {
          "indexed": false,
          "internalType": "address",
          "name": "newImplementation",
          "type": "address"
        },
        {
          "indexed": false,
          "internalType": "string",
          "name": "newVersion",
          "type": "string"
        },
        {
          "indexed": false,
          "internalType": "string",
          "name": "newAuditHash",
          "type": "string"
        }
      ],
      "name": "TemplateUpdated",
      "type": "event"
    },
    {
      "anonymous": false,
      "inputs": [
        {
          "indexed": true,
          "internalType": "bytes32",
          "name": "templateId",
          "type": "bytes32"
        },
        {
          "indexed": false,
          "internalType": "address",
          "name": "verifier",
          "type": "address"
        }
      ],
      "name": "TemplateVerified",
      "type": "event"
    },
    {
      "anonymous": false,
      "inputs": [
        {
          "indexed": true,
          "internalType": "address",
          "name": "implementation",
          "type": "address"
        }
      ],
      "name": "Upgraded",
      "type": "event"
    },
    {
      "inputs": [],
      "name": "ADMIN_ROLE",
      "outputs": [
        {
          "internalType": "bytes32",
          "name": "",
          "type": "bytes32"
        }
      ],
      "stateMutability": "view",
      "type": "function"
    },
    {
      "inputs": [],
      "name": "DEFAULT_ADMIN_ROLE",
      "outputs": [
        {
          "internalType": "bytes32",
          "name": "",
          "type": "bytes32"
        }
      ],
      "stateMutability": "view",
      "type": "function"
    },
    {
      "inputs": [],
      "name": "UPGRADER_ROLE",
      "outputs": [
        {
          "internalType": "bytes32",
          "name": "",
          "type": "bytes32"
        }
      ],
      "stateMutability": "view",
      "type": "function"
    },
    {
      "inputs": [],
      "name": "UPGRADE_INTERFACE_VERSION",
      "outputs": [
        {
          "internalType": "string",
          "name": "",
          "type": "string"
        }
      ],
      "stateMutability": "view",
      "type": "function"
    },
    {
      "inputs": [],
      "name": "VERIFIER_ROLE",
      "outputs": [
        {
          "internalType": "bytes32",
          "name": "",
          "type": "bytes32"
        }
      ],
      "stateMutability": "view",
      "type": "function"
    },
    {
      "inputs": [
        {
          "internalType": "bytes32",
          "name": "templateId",
          "type": "bytes32"
        }
      ],
      "name": "deprecateTemplate",
      "outputs": [],
      "stateMutability": "nonpayable",
      "type": "function"
    },
    {
      "inputs": [],
      "name": "getAllTemplateIds",
      "outputs": [
        {
          "internalType": "bytes32[]",
          "name": "",
          "type": "bytes32[]"
        }
      ],
      "stateMutability": "view",
      "type": "function"
    },
    {
      "inputs": [
        {
          "internalType": "bytes32",
          "name": "role",
          "type": "bytes32"
        }
      ],
      "name": "getRoleAdmin",
      "outputs": [
        {
          "internalType": "bytes32",
          "name": "",
          "type": "bytes32"
        }
      ],
      "stateMutability": "view",
      "type": "function"
    },
    {
      "inputs": [
        {
          "internalType": "bytes32",
          "name": "templateId",
          "type": "bytes32"
        }
      ],
      "name": "getTemplate",
      "outputs": [
        {
          "components": [
            {
              "internalType": "address",
              "name": "implementation",
              "type": "address"
            },
            {
              "internalType": "string",
              "name": "name",
              "type": "string"
            },
            {
              "internalType": "string",
              "name": "version",
              "type": "string"
            },
            {
              "internalType": "address",
              "name": "author",
              "type": "address"
            },
            {
              "internalType": "bool",
              "name": "verified",
              "type": "bool"
            },
            {
              "internalType": "uint8",
              "name": "templateType",
              "type": "uint8"
            },
            {
              "internalType": "string",
              "name": "auditHash",
              "type": "string"
            }
          ],
          "internalType": "struct ITemplateRegistry.Template",
          "name": "",
          "type": "tuple"
        }
      ],
      "stateMutability": "view",
      "type": "function"
    },
    {
      "inputs": [],
      "name": "getTemplateCount",
      "outputs": [
        {
          "internalType": "uint256",
          "name": "",
          "type": "uint256"
        }
      ],
      "stateMutability": "view",
      "type": "function"
    },
    {
      "inputs": [
        {
          "internalType": "uint256",
          "name": "index",
          "type": "uint256"
        }
      ],
      "name": "getTemplateIdByIndex",
      "outputs": [
        {
          "internalType": "bytes32",
          "name": "",
          "type": "bytes32"
        }
      ],
      "stateMutability": "view",
      "type": "function"
    },
    {
      "inputs": [],
      "name": "getTrustedForwarder",
      "outputs": [
        {
          "internalType": "address",
          "name": "forwarder",
          "type": "address"
        }
      ],
      "stateMutability": "view",
      "type": "function"
    },
    {
      "inputs": [
        {
          "internalType": "bytes32",
          "name": "role",
          "type": "bytes32"
        },
        {
          "internalType": "address",
          "name": "account",
          "type": "address"
        }
      ],
      "name": "grantRole",
      "outputs": [],
      "stateMutability": "nonpayable",
      "type": "function"
    },
    {
      "inputs": [
        {
          "internalType": "bytes32",
          "name": "role",
          "type": "bytes32"
        },
        {
          "internalType": "address",
          "name": "account",
          "type": "address"
        }
      ],
      "name": "hasRole",
      "outputs": [
        {
          "internalType": "bool",
          "name": "",
          "type": "bool"
        }
      ],
      "stateMutability": "view",
      "type": "function"
    },
    {
      "inputs": [
        {
          "internalType": "address",
          "name": "trustedForwarder",
          "type": "address"
        }
      ],
      "name": "initialize",
      "outputs": [],
      "stateMutability": "nonpayable",
      "type": "function"
    },
    {
      "inputs": [
        {
          "internalType": "address",
          "name": "forwarder",
          "type": "address"
        }
      ],
      "name": "isTrustedForwarder",
      "outputs": [
        {
          "internalType": "bool",
          "name": "",
          "type": "bool"
        }
      ],
      "stateMutability": "view",
      "type": "function"
    },
    {
      "inputs": [],
      "name": "proxiableUUID",
      "outputs": [
        {
          "internalType": "bytes32",
          "name": "",
          "type": "bytes32"
        }
      ],
      "stateMutability": "view",
      "type": "function"
    },
    {
      "inputs": [
        {
          "internalType": "address",
          "name": "implementation",
          "type": "address"
        },
        {
          "internalType": "string",
          "name": "name",
          "type": "string"
        },
        {
          "internalType": "string",
          "name": "version",
          "type": "string"
        },
        {
          "internalType": "uint8",
          "name": "templateType",
          "type": "uint8"
        }
      ],
      "name": "registerTemplate",
      "outputs": [
        {
          "internalType": "bytes32",
          "name": "templateId",
          "type": "bytes32"
        }
      ],
      "stateMutability": "nonpayable",
      "type": "function"
    },
    {
      "inputs": [
        {
          "internalType": "bytes32",
          "name": "role",
          "type": "bytes32"
        },
        {
          "internalType": "address",
          "name": "callerConfirmation",
          "type": "address"
        }
      ],
      "name": "renounceRole",
      "outputs": [],
      "stateMutability": "nonpayable",
      "type": "function"
    },
    {
      "inputs": [
        {
          "internalType": "bytes32",
          "name": "role",
          "type": "bytes32"
        },
        {
          "internalType": "address",
          "name": "account",
          "type": "address"
        }
      ],
      "name": "revokeRole",
      "outputs": [],
      "stateMutability": "nonpayable",
      "type": "function"
    },
    {
      "inputs": [
        {
          "internalType": "bytes4",
          "name": "interfaceId",
          "type": "bytes4"
        }
      ],
      "name": "supportsInterface",
      "outputs": [
        {
          "internalType": "bool",
          "name": "",
          "type": "bool"
        }
      ],
      "stateMutability": "view",
      "type": "function"
    },
    {
      "inputs": [
        {
          "internalType": "bytes32",
          "name": "templateId",
          "type": "bytes32"
        },
        {
          "internalType": "address",
          "name": "newImplementation",
          "type": "address"
        },
        {
          "internalType": "string",
          "name": "newVersion",
          "type": "string"
        },
        {
          "internalType": "string",
          "name": "newAuditHash",
          "type": "string"
        }
      ],
      "name": "updateTemplate",
      "outputs": [],
      "stateMutability": "nonpayable",
      "type": "function"
    },
    {
      "inputs": [
        {
          "internalType": "address",
          "name": "newImplementation",
          "type": "address"
        },
        {
          "internalType": "bytes",
          "name": "data",
          "type": "bytes"
        }
      ],
      "name": "upgradeToAndCall",
      "outputs": [],
      "stateMutability": "payable",
      "type": "function"
    },
    {
      "inputs": [
        {
          "internalType": "bytes32",
          "name": "templateId",
          "type": "bytes32"
        }
      ],
      "name": "verifyTemplate",
      "outputs": [],
      "stateMutability": "nonpayable",
      "type": "function"
    }
  ],
  "bytecode": "0x60a080604052346100cc57306080527ff0c57e16840df040f15088dc2f81fe391c3923bec73e23a9662efc9c229c6a009081549060ff8260401c166100bd57506001600160401b036002600160401b031982821601610078575b604051611f0390816100d28239608051818181610f6a01526110410152f35b6001600160401b031990911681179091556040519081527fc7f505b2f371ae2175ee4913f4499e1f2633a7b5936321eed1cdaeb6115181d290602090a1388080610059565b63f92ee8a960e01b8152600490fd5b600080fdfe608080604052600436101561001357600080fd5b60003560e01c90816301ffc9a7146116b257508063248a9ca3146116765780632f2ff15d1461162a57806336568abe146115d95780633a5dd0c6146112965780634f1ef28614610ff25780635016959a14610fd457806352d1902d14610f57578063572b6c0514610f2257806373b9628014610ea157806375b238fc14610e665780638615471c14610dd257806391d1485414610d785780639757739b14610c10578063a217fddf14610bf4578063ad3cb1cc14610b98578063ae24ccbc14610ae2578063c4d66de814610964578063ce1b815f1461093b578063d547741f146108ed578063e1e9c3001461087b578063e4e7b5c3146101a2578063e7705db6146101675763f72c0d8b1461012757600080fd5b346101625760003660031901126101625760206040517f189ab7a9244df0848122154315af71fe140f3db0fe014031783b0946b8c9d2e38152f35b600080fd5b346101625760003660031901126101625760206040517f0ce23c3e399818cfee81a7ab0880f714e53d7672b08df0fa62f2843416e1ea098152f35b34610162576080366003190112610162576101bb61171b565b6024356001600160401b038111610162576101da903690600401611731565b6044929192356001600160401b038111610162576101fc903690600401611731565b909160ff6064351660643503610162576001600160a01b038416156108365780156108015781156107c95761022f611db5565b60405160208101916001600160601b0319809160601b1683524260348301528660601b1660548201528287606883013761029460698286868201818a6068830160008152370160ff60f81b60643560f81b166068820152036049810184520182611779565b5190206000818152600160205260409020549094906001600160a01b0316610784576102be611db5565b604051906102cb8261175e565b6001600160a01b03831682526102e236858a6117b5565b60208301526102f23686886117b5565b604083015260018060a01b031660608201526000608082015260ff6064351660a08201526040518060208101106001600160401b036020830111176105fe57602081016040526000815260c0820152856000526001602052604060002060018060a01b038251166001600160601b0360a01b82541617815560208201518051906001600160401b0382116105fe5761039a82610391600186015461186d565b600186016118a7565b602090601f8311600114610712576103cb929160009183610707575b50508160011b916000199060031b1c19161790565b60018201555b60408201518051906001600160401b0382116105fe57610401826103f8600286015461186d565b600286016118a7565b602090601f8311600114610692578260049360c09593610437936000926106875750508160011b916000199060031b1c19161790565b60028201555b6003810160018060a01b0360608601511681549060ff60a01b6080880151151560a01b169060ff60a81b60a089015160a81b169269ffffffffffffffffffff60b01b161717179055019101518051906001600160401b0382116105fe576104ae826104a8855461186d565b856118a7565b602090601f831160011461061f576104de9291600091836106145750508160011b916000199060031b1c19161790565b90555b60025495680100000000000000008710156105fe5761057e86957f566d3e4cd7949af5fca82ce5853971c4c7977c0ec51fe1adbd5648e9f5f8e7c39561052f8a600160209c016002556119c3565b81549060031b908a821b91600019901b191617905561057061054f611db5565b9460405197889760018060a01b0316885260808d89015260808801916118fd565b9185830360408701526118fd565b6001600160a01b0390911660608301520390a27f4d261fa58a322c8a1ebf4af41840e89ca50f7110b29070fd5eb4a8df081108c260806040518481526026858201527f54656d706c6174655265676973747279207570677261646564207375636365736040820152657366756c6c7960d01b6060820152a1604051908152f35b634e487b7160e01b600052604160045260246000fd5b015190508a806103b6565b90601f198316918460005260206000209260005b81811061066f5750908460019594939210610656575b505050811b0190556104e1565b015160001960f88460031b161c19169055898080610649565b92936020600181928786015181550195019301610633565b015190508d806103b6565b906002840160005260206000209160005b601f19851681106106ef57509260c0949260019260049583601f198116106106d6575b505050811b01600282015561043d565b015160001960f88460031b161c191690558c80806106c6565b919260206001819286850151815501940192016106a3565b015190508b806103b6565b9190600184016000526020600020906000935b601f1984168510610769576001945083601f19811610610750575b505050811b0160018201556103d1565b015160001960f88460031b161c191690558a8080610740565b81810151835560209485019460019093019290910190610725565b60405162461bcd60e51b815260206004820152601760248201527f54656d706c61746520616c7265616479206578697374730000000000000000006044820152606490fd5b60405162461bcd60e51b815260206004820152601060248201526f15995c9cda5bdb881c995c5d5a5c995960821b6044820152606490fd5b60405162461bcd60e51b815260206004820152600d60248201526c13985b59481c995c5d5a5c9959609a1b6044820152606490fd5b60405162461bcd60e51b815260206004820152601e60248201527f496e76616c696420696d706c656d656e746174696f6e206164647265737300006044820152606490fd5b34610162576020366003190112610162576004356002548110156108b2576108a46020916119c3565b90546040519160031b1c8152f35b60405162461bcd60e51b8152602060048201526013602482015272496e646578206f7574206f6620626f756e647360681b6044820152606490fd5b346101625760403660031901126101625761093960043561090c611705565b9080600052600080516020611eae833981519152602052610934600160406000200154611a79565b611d35565b005b34610162576000366003190112610162576000546040516001600160a01b039091168152602090f35b346101625760203660031901126101625761097d61171b565b7ff0c57e16840df040f15088dc2f81fe391c3923bec73e23a9662efc9c229c6a009081549060ff8260401c1615916001600160401b03811680159081610ada575b6001149081610ad0575b159081610ac7575b50610ab55767ffffffffffffffff198116600117845582610a96575b506109f5611de9565b6109fd611de9565b610a05611de9565b60018060a01b03166001600160601b0360a01b6000541617600055610a30610a2b611db5565b611ac0565b50610a41610a3c611db5565b611b59565b50610a52610a4d611db5565b611c15565b50610a5957005b68ff00000000000000001981541690557fc7f505b2f371ae2175ee4913f4499e1f2633a7b5936321eed1cdaeb6115181d2602060405160018152a1005b68ffffffffffffffffff191668010000000000000001178355836109ec565b60405163f92ee8a960e01b8152600490fd5b905015856109d0565b303b1591506109c8565b8491506109be565b3461016257600036600319011261016257604051806002548083526020809301809160026000527f405787fa12a823e0f2b7631cc41b3ba8828b3321ca811111fa75cd3aa3bb5ace9060005b86828210610b84578686610b4482880383611779565b604051928392818401908285525180915260408401929160005b828110610b6d57505050500390f35b835185528695509381019392810192600101610b5e565b835485529093019260019283019201610b2e565b346101625760003660031901126101625760405160408101908082106001600160401b038311176105fe57610bf09160405260058152640352e302e360dc1b60208201526040519182916020835260208301906117ec565b0390f35b3461016257600036600319011261016257602060405160008152f35b34610162576020806003193601126101625760043590604051610c328161175e565b6000815260608181848194015281604082015281810160009052608081016000905260a081016000905260c001528260005260018252600160a01b600190039283604060002054161515610c859061182c565b60005260018252604060002060405192610c9e8461175e565b815485168452610cb06001830161191e565b84820190815291610cc36002820161191e565b90604086019182528660038201549286880195828516875260808901938560a01c60ff161515855260a08a019560a81c60ff168652600401610d049061191e565b9560c08a019687526040519a8b9a828c525116908a0152516040890160e090526101008901610d32916117ec565b905190601f1997888a830301908a0152610d4b916117ec565b945116608087015251151560a08601525160ff1660c085015251918382030160e0840152610bf0916117ec565b3461016257604036600319011261016257610d91611705565b600435600052600080516020611eae83398151915260205260406000209060018060a01b0316600052602052602060ff604060002054166040519015158152f35b3461016257602036600319011261016257600435610dee611a10565b8060005260016020527fd6acedf1abaa6daab15f9d4a7876ae1319e048a64f8336efee52631966fb08a2602060018060a01b03610e338160406000205416151561182c565b60008481526001835260409020600301805460ff60a01b1916600160a01b179055610e5c611db5565b60405191168152a2005b346101625760003660031901126101625760206040517fa49807205ce4d355092ef5a8a18f56e8913cf4a201fbe287825b095693c217758152f35b3461016257602036600319011261016257600435610ebd611a10565b600081815260016020526040902054610ee0906001600160a01b0316151561182c565b6000818152600160205260408120600301805460ff60a01b191690557f92593f3d901a229dae348f6b1862d260d77c5359c73fc4f8dc12b36ab4b8aa379080a2005b34610162576020366003190112610162576020610f3d61171b565b6000546040516001600160a01b0392831691909216148152f35b34610162576000366003190112610162577f00000000000000000000000000000000000000000000000000000000000000006001600160a01b03163003610fc25760206040517f360894a13ba1a3210667c828492db98dca3e2076cc3735a920a3ca505d382bbc8152f35b60405163703e46dd60e11b8152600490fd5b34610162576000366003190112610162576020600254604051908152f35b60403660031901126101625761100661171b565b60249081356001600160401b03811161016257366023820112156101625761103790369084816004013591016117b5565b6001600160a01b037f00000000000000000000000000000000000000000000000000000000000000008116308114908115611268575b50610fc25761107a611db5565b811660008181527fab71e3f32666744d246edff3f96e4bdafee2e9867098cdd118a979a7464786a86020908152604090912054909291907f189ab7a9244df0848122154315af71fe140f3db0fe014031783b0946b8c9d2e39060ff161561124b5750508316926040516352d1902d60e01b81528281600481885afa6000918161121c575b5061111b57604051634c9c8ce360e01b8152600481018690528690fd5b8490867f360894a13ba1a3210667c828492db98dca3e2076cc3735a920a3ca505d382bbc918281036112075750833b156111f1575080546001600160a01b03191682179055604051907fbc7cd75a20ee27fd9adebab32041f755214dbc6bffa90cc0225b39da2e5c2d3b600080a28351156111d75750600080848461093996519101845af4903d156111ce573d6111b18161179a565b906111bf6040519283611779565b8152600081943d92013e611e2a565b60609250611e2a565b92505050346111e257005b63b398979f60e01b8152600490fd5b604051634c9c8ce360e01b815260048101849052fd5b60405190632a87526960e21b82526004820152fd5b9091508381813d8311611244575b6112348183611779565b81010312610162575190876110fe565b503d61122a565b60449250866040519263e2517d3f60e01b84526004840152820152fd5b9050817f360894a13ba1a3210667c828492db98dca3e2076cc3735a920a3ca505d382bbc541614158561106d565b34610162576080366003190112610162576004356112b2611705565b6001600160401b039190604435838111610162576112d4903690600401611731565b9390606435828111610162576112ee903690600401611731565b9190956112f9611a10565b8560005260019360209585875260018060a01b03906113208260406000205416151561182c565b169485156115945782156115585760008881528188526040902080546001600160a01b031916871781556002018284116105fe5761136884611362835461186d565b836118a7565b600084601f81116001146114f35780611397926000916114e8575b508160011b916000199060031b1c19161790565b90555b8760005280875260046040600020019185116105fe576113c4856113be845461186d565b846118a7565b600090601f8611600114611459575092849261143b9261142185611449987f9c4f71b43c2f3a66178e345001ec989ca3ea4d0816475443f4808627def3e6d19c9d9860009161144e57508160011b916000199060031b1c19161790565b90555b6060604051988998895288015260608701916118fd565b9184830360408601526118fd565b0390a2005b90508801358e611383565b90601f1986169083600052886000209160005b8181106114d357509287959261143b9592611449997f9c4f71b43c2f3a66178e345001ec989ca3ea4d0816475443f4808627def3e6d19d9e9996106114b9575b505085811b019055611424565b880135600019600389901b60f8161c191690558c806114ac565b8c830135845592840192918a01918a0161146c565b90508701358d611383565b50601f1985169082600052858a6000209260005b8c878383106115415750505010611527575b50508184811b01905561139a565b860135600019600387901b60f8161c191690558a80611519565b858c01358755909501949384019389935001611507565b60405162461bcd60e51b815260048101889052601460248201527313995dc81d995c9cda5bdb881c995c5d5a5c995960621b6044820152606490fd5b60405162461bcd60e51b815260048101889052601a60248201527f496e76616c6964206e657720696d706c656d656e746174696f6e0000000000006044820152606490fd5b34610162576040366003190112610162576115f2611705565b6001600160a01b0380611603611db5565b16908216036116185761093990600435611d35565b60405163334bd91960e11b8152600490fd5b3461016257604036600319011261016257610939600435611649611705565b9080600052600080516020611eae833981519152602052611671600160406000200154611a79565b611cc1565b3461016257602036600319011261016257600435600052600080516020611eae8339815191526020526020600160406000200154604051908152f35b34610162576020366003190112610162576004359063ffffffff60e01b821680920361016257602091637965db0b60e01b81149081156116f4575b5015158152f35b6301ffc9a760e01b149050836116ed565b602435906001600160a01b038216820361016257565b600435906001600160a01b038216820361016257565b9181601f84011215610162578235916001600160401b038311610162576020838186019501011161016257565b60e081019081106001600160401b038211176105fe57604052565b90601f801991011681019081106001600160401b038211176105fe57604052565b6001600160401b0381116105fe57601f01601f191660200190565b9291926117c18261179a565b916117cf6040519384611779565b829481845281830111610162578281602093846000960137010152565b919082519283825260005b848110611818575050826000602080949584010152601f8019910116010190565b6020818301810151848301820152016117f7565b1561183357565b60405162461bcd60e51b815260206004820152601260248201527115195b5c1b185d19481b9bdd08195e1a5cdd60721b6044820152606490fd5b90600182811c9216801561189d575b602083101461188757565b634e487b7160e01b600052602260045260246000fd5b91607f169161187c565b90601f81116118b557505050565b6000916000526020600020906020601f850160051c830194106118f3575b601f0160051c01915b8281106118e857505050565b8181556001016118dc565b90925082906118d3565b908060209392818452848401376000828201840152601f01601f1916010190565b906040519182600082546119318161186d565b908184526020946001916001811690816000146119a15750600114611962575b50505061196092500383611779565b565b600090815285812095935091905b8183106119895750506119609350820101388080611951565b85548884018501529485019487945091830191611970565b9250505061196094925060ff191682840152151560051b820101388080611951565b6002548110156119fa5760026000527f405787fa12a823e0f2b7631cc41b3ba8828b3321ca811111fa75cd3aa3bb5ace0190600090565b634e487b7160e01b600052603260045260246000fd5b611a18611db5565b6001600160a01b031660008181527fb7db2dd08fcb62d0c9e08c51941cae53c267786a0b75803fb7960902fc8ef97d602052604081205460ff1615611a5b575050565b604492506040519163e2517d3f60e01b835260048301526024820152fd5b611a81611db5565b9080600052600080516020611eae83398151915260205260406000209160018060a01b0316918260005260205260ff6040600020541615611a5b575050565b6001600160a01b0390811660008181527fb7db2dd08fcb62d0c9e08c51941cae53c267786a0b75803fb7960902fc8ef97d6020526040812054909290600080516020611eae8339815191529060ff16611b53578380526020526040832082845260205260408320600160ff19825416179055611b3a611db5565b1691600080516020611e8e8339815191528180a4600190565b50505090565b6001600160a01b0390811660008181527fab71e3f32666744d246edff3f96e4bdafee2e9867098cdd118a979a7464786a8602052604081205490927f189ab7a9244df0848122154315af71fe140f3db0fe014031783b0946b8c9d2e391600080516020611eae833981519152919060ff16611c0e57600080516020611e8e833981519152918386526020526040852084865260205260408520600160ff19825416179055611c05611db5565b169380a4600190565b5050505090565b6001600160a01b0390811660008181527fd56b761303e15a4cbea84f37eba80a5289f49fda0b4884e30ac1d73eb9b8b143602052604081205490927f0ce23c3e399818cfee81a7ab0880f714e53d7672b08df0fa62f2843416e1ea0991600080516020611eae833981519152919060ff16611c0e57600080516020611e8e833981519152918386526020526040852084865260205260408520600160ff19825416179055611c05611db5565b6000818152600080516020611eae833981519152602081815260408084206001600160a01b039687168086529252832054929490939260ff16611c0e57600080516020611e8e833981519152918386526020526040852084865260205260408520600160ff19825416179055611c05611db5565b6000818152600080516020611eae833981519152602081815260408084206001600160a01b039687168086529252832054929490939260ff1615611c0e577ff6391f5c32d9c69d2a47ea670b442974b53935d1edc7fd64eb21e047a839171b91838652602052604085208486526020526040852060ff198154169055611c055b601436101580611dd5575b15611dd15736601319013560601c90565b3390565b506000546001600160a01b03163314611dc0565b60ff7ff0c57e16840df040f15088dc2f81fe391c3923bec73e23a9662efc9c229c6a005460401c1615611e1857565b604051631afcd79f60e31b8152600490fd5b90611e515750805115611e3f57805190602001fd5b60405163d6bda27560e01b8152600490fd5b81511580611e84575b611e62575090565b604051639996b31560e01b81526001600160a01b039091166004820152602490fd5b50803b15611e5a56fe2f8788117e7eff1d82e926ec794901d17c78024a50270940304540a733656f0d02dd7bc7dec4dceedda775e58dd541e08a116c6c53815c0bd028192f7b626800a2646970667358221220f135195ed6e92237230904595ecd60ec0b981681ea10dc79d9b282f04afb511e64736f6c63430008160033",
  "linkReferences": {},
  "deployedLinkReferences": {}
}