{
  "_format": "hh-sol-artifact-1",
  "contractName": "TierSystem",
  "sourceName": "contracts/TierSystem.sol",
  "abi": [
    {
      "inputs": [],
      "stateMutability": "nonpayable",
      "type": "constructor"
    },
    {
      "inputs": [],
      "name": "AccessControlBadConfirmation",
      "type": "error"
    },
    {
      "inputs": [
        {
          "internalType": "address",
          "name": "account",
          "type": "address"
        },
        {
          "internalType": "bytes32",
          "name": "neededRole",
          "type": "bytes32"
        }
      ],
      "name": "AccessControlUnauthorizedAccount",
      "type": "error"
    },
    {
      "inputs": [
        {
          "internalType": "address",
          "name": "target",
          "type": "address"
        }
      ],
      "name": "AddressEmptyCode",
      "type": "error"
    },
    {
      "inputs": [
        {
          "internalType": "address",
          "name": "implementation",
          "type": "address"
        }
      ],
      "name": "ERC1967InvalidImplementation",
      "type": "error"
    },
    {
      "inputs": [],
      "name": "ERC1967NonPayable",
      "type": "error"
    },
    {
      "inputs": [
        {
          "internalType": "address",
          "name": "sender",
          "type": "address"
        },
        {
          "internalType": "uint256",
          "name": "tokenId",
          "type": "uint256"
        },
        {
          "internalType": "address",
          "name": "owner",
          "type": "address"
        }
      ],
      "name": "ERC721IncorrectOwner",
      "type": "error"
    },
    {
      "inputs": [
        {
          "internalType": "address",
          "name": "operator",
          "type": "address"
        },
        {
          "internalType": "uint256",
          "name": "tokenId",
          "type": "uint256"
        }
      ],
      "name": "ERC721InsufficientApproval",
      "type": "error"
    },
    {
      "inputs": [
        {
          "internalType": "address",
          "name": "approver",
          "type": "address"
        }
      ],
      "name": "ERC721InvalidApprover",
      "type": "error"
    },
    {
      "inputs": [
        {
          "internalType": "address",
          "name": "operator",
          "type": "address"
        }
      ],
      "name": "ERC721InvalidOperator",
      "type": "error"
    },
    {
      "inputs": [
        {
          "internalType": "address",
          "name": "owner",
          "type": "address"
        }
      ],
      "name": "ERC721InvalidOwner",
      "type": "error"
    },
    {
      "inputs": [
        {
          "internalType": "address",
          "name": "receiver",
          "type": "address"
        }
      ],
      "name": "ERC721InvalidReceiver",
      "type": "error"
    },
    {
      "inputs": [
        {
          "internalType": "address",
          "name": "sender",
          "type": "address"
        }
      ],
      "name": "ERC721InvalidSender",
      "type": "error"
    },
    {
      "inputs": [
        {
          "internalType": "uint256",
          "name": "tokenId",
          "type": "uint256"
        }
      ],
      "name": "ERC721NonexistentToken",
      "type": "error"
    },
    {
      "inputs": [],
      "name": "FailedCall",
      "type": "error"
    },
    {
      "inputs": [],
      "name": "InvalidInitialization",
      "type": "error"
    },
    {
      "inputs": [],
      "name": "NotInitializing",
      "type": "error"
    },
    {
      "inputs": [],
      "name": "ReentrancyGuardReentrantCall",
      "type": "error"
    },
    {
      "inputs": [
        {
          "internalType": "address",
          "name": "token",
          "type": "address"
        }
      ],
      "name": "SafeERC20FailedOperation",
      "type": "error"
    },
    {
      "inputs": [],
      "name": "UUPSUnauthorizedCallContext",
      "type": "error"
    },
    {
      "inputs": [
        {
          "internalType": "bytes32",
          "name": "slot",
          "type": "bytes32"
        }
      ],
      "name": "UUPSUnsupportedProxiableUUID",
      "type": "error"
    },
    {
      "anonymous": false,
      "inputs": [
        {
          "indexed": true,
          "internalType": "address",
          "name": "owner",
          "type": "address"
        },
        {
          "indexed": true,
          "internalType": "address",
          "name": "approved",
          "type": "address"
        },
        {
          "indexed": true,
          "internalType": "uint256",
          "name": "tokenId",
          "type": "uint256"
        }
      ],
      "name": "Approval",
      "type": "event"
    },
    {
      "anonymous": false,
      "inputs": [
        {
          "indexed": true,
          "internalType": "address",
          "name": "owner",
          "type": "address"
        },
        {
          "indexed": true,
          "internalType": "address",
          "name": "operator",
          "type": "address"
        },
        {
          "indexed": false,
          "internalType": "bool",
          "name": "approved",
          "type": "bool"
        }
      ],
      "name": "ApprovalForAll",
      "type": "event"
    },
    {
      "anonymous": false,
      "inputs": [
        {
          "indexed": true,
          "internalType": "address",
          "name": "user",
          "type": "address"
        },
        {
          "indexed": false,
          "internalType": "uint8",
          "name": "newTier",
          "type": "uint8"
        }
      ],
      "name": "BadgeUpdated",
      "type": "event"
    },
    {
      "anonymous": false,
      "inputs": [
        {
          "indexed": false,
          "internalType": "uint256",
          "name": "_fromTokenId",
          "type": "uint256"
        },
        {
          "indexed": false,
          "internalType": "uint256",
          "name": "_toTokenId",
          "type": "uint256"
        }
      ],
      "name": "BatchMetadataUpdate",
      "type": "event"
    },
    {
      "anonymous": false,
      "inputs": [
        {
          "indexed": true,
          "internalType": "address",
          "name": "user",
          "type": "address"
        },
        {
          "indexed": false,
          "internalType": "uint256",
          "name": "until",
          "type": "uint256"
        }
      ],
      "name": "CooldownSet",
      "type": "event"
    },
    {
      "anonymous": false,
      "inputs": [
        {
          "indexed": false,
          "internalType": "uint64",
          "name": "version",
          "type": "uint64"
        }
      ],
      "name": "Initialized",
      "type": "event"
    },
    {
      "anonymous": false,
      "inputs": [
        {
          "indexed": false,
          "internalType": "uint256",
          "name": "_tokenId",
          "type": "uint256"
        }
      ],
      "name": "MetadataUpdate",
      "type": "event"
    },
    {
      "anonymous": false,
      "inputs": [
        {
          "indexed": true,
          "internalType": "bytes32",
          "name": "role",
          "type": "bytes32"
        },
        {
          "indexed": true,
          "internalType": "bytes32",
          "name": "previousAdminRole",
          "type": "bytes32"
        },
        {
          "indexed": true,
          "internalType": "bytes32",
          "name": "newAdminRole",
          "type": "bytes32"
        }
      ],
      "name": "RoleAdminChanged",
      "type": "event"
    },
    {
      "anonymous": false,
      "inputs": [
        {
          "indexed": true,
          "internalType": "bytes32",
          "name": "role",
          "type": "bytes32"
        },
        {
          "indexed": true,
          "internalType": "address",
          "name": "account",
          "type": "address"
        },
        {
          "indexed": true,
          "internalType": "address",
          "name": "sender",
          "type": "address"
        }
      ],
      "name": "RoleGranted",
      "type": "event"
    },
    {
      "anonymous": false,
      "inputs": [
        {
          "indexed": true,
          "internalType": "bytes32",
          "name": "role",
          "type": "bytes32"
        },
        {
          "indexed": true,
          "internalType": "address",
          "name": "account",
          "type": "address"
        },
        {
          "indexed": true,
          "internalType": "address",
          "name": "sender",
          "type": "address"
        }
      ],
      "name": "RoleRevoked",
      "type": "event"
    },
    {
      "anonymous": false,
      "inputs": [
        {
          "indexed": true,
          "internalType": "address",
          "name": "user",
          "type": "address"
        },
        {
          "indexed": false,
          "internalType": "uint256",
          "name": "amount",
          "type": "uint256"
        }
      ],
      "name": "Staked",
      "type": "event"
    },
    {
      "anonymous": false,
      "inputs": [
        {
          "indexed": true,
          "internalType": "address",
          "name": "from",
          "type": "address"
        },
        {
          "indexed": true,
          "internalType": "address",
          "name": "to",
          "type": "address"
        },
        {
          "indexed": true,
          "internalType": "uint256",
          "name": "tokenId",
          "type": "uint256"
        }
      ],
      "name": "Transfer",
      "type": "event"
    },
    {
      "anonymous": false,
      "inputs": [
        {
          "indexed": true,
          "internalType": "address",
          "name": "user",
          "type": "address"
        },
        {
          "indexed": false,
          "internalType": "uint256",
          "name": "amount",
          "type": "uint256"
        }
      ],
      "name": "Unstaked",
      "type": "event"
    },
    {
      "anonymous": false,
      "inputs": [
        {
          "indexed": true,
          "internalType": "address",
          "name": "implementation",
          "type": "address"
        }
      ],
      "name": "Upgraded",
      "type": "event"
    },
    {
      "inputs": [],
      "name": "ADMIN_ROLE",
      "outputs": [
        {
          "internalType": "bytes32",
          "name": "",
          "type": "bytes32"
        }
      ],
      "stateMutability": "view",
      "type": "function"
    },
    {
      "inputs": [],
      "name": "COOLDOWN",
      "outputs": [
        {
          "internalType": "uint256",
          "name": "",
          "type": "uint256"
        }
      ],
      "stateMutability": "view",
      "type": "function"
    },
    {
      "inputs": [],
      "name": "DEFAULT_ADMIN_ROLE",
      "outputs": [
        {
          "internalType": "bytes32",
          "name": "",
          "type": "bytes32"
        }
      ],
      "stateMutability": "view",
      "type": "function"
    },
    {
      "inputs": [],
      "name": "ROLLING_WINDOW",
      "outputs": [
        {
          "internalType": "uint256",
          "name": "",
          "type": "uint256"
        }
      ],
      "stateMutability": "view",
      "type": "function"
    },
    {
      "inputs": [],
      "name": "TIER1_EXPLORER",
      "outputs": [
        {
          "internalType": "uint256",
          "name": "",
          "type": "uint256"
        }
      ],
      "stateMutability": "view",
      "type": "function"
    },
    {
      "inputs": [],
      "name": "TIER2_BUILDER",
      "outputs": [
        {
          "internalType": "uint256",
          "name": "",
          "type": "uint256"
        }
      ],
      "stateMutability": "view",
      "type": "function"
    },
    {
      "inputs": [],
      "name": "TIER3_ARCHITECT",
      "outputs": [
        {
          "internalType": "uint256",
          "name": "",
          "type": "uint256"
        }
      ],
      "stateMutability": "view",
      "type": "function"
    },
    {
      "inputs": [],
      "name": "TIER4_SENTINEL",
      "outputs": [
        {
          "internalType": "uint256",
          "name": "",
          "type": "uint256"
        }
      ],
      "stateMutability": "view",
      "type": "function"
    },
    {
      "inputs": [],
      "name": "UPGRADER_ROLE",
      "outputs": [
        {
          "internalType": "bytes32",
          "name": "",
          "type": "bytes32"
        }
      ],
      "stateMutability": "view",
      "type": "function"
    },
    {
      "inputs": [],
      "name": "UPGRADE_INTERFACE_VERSION",
      "outputs": [
        {
          "internalType": "string",
          "name": "",
          "type": "string"
        }
      ],
      "stateMutability": "view",
      "type": "function"
    },
    {
      "inputs": [
        {
          "internalType": "address",
          "name": "to",
          "type": "address"
        },
        {
          "internalType": "uint256",
          "name": "tokenId",
          "type": "uint256"
        }
      ],
      "name": "approve",
      "outputs": [],
      "stateMutability": "nonpayable",
      "type": "function"
    },
    {
      "inputs": [
        {
          "internalType": "address",
          "name": "owner",
          "type": "address"
        }
      ],
      "name": "balanceOf",
      "outputs": [
        {
          "internalType": "uint256",
          "name": "",
          "type": "uint256"
        }
      ],
      "stateMutability": "view",
      "type": "function"
    },
    {
      "inputs": [
        {
          "internalType": "uint256",
          "name": "tokenId",
          "type": "uint256"
        }
      ],
      "name": "getApproved",
      "outputs": [
        {
          "internalType": "address",
          "name": "",
          "type": "address"
        }
      ],
      "stateMutability": "view",
      "type": "function"
    },
    {
      "inputs": [
        {
          "internalType": "bytes32",
          "name": "role",
          "type": "bytes32"
        }
      ],
      "name": "getRoleAdmin",
      "outputs": [
        {
          "internalType": "bytes32",
          "name": "",
          "type": "bytes32"
        }
      ],
      "stateMutability": "view",
      "type": "function"
    },
    {
      "inputs": [
        {
          "internalType": "address",
          "name": "user",
          "type": "address"
        }
      ],
      "name": "getTier",
      "outputs": [
        {
          "internalType": "uint8",
          "name": "",
          "type": "uint8"
        }
      ],
      "stateMutability": "view",
      "type": "function"
    },
    {
      "inputs": [],
      "name": "getTrustedForwarder",
      "outputs": [
        {
          "internalType": "address",
          "name": "forwarder",
          "type": "address"
        }
      ],
      "stateMutability": "view",
      "type": "function"
    },
    {
      "inputs": [
        {
          "internalType": "bytes32",
          "name": "role",
          "type": "bytes32"
        },
        {
          "internalType": "address",
          "name": "account",
          "type": "address"
        }
      ],
      "name": "grantRole",
      "outputs": [],
      "stateMutability": "nonpayable",
      "type": "function"
    },
    {
      "inputs": [
        {
          "internalType": "bytes32",
          "name": "role",
          "type": "bytes32"
        },
        {
          "internalType": "address",
          "name": "account",
          "type": "address"
        }
      ],
      "name": "hasRole",
      "outputs": [
        {
          "internalType": "bool",
          "name": "",
          "type": "bool"
        }
      ],
      "stateMutability": "view",
      "type": "function"
    },
    {
      "inputs": [
        {
          "internalType": "address",
          "name": "_modlToken",
          "type": "address"
        },
        {
          "internalType": "address",
          "name": "trustedForwarder",
          "type": "address"
        }
      ],
      "name": "initialize",
      "outputs": [],
      "stateMutability": "nonpayable",
      "type": "function"
    },
    {
      "inputs": [
        {
          "internalType": "address",
          "name": "owner",
          "type": "address"
        },
        {
          "internalType": "address",
          "name": "operator",
          "type": "address"
        }
      ],
      "name": "isApprovedForAll",
      "outputs": [
        {
          "internalType": "bool",
          "name": "",
          "type": "bool"
        }
      ],
      "stateMutability": "view",
      "type": "function"
    },
    {
      "inputs": [
        {
          "internalType": "address",
          "name": "forwarder",
          "type": "address"
        }
      ],
      "name": "isTrustedForwarder",
      "outputs": [
        {
          "internalType": "bool",
          "name": "",
          "type": "bool"
        }
      ],
      "stateMutability": "view",
      "type": "function"
    },
    {
      "inputs": [],
      "name": "modlToken",
      "outputs": [
        {
          "internalType": "contract IERC20",
          "name": "",
          "type": "address"
        }
      ],
      "stateMutability": "view",
      "type": "function"
    },
    {
      "inputs": [],
      "name": "name",
      "outputs": [
        {
          "internalType": "string",
          "name": "",
          "type": "string"
        }
      ],
      "stateMutability": "view",
      "type": "function"
    },
    {
      "inputs": [
        {
          "internalType": "uint256",
          "name": "tokenId",
          "type": "uint256"
        }
      ],
      "name": "ownerOf",
      "outputs": [
        {
          "internalType": "address",
          "name": "",
          "type": "address"
        }
      ],
      "stateMutability": "view",
      "type": "function"
    },
    {
      "inputs": [],
      "name": "proxiableUUID",
      "outputs": [
        {
          "internalType": "bytes32",
          "name": "",
          "type": "bytes32"
        }
      ],
      "stateMutability": "view",
      "type": "function"
    },
    {
      "inputs": [
        {
          "internalType": "bytes32",
          "name": "role",
          "type": "bytes32"
        },
        {
          "internalType": "address",
          "name": "callerConfirmation",
          "type": "address"
        }
      ],
      "name": "renounceRole",
      "outputs": [],
      "stateMutability": "nonpayable",
      "type": "function"
    },
    {
      "inputs": [
        {
          "internalType": "bytes32",
          "name": "role",
          "type": "bytes32"
        },
        {
          "internalType": "address",
          "name": "account",
          "type": "address"
        }
      ],
      "name": "revokeRole",
      "outputs": [],
      "stateMutability": "nonpayable",
      "type": "function"
    },
    {
      "inputs": [
        {
          "internalType": "address",
          "name": "user",
          "type": "address"
        }
      ],
      "name": "rollingAverageStake",
      "outputs": [
        {
          "internalType": "uint256",
          "name": "",
          "type": "uint256"
        }
      ],
      "stateMutability": "view",
      "type": "function"
    },
    {
      "inputs": [
        {
          "internalType": "address",
          "name": "from",
          "type": "address"
        },
        {
          "internalType": "address",
          "name": "to",
          "type": "address"
        },
        {
          "internalType": "uint256",
          "name": "tokenId",
          "type": "uint256"
        }
      ],
      "name": "safeTransferFrom",
      "outputs": [],
      "stateMutability": "nonpayable",
      "type": "function"
    },
    {
      "inputs": [
        {
          "internalType": "address",
          "name": "from",
          "type": "address"
        },
        {
          "internalType": "address",
          "name": "to",
          "type": "address"
        },
        {
          "internalType": "uint256",
          "name": "tokenId",
          "type": "uint256"
        },
        {
          "internalType": "bytes",
          "name": "data",
          "type": "bytes"
        }
      ],
      "name": "safeTransferFrom",
      "outputs": [],
      "stateMutability": "nonpayable",
      "type": "function"
    },
    {
      "inputs": [
        {
          "internalType": "address",
          "name": "",
          "type": "address"
        },
        {
          "internalType": "uint256",
          "name": "",
          "type": "uint256"
        }
      ],
      "name": "segments",
      "outputs": [
        {
          "internalType": "uint256",
          "name": "start",
          "type": "uint256"
        },
        {
          "internalType": "uint256",
          "name": "amount",
          "type": "uint256"
        }
      ],
      "stateMutability": "view",
      "type": "function"
    },
    {
      "inputs": [
        {
          "internalType": "address",
          "name": "operator",
          "type": "address"
        },
        {
          "internalType": "bool",
          "name": "approved",
          "type": "bool"
        }
      ],
      "name": "setApprovalForAll",
      "outputs": [],
      "stateMutability": "nonpayable",
      "type": "function"
    },
    {
      "inputs": [
        {
          "internalType": "uint256",
          "name": "amount",
          "type": "uint256"
        }
      ],
      "name": "stake",
      "outputs": [],
      "stateMutability": "nonpayable",
      "type": "function"
    },
    {
      "inputs": [
        {
          "internalType": "bytes4",
          "name": "interfaceId",
          "type": "bytes4"
        }
      ],
      "name": "supportsInterface",
      "outputs": [
        {
          "internalType": "bool",
          "name": "",
          "type": "bool"
        }
      ],
      "stateMutability": "view",
      "type": "function"
    },
    {
      "inputs": [],
      "name": "symbol",
      "outputs": [
        {
          "internalType": "string",
          "name": "",
          "type": "string"
        }
      ],
      "stateMutability": "view",
      "type": "function"
    },
    {
      "inputs": [
        {
          "internalType": "uint256",
          "name": "tokenId",
          "type": "uint256"
        }
      ],
      "name": "tokenURI",
      "outputs": [
        {
          "internalType": "string",
          "name": "",
          "type": "string"
        }
      ],
      "stateMutability": "view",
      "type": "function"
    },
    {
      "inputs": [
        {
          "internalType": "address",
          "name": "from",
          "type": "address"
        },
        {
          "internalType": "address",
          "name": "to",
          "type": "address"
        },
        {
          "internalType": "uint256",
          "name": "tokenId",
          "type": "uint256"
        }
      ],
      "name": "transferFrom",
      "outputs": [],
      "stateMutability": "nonpayable",
      "type": "function"
    },
    {
      "inputs": [
        {
          "internalType": "uint256",
          "name": "amount",
          "type": "uint256"
        }
      ],
      "name": "unstake",
      "outputs": [],
      "stateMutability": "nonpayable",
      "type": "function"
    },
    {
      "inputs": [
        {
          "internalType": "address",
          "name": "newImplementation",
          "type": "address"
        },
        {
          "internalType": "bytes",
          "name": "data",
          "type": "bytes"
        }
      ],
      "name": "upgradeToAndCall",
      "outputs": [],
      "stateMutability": "payable",
      "type": "function"
    },
    {
      "inputs": [
        {
          "internalType": "address",
          "name": "",
          "type": "address"
        }
      ],
      "name": "userStakes",
      "outputs": [
        {
          "internalType": "uint256",
          "name": "currentStake",
          "type": "uint256"
        },
        {
          "internalType": "uint256",
          "name": "unstakeCooldown",
          "type": "uint256"
        },
        {
          "internalType": "uint256",
          "name": "lastTimestamp",
          "type": "uint256"
        },
        {
          "internalType": "uint256",
          "name": "badgeTokenId",
          "type": "uint256"
        },
        {
          "internalType": "uint8",
          "name": "currentTier",
          "type": "uint8"
        }
      ],
      "stateMutability": "view",
      "type": "function"
    }
  ],
  "bytecode": "0x60a080604052346100cd57306080527ff0c57e16840df040f15088dc2f81fe391c3923bec73e23a9662efc9c229c6a009081549060ff8260401c166100be57506001600160401b036002600160401b031982821601610079575b604051612fef9081620000d38239608051818181610b440152610bed0152f35b6001600160401b031990911681179091556040519081527fc7f505b2f371ae2175ee4913f4499e1f2633a7b5936321eed1cdaeb6115181d290602090a1388080610059565b63f92ee8a960e01b8152600490fd5b600080fdfe608080604052600436101561001357600080fd5b60003560e01c90816301ffc9a7146118905750806306fdde03146117e6578063081812fc1461179b578063095ea7b3146116ac5780630f5cdf4d1461168757806323b872dd14611670578063248a9ca3146116345780632e17de78146114b95780632f2ff15d1461146d57806336568abe1461141c5780633e62967d146113f857806342842e0e146113ca578063485cc95514610e205780634f1ef28614610bae57806352d1902d14610b31578063572b6c0514610afc57806358f43bdd14610ad75780635b0a8fad14610ab95780636352211e14610a8957806370a0823114610a3457806375b238fc146109f95780638da7ad231461099057806391d148541461093657806395d89b4114610855578063a217fddf14610839578063a22cb4651461078e578063a2724a4d14610770578063a694fc3a14610599578063ad3cb1cc14610553578063b45aae5214610525578063b7a54947146104fa578063b88d4fde14610499578063c87b56dd14610387578063ca37d26b1461035e578063ce1b815f14610335578063d547741f146102e7578063e6899518146102c3578063e985e9c514610275578063f72c0d8b1461023a5763f8123adf146101d757600080fd5b34610235576040366003190112610235576101f061196f565b6001600160a01b03166000908152600460205260409020805460243591908210156102355760409161022191611afb565b506001815491015482519182526020820152f35b600080fd5b346102355760003660031901126102355760206040517f189ab7a9244df0848122154315af71fe140f3db0fe014031783b0946b8c9d2e38152f35b346102355760403660031901126102355761028e61196f565b61029f610299611985565b91611ac2565b9060018060a01b0316600052602052602060ff604060002054166040519015158152f35b34610235576000366003190112610235576020604051683635c9adc5dea000008152f35b3461023557604036600319011261023557610333600435610306611985565b9080600052600080516020612efa83398151915260205261032e60016040600020015461278a565b612a46565b005b34610235576000366003190112610235576000546040516001600160a01b039091168152602090f35b34610235576000366003190112610235576001546040516001600160a01b039091168152602090f35b3461023557602080600319360112610235576004356103a58161203c565b506000527f0542a41881ee128a365a727b282c86fa859579490b9bb45aab8503648c8e790081526040600020906040519182600082546103e481611b2d565b9384845260019186600182169182600014610477575050600114610438575b505061041192500383611a06565b600060405161041f816119eb565b5261043460405192828493845283019061192f565b0390f35b85925060005281600020906000915b85831061045f57505061041193508201018580610403565b80548389018501528794508693909201918101610447565b925093505061041194915060ff191682840152151560051b8201018580610403565b34610235576080366003190112610235576104b261196f565b6104ba611985565b90604435606435926001600160401b038411610235576104e1610333943690600401611a42565b926104ed838383611b67565b6104f5612c1e565b612afa565b3461023557602036600319011261023557602061051d61051861196f565b611e29565b604051908152f35b3461023557602036600319011261023557602061054861054361196f565b611dab565b60ff60405191168152f35b3461023557600036600319011261023557610434604051610573816119d0565b60058152640352e302e360dc1b602082015260405191829160208352602083019061192f565b346102355760208060031936011261023557600435906105b7612084565b8115610735576001546001600160a01b03919082166105d4612c1e565b6040516323b872dd60e01b8482015290841660248201523060448201526064808201869052815260a08101916001600160401b0383118284101761071f5761061e92604052612c83565b81610627612c1e565b1660005260038152604060002091610640848454611d4f565b83554260028401556203f480420180421161070957836106c29160017f9e71bc8eea02a63969f509818f2dafb9254532904319f9dbda79b67bd34a5f3d96015561069061068b612c1e565b6120c6565b82610699612c1e565b16600052600484526040600020905490604051916106b6836119d0565b42835285830152611d5c565b6106ca612c1e565b1692604051908152a26106e36106de612c1e565b612249565b60017f9b779b17422d0df92223018b32b4d1fa46e071723d6817e2486d003becc55f0055005b634e487b7160e01b600052601160045260246000fd5b634e487b7160e01b600052604160045260246000fd5b6064906040519062461bcd60e51b825260048201526014602482015273125b9d985b1a59081cdd185ad948185b5bdd5b9d60621b6044820152fd5b346102355760003660031901126102355760206040516203f4808152f35b34610235576040366003190112610235576107a761196f565b602435801515809103610235576107bc612c1e565b6001600160a01b0392831692908315610820577f17307eab39ab6107e8899845ad3d59bd9653f200f220920489ca2b5937696c3191816107fd602093611ac2565b866000528352604060002060ff1981541660ff87161790556040519485521692a3005b604051630b61174360e31b815260048101859052602490fd5b3461023557600036600319011261023557602060405160008152f35b3461023557600036600319011261023557604051600080516020612f7a833981519152805482600061088683611b2d565b92838352602094600191866001821691826000146109145750506001146108ca575b50506108b692500383611a06565b61043460405192828493845283019061192f565b859250600052600080516020612eda833981519152906000915b8583106108fc5750506108b6935082010185806108a8565b805483890185015287945086939092019181016108e4565b92509350506108b694915060ff191682840152151560051b82010185806108a8565b346102355760403660031901126102355761094f611985565b600435600052600080516020612efa83398151915260205260406000209060018060a01b0316600052602052602060ff604060002054166040519015158152f35b34610235576020366003190112610235576001600160a01b036109b161196f565b16600052600360205260a06040600020805490600181015490600281015460ff6004600384015493015416926040519485526020850152604084015260608301526080820152f35b346102355760003660031901126102355760206040517fa49807205ce4d355092ef5a8a18f56e8913cf4a201fbe287825b095693c217758152f35b3461023557602036600319011261023557610a4d61196f565b6001600160a01b03811615610a7057610a67602091611a89565b54604051908152f35b6040516322718ad960e21b815260006004820152602490fd5b34610235576020366003190112610235576020610aa760043561203c565b6040516001600160a01b039091168152f35b3461023557600036600319011261023557602060405162278d008152f35b3461023557600036600319011261023557602060405169054b40b1f852bda000008152f35b34610235576020366003190112610235576020610b1761196f565b6000546040516001600160a01b0392831691909216148152f35b34610235576000366003190112610235577f00000000000000000000000000000000000000000000000000000000000000006001600160a01b03163003610b9c5760206040517f360894a13ba1a3210667c828492db98dca3e2076cc3735a920a3ca505d382bbc8152f35b60405163703e46dd60e11b8152600490fd5b604036600319011261023557610bc261196f565b6024356001600160401b03811161023557610be1903690600401611a42565b906001600160a01b03907f00000000000000000000000000000000000000000000000000000000000000008216308114908115610df2575b50610b9c57610c26612c1e565b821660008181527fab71e3f32666744d246edff3f96e4bdafee2e9867098cdd118a979a7464786a86020908152604090912054909391907f189ab7a9244df0848122154315af71fe140f3db0fe014031783b0946b8c9d2e39060ff1615610dd45750508116916040516352d1902d60e01b81528181600481875afa60009181610da5575b50610cc857604051634c9c8ce360e01b815260048101859052602490fd5b9284937f360894a13ba1a3210667c828492db98dca3e2076cc3735a920a3ca505d382bbc90818103610d8d5750833b15610d745780546001600160a01b03191682179055604051907fbc7cd75a20ee27fd9adebab32041f755214dbc6bffa90cc0225b39da2e5c2d3b600080a2835115610d5a5750600083819261033395519101845af4610d54612aca565b91612e36565b9250505034610d6557005b63b398979f60e01b8152600490fd5b604051634c9c8ce360e01b815260048101839052602490fd5b60249060405190632a87526960e21b82526004820152fd5b9091508281813d8311610dcd575b610dbd8183611a06565b8101031261023557519086610caa565b503d610db3565b604492506040519163e2517d3f60e01b835260048301526024820152fd5b9050827f360894a13ba1a3210667c828492db98dca3e2076cc3735a920a3ca505d382bbc5416141584610c19565b3461023557604036600319011261023557610e3961196f565b610e41611985565b90600080516020612f5a83398151915254906001600160401b038216801590816113ba575b60011490816113b0575b1590816113a7575b506113955760016001600160401b0319831617600080516020612f5a8339815191525560ff8260401c1615611368575b6001600160a01b0381161561132b57610ebf612e07565b60405192610ecc846119d0565b600f84526e4d4f444c205469657220426164676560881b602085015260405193610ef5856119d0565b600385526226aa2160e91b6020860152610f0d612e07565b610f15612e07565b8051906001600160401b03821161071f578190610f40600080516020612eba83398151915254611b2d565b601f81116112aa575b50602090601f83116001146112185760009261120d575b50508160011b916000199060031b1c191617600080516020612eba833981519152555b83516001600160401b03811161071f57610fab600080516020612f7a83398151915254611b2d565b601f8111611193575b506020601f821160011461110457819060ff966000926110f9575b50508160011b916000199060031b1c191617600080516020612f7a833981519152555b610ffa612e07565b611002612e07565b61100a612e07565b611012612e07565b60017f9b779b17422d0df92223018b32b4d1fa46e071723d6817e2486d003becc55f0081905580546001600160a01b039384166001600160a01b0319918216179091556000805492909316911617905561107261106d612c1e565b6127d1565b5061108361107e612c1e565b61286a565b5061109461108f612c1e565b612926565b5060401c16156110a057005b68ff000000000000000019600080516020612f5a8339815191525416600080516020612f5a833981519152557fc7f505b2f371ae2175ee4913f4499e1f2633a7b5936321eed1cdaeb6115181d2602060405160018152a1005b015190508680610fcf565b601f19821695600080516020612f7a833981519152600052600080516020612eda8339815191529660005b81811061117b57509160ff9791846001959410611162575b505050811b01600080516020612f7a83398151915255610ff2565b015160001960f88460031b161c19169055868080611147565b8383015189556001909801976020938401930161112f565b600080516020612f7a833981519152600052601f820160051c600080516020612eda8339815191520190602083106111f7575b601f0160051c600080516020612eda83398151915201905b8181106111eb5750610fb4565b600081556001016111de565b600080516020612eda83398151915291506111c6565b015190508680610f60565b9250600080516020612eba833981519152600052600080516020612f9a833981519152906000935b601f198416851061128f576001945083601f19811610611276575b505050811b01600080516020612eba83398151915255610f83565b015160001960f88460031b161c1916905586808061125b565b81810151835560209485019460019093019290910190611240565b909150600080516020612eba833981519152600052601f830160051c600080516020612f9a8339815191520160208410611316575b908392915b601f820160051c600080516020612f9a8339815191520181106113075750610f49565b600081558493506001016112e4565b50600080516020612f9a8339815191526112df565b60405162461bcd60e51b8152602060048201526015602482015274496e76616c696420746f6b656e206164647265737360581b6044820152606490fd5b68ffffffffffffffffff1982166801000000000000000117600080516020612f5a83398151915255610ea8565b60405163f92ee8a960e01b8152600490fd5b90501584610e78565b303b159150610e70565b604084901c60ff16159150610e66565b34610235576103336113db3661199b565b90604051926113e9846119eb565b600084526104ed838383611b67565b3461023557600036600319011261023557602060405168056bc75e2d631000008152f35b3461023557604036600319011261023557611435611985565b6001600160a01b0380611446612c1e565b169082160361145b5761033390600435612a46565b60405163334bd91960e11b8152600490fd5b346102355760403660031901126102355761033360043561148c611985565b9080600052600080516020612efa8339815191526020526114b460016040600020015461278a565b6129d2565b346102355760208060031936011261023557600435906114d7612084565b6001600160a01b0390816114e9612c1e565b166000526003815260406000209183151580611629575b156115eb5760018301805442106115b15761151c858554611d42565b84554260028501556203f480420193844211610709577f0f5bb82176feb1b5e747e28471aa92156a04d9f3ab9f45f28e2d704232b93f7594611564925561069061068b612c1e565b6106c28482600154166115ac611578612c1e565b60405163a9059cbb60e01b888201526001600160a01b03919091166024820152604480820194909452928352606483611a06565b612c83565b60405162461bcd60e51b815260048101849052601260248201527110dbdbdb191bdddb881a5b881959999958dd60721b6044820152606490fd5b60405162461bcd60e51b8152600481018390526016602482015275125b9d985b1a59081d5b9cdd185ad948185b5bdd5b9d60521b6044820152606490fd5b508254841115611500565b3461023557602036600319011261023557600435600052600080516020612efa8339815191526020526020600160406000200154604051908152f35b34610235576103336116813661199b565b91611b67565b3461023557600036600319011261023557602060405169021e19e0c9bab24000008152f35b34610235576040366003190112610235576116c561196f565b6024356116d0612c1e565b916116da8261203c565b6001600160a01b039390919084168015158061178f575b8061176f575b611757575083169282918491167f8c5be1e5ebec7d5bd14f71427d1e84f3dd0314c0f7b2291e5b200ac8c7c3b925600080a46000908152600080516020612f3a8339815191526020526040902080546001600160a01b0319169091179055005b6024906040519063a9fbf51f60e01b82526004820152fd5b5061177983611ac2565b8160005260205260ff60406000205416156116f7565b508085841614156116f1565b34610235576020366003190112610235576004356117b88161203c565b50600052600080516020612f3a833981519152602052602060018060a01b0360406000205416604051908152f35b3461023557600036600319011261023557604051600080516020612eba833981519152805482600061181783611b2d565b92838352602094600191866001821691826000146109145750506001146118465750506108b692500383611a06565b859250600052600080516020612f9a833981519152906000915b8583106118785750506108b6935082010185806108a8565b80548389018501528794508693909201918101611860565b34610235576020366003190112610235576004359063ffffffff60e01b821680920361023557602091632483248360e11b81149081156118d2575b5015158152f35b6380ac58cd60e01b81149150811561191e575b81156118f3575b50836118cb565b637965db0b60e01b81149150811561190d575b50836118ec565b6301ffc9a760e01b14905083611906565b635b5e139f60e01b811491506118e5565b919082519283825260005b84811061195b575050826000602080949584010152601f8019910116010190565b60208183018101518483018201520161193a565b600435906001600160a01b038216820361023557565b602435906001600160a01b038216820361023557565b6060906003190112610235576001600160a01b0390600435828116810361023557916024359081168103610235579060443590565b604081019081106001600160401b0382111761071f57604052565b602081019081106001600160401b0382111761071f57604052565b90601f801991011681019081106001600160401b0382111761071f57604052565b6001600160401b03811161071f57601f01601f191660200190565b81601f8201121561023557803590611a5982611a27565b92611a676040519485611a06565b8284526020838301011161023557816000926020809301838601378301015290565b6001600160a01b031660009081527f80bb2b638cc20bc4d0a60d66940f3ab4a00c1d7b313497ca82fb0b4ab00793036020526040902090565b6001600160a01b031660009081527f80bb2b638cc20bc4d0a60d66940f3ab4a00c1d7b313497ca82fb0b4ab00793056020526040902090565b8054821015611b175760005260206000209060011b0190600090565b634e487b7160e01b600052603260045260246000fd5b90600182811c92168015611b5d575b6020831014611b4757565b634e487b7160e01b600052602260045260246000fd5b91607f1691611b3c565b6001600160a01b0382811693918415611d295782611b83612c1e565b95600096828852600080516020612f1a8339815191529788602052604098868a832054169883888b95168015159081611c5c575b50505090611beb7fddf252ad1be2c89b69c2b068fc378daa952ba7f163c4a11628f55a4df523b3ef939285611c3d57611a89565b8054600101905585825260205289812080546001600160a01b0319168517905580a41692838303611c1c5750505050565b6064945051926364283d7b60e01b8452600484015260248301526044820152fd5b611c4688612c52565b611c4f86611a89565b8054600019019055611a89565b9193955080929496975091611ccd575b5015611c8057918794939183808b95611bb7565b8988918a15600014611ca4578151637e27328960e01b815260048101849052602490fd5b905163177e802f60e01b81526001600160a01b0390911660048201526024810191909152604490fd5b8a811491508115611d0b575b8115611ce7575b5038611c6c565b9050888552600080516020612f3a833981519152602052878b862054161438611ce0565b9050611d168a611ac2565b81865260205260ff8b8620541690611cd9565b604051633250574960e11b815260006004820152602490fd5b9190820391821161070957565b9190820180921161070957565b80546801000000000000000081101561071f57611d7e91600182018155611afb565b919091611d95576020816001925184550151910155565b634e487b7160e01b600052600060045260246000fd5b611db490611e29565b69054b40b1f852bda00000811015611e0f5769021e19e0c9bab2400000811015611e0957683635c9adc5dea00000811015611e035768056bc75e2d631000001115611dfe57600090565b600190565b50600290565b50600390565b50600490565b8051821015611b175760209160051b010190565b6001600160a01b031660009081526004602081815260408084208054939594929390916001600160401b038211612029579160405192611e6e868460051b0185611a06565b8284529084528484208491868086015b858510611ffc57505050505050805115611ff65762278cff194201428111611fe357829083908351805b611ef8575b5050908115600014611ef05750508051600019810192908311611edd5750611ed792939450611e15565b51015190565b634e487b7160e01b815260118652602490fd5b049450505050565b6000198101818111611fd057611f0e9086611e15565b5180519486518314600014611fbe5788425b85811115611fb457858810611faa575b87611f3a91611d42565b92015190818302918383041483151715611f975791611f5d611f63928694611d4f565b95611d4f565b9414611f8f578015611f7c579192916000190180611ea8565b634e487b7160e01b865260118952602486fd5b929192611ead565b634e487b7160e01b895260118c52602489fd5b9496508694611f30565b5050945050611ead565b88611fc98489611e15565b5151611f20565b634e487b7160e01b875260118a52602487fd5b634e487b7160e01b835260118652602483fd5b50925050565b600191600291845161200d816119d0565b8654815284870154838201528152019301930192918790611e7e565b634e487b7160e01b845260418752602484fd5b6000818152600080516020612f1a83398151915260205260409020546001600160a01b031690811561206c575090565b60249060405190637e27328960e01b82526004820152fd5b7f9b779b17422d0df92223018b32b4d1fa46e071723d6817e2486d003becc55f0060028154146120b45760029055565b604051633ee5aeb560e01b8152600490fd5b60009060018060a01b0316815260049060209082602052604081209182546120ef575b50505050565b9091929362278cff194201428111612236575b8454600190818111908161220d575b50156121fd5784815b61216e575b508554801561215b5760001901906121378288611afb565b61214957868155018590558555612102565b634e487b7160e01b8752868952602487fd5b634e487b7160e01b865260318852602486fd5b865460001981019081116121e5578110156121f8578181018082116121e5576121979088611afb565b506121a28289611afb565b9190916121d3579181848481958295036121c1575b505050019061211a565b805483558101549101553882816121b7565b634e487b7160e01b8852878a52602488fd5b634e487b7160e01b875260118952602487fd5b61211f565b50509350505050388080806120e9565b9050156122235785855281848620541038612111565b634e487b7160e01b855260328752602485fd5b634e487b7160e01b845260118652602484fd5b9060018060a01b03808316906000828152602091600383526040908183209261227188611dab565b916004908186019360ff8554169660ff821697881461277c576003019a8b541561255a575b508661237357508954908184528184600080516020612f1a83398151915292838b5288822054168015938415612354575b8383528b5288822080546001600160a01b03191690557fddf252ad1be2c89b69c2b068fc378daa952ba7f163c4a11628f55a4df523b3ef8280a461233e5750507fd1b1921da00aa401db521bf34c84150f98ffb008ed362fbddc594497a952efb0959697555b805460ff19168317905551908152a2565b8451637e27328960e01b81529182015260249150fd5b61235d84612c52565b61236682611a89565b80546000190190556122c7565b9961238091505499612ceb565b918981527f0542a41881ee128a365a727b282c86fa859579490b9bb45aab8503648c8e79008752848120928051926001600160401b03841161254757506123c78454611b2d565b601f8111612504575b508791601f841160011461245b5792807fd1b1921da00aa401db521bf34c84150f98ffb008ed362fbddc594497a952efb09a9b9c937ff8e1a15aba9398e019f0b49df1a4fde98ee17ae345cb5f6b5e2c27f5033e8ce796938b9692612450575b50508160011b916000199060031b1c19161790555b8451908152a161232d565b015190503880612430565b9190601f198416858452898420935b8181106124ed5750937fd1b1921da00aa401db521bf34c84150f98ffb008ed362fbddc594497a952efb09a9b9c937ff8e1a15aba9398e019f0b49df1a4fde98ee17ae345cb5f6b5e2c27f5033e8ce79693600193838d98106124d4575b505050811b019055612445565b015160001960f88460031b161c191690553880806124c7565b92938a60018192878601518155019501930161246a565b848352888320601f850160051c8101918a861061253d575b601f0160051c01905b81811061253257506123d0565b838155600101612525565b909150819061251c565b634e487b7160e01b835260419052602482fd5b60025460001990818114612769576001016002819055808e5588519161257f836119eb565b8783528c1561275257818852818d8d8c89600080516020612f1a833981519152918284528d205416918215159586612734575b506125bc89611a89565b80546001019055848d52528c8b2080546001600160a01b031916831790557fddf252ad1be2c89b69c2b068fc378daa952ba7f163c4a11628f55a4df523b3ef8b80a461271d5761260a612c1e565b923b612618575b5050612296565b99612661918c829f9b9998979e9a9c8f89908f51968795869485938d630a85bd0160e11b9c8d87521690850152846024850152604484015260806064840152608483019061192f565b03925af18591816126d9575b506126a3578c8c8c8c61267e612aca565b8051948561269d57505051633250574960e11b81529182015260249150fd5b85925001fd5b63ffffffff60e09d9a989c959697999d1b16036126c257388080612611565b8551633250574960e11b81528084018a9052602490fd5b9091508d81813d8311612716575b6126f18183611a06565b8101031261271257516001600160e01b03198116810361271257903861266d565b8580fd5b503d6126e7565b88516339e3563760e11b8152808701889052602490fd5b61273d86612c52565b61274684611a89565b908154019055386125b2565b8951633250574960e11b8152808801899052602490fd5b634e487b7160e01b875260118652602487fd5b505050505050505050509050565b612792612c1e565b9080600052600080516020612efa83398151915260205260406000209160018060a01b0316918260005260205260ff6040600020541615610dd4575050565b6001600160a01b0390811660008181527fb7db2dd08fcb62d0c9e08c51941cae53c267786a0b75803fb7960902fc8ef97d6020526040812054909290600080516020612efa8339815191529060ff16612864578380526020526040832082845260205260408320600160ff1982541617905561284b612c1e565b1691600080516020612e9a8339815191528180a4600190565b50505090565b6001600160a01b0390811660008181527fb16e88c42fd4e48df2dd6a2eabd6bc9aec654ec170056b470819f8892cc6431c602052604081205490927fa49807205ce4d355092ef5a8a18f56e8913cf4a201fbe287825b095693c2177591600080516020612efa833981519152919060ff1661291f57600080516020612e9a833981519152918386526020526040852084865260205260408520600160ff19825416179055612916612c1e565b169380a4600190565b5050505090565b6001600160a01b0390811660008181527fab71e3f32666744d246edff3f96e4bdafee2e9867098cdd118a979a7464786a8602052604081205490927f189ab7a9244df0848122154315af71fe140f3db0fe014031783b0946b8c9d2e391600080516020612efa833981519152919060ff1661291f57600080516020612e9a833981519152918386526020526040852084865260205260408520600160ff19825416179055612916612c1e565b6000818152600080516020612efa833981519152602081815260408084206001600160a01b039687168086529252832054929490939260ff1661291f57600080516020612e9a833981519152918386526020526040852084865260205260408520600160ff19825416179055612916612c1e565b6000818152600080516020612efa833981519152602081815260408084206001600160a01b039687168086529252832054929490939260ff161561291f577ff6391f5c32d9c69d2a47ea670b442974b53935d1edc7fd64eb21e047a839171b91838652602052604085208486526020526040852060ff198154169055612916612c1e565b3d15612af5573d90612adb82611a27565b91612ae96040519384611a06565b82523d6000602084013e565b606090565b9293823b612b0a575b5050505050565b612b4e9060018060a01b038094169560405194859481630a85bd0160e11b98898852166004870152166024850152604484015260806064840152608483019061192f565b03906020816000938185885af190829082612bce575b5050612b9c5782612b73612aca565b8051919082612b9557604051633250574960e11b815260048101839052602490fd5b9050602001fd5b6001600160e01b03191603612bb657503880808080612b03565b60249060405190633250574960e11b82526004820152fd5b909192506020813d602011612c16575b81612beb60209383611a06565b81010312612c125751906001600160e01b031982168203612c0f5750903880612b64565b80fd5b5080fd5b3d9150612bde565b601436101580612c3e575b15612c3a5736601319013560601c90565b3390565b506000546001600160a01b03163314612c29565b600052600080516020612f3a83398151915260205260406000206bffffffffffffffffffffffff60a01b8154169055565b906000602091828151910182855af115612cdf576000513d612cd657506001600160a01b0381163b155b612cb45750565b604051635274afe760e01b81526001600160a01b039091166004820152602490fd5b60011415612cad565b6040513d6000823e3d90fd5b60ff1660018114612dcd5760028114612d935760038114612d5957600414612d2057604051612d19816119eb565b6000815290565b604051612d2c816119d0565b601981527f697066733a2f2f626164676553656e74696e656c2e6a736f6e00000000000000602082015290565b50604051612d66816119d0565b601a81527f697066733a2f2f62616467654172636869746563742e6a736f6e000000000000602082015290565b50604051612da0816119d0565b601881527f697066733a2f2f62616467654275696c6465722e6a736f6e0000000000000000602082015290565b50604051612dda816119d0565b601981527f697066733a2f2f62616467654578706c6f7265722e6a736f6e00000000000000602082015290565b60ff600080516020612f5a8339815191525460401c1615612e2457565b604051631afcd79f60e31b8152600490fd5b90612e5d5750805115612e4b57805190602001fd5b60405163d6bda27560e01b8152600490fd5b81511580612e90575b612e6e575090565b604051639996b31560e01b81526001600160a01b039091166004820152602490fd5b50803b15612e6656fe2f8788117e7eff1d82e926ec794901d17c78024a50270940304540a733656f0d80bb2b638cc20bc4d0a60d66940f3ab4a00c1d7b313497ca82fb0b4ab0079300f4bad0a69248f59680a4f2b3000328cec71a413447c96781cfe5996daa8c456e02dd7bc7dec4dceedda775e58dd541e08a116c6c53815c0bd028192f7b62680080bb2b638cc20bc4d0a60d66940f3ab4a00c1d7b313497ca82fb0b4ab007930280bb2b638cc20bc4d0a60d66940f3ab4a00c1d7b313497ca82fb0b4ab0079304f0c57e16840df040f15088dc2f81fe391c3923bec73e23a9662efc9c229c6a0080bb2b638cc20bc4d0a60d66940f3ab4a00c1d7b313497ca82fb0b4ab007930137c58c799b6609234b945e882912ee9ad34948a1dfaa20a97485e1a7752bbf81a2646970667358221220b18a762ad75e8955c8e895f1ff9508a6edde9e29420e0d30371134519f50c27f64736f6c63430008160033",
  "linkReferences": {},
  "deployedLinkReferences": {}
}