{
  "_format": "hh-sol-artifact-1",
  "contractName": "DeploymentManager",
  "sourceName": "contracts/DeploymentManager.sol",
  "abi": [
    {
      "inputs": [],
      "stateMutability": "nonpayable",
      "type": "constructor"
    },
    {
      "inputs": [],
      "name": "AccessControlBadConfirmation",
      "type": "error"
    },
    {
      "inputs": [
        {
          "internalType": "address",
          "name": "account",
          "type": "address"
        },
        {
          "internalType": "bytes32",
          "name": "neededRole",
          "type": "bytes32"
        }
      ],
      "name": "AccessControlUnauthorizedAccount",
      "type": "error"
    },
    {
      "inputs": [
        {
          "internalType": "address",
          "name": "target",
          "type": "address"
        }
      ],
      "name": "AddressEmptyCode",
      "type": "error"
    },
    {
      "inputs": [
        {
          "internalType": "address",
          "name": "implementation",
          "type": "address"
        }
      ],
      "name": "ERC1967InvalidImplementation",
      "type": "error"
    },
    {
      "inputs": [],
      "name": "ERC1967NonPayable",
      "type": "error"
    },
    {
      "inputs": [],
      "name": "FailedCall",
      "type": "error"
    },
    {
      "inputs": [],
      "name": "InvalidInitialization",
      "type": "error"
    },
    {
      "inputs": [],
      "name": "NotInitializing",
      "type": "error"
    },
    {
      "inputs": [],
      "name": "ReentrancyGuardReentrantCall",
      "type": "error"
    },
    {
      "inputs": [],
      "name": "UUPSUnauthorizedCallContext",
      "type": "error"
    },
    {
      "inputs": [
        {
          "internalType": "bytes32",
          "name": "slot",
          "type": "bytes32"
        }
      ],
      "name": "UUPSUnsupportedProxiableUUID",
      "type": "error"
    },
    {
      "anonymous": false,
      "inputs": [
        {
          "indexed": false,
          "internalType": "address",
          "name": "sender",
          "type": "address"
        },
        {
          "indexed": false,
          "internalType": "address",
          "name": "origin",
          "type": "address"
        },
        {
          "indexed": false,
          "internalType": "address",
          "name": "directSender",
          "type": "address"
        }
      ],
      "name": "DebugMsgSender",
      "type": "event"
    },
    {
      "anonymous": false,
      "inputs": [
        {
          "indexed": true,
          "internalType": "address",
          "name": "oldFeeManager",
          "type": "address"
        },
        {
          "indexed": true,
          "internalType": "address",
          "name": "newFeeManager",
          "type": "address"
        }
      ],
      "name": "FeeManagerUpdated",
      "type": "event"
    },
    {
      "anonymous": false,
      "inputs": [
        {
          "indexed": false,
          "internalType": "uint64",
          "name": "version",
          "type": "uint64"
        }
      ],
      "name": "Initialized",
      "type": "event"
    },
    {
      "anonymous": false,
      "inputs": [
        {
          "indexed": true,
          "internalType": "uint256",
          "name": "projectId",
          "type": "uint256"
        },
        {
          "indexed": false,
          "internalType": "string",
          "name": "templateId",
          "type": "string"
        },
        {
          "indexed": false,
          "internalType": "address",
          "name": "moduleAddress",
          "type": "address"
        }
      ],
      "name": "ModuleDeployed",
      "type": "event"
    },
    {
      "anonymous": false,
      "inputs": [
        {
          "indexed": true,
          "internalType": "uint256",
          "name": "projectId",
          "type": "uint256"
        },
        {
          "indexed": true,
          "internalType": "address",
          "name": "owner",
          "type": "address"
        },
        {
          "indexed": false,
          "internalType": "string",
          "name": "name",
          "type": "string"
        }
      ],
      "name": "ProjectCreated",
      "type": "event"
    },
    {
      "anonymous": false,
      "inputs": [
        {
          "indexed": true,
          "internalType": "uint256",
          "name": "projectId",
          "type": "uint256"
        },
        {
          "indexed": true,
          "internalType": "address",
          "name": "owner",
          "type": "address"
        }
      ],
      "name": "ProjectDeleted",
      "type": "event"
    },
    {
      "anonymous": false,
      "inputs": [
        {
          "indexed": true,
          "internalType": "bytes32",
          "name": "role",
          "type": "bytes32"
        },
        {
          "indexed": true,
          "internalType": "bytes32",
          "name": "previousAdminRole",
          "type": "bytes32"
        },
        {
          "indexed": true,
          "internalType": "bytes32",
          "name": "newAdminRole",
          "type": "bytes32"
        }
      ],
      "name": "RoleAdminChanged",
      "type": "event"
    },
    {
      "anonymous": false,
      "inputs": [
        {
          "indexed": true,
          "internalType": "bytes32",
          "name": "role",
          "type": "bytes32"
        },
        {
          "indexed": true,
          "internalType": "address",
          "name": "account",
          "type": "address"
        },
        {
          "indexed": true,
          "internalType": "address",
          "name": "sender",
          "type": "address"
        }
      ],
      "name": "RoleGranted",
      "type": "event"
    },
    {
      "anonymous": false,
      "inputs": [
        {
          "indexed": true,
          "internalType": "bytes32",
          "name": "role",
          "type": "bytes32"
        },
        {
          "indexed": true,
          "internalType": "address",
          "name": "account",
          "type": "address"
        },
        {
          "indexed": true,
          "internalType": "address",
          "name": "sender",
          "type": "address"
        }
      ],
      "name": "RoleRevoked",
      "type": "event"
    },
    {
      "anonymous": false,
      "inputs": [
        {
          "indexed": true,
          "internalType": "address",
          "name": "user",
          "type": "address"
        },
        {
          "indexed": true,
          "internalType": "address",
          "name": "instance",
          "type": "address"
        },
        {
          "indexed": false,
          "internalType": "bytes32",
          "name": "templateId",
          "type": "bytes32"
        }
      ],
      "name": "TemplateDeployed",
      "type": "event"
    },
    {
      "anonymous": false,
      "inputs": [
        {
          "indexed": true,
          "internalType": "address",
          "name": "oldFactory",
          "type": "address"
        },
        {
          "indexed": true,
          "internalType": "address",
          "name": "newFactory",
          "type": "address"
        }
      ],
      "name": "TemplateFactoryUpdated",
      "type": "event"
    },
    {
      "anonymous": false,
      "inputs": [
        {
          "indexed": true,
          "internalType": "address",
          "name": "oldTierSystem",
          "type": "address"
        },
        {
          "indexed": true,
          "internalType": "address",
          "name": "newTierSystem",
          "type": "address"
        }
      ],
      "name": "TierSystemUpdated",
      "type": "event"
    },
    {
      "anonymous": false,
      "inputs": [
        {
          "indexed": false,
          "internalType": "address",
          "name": "newForwarder",
          "type": "address"
        }
      ],
      "name": "TrustedForwarderUpdated",
      "type": "event"
    },
    {
      "anonymous": false,
      "inputs": [
        {
          "indexed": true,
          "internalType": "address",
          "name": "implementation",
          "type": "address"
        }
      ],
      "name": "Upgraded",
      "type": "event"
    },
    {
      "inputs": [],
      "name": "DEFAULT_ADMIN_ROLE",
      "outputs": [
        {
          "internalType": "bytes32",
          "name": "",
          "type": "bytes32"
        }
      ],
      "stateMutability": "view",
      "type": "function"
    },
    {
      "inputs": [],
      "name": "UPGRADER_ROLE",
      "outputs": [
        {
          "internalType": "bytes32",
          "name": "",
          "type": "bytes32"
        }
      ],
      "stateMutability": "view",
      "type": "function"
    },
    {
      "inputs": [],
      "name": "UPGRADE_INTERFACE_VERSION",
      "outputs": [
        {
          "internalType": "string",
          "name": "",
          "type": "string"
        }
      ],
      "stateMutability": "view",
      "type": "function"
    },
    {
      "inputs": [
        {
          "internalType": "string",
          "name": "name",
          "type": "string"
        }
      ],
      "name": "createProject",
      "outputs": [
        {
          "internalType": "uint256",
          "name": "projectId",
          "type": "uint256"
        }
      ],
      "stateMutability": "nonpayable",
      "type": "function"
    },
    {
      "inputs": [
        {
          "internalType": "uint256",
          "name": "projectId",
          "type": "uint256"
        }
      ],
      "name": "deleteProject",
      "outputs": [],
      "stateMutability": "nonpayable",
      "type": "function"
    },
    {
      "inputs": [
        {
          "internalType": "uint256",
          "name": "projectId",
          "type": "uint256"
        },
        {
          "internalType": "bytes32",
          "name": "templateId",
          "type": "bytes32"
        },
        {
          "internalType": "bytes",
          "name": "initData",
          "type": "bytes"
        },
        {
          "internalType": "string",
          "name": "metadata",
          "type": "string"
        }
      ],
      "name": "deployTemplateToProject",
      "outputs": [
        {
          "internalType": "address",
          "name": "clone",
          "type": "address"
        }
      ],
      "stateMutability": "nonpayable",
      "type": "function"
    },
    {
      "inputs": [
        {
          "internalType": "bytes32",
          "name": "templateId",
          "type": "bytes32"
        },
        {
          "internalType": "bytes",
          "name": "initData",
          "type": "bytes"
        }
      ],
      "name": "deployWithFee",
      "outputs": [
        {
          "internalType": "address",
          "name": "clone",
          "type": "address"
        }
      ],
      "stateMutability": "nonpayable",
      "type": "function"
    },
    {
      "inputs": [],
      "name": "feeManager",
      "outputs": [
        {
          "internalType": "contract IFeeManager",
          "name": "",
          "type": "address"
        }
      ],
      "stateMutability": "view",
      "type": "function"
    },
    {
      "inputs": [
        {
          "internalType": "bytes32",
          "name": "role",
          "type": "bytes32"
        }
      ],
      "name": "getRoleAdmin",
      "outputs": [
        {
          "internalType": "bytes32",
          "name": "",
          "type": "bytes32"
        }
      ],
      "stateMutability": "view",
      "type": "function"
    },
    {
      "inputs": [],
      "name": "getTemplateFactoryAddress",
      "outputs": [
        {
          "internalType": "address",
          "name": "",
          "type": "address"
        }
      ],
      "stateMutability": "view",
      "type": "function"
    },
    {
      "inputs": [
        {
          "internalType": "address",
          "name": "module",
          "type": "address"
        }
      ],
      "name": "getTemplateIdForModule",
      "outputs": [
        {
          "internalType": "bytes32",
          "name": "",
          "type": "bytes32"
        }
      ],
      "stateMutability": "view",
      "type": "function"
    },
    {
      "inputs": [
        {
          "internalType": "address",
          "name": "user",
          "type": "address"
        }
      ],
      "name": "getUserProjects",
      "outputs": [
        {
          "components": [
            {
              "internalType": "uint256",
              "name": "projectId",
              "type": "uint256"
            },
            {
              "internalType": "string",
              "name": "name",
              "type": "string"
            },
            {
              "internalType": "address",
              "name": "owner",
              "type": "address"
            },
            {
              "internalType": "address[]",
              "name": "moduleAddresses",
              "type": "address[]"
            }
          ],
          "internalType": "struct DeploymentManager.Project[]",
          "name": "projects",
          "type": "tuple[]"
        }
      ],
      "stateMutability": "view",
      "type": "function"
    },
    {
      "inputs": [
        {
          "internalType": "bytes32",
          "name": "role",
          "type": "bytes32"
        },
        {
          "internalType": "address",
          "name": "account",
          "type": "address"
        }
      ],
      "name": "grantRole",
      "outputs": [],
      "stateMutability": "nonpayable",
      "type": "function"
    },
    {
      "inputs": [
        {
          "internalType": "bytes32",
          "name": "role",
          "type": "bytes32"
        },
        {
          "internalType": "address",
          "name": "account",
          "type": "address"
        }
      ],
      "name": "hasRole",
      "outputs": [
        {
          "internalType": "bool",
          "name": "",
          "type": "bool"
        }
      ],
      "stateMutability": "view",
      "type": "function"
    },
    {
      "inputs": [
        {
          "internalType": "address",
          "name": "_templateFactory",
          "type": "address"
        },
        {
          "internalType": "address",
          "name": "_tierSystem",
          "type": "address"
        },
        {
          "internalType": "address",
          "name": "_feeManager",
          "type": "address"
        },
        {
          "internalType": "address",
          "name": "trustedForwarder",
          "type": "address"
        }
      ],
      "name": "initialize",
      "outputs": [],
      "stateMutability": "nonpayable",
      "type": "function"
    },
    {
      "inputs": [
        {
          "internalType": "address",
          "name": "forwarder",
          "type": "address"
        }
      ],
      "name": "isTrustedForwarder",
      "outputs": [
        {
          "internalType": "bool",
          "name": "",
          "type": "bool"
        }
      ],
      "stateMutability": "view",
      "type": "function"
    },
    {
      "inputs": [],
      "name": "proxiableUUID",
      "outputs": [
        {
          "internalType": "bytes32",
          "name": "",
          "type": "bytes32"
        }
      ],
      "stateMutability": "view",
      "type": "function"
    },
    {
      "inputs": [
        {
          "internalType": "bytes32",
          "name": "role",
          "type": "bytes32"
        },
        {
          "internalType": "address",
          "name": "callerConfirmation",
          "type": "address"
        }
      ],
      "name": "renounceRole",
      "outputs": [],
      "stateMutability": "nonpayable",
      "type": "function"
    },
    {
      "inputs": [
        {
          "internalType": "bytes32",
          "name": "role",
          "type": "bytes32"
        },
        {
          "internalType": "address",
          "name": "account",
          "type": "address"
        }
      ],
      "name": "revokeRole",
      "outputs": [],
      "stateMutability": "nonpayable",
      "type": "function"
    },
    {
      "inputs": [
        {
          "internalType": "address",
          "name": "newRelayHub",
          "type": "address"
        }
      ],
      "name": "setRelayHub",
      "outputs": [],
      "stateMutability": "nonpayable",
      "type": "function"
    },
    {
      "inputs": [
        {
          "internalType": "address",
          "name": "forwarder",
          "type": "address"
        }
      ],
      "name": "setTrustedForwarder",
      "outputs": [],
      "stateMutability": "nonpayable",
      "type": "function"
    },
    {
      "inputs": [
        {
          "internalType": "bytes4",
          "name": "interfaceId",
          "type": "bytes4"
        }
      ],
      "name": "supportsInterface",
      "outputs": [
        {
          "internalType": "bool",
          "name": "",
          "type": "bool"
        }
      ],
      "stateMutability": "view",
      "type": "function"
    },
    {
      "inputs": [],
      "name": "templateFactory",
      "outputs": [
        {
          "internalType": "contract ITemplateFactory",
          "name": "",
          "type": "address"
        }
      ],
      "stateMutability": "view",
      "type": "function"
    },
    {
      "inputs": [],
      "name": "tierSystem",
      "outputs": [
        {
          "internalType": "contract ITierSystem",
          "name": "",
          "type": "address"
        }
      ],
      "stateMutability": "view",
      "type": "function"
    },
    {
      "inputs": [
        {
          "internalType": "address",
          "name": "newFeeManager",
          "type": "address"
        }
      ],
      "name": "updateFeeManager",
      "outputs": [],
      "stateMutability": "nonpayable",
      "type": "function"
    },
    {
      "inputs": [
        {
          "internalType": "address",
          "name": "newFactory",
          "type": "address"
        }
      ],
      "name": "updateTemplateFactory",
      "outputs": [],
      "stateMutability": "nonpayable",
      "type": "function"
    },
    {
      "inputs": [
        {
          "internalType": "address",
          "name": "newTierSystem",
          "type": "address"
        }
      ],
      "name": "updateTierSystem",
      "outputs": [],
      "stateMutability": "nonpayable",
      "type": "function"
    },
    {
      "inputs": [
        {
          "internalType": "address",
          "name": "newForwarder",
          "type": "address"
        }
      ],
      "name": "updateTrustedForwarder",
      "outputs": [],
      "stateMutability": "nonpayable",
      "type": "function"
    },
    {
      "inputs": [
        {
          "internalType": "address",
          "name": "newImplementation",
          "type": "address"
        },
        {
          "internalType": "bytes",
          "name": "data",
          "type": "bytes"
        }
      ],
      "name": "upgradeToAndCall",
      "outputs": [],
      "stateMutability": "payable",
      "type": "function"
    }
  ],
  "bytecode": "0x60a080604052346100cc57306080527ff0c57e16840df040f15088dc2f81fe391c3923bec73e23a9662efc9c229c6a009081549060ff8260401c166100bd57506001600160401b036002600160401b031982821601610078575b6040516125ba90816100d282396080518181816109cd0152610a870152f35b6001600160401b031990911681179091556040519081527fc7f505b2f371ae2175ee4913f4499e1f2633a7b5936321eed1cdaeb6115181d290602090a1388080610059565b63f92ee8a960e01b8152600490fd5b600080fdfe608080604052600436101561001357600080fd5b60003560e01c90816301ffc9a714611b8f575080630e574c551461199357806312e7d2a01461191557806315ee4df11461164c5780631dc5314f146115d8578063248a9ca31461159c5780632aa2fdf1146110ea5780632f2ff15d1461109e578063346383bf146106c657806336568abe1461104d5780634cd0cb2814610cb35780634f1ef28614610a3757806352d1902d146109ba578063572b6c051461098d57806362eb9c80146109195780637bb052641461089857806391d148541461083e578063a217fddf14610822578063ad3cb1cc146107d8578063c6acd27414610764578063d0fb02031461073b578063d547741f146106ef578063d81e44e4146106c6578063da7422281461015e578063e32e723c146103f0578063f72c0d8b146103b5578063f8c8765e146101b7578063f8caa7e51461018e5763f90b03111461015e57600080fd5b346101895760203660031901126101895761018761017a611c0f565b61018261216d565b61205a565b005b600080fd5b34610189576000366003190112610189576002546040516001600160a01b039091168152602090f35b34610189576080366003190112610189576101d0611c0f565b6101d8611c25565b6044356001600160a01b0381811693918490036101895760643592818416809403610189577ff0c57e16840df040f15088dc2f81fe391c3923bec73e23a9662efc9c229c6a0093845460ff8160401c1615946001600160401b038216978815806103ae575b6001809a1490816103a4575b15908161039b575b506103895767ffffffffffffffff198316891788557fa4388ecc389b1390354ae0c65a856c0d7dd4fb648419f5d3ac0b99e38f46fd119560209585948961036a575b5061029c6124a0565b6102a46124a0565b6102ac6124a0565b6102b46124a0565b6102bc6124a0565b8a60008051602061256583398151915255816001600160601b0360a01b9416848c5416178b5516826002541617600255816003541617600355600054161760005561030d61030861213e565b61221d565b5061031e61031961213e565b6122c8565b50604051908152a161032c57005b805468ff0000000000000000191690556040519081527fc7f505b2f371ae2175ee4913f4499e1f2633a7b5936321eed1cdaeb6115181d290602090a1005b68ffffffffffffffffff191668010000000000000001178a558b610293565b60405163f92ee8a960e01b8152600490fd5b9050158a610251565b303b159150610249565b508661023d565b346101895760003660031901126101895760206040517f189ab7a9244df0848122154315af71fe140f3db0fe014031783b0946b8c9d2e38152f35b3461018957602080600319360112610189576001600160a01b039081610414611c0f565b166000526005808252604060002090815461042e816120e3565b9261043c6040519485611c71565b818452610448826120e3565b601f190160005b81811061068f57505060005b828110610534575050505060405192828493840190808552835180925260408501928160408460051b8801019501936000915b84831061049b5787870388f35b91939583959750603f939193198982030184528751906104cc60808351835284840151908086850152830190611ce4565b90846040840151166040820152606080930151928183039101528280835192838152019201906000905b80821061051957505050908060019298019301930190928796959394929461048e565b919380600192948787511681520194019201879392916104f6565b610542818398969798611f0d565b9054600391821b1c6000526006885260406000206040519161056383611c3b565b815483526001918281018b6040518092600090805461058181611e75565b80855294818a1691821561067057505060011461062c575b506105a692500382611c71565b8b8501528860028201541660408501520160405180928b83549283815201926000528b600020916000905b8d8c82841061061657505050505050906105f18160019594930382611c71565b606082015261060082896120fa565b5261060b81886120fa565b50019594939561045b565b85541686529094019392820192908201906105d1565b915050600052818d8060002092876000945b828610610655575050506105a6928201018f610599565b8091929450548386880101520192019183918f91889061063e565b915092506105a694915060ff19168284015215158c1b8201018f610599565b95809795966040516106a081611c3b565b6000815260608084830152600060408301528082015282828a010152019695949661044f565b34610189576000366003190112610189576001546040516001600160a01b039091168152602090f35b346101895760403660031901126101895761018760043561070e611c25565b90806000526000805160206125458339815191526020526107366001604060002001546121d6565b61241c565b34610189576000366003190112610189576003546040516001600160a01b039091168152602090f35b346101895760203660031901126101895761077d611c0f565b61078561216d565b6001600160a01b039081169061079c821515611f25565b816003549182167fe139a19f7890c89603e0d013fb99aed7d286ef55ef5a092ddd2980a3afd2138d600080a36001600160a01b03191617600355005b346101895760003660031901126101895761081e6040516107f881611c56565b60058152640352e302e360dc1b6020820152604051918291602083526020830190611ce4565b0390f35b3461018957600036600319011261018957602060405160008152f35b3461018957604036600319011261018957610857611c25565b60043560005260008051602061254583398151915260205260406000209060018060a01b0316600052602052602060ff604060002054166040519015158152f35b34610189576020366003190112610189576108b1611c0f565b6108b961216d565b6001600160a01b031680156108e0576001600160601b0360a01b6009541617600955600080f35b60405162461bcd60e51b815260206004820152601160248201527024b73b30b634b2103932b630bc90343ab160791b6044820152606490fd5b3461018957602036600319011261018957610932611c0f565b61093a61216d565b6001600160a01b0390811690610951821515611f25565b816001549182167f8cf6a04e7310d6a4c1d321a291f8fa36181a73ce2e90f1dcd19e59e528fd5dc9600080a36001600160a01b03191617600155005b346101895760203660031901126101895760206109b06109ab611c0f565b612031565b6040519015158152f35b34610189576000366003190112610189577f00000000000000000000000000000000000000000000000000000000000000006001600160a01b03163003610a255760206040517f360894a13ba1a3210667c828492db98dca3e2076cc3735a920a3ca505d382bbc8152f35b60405163703e46dd60e11b8152600490fd5b604036600319011261018957610a4b611c0f565b60249081356001600160401b038111610189573660238201121561018957610a7c9036908481600401359101611cad565b6001600160a01b03917f00000000000000000000000000000000000000000000000000000000000000008316308114908115610c85575b50610a2557610ac061213e565b831660008181527fab71e3f32666744d246edff3f96e4bdafee2e9867098cdd118a979a7464786a86020908152604090912054909491907f189ab7a9244df0848122154315af71fe140f3db0fe014031783b0946b8c9d2e39060ff1615610c685750508116926040516352d1902d60e01b81528181600481885afa60009181610c39575b50610b6157604051634c9c8ce360e01b8152600481018690528690fd5b8490867f360894a13ba1a3210667c828492db98dca3e2076cc3735a920a3ca505d382bbc91828103610c245750843b15610c0e575080546001600160a01b03191682179055604051907fbc7cd75a20ee27fd9adebab32041f755214dbc6bffa90cc0225b39da2e5c2d3b600080a2835115610bf45750600083819261018795519101845af4610bee611de4565b916124e1565b9250505034610bff57005b63b398979f60e01b8152600490fd5b604051634c9c8ce360e01b815260048101849052fd5b60405190632a87526960e21b82526004820152fd5b9091508281813d8311610c61575b610c518183611c71565b8101031261018957519087610b44565b503d610c47565b60449250866040519263e2517d3f60e01b84526004840152820152fd5b9050837f360894a13ba1a3210667c828492db98dca3e2076cc3735a920a3ca505d382bbc5416141585610ab3565b34610189576020806003193601126101895760043590610cd161210e565b610cd961213e565b9082600052600681526040600020926040519160018060a01b03907f0eb3305a0be750dad027e54e4b1c9173b56defb89cd7535768dea21a12f3c2706060838716958681523284820152336040820152a16002610d3d858460028a01541614611f63565b610d55610d4e600180990154611e75565b1515611fa3565b8260025416604051635a2d572960e11b8152866004820152838160248181955afa801561101257610dcc98859260009261101e575b506003805460405163625fd85160e01b81526001600160a01b03909316600484015260ff9093166024830152909990968a921690829060009082906044820190565b03925af18015611012578897600091610fde575b50610dec901515611d7f565b85600052600583526040600020876000905b610f06575b505050909192809495506000526006825282604060002060008155610e29888201611fe8565b600060028201550180546000825580610eeb575b505083600052600782526040600020918254926000815583610e94575b8787877f82ffe74e518345670ef347c36f4dc8049fff9a1b71ac0657e931009ee4221183600080a360008051602061256583398151915255005b8385029385850403610ed557600052600020918201915b828110610eb85780610e5a565b806000859255600088820155610ecf838201611fe8565b01610eab565b634e487b7160e01b600052601160045260246000fd5b610eff916000528360002090810190611eaf565b8680610e3d565b815480821015610fd85787610f1b8385611f0d565b905490891b1c14610f2f5750880188610dfe565b9394959697985060009291921993848101908111610fc357610f64610f57610f7b9286611f0d565b9054908a1b1c9285611f0d565b819391549060031b91821b91600019901b19161790565b90558154908115610faf5750820191610f948383611f0d565b9091825491881b1b1916905555908594939291878080610e03565b634e487b7160e01b60009081526031600452fd5b82634e487b7160e01b60005260116004526000fd5b50610e03565b809850848092503d831161100b575b610ff78183611c71565b8101031261018957610dec88975190610de0565b503d610fed565b6040513d6000823e3d90fd5b61103f919250833d8511611046575b6110378183611c71565b810190611d66565b908b610d8a565b503d61102d565b3461018957604036600319011261018957611066611c25565b6001600160a01b038061107761213e565b169082160361108c576101879060043561241c565b60405163334bd91960e11b8152600490fd5b34610189576040366003190112610189576101876004356110bd611c25565b90806000526000805160206125458339815191526020526110e56001604060002001546121d6565b612396565b34610189576080366003190112610189576044356001600160401b0381116101895761111a903690600401611be2565b906064356001600160401b0381116101895761113a903690600401611be2565b909261114461210e565b6004356000908152600660205260409020600281015490939061117c906001600160a01b039081169061117561213e565b1614611f63565b61118c610d4e6001860154611e75565b6111996024351515611d24565b6002546001600160a01b031660206111af61213e565b604051635a2d572960e11b81526001600160a01b03909116600482015291829060249082905afa9081156110125761123b9160209160009161157f575b506003546001600160a01b031661120161213e565b60405163625fd85160e01b81526001600160a01b03909116600482015260ff90921660248301529092839190829060009082906044820190565b03925af19081156110125760009161154a575b509060009261125f84931515611d7f565b6112ab60018060a01b03600154169161129d6040519485926352876d8b60e11b60208501526024356024850152604060448501526064840191611dc3565b03601f198101845283611c71565b82602083519301915af16112c66112c0611de4565b91611e14565b80516001600160a01b03916112e391810160209081019101611e56565b16918260005260086020526024356040600020556003810154600160401b81101561151e57600361131c92600183018282015501611f0d565b81549060031b9084821b9160018060a01b03901b19161790556004356000526007602052604060002090604051938460608101106001600160401b0360608701111761151e5761137f916060860160405260243586528460208701523691611cad565b6040840152805490600160401b82101561151e57600182018082558210156115345760409160029160005260036020600020910201845181556001810160018060a01b036020870151166001600160601b0360a01b82541617905501920151908151926001600160401b03841161151e57836114076020956114018454611e75565b84611ec6565b8493601f82116001146114bb5761143992939482916000926114b0575b50508160011b916000199060031b1c19161790565b90555b6040516024358382015282815261145281611c56565b7fcedd43909fe80016050e45e5dbd0dd3e7018b614fe8ccefb0e3610dbcdf5d70961148860405192604084526040840190611ce4565b91838582015280600435930390a2600160008051602061256583398151915255604051908152f35b015190508680611424565b601f1982169483600052866000209160005b8781106115075750836001959697106114ee575b505050811b01905561143c565b015160001960f88460031b161c191690558580806114e1565b9192886001819286850151815501940192016114cd565b634e487b7160e01b600052604160045260246000fd5b634e487b7160e01b600052603260045260246000fd5b9190506020823d602011611577575b8161156660209383611c71565b81010312610189579051600061124e565b3d9150611559565b6115969150823d8411611046576110378183611c71565b886111ec565b34610189576020366003190112610189576004356000526000805160206125458339815191526020526020600160406000200154604051908152f35b34610189576020366003190112610189576115f1611c0f565b6115f961216d565b6001600160a01b0390811690611610821515611f25565b816002549182167f2971f5c9b80101ff2419623548fd61c507483f353d38c2fd4e431aa9bac6bc3d600080a36001600160a01b03191617600255005b3461018957602080600319360112610189576001600160401b036004358181116101895761167e903690600401611be2565b9081156118d8576002546001600160a01b0391908216858360246116a061213e565b6040519485938492635a2d572960e11b84521660048301525afa908115611012576116dd9187916000916118bb575b50846003541661120161213e565b03925af180156110125760009061188c575b6116fb91501515611d7f565b60045490600019808314610ed55760018093019586600455866000526006885260406000209187835584830191871161151e5786906117448261173e8554611e75565b85611ec6565b600090601f8311600114611829575090806117759260009161181e575b508160011b916000199060031b1c19161790565b90555b83600261178361213e565b920191166001600160601b0360a01b825416179055826117a161213e565b16600052600586526040600020928354600160401b81101561151e576117f2610f648289977f9d9ec461f162f3f4fdb9f6d189bfe13c59e48d8acd23a4c3bfcf7cc0fe4e84ed978995018155611f0d565b90556117fc61213e565b169361181360405192839289845289840191611dc3565b0390a3604051908152f35b90508501358b611761565b60008481528b812093508990601f198216905b8d8a838310611875575050501061185d575b5050508386811b019055611778565b60f88960031b161c199085013516905588808061184e565b868b0135885590960195948501948c93500161183c565b508581813d83116118b4575b6118a28183611c71565b81010312610189576116fb90516116ef565b503d611898565b6118d29150823d8411611046576110378183611c71565b886116cf565b60405162461bcd60e51b8152600481018590526015602482015274141c9bda9958dd081b985b59481c995c5d5a5c9959605a1b6044820152606490fd5b34610189576020366003190112610189576001600160a01b03611936611c0f565b166000526008602052604060002054801561195657602090604051908152f35b60405162461bcd60e51b815260206004820152601560248201527415195b5c1b185d19481251081b9bdd08199bdd5b99605a1b6044820152606490fd5b34610189576040366003190112610189576004356024356001600160401b038111610189576119c6903690600401611be2565b916119cf61210e565b6119da811515611d24565b6119e261213e565b9160018060a01b0380600254169160405195635a2d572960e11b8752868387169485600483015281602460209a8b935afa801561101257611a66978992600092611b70575b5060035460405163625fd85160e01b81526001600160a01b03909216600483015260ff9092166024820152978891861690829060009082906044820190565b03925af18015611012578796600091611b38575b5060007f5244239ee2f0e64cc64acf681cf90f096a5d6241ea6f090e68b27e280f1ac58294938782611b1395611ab282961515611d7f565b611af68c611ae88a60015416966040519485938401976352876d8b60e11b89526024850152604060448501526064840191611dc3565b03601f198101835282611c71565b51925af1611b056112c0611de4565b868082518301019101611e56565b16938493604051908152a3600160008051602061256583398151915255604051908152f35b87819594939892503d8311611b69575b611b528183611c71565b810103126101895791518695919291906000611a7a565b503d611b48565b611b88919250833d8511611046576110378183611c71565b908a611a27565b34610189576020366003190112610189576004359063ffffffff60e01b821680920361018957602091637965db0b60e01b8114908115611bd1575b5015158152f35b6301ffc9a760e01b14905083611bca565b9181601f84011215610189578235916001600160401b038311610189576020838186019501011161018957565b600435906001600160a01b038216820361018957565b602435906001600160a01b038216820361018957565b608081019081106001600160401b0382111761151e57604052565b604081019081106001600160401b0382111761151e57604052565b90601f801991011681019081106001600160401b0382111761151e57604052565b6001600160401b03811161151e57601f01601f191660200190565b929192611cb982611c92565b91611cc76040519384611c71565b829481845281830111610189578281602093846000960137010152565b919082519283825260005b848110611d10575050826000602080949584010152601f8019910116010190565b602081830181015184830182015201611cef565b15611d2b57565b60405162461bcd60e51b8152602060048201526013602482015272125b9d985b1a59081d195b5c1b185d19481251606a1b6044820152606490fd5b90816020910312610189575160ff811681036101895790565b15611d8657565b60405162461bcd60e51b81526020600482015260156024820152741199594818dbdb1b1958dd1a5bdb8819985a5b1959605a1b6044820152606490fd5b908060209392818452848401376000828201840152601f01601f1916010190565b3d15611e0f573d90611df582611c92565b91611e036040519384611c71565b82523d6000602084013e565b606090565b15611e1b57565b60405162461bcd60e51b8152602060048201526013602482015272119858dd1bdc9e4818d85b1b0819985a5b1959606a1b6044820152606490fd5b9081602091031261018957516001600160a01b03811681036101895790565b90600182811c92168015611ea5575b6020831014611e8f57565b634e487b7160e01b600052602260045260246000fd5b91607f1691611e84565b818110611eba575050565b60008155600101611eaf565b9190601f8111611ed557505050565b611f01926000526020600020906020601f840160051c83019310611f03575b601f0160051c0190611eaf565b565b9091508190611ef4565b80548210156115345760005260206000200190600090565b15611f2c57565b60405162461bcd60e51b815260206004820152600f60248201526e496e76616c6964206164647265737360881b6044820152606490fd5b15611f6a57565b60405162461bcd60e51b81526020600482015260116024820152702737ba10383937b532b1ba1037bbb732b960791b6044820152606490fd5b15611faa57565b60405162461bcd60e51b8152602060048201526016602482015275141c9bda9958dd08191bd95cc81b9bdd08195e1a5cdd60521b6044820152606490fd5b611ff28154611e75565b9081611ffc575050565b81601f6000931160011461200e575055565b90808391825261202d601f60208420940160051c840160018501611eaf565b5555565b6000546001600160a01b03918216908216811491821561205057505090565b6009541614919050565b6001600160a01b031680156120aa576020817fa4388ecc389b1390354ae0c65a856c0d7dd4fb648419f5d3ac0b99e38f46fd11926001600160601b0360a01b6000541617600055604051908152a1565b60405162461bcd60e51b815260206004820152601160248201527024b73b30b634b2103337b93bb0b93232b960791b6044820152606490fd5b6001600160401b03811161151e5760051b60200190565b80518210156115345760209160051b010190565b600080516020612565833981519152600281541461212c5760029055565b604051633ee5aeb560e01b8152600490fd5b60143610158061215e575b1561215a5736601319013560601c90565b3390565b5061216833612031565b612149565b61217561213e565b6001600160a01b031660008181527fb7db2dd08fcb62d0c9e08c51941cae53c267786a0b75803fb7960902fc8ef97d602052604081205460ff16156121b8575050565b604492506040519163e2517d3f60e01b835260048301526024820152fd5b6121de61213e565b908060005260008051602061254583398151915260205260406000209160018060a01b0316918260005260205260ff60406000205416156121b8575050565b6001600160a01b0390811660008181527fb7db2dd08fcb62d0c9e08c51941cae53c267786a0b75803fb7960902fc8ef97d60205260408120549092906000805160206125458339815191529060ff166122c2578380526020526040832082845260205260408320600160ff1982541617905561229761213e565b16917f2f8788117e7eff1d82e926ec794901d17c78024a50270940304540a733656f0d8180a4600190565b50505090565b6001600160a01b0390811660008181527fab71e3f32666744d246edff3f96e4bdafee2e9867098cdd118a979a7464786a8602052604081205490927f189ab7a9244df0848122154315af71fe140f3db0fe014031783b0946b8c9d2e391600080516020612545833981519152919060ff1661238f577f2f8788117e7eff1d82e926ec794901d17c78024a50270940304540a733656f0d918386526020526040852084865260205260408520600160ff1982541617905561238661213e565b169380a4600190565b5050505090565b6000818152600080516020612545833981519152602081815260408084206001600160a01b039687168086529252832054929490939260ff1661238f577f2f8788117e7eff1d82e926ec794901d17c78024a50270940304540a733656f0d918386526020526040852084865260205260408520600160ff1982541617905561238661213e565b6000818152600080516020612545833981519152602081815260408084206001600160a01b039687168086529252832054929490939260ff161561238f577ff6391f5c32d9c69d2a47ea670b442974b53935d1edc7fd64eb21e047a839171b91838652602052604085208486526020526040852060ff19815416905561238661213e565b60ff7ff0c57e16840df040f15088dc2f81fe391c3923bec73e23a9662efc9c229c6a005460401c16156124cf57565b604051631afcd79f60e31b8152600490fd5b9061250857508051156124f657805190602001fd5b60405163d6bda27560e01b8152600490fd5b8151158061253b575b612519575090565b604051639996b31560e01b81526001600160a01b039091166004820152602490fd5b50803b1561251156fe02dd7bc7dec4dceedda775e58dd541e08a116c6c53815c0bd028192f7b6268009b779b17422d0df92223018b32b4d1fa46e071723d6817e2486d003becc55f00a26469706673582212201bab578b5090fbe3b961b80ae3d5260ebfd9b27bf1fc5d14c63c1084b3e8dbd864736f6c63430008160033",
  "linkReferences": {},
  "deployedLinkReferences": {}
}