{
  "_format": "hh-sol-artifact-1",
  "contractName": "FeeManager",
  "sourceName": "contracts/FeeManager.sol",
  "abi": [
    {
      "inputs": [],
      "stateMutability": "nonpayable",
      "type": "constructor"
    },
    {
      "inputs": [],
      "name": "AccessControlBadConfirmation",
      "type": "error"
    },
    {
      "inputs": [
        {
          "internalType": "address",
          "name": "account",
          "type": "address"
        },
        {
          "internalType": "bytes32",
          "name": "neededRole",
          "type": "bytes32"
        }
      ],
      "name": "AccessControlUnauthorizedAccount",
      "type": "error"
    },
    {
      "inputs": [
        {
          "internalType": "address",
          "name": "target",
          "type": "address"
        }
      ],
      "name": "AddressEmptyCode",
      "type": "error"
    },
    {
      "inputs": [
        {
          "internalType": "address",
          "name": "implementation",
          "type": "address"
        }
      ],
      "name": "ERC1967InvalidImplementation",
      "type": "error"
    },
    {
      "inputs": [],
      "name": "ERC1967NonPayable",
      "type": "error"
    },
    {
      "inputs": [],
      "name": "FailedCall",
      "type": "error"
    },
    {
      "inputs": [],
      "name": "InvalidInitialization",
      "type": "error"
    },
    {
      "inputs": [],
      "name": "NotInitializing",
      "type": "error"
    },
    {
      "inputs": [],
      "name": "ReentrancyGuardReentrantCall",
      "type": "error"
    },
    {
      "inputs": [
        {
          "internalType": "address",
          "name": "token",
          "type": "address"
        }
      ],
      "name": "SafeERC20FailedOperation",
      "type": "error"
    },
    {
      "inputs": [],
      "name": "UUPSUnauthorizedCallContext",
      "type": "error"
    },
    {
      "inputs": [
        {
          "internalType": "bytes32",
          "name": "slot",
          "type": "bytes32"
        }
      ],
      "name": "UUPSUnsupportedProxiableUUID",
      "type": "error"
    },
    {
      "anonymous": false,
      "inputs": [
        {
          "indexed": true,
          "internalType": "address",
          "name": "user",
          "type": "address"
        },
        {
          "indexed": false,
          "internalType": "uint8",
          "name": "tier",
          "type": "uint8"
        },
        {
          "indexed": false,
          "internalType": "uint256",
          "name": "baseAmount",
          "type": "uint256"
        },
        {
          "indexed": false,
          "internalType": "uint256",
          "name": "finalAmount",
          "type": "uint256"
        },
        {
          "indexed": false,
          "internalType": "uint256",
          "name": "burnAmount",
          "type": "uint256"
        },
        {
          "indexed": false,
          "internalType": "uint256",
          "name": "treasuryAmount",
          "type": "uint256"
        },
        {
          "indexed": false,
          "internalType": "uint256",
          "name": "foundersAmount",
          "type": "uint256"
        }
      ],
      "name": "FeesDistributed",
      "type": "event"
    },
    {
      "anonymous": false,
      "inputs": [
        {
          "indexed": false,
          "internalType": "uint256",
          "name": "oldRate",
          "type": "uint256"
        },
        {
          "indexed": false,
          "internalType": "uint256",
          "name": "newRate",
          "type": "uint256"
        }
      ],
      "name": "GasToModlRateUpdated",
      "type": "event"
    },
    {
      "anonymous": false,
      "inputs": [
        {
          "indexed": false,
          "internalType": "uint64",
          "name": "version",
          "type": "uint64"
        }
      ],
      "name": "Initialized",
      "type": "event"
    },
    {
      "anonymous": false,
      "inputs": [
        {
          "indexed": true,
          "internalType": "bytes32",
          "name": "role",
          "type": "bytes32"
        },
        {
          "indexed": true,
          "internalType": "bytes32",
          "name": "previousAdminRole",
          "type": "bytes32"
        },
        {
          "indexed": true,
          "internalType": "bytes32",
          "name": "newAdminRole",
          "type": "bytes32"
        }
      ],
      "name": "RoleAdminChanged",
      "type": "event"
    },
    {
      "anonymous": false,
      "inputs": [
        {
          "indexed": true,
          "internalType": "bytes32",
          "name": "role",
          "type": "bytes32"
        },
        {
          "indexed": true,
          "internalType": "address",
          "name": "account",
          "type": "address"
        },
        {
          "indexed": true,
          "internalType": "address",
          "name": "sender",
          "type": "address"
        }
      ],
      "name": "RoleGranted",
      "type": "event"
    },
    {
      "anonymous": false,
      "inputs": [
        {
          "indexed": true,
          "internalType": "bytes32",
          "name": "role",
          "type": "bytes32"
        },
        {
          "indexed": true,
          "internalType": "address",
          "name": "account",
          "type": "address"
        },
        {
          "indexed": true,
          "internalType": "address",
          "name": "sender",
          "type": "address"
        }
      ],
      "name": "RoleRevoked",
      "type": "event"
    },
    {
      "anonymous": false,
      "inputs": [
        {
          "indexed": true,
          "internalType": "uint8",
          "name": "tierIndex",
          "type": "uint8"
        },
        {
          "indexed": false,
          "internalType": "uint256",
          "name": "oldDiscount",
          "type": "uint256"
        },
        {
          "indexed": false,
          "internalType": "uint256",
          "name": "newDiscount",
          "type": "uint256"
        }
      ],
      "name": "TierDiscountUpdated",
      "type": "event"
    },
    {
      "anonymous": false,
      "inputs": [
        {
          "indexed": false,
          "internalType": "address",
          "name": "newForwarder",
          "type": "address"
        }
      ],
      "name": "TrustedForwarderUpdated",
      "type": "event"
    },
    {
      "anonymous": false,
      "inputs": [
        {
          "indexed": true,
          "internalType": "address",
          "name": "implementation",
          "type": "address"
        }
      ],
      "name": "Upgraded",
      "type": "event"
    },
    {
      "inputs": [],
      "name": "DEFAULT_ADMIN_ROLE",
      "outputs": [
        {
          "internalType": "bytes32",
          "name": "",
          "type": "bytes32"
        }
      ],
      "stateMutability": "view",
      "type": "function"
    },
    {
      "inputs": [],
      "name": "FEE_DENOMINATOR",
      "outputs": [
        {
          "internalType": "uint256",
          "name": "",
          "type": "uint256"
        }
      ],
      "stateMutability": "view",
      "type": "function"
    },
    {
      "inputs": [],
      "name": "UPGRADER_ROLE",
      "outputs": [
        {
          "internalType": "bytes32",
          "name": "",
          "type": "bytes32"
        }
      ],
      "stateMutability": "view",
      "type": "function"
    },
    {
      "inputs": [],
      "name": "UPGRADE_INTERFACE_VERSION",
      "outputs": [
        {
          "internalType": "string",
          "name": "",
          "type": "string"
        }
      ],
      "stateMutability": "view",
      "type": "function"
    },
    {
      "inputs": [],
      "name": "burnShare",
      "outputs": [
        {
          "internalType": "uint256",
          "name": "",
          "type": "uint256"
        }
      ],
      "stateMutability": "view",
      "type": "function"
    },
    {
      "inputs": [
        {
          "internalType": "uint256",
          "name": "baseGasAmount",
          "type": "uint256"
        },
        {
          "internalType": "address",
          "name": "user",
          "type": "address"
        }
      ],
      "name": "calculateFinalFee",
      "outputs": [
        {
          "internalType": "uint256",
          "name": "finalAmount",
          "type": "uint256"
        },
        {
          "internalType": "uint256",
          "name": "discountBps",
          "type": "uint256"
        },
        {
          "internalType": "uint8",
          "name": "userTier",
          "type": "uint8"
        }
      ],
      "stateMutability": "view",
      "type": "function"
    },
    {
      "inputs": [
        {
          "internalType": "address",
          "name": "user",
          "type": "address"
        },
        {
          "internalType": "uint256",
          "name": "gasUsed",
          "type": "uint256"
        }
      ],
      "name": "collectFee",
      "outputs": [
        {
          "internalType": "uint256",
          "name": "finalAmount",
          "type": "uint256"
        }
      ],
      "stateMutability": "nonpayable",
      "type": "function"
    },
    {
      "inputs": [],
      "name": "founders",
      "outputs": [
        {
          "internalType": "address",
          "name": "",
          "type": "address"
        }
      ],
      "stateMutability": "view",
      "type": "function"
    },
    {
      "inputs": [],
      "name": "foundersShare",
      "outputs": [
        {
          "internalType": "uint256",
          "name": "",
          "type": "uint256"
        }
      ],
      "stateMutability": "view",
      "type": "function"
    },
    {
      "inputs": [],
      "name": "gasToModlRate",
      "outputs": [
        {
          "internalType": "uint256",
          "name": "",
          "type": "uint256"
        }
      ],
      "stateMutability": "view",
      "type": "function"
    },
    {
      "inputs": [],
      "name": "getFeeSplits",
      "outputs": [
        {
          "internalType": "uint256",
          "name": "burn",
          "type": "uint256"
        },
        {
          "internalType": "uint256",
          "name": "treasuryAmt",
          "type": "uint256"
        },
        {
          "internalType": "uint256",
          "name": "founderAmt",
          "type": "uint256"
        }
      ],
      "stateMutability": "view",
      "type": "function"
    },
    {
      "inputs": [
        {
          "internalType": "bytes32",
          "name": "role",
          "type": "bytes32"
        }
      ],
      "name": "getRoleAdmin",
      "outputs": [
        {
          "internalType": "bytes32",
          "name": "",
          "type": "bytes32"
        }
      ],
      "stateMutability": "view",
      "type": "function"
    },
    {
      "inputs": [],
      "name": "getTierDiscounts",
      "outputs": [
        {
          "internalType": "uint256[]",
          "name": "",
          "type": "uint256[]"
        }
      ],
      "stateMutability": "view",
      "type": "function"
    },
    {
      "inputs": [],
      "name": "getTrustedForwarder",
      "outputs": [
        {
          "internalType": "address",
          "name": "",
          "type": "address"
        }
      ],
      "stateMutability": "view",
      "type": "function"
    },
    {
      "inputs": [
        {
          "internalType": "bytes32",
          "name": "role",
          "type": "bytes32"
        },
        {
          "internalType": "address",
          "name": "account",
          "type": "address"
        }
      ],
      "name": "grantRole",
      "outputs": [],
      "stateMutability": "nonpayable",
      "type": "function"
    },
    {
      "inputs": [
        {
          "internalType": "bytes32",
          "name": "role",
          "type": "bytes32"
        },
        {
          "internalType": "address",
          "name": "account",
          "type": "address"
        }
      ],
      "name": "hasRole",
      "outputs": [
        {
          "internalType": "bool",
          "name": "",
          "type": "bool"
        }
      ],
      "stateMutability": "view",
      "type": "function"
    },
    {
      "inputs": [
        {
          "internalType": "address",
          "name": "_treasury",
          "type": "address"
        },
        {
          "internalType": "address",
          "name": "_founders",
          "type": "address"
        },
        {
          "internalType": "contract IModlToken",
          "name": "_modlToken",
          "type": "address"
        },
        {
          "internalType": "contract ITierSystem",
          "name": "_tierSystem",
          "type": "address"
        },
        {
          "internalType": "uint256",
          "name": "_gasToModlRate",
          "type": "uint256"
        },
        {
          "internalType": "address",
          "name": "trustedForwarder",
          "type": "address"
        }
      ],
      "name": "initialize",
      "outputs": [],
      "stateMutability": "nonpayable",
      "type": "function"
    },
    {
      "inputs": [
        {
          "internalType": "address",
          "name": "forwarder",
          "type": "address"
        }
      ],
      "name": "isTrustedForwarder",
      "outputs": [
        {
          "internalType": "bool",
          "name": "",
          "type": "bool"
        }
      ],
      "stateMutability": "view",
      "type": "function"
    },
    {
      "inputs": [],
      "name": "modlToken",
      "outputs": [
        {
          "internalType": "contract IModlToken",
          "name": "",
          "type": "address"
        }
      ],
      "stateMutability": "view",
      "type": "function"
    },
    {
      "inputs": [],
      "name": "proxiableUUID",
      "outputs": [
        {
          "internalType": "bytes32",
          "name": "",
          "type": "bytes32"
        }
      ],
      "stateMutability": "view",
      "type": "function"
    },
    {
      "inputs": [
        {
          "internalType": "bytes32",
          "name": "role",
          "type": "bytes32"
        },
        {
          "internalType": "address",
          "name": "callerConfirmation",
          "type": "address"
        }
      ],
      "name": "renounceRole",
      "outputs": [],
      "stateMutability": "nonpayable",
      "type": "function"
    },
    {
      "inputs": [
        {
          "internalType": "bytes32",
          "name": "role",
          "type": "bytes32"
        },
        {
          "internalType": "address",
          "name": "account",
          "type": "address"
        }
      ],
      "name": "revokeRole",
      "outputs": [],
      "stateMutability": "nonpayable",
      "type": "function"
    },
    {
      "inputs": [
        {
          "internalType": "uint256",
          "name": "newRate",
          "type": "uint256"
        }
      ],
      "name": "setGasToModlRate",
      "outputs": [],
      "stateMutability": "nonpayable",
      "type": "function"
    },
    {
      "inputs": [
        {
          "internalType": "uint8",
          "name": "tierIndex",
          "type": "uint8"
        },
        {
          "internalType": "uint256",
          "name": "newBps",
          "type": "uint256"
        }
      ],
      "name": "setTierDiscount",
      "outputs": [],
      "stateMutability": "nonpayable",
      "type": "function"
    },
    {
      "inputs": [
        {
          "internalType": "address",
          "name": "forwarder",
          "type": "address"
        }
      ],
      "name": "setTrustedForwarder",
      "outputs": [],
      "stateMutability": "nonpayable",
      "type": "function"
    },
    {
      "inputs": [
        {
          "internalType": "bytes4",
          "name": "interfaceId",
          "type": "bytes4"
        }
      ],
      "name": "supportsInterface",
      "outputs": [
        {
          "internalType": "bool",
          "name": "",
          "type": "bool"
        }
      ],
      "stateMutability": "view",
      "type": "function"
    },
    {
      "inputs": [
        {
          "internalType": "uint256",
          "name": "",
          "type": "uint256"
        }
      ],
      "name": "tierDiscountBPS",
      "outputs": [
        {
          "internalType": "uint256",
          "name": "",
          "type": "uint256"
        }
      ],
      "stateMutability": "view",
      "type": "function"
    },
    {
      "inputs": [],
      "name": "tierSystem",
      "outputs": [
        {
          "internalType": "contract ITierSystem",
          "name": "",
          "type": "address"
        }
      ],
      "stateMutability": "view",
      "type": "function"
    },
    {
      "inputs": [],
      "name": "treasury",
      "outputs": [
        {
          "internalType": "address",
          "name": "",
          "type": "address"
        }
      ],
      "stateMutability": "view",
      "type": "function"
    },
    {
      "inputs": [],
      "name": "treasuryShare",
      "outputs": [
        {
          "internalType": "uint256",
          "name": "",
          "type": "uint256"
        }
      ],
      "stateMutability": "view",
      "type": "function"
    },
    {
      "inputs": [
        {
          "internalType": "address",
          "name": "newForwarder",
          "type": "address"
        }
      ],
      "name": "updateTrustedForwarder",
      "outputs": [],
      "stateMutability": "nonpayable",
      "type": "function"
    },
    {
      "inputs": [
        {
          "internalType": "address",
          "name": "newImplementation",
          "type": "address"
        },
        {
          "internalType": "bytes",
          "name": "data",
          "type": "bytes"
        }
      ],
      "name": "upgradeToAndCall",
      "outputs": [],
      "stateMutability": "payable",
      "type": "function"
    }
  ],
  "bytecode": "0x60a080604052346100cc57306080527ff0c57e16840df040f15088dc2f81fe391c3923bec73e23a9662efc9c229c6a009081549060ff8260401c166100bd57506001600160401b036002600160401b031982821601610078575b604051611a4990816100d28239608051818181610a7b0152610b5a0152f35b6001600160401b031990911681179091556040519081527fc7f505b2f371ae2175ee4913f4499e1f2633a7b5936321eed1cdaeb6115181d290602090a1388080610059565b63f92ee8a960e01b8152600490fd5b600080fdfe60806040908082526004918236101561001757600080fd5b600092833560e01c92836301ffc9a71461121f5750826305bf0a541461120057826318a03eca146111c6578263248a9ca31461118d5782632ec0ff6c14610e715782632f2ff15d14610e4857826336568abe14610df8578263411b007e14610dcf578263429c9fef14610db05782634f1ef28614610adf57826352d1902d14610a6657826353c425c114610769578263572b6c051461073557826361d027b31461070d5782637792b7781461066c5782637796ff371461064d57826388fd7f7a1461062e57826391d14854146105da578263a217fddf146105bf578263ad3cb1cc1461051d578263b953b13d14610400578263c1fa8106146103c2578263ca37d26b14610399578263ce1b815f14610370578263d547741f14610324578263d73792a914610307578263da742228146102ea578263e71e299214610252578263ebc729561461021e57508163f72c0d8b146101e3578163f8caa7e5146101b6575063f90b03111461018757600080fd5b346101b35760203660031901126101b3576101b06101a36112ad565b6101ab611580565b6114da565b80f35b80fd5b9050346101df57816003193601126101df5760035490516001600160a01b039091168152602090f35b5080fd5b9050346101df57816003193601126101df57602090517f189ab7a9244df0848122154315af71fe140f3db0fe014031783b0946b8c9d2e38152f35b9091503461024e578260031936011261024e57606092505490600554906006549181519384526020840152820152f35b8280fd5b91503461024e57602036600319011261024e57813591610270611580565b670de0b6b3a76400008310156102b857507f5b172bc5a47707010ff846e70b10bc2e9d2035091a0cb841ca13c13444491e3a906007548151908152836020820152a160075580f35b6020606492519162461bcd60e51b8352820152600d60248201526c0e4c2e8ca40e8dede40d0d2ced609b1b6044820152fd5b83346101b35760203660031901126101b3576101b06101a36112ad565b8382346101df57816003193601126101df57602090516127108152f35b91503461024e578060031936011261024e5761036c913561036760016103486112c3565b938387526000805160206119f4833981519152602052862001546115e9565b61184f565b5080f35b8382346101df57816003193601126101df5760095490516001600160a01b039091168152602090f35b8382346101df57816003193601126101df5760025490516001600160a01b039091168152602090f35b83346101b357826003193601126101b357606060ff846103eb856103e46112c3565b9035611396565b90839492945194855260208501521690820152f35b8390346101df57826003193601126101df57803560ff8116808203610519576024359261042b611580565b6008548210156104e157612710841161049e57507e4d5986d2785280f41931d5ff2e62918626521808272c12d89a4ff5b066337d61048593949561046e84611272565b905482519160031b1c8152866020820152a2611272565b819291549060031b91821b91600019901b191617905580f35b606490602087519162461bcd60e51b8352820152601b60248201527f446973636f756e742063616e6e6f7420657863656564203130302500000000006044820152fd5b606490602087519162461bcd60e51b83528201526012602482015271092dcecc2d8d2c840e8d2cae440d2dcc8caf60731b6044820152fd5b8380fd5b9091503461024e578260031936011261024e578151908282019082821067ffffffffffffffff8311176105aa5750825260058152602090640352e302e360dc1b6020820152825193849260208452825192836020860152825b84811061059457505050828201840152601f01601f19168101030190f35b8181018301518882018801528795508201610576565b604190634e487b7160e01b6000525260246000fd5b8382346101df57816003193601126101df5751908152602090f35b9091503461024e578160031936011261024e57816020936105f96112c3565b923581526000805160206119f48339815191528552209060018060a01b0316600052825260ff81600020541690519015158152f35b8382346101df57816003193601126101df576020906007549051908152f35b8382346101df57816003193601126101df576020906005549051908152f35b5082346101b357806003193601126101b3579080519182906008549182855260208095018093600884526000805160206119d483398151915290845b8181106106f957505050816106be9103826112d9565b83519485948186019282875251809352850193925b8281106106e257505050500390f35b8351855286955093810193928101926001016106d3565b8254845292880192600192830192016106a8565b8382346101df57816003193601126101df57905490516001600160a01b039091168152602090f35b8382346101df5760203660031901126101df576020906107536112ad565b60018060a01b0380600954169116149051908152f35b9091503461024e5760c036600319011261024e576107856112ad565b61078d6112c3565b6001600160a01b0392604435848116939190849003610a625760643594808616809603610a5e5760a43590808216809203610a59577ff0c57e16840df040f15088dc2f81fe391c3923bec73e23a9662efc9c229c6a009687549660ff888b1c16159667ffffffffffffffff96878a16998a1580610a52575b6001809c149081610a48575b159081610a3f575b50610a2f5767ffffffffffffffff1981168b178c558592918e918b610a10575b50610845881515611356565b61084d61192f565b61085561192f565b61085d61192f565b61086561192f565b8b7f9b779b17422d0df92223018b32b4d1fa46e071723d6817e2486d003becc55f005561089061192f565b6bffffffffffffffffffffffff60a01b96879116915416178d5516838954161788558260025416176002558160035416176003556009541617600955608435600755610fa090818155610bb89160059383600555836006556108f133611630565b506108fb336116db565b5088519260a08401918211848310176105aa575088528882526020926103e860208401526107d089840152606083015260808201526008546005600855806005106109c3575b50906008885284885b84811061099f57505050505061095e578380f35b7fc7f505b2f371ae2175ee4913f4499e1f2633a7b5936321eed1cdaeb6115181d29260209268ff000000000000000019815416905551908152a13880808380f35b8261ffff855116940193816000805160206119d4833981519152015501859061094a565b6000805160206119d483398151915201857ff3f7a9fe364faab93b216da50a3214154f22a0a2b415b23a84c8169e8b636ee85b828110610a04575050610941565b600081550186906109f6565b68ffffffffffffffffff191668010000000000000001178d5538610839565b8c5163f92ee8a960e01b81528890fd5b90501538610819565b303b159150610811565b5089610805565b600080fd5b8780fd5b8680fd5b9083346101b357806003193601126101b357507f00000000000000000000000000000000000000000000000000000000000000006001600160a01b03163003610ad257602090517f360894a13ba1a3210667c828492db98dca3e2076cc3735a920a3ca505d382bbc8152f35b5163703e46dd60e11b8152fd5b91508060031936011261024e57610af46112ad565b90602493843567ffffffffffffffff81116101df57366023820112156101df5780850135610b2181611311565b94610b2e855196876112d9565b81865260209182870193368a8383010111610dac578186928b8693018737880101526001600160a01b037f00000000000000000000000000000000000000000000000000000000000000008116308114908115610d7e575b50610d6e57610b9361182b565b7f189ab7a9244df0848122154315af71fe140f3db0fe014031783b0946b8c9d2e390816000526000805160206119f48339815191528552828860002091169081600052855260ff88600020541615610d5357505081169585516352d1902d60e01b815283818a818b5afa869181610d24575b50610c21575050505050505191634c9c8ce360e01b8352820152fd5b9088888894938c7f360894a13ba1a3210667c828492db98dca3e2076cc3735a920a3ca505d382bbc91828103610d0f5750853b15610cfb575080546001600160a01b031916821790558451889392917fbc7cd75a20ee27fd9adebab32041f755214dbc6bffa90cc0225b39da2e5c2d3b8580a2825115610cdd57505061036c9582915190845af4913d15610cd3573d610cc5610cbc82611311565b925192836112d9565b81528581943d92013e611970565b5060609250611970565b955095505050505034610cef57505080f35b63b398979f60e01b8152fd5b8651634c9c8ce360e01b8152808501849052fd5b8751632a87526960e21b815280860191909152fd5b9091508481813d8311610d4c575b610d3c81836112d9565b81010312610a6257519038610c05565b503d610d32565b6044918b8b928a519363e2517d3f60e01b8552840152820152fd5b855163703e46dd60e11b81528890fd5b9050817f360894a13ba1a3210667c828492db98dca3e2076cc3735a920a3ca505d382bbc5416141538610b86565b8580fd5b8382346101df57816003193601126101df576020906006549051908152f35b8382346101df57816003193601126101df5760015490516001600160a01b039091168152602090f35b8382346101df57806003193601126101df57610e126112c3565b906001600160a01b0380610e2461182b565b1690831603610e39575061036c91923561184f565b5163334bd91960e11b81528390fd5b91503461024e578060031936011261024e5761036c9135610e6c60016103486112c3565b6117a9565b91503461024e578060031936011261024e57610e8b6112ad565b6024928335916002907f9b779b17422d0df92223018b32b4d1fa46e071723d6817e2486d003becc55f00938285541461117d57828555610ecb8282611396565b9491809991501561115057815488516370a0823160e01b81526001600160a01b0395861681890181905260209c9098928716969295949390918d8183818b5afa90811561114657908d918491611115575b50106110d4578a516323b872dd60e01b8e8201528181018a905230604482015260648082018e9052815267ffffffffffffffff9760a08201898111838210176110c2578d528d97969594939291610f72916118d3565b6127109586610f8282548a61132d565b0496610f9f81610f946005548c61132d565b04996006549061132d565b049887611052575b505050869386937f6d0f50d26e4d301454900a101a465bb54a849d5c109c0074d73c9974d7e55fc29860019c9b9a9794610ff8948760c09b611039575b505081611020575b5050506007549061132d565b60ff8b51951685528c8501528a8a8501526060840152608083015260a0820152a25551908152f35b80611031935416908e54169061152e565b388581610fec565b61104b9183808754169154169061152e565b3887610fe4565b84865416803b156110be5790848f92858b83979695519788938492630852cd8d60e31b8452888401525af180156110b35761108e575b50610fa7565b83116110a25750508b528383886001611088565b634e487b7160e01b84526041905282fd5b508e513d86823e3d90fd5b8480fd5b634e487b7160e01b8552604189528385fd5b8560196064928f8e519362461bcd60e51b85528401528201527f496e73756666696369656e74204d4f444c2062616c616e6365000000000000006044820152fd5b8f8193508092503d831161113f575b61112e81836112d9565b8101031261024e578c905138610f1c565b503d611124565b8c513d85823e3d90fd5b85600860649260208b519362461bcd60e51b8552840152820152675a65726f2066656560c01b6044820152fd5b8551633ee5aeb560e01b81528490fd5b9091503461024e57602036600319011261024e57816020936001923581526000805160206119f483398151915285522001549051908152f35b9091503461024e57602036600319011261024e5735916008548310156101b357506111f2602092611272565b91905490519160031b1c8152f35b9091503461024e578260031936011261024e5760209250549051908152f35b84913461024e57602036600319011261024e573563ffffffff60e01b811680910361024e5760209250637965db0b60e01b8114908115611261575b5015158152f35b6301ffc9a760e01b1490508361125a565b6008548110156112975760086000526000805160206119d48339815191520190600090565b634e487b7160e01b600052603260045260246000fd5b600435906001600160a01b0382168203610a5957565b602435906001600160a01b0382168203610a5957565b90601f8019910116810190811067ffffffffffffffff8211176112fb57604052565b634e487b7160e01b600052604160045260246000fd5b67ffffffffffffffff81116112fb57601f01601f191660200190565b8181029291811591840414171561134057565b634e487b7160e01b600052601160045260246000fd5b1561135d57565b60405162461bcd60e51b815260206004820152601160248201527024b73b30b634b2103337b93bb0b93232b960791b6044820152606490fd5b600354604051635a2d572960e11b81526001600160a01b039384166004820152919260209291839183916024918391165afa9081156114ce57600091611497575b50908160085460ff82161015611463576113f361140491611272565b90549060031b1c936007549061132d565b90612710611412858461132d565b0490818310611428575081039081116113405792565b6064906040519062461bcd60e51b82526004820152601460248201527309eeccae4ccd8deee40d2dc40cccaca40dac2e8d60631b6044820152fd5b60405162461bcd60e51b815260048101839052600c60248201526b24b73b30b634b2103a34b2b960a11b6044820152606490fd5b8281813d83116114c7575b6114ac81836112d9565b810103126101df57519060ff821682036101b35750386113d7565b503d6114a2565b6040513d6000823e3d90fd5b7fa4388ecc389b1390354ae0c65a856c0d7dd4fb648419f5d3ac0b99e38f46fd11906020906001600160a01b0316611513811515611356565b600980546001600160a01b03191682179055604051908152a1565b60405163a9059cbb60e01b60208201526001600160a01b039092166024830152604480830193909352918152608081019167ffffffffffffffff8311828410176112fb5761157e926040526118d3565b565b61158861182b565b6001600160a01b031660008181527fb7db2dd08fcb62d0c9e08c51941cae53c267786a0b75803fb7960902fc8ef97d602052604081205460ff16156115cb575050565b604492506040519163e2517d3f60e01b835260048301526024820152fd5b6115f161182b565b90806000526000805160206119f483398151915260205260406000209160018060a01b0316918260005260205260ff60406000205416156115cb575050565b6001600160a01b0390811660008181527fb7db2dd08fcb62d0c9e08c51941cae53c267786a0b75803fb7960902fc8ef97d60205260408120549092906000805160206119f48339815191529060ff166116d5578380526020526040832082845260205260408320600160ff198254161790556116aa61182b565b16917f2f8788117e7eff1d82e926ec794901d17c78024a50270940304540a733656f0d8180a4600190565b50505090565b6001600160a01b0390811660008181527fab71e3f32666744d246edff3f96e4bdafee2e9867098cdd118a979a7464786a8602052604081205490927f189ab7a9244df0848122154315af71fe140f3db0fe014031783b0946b8c9d2e3916000805160206119f4833981519152919060ff166117a2577f2f8788117e7eff1d82e926ec794901d17c78024a50270940304540a733656f0d918386526020526040852084865260205260408520600160ff1982541617905561179961182b565b169380a4600190565b5050505090565b60008181526000805160206119f4833981519152602081815260408084206001600160a01b039687168086529252832054929490939260ff166117a2577f2f8788117e7eff1d82e926ec794901d17c78024a50270940304540a733656f0d918386526020526040852084865260205260408520600160ff198254161790556117995b600954336001600160a01b039091160361184b5736601319013560601c90565b3390565b60008181526000805160206119f4833981519152602081815260408084206001600160a01b039687168086529252832054929490939260ff16156117a2577ff6391f5c32d9c69d2a47ea670b442974b53935d1edc7fd64eb21e047a839171b91838652602052604085208486526020526040852060ff19815416905561179961182b565b906000602091828151910182855af1156114ce576000513d61192657506001600160a01b0381163b155b6119045750565b604051635274afe760e01b81526001600160a01b039091166004820152602490fd5b600114156118fd565b60ff7ff0c57e16840df040f15088dc2f81fe391c3923bec73e23a9662efc9c229c6a005460401c161561195e57565b604051631afcd79f60e31b8152600490fd5b90611997575080511561198557805190602001fd5b60405163d6bda27560e01b8152600490fd5b815115806119ca575b6119a8575090565b604051639996b31560e01b81526001600160a01b039091166004820152602490fd5b50803b156119a056fef3f7a9fe364faab93b216da50a3214154f22a0a2b415b23a84c8169e8b636ee302dd7bc7dec4dceedda775e58dd541e08a116c6c53815c0bd028192f7b626800a2646970667358221220eef8216976c067be5264e27ee43aeba60eeffa13fad3a5126be5d9a2469b8c3d64736f6c63430008160033",
  "linkReferences": {},
  "deployedLinkReferences": {}
}