{
  "_format": "hh-sol-artifact-1",
  "contractName": "MODLToken",
  "sourceName": "contracts/MODLToken.sol",
  "abi": [
    {
      "inputs": [
        {
          "internalType": "address",
          "name": "initialOwner",
          "type": "address"
        },
        {
          "internalType": "address",
          "name": "trustedForwarder",
          "type": "address"
        }
      ],
      "stateMutability": "nonpayable",
      "type": "constructor"
    },
    {
      "inputs": [],
      "name": "AccessControlBadConfirmation",
      "type": "error"
    },
    {
      "inputs": [
        {
          "internalType": "address",
          "name": "account",
          "type": "address"
        },
        {
          "internalType": "bytes32",
          "name": "neededRole",
          "type": "bytes32"
        }
      ],
      "name": "AccessControlUnauthorizedAccount",
      "type": "error"
    },
    {
      "inputs": [],
      "name": "CheckpointUnorderedInsertion",
      "type": "error"
    },
    {
      "inputs": [],
      "name": "ECDSAInvalidSignature",
      "type": "error"
    },
    {
      "inputs": [
        {
          "internalType": "uint256",
          "name": "length",
          "type": "uint256"
        }
      ],
      "name": "ECDSAInvalidSignatureLength",
      "type": "error"
    },
    {
      "inputs": [
        {
          "internalType": "bytes32",
          "name": "s",
          "type": "bytes32"
        }
      ],
      "name": "ECDSAInvalidSignatureS",
      "type": "error"
    },
    {
      "inputs": [
        {
          "internalType": "uint256",
          "name": "increasedSupply",
          "type": "uint256"
        },
        {
          "internalType": "uint256",
          "name": "cap",
          "type": "uint256"
        }
      ],
      "name": "ERC20ExceededSafeSupply",
      "type": "error"
    },
    {
      "inputs": [
        {
          "internalType": "address",
          "name": "spender",
          "type": "address"
        },
        {
          "internalType": "uint256",
          "name": "allowance",
          "type": "uint256"
        },
        {
          "internalType": "uint256",
          "name": "needed",
          "type": "uint256"
        }
      ],
      "name": "ERC20InsufficientAllowance",
      "type": "error"
    },
    {
      "inputs": [
        {
          "internalType": "address",
          "name": "sender",
          "type": "address"
        },
        {
          "internalType": "uint256",
          "name": "balance",
          "type": "uint256"
        },
        {
          "internalType": "uint256",
          "name": "needed",
          "type": "uint256"
        }
      ],
      "name": "ERC20InsufficientBalance",
      "type": "error"
    },
    {
      "inputs": [
        {
          "internalType": "address",
          "name": "approver",
          "type": "address"
        }
      ],
      "name": "ERC20InvalidApprover",
      "type": "error"
    },
    {
      "inputs": [
        {
          "internalType": "address",
          "name": "receiver",
          "type": "address"
        }
      ],
      "name": "ERC20InvalidReceiver",
      "type": "error"
    },
    {
      "inputs": [
        {
          "internalType": "address",
          "name": "sender",
          "type": "address"
        }
      ],
      "name": "ERC20InvalidSender",
      "type": "error"
    },
    {
      "inputs": [
        {
          "internalType": "address",
          "name": "spender",
          "type": "address"
        }
      ],
      "name": "ERC20InvalidSpender",
      "type": "error"
    },
    {
      "inputs": [
        {
          "internalType": "uint256",
          "name": "deadline",
          "type": "uint256"
        }
      ],
      "name": "ERC2612ExpiredSignature",
      "type": "error"
    },
    {
      "inputs": [
        {
          "internalType": "address",
          "name": "signer",
          "type": "address"
        },
        {
          "internalType": "address",
          "name": "owner",
          "type": "address"
        }
      ],
      "name": "ERC2612InvalidSigner",
      "type": "error"
    },
    {
      "inputs": [
        {
          "internalType": "uint256",
          "name": "timepoint",
          "type": "uint256"
        },
        {
          "internalType": "uint48",
          "name": "clock",
          "type": "uint48"
        }
      ],
      "name": "ERC5805FutureLookup",
      "type": "error"
    },
    {
      "inputs": [],
      "name": "ERC6372InconsistentClock",
      "type": "error"
    },
    {
      "inputs": [
        {
          "internalType": "address",
          "name": "account",
          "type": "address"
        },
        {
          "internalType": "uint256",
          "name": "currentNonce",
          "type": "uint256"
        }
      ],
      "name": "InvalidAccountNonce",
      "type": "error"
    },
    {
      "inputs": [],
      "name": "InvalidShortString",
      "type": "error"
    },
    {
      "inputs": [
        {
          "internalType": "uint8",
          "name": "bits",
          "type": "uint8"
        },
        {
          "internalType": "uint256",
          "name": "value",
          "type": "uint256"
        }
      ],
      "name": "SafeCastOverflowedUintDowncast",
      "type": "error"
    },
    {
      "inputs": [
        {
          "internalType": "string",
          "name": "str",
          "type": "string"
        }
      ],
      "name": "StringTooLong",
      "type": "error"
    },
    {
      "inputs": [
        {
          "internalType": "uint256",
          "name": "expiry",
          "type": "uint256"
        }
      ],
      "name": "VotesExpiredSignature",
      "type": "error"
    },
    {
      "anonymous": false,
      "inputs": [
        {
          "indexed": true,
          "internalType": "address",
          "name": "owner",
          "type": "address"
        },
        {
          "indexed": true,
          "internalType": "address",
          "name": "spender",
          "type": "address"
        },
        {
          "indexed": false,
          "internalType": "uint256",
          "name": "value",
          "type": "uint256"
        }
      ],
      "name": "Approval",
      "type": "event"
    },
    {
      "anonymous": false,
      "inputs": [
        {
          "indexed": true,
          "internalType": "address",
          "name": "delegator",
          "type": "address"
        },
        {
          "indexed": true,
          "internalType": "address",
          "name": "fromDelegate",
          "type": "address"
        },
        {
          "indexed": true,
          "internalType": "address",
          "name": "toDelegate",
          "type": "address"
        }
      ],
      "name": "DelegateChanged",
      "type": "event"
    },
    {
      "anonymous": false,
      "inputs": [
        {
          "indexed": true,
          "internalType": "address",
          "name": "delegate",
          "type": "address"
        },
        {
          "indexed": false,
          "internalType": "uint256",
          "name": "previousVotes",
          "type": "uint256"
        },
        {
          "indexed": false,
          "internalType": "uint256",
          "name": "newVotes",
          "type": "uint256"
        }
      ],
      "name": "DelegateVotesChanged",
      "type": "event"
    },
    {
      "anonymous": false,
      "inputs": [],
      "name": "EIP712DomainChanged",
      "type": "event"
    },
    {
      "anonymous": false,
      "inputs": [
        {
          "indexed": true,
          "internalType": "bytes32",
          "name": "role",
          "type": "bytes32"
        },
        {
          "indexed": true,
          "internalType": "bytes32",
          "name": "previousAdminRole",
          "type": "bytes32"
        },
        {
          "indexed": true,
          "internalType": "bytes32",
          "name": "newAdminRole",
          "type": "bytes32"
        }
      ],
      "name": "RoleAdminChanged",
      "type": "event"
    },
    {
      "anonymous": false,
      "inputs": [
        {
          "indexed": true,
          "internalType": "bytes32",
          "name": "role",
          "type": "bytes32"
        },
        {
          "indexed": true,
          "internalType": "address",
          "name": "account",
          "type": "address"
        },
        {
          "indexed": true,
          "internalType": "address",
          "name": "sender",
          "type": "address"
        }
      ],
      "name": "RoleGranted",
      "type": "event"
    },
    {
      "anonymous": false,
      "inputs": [
        {
          "indexed": true,
          "internalType": "bytes32",
          "name": "role",
          "type": "bytes32"
        },
        {
          "indexed": true,
          "internalType": "address",
          "name": "account",
          "type": "address"
        },
        {
          "indexed": true,
          "internalType": "address",
          "name": "sender",
          "type": "address"
        }
      ],
      "name": "RoleRevoked",
      "type": "event"
    },
    {
      "anonymous": false,
      "inputs": [
        {
          "indexed": true,
          "internalType": "address",
          "name": "from",
          "type": "address"
        },
        {
          "indexed": true,
          "internalType": "address",
          "name": "to",
          "type": "address"
        },
        {
          "indexed": false,
          "internalType": "uint256",
          "name": "value",
          "type": "uint256"
        }
      ],
      "name": "Transfer",
      "type": "event"
    },
    {
      "inputs": [],
      "name": "CLOCK_MODE",
      "outputs": [
        {
          "internalType": "string",
          "name": "",
          "type": "string"
        }
      ],
      "stateMutability": "view",
      "type": "function"
    },
    {
      "inputs": [],
      "name": "DEFAULT_ADMIN_ROLE",
      "outputs": [
        {
          "internalType": "bytes32",
          "name": "",
          "type": "bytes32"
        }
      ],
      "stateMutability": "view",
      "type": "function"
    },
    {
      "inputs": [],
      "name": "DOMAIN_SEPARATOR",
      "outputs": [
        {
          "internalType": "bytes32",
          "name": "",
          "type": "bytes32"
        }
      ],
      "stateMutability": "view",
      "type": "function"
    },
    {
      "inputs": [],
      "name": "MAX_SUPPLY",
      "outputs": [
        {
          "internalType": "uint256",
          "name": "",
          "type": "uint256"
        }
      ],
      "stateMutability": "view",
      "type": "function"
    },
    {
      "inputs": [],
      "name": "MINTER_ROLE",
      "outputs": [
        {
          "internalType": "bytes32",
          "name": "",
          "type": "bytes32"
        }
      ],
      "stateMutability": "view",
      "type": "function"
    },
    {
      "inputs": [
        {
          "internalType": "address",
          "name": "owner",
          "type": "address"
        },
        {
          "internalType": "address",
          "name": "spender",
          "type": "address"
        }
      ],
      "name": "allowance",
      "outputs": [
        {
          "internalType": "uint256",
          "name": "",
          "type": "uint256"
        }
      ],
      "stateMutability": "view",
      "type": "function"
    },
    {
      "inputs": [
        {
          "internalType": "address",
          "name": "spender",
          "type": "address"
        },
        {
          "internalType": "uint256",
          "name": "value",
          "type": "uint256"
        }
      ],
      "name": "approve",
      "outputs": [
        {
          "internalType": "bool",
          "name": "",
          "type": "bool"
        }
      ],
      "stateMutability": "nonpayable",
      "type": "function"
    },
    {
      "inputs": [
        {
          "internalType": "address",
          "name": "account",
          "type": "address"
        }
      ],
      "name": "balanceOf",
      "outputs": [
        {
          "internalType": "uint256",
          "name": "",
          "type": "uint256"
        }
      ],
      "stateMutability": "view",
      "type": "function"
    },
    {
      "inputs": [
        {
          "internalType": "uint256",
          "name": "value",
          "type": "uint256"
        }
      ],
      "name": "burn",
      "outputs": [],
      "stateMutability": "nonpayable",
      "type": "function"
    },
    {
      "inputs": [
        {
          "internalType": "address",
          "name": "account",
          "type": "address"
        },
        {
          "internalType": "uint256",
          "name": "value",
          "type": "uint256"
        }
      ],
      "name": "burnFrom",
      "outputs": [],
      "stateMutability": "nonpayable",
      "type": "function"
    },
    {
      "inputs": [
        {
          "internalType": "address",
          "name": "account",
          "type": "address"
        },
        {
          "internalType": "uint32",
          "name": "pos",
          "type": "uint32"
        }
      ],
      "name": "checkpoints",
      "outputs": [
        {
          "components": [
            {
              "internalType": "uint48",
              "name": "_key",
              "type": "uint48"
            },
            {
              "internalType": "uint208",
              "name": "_value",
              "type": "uint208"
            }
          ],
          "internalType": "struct Checkpoints.Checkpoint208",
          "name": "",
          "type": "tuple"
        }
      ],
      "stateMutability": "view",
      "type": "function"
    },
    {
      "inputs": [],
      "name": "clock",
      "outputs": [
        {
          "internalType": "uint48",
          "name": "",
          "type": "uint48"
        }
      ],
      "stateMutability": "view",
      "type": "function"
    },
    {
      "inputs": [],
      "name": "decimals",
      "outputs": [
        {
          "internalType": "uint8",
          "name": "",
          "type": "uint8"
        }
      ],
      "stateMutability": "view",
      "type": "function"
    },
    {
      "inputs": [
        {
          "internalType": "address",
          "name": "delegatee",
          "type": "address"
        }
      ],
      "name": "delegate",
      "outputs": [],
      "stateMutability": "nonpayable",
      "type": "function"
    },
    {
      "inputs": [
        {
          "internalType": "address",
          "name": "delegatee",
          "type": "address"
        },
        {
          "internalType": "uint256",
          "name": "nonce",
          "type": "uint256"
        },
        {
          "internalType": "uint256",
          "name": "expiry",
          "type": "uint256"
        },
        {
          "internalType": "uint8",
          "name": "v",
          "type": "uint8"
        },
        {
          "internalType": "bytes32",
          "name": "r",
          "type": "bytes32"
        },
        {
          "internalType": "bytes32",
          "name": "s",
          "type": "bytes32"
        }
      ],
      "name": "delegateBySig",
      "outputs": [],
      "stateMutability": "nonpayable",
      "type": "function"
    },
    {
      "inputs": [
        {
          "internalType": "address",
          "name": "account",
          "type": "address"
        }
      ],
      "name": "delegates",
      "outputs": [
        {
          "internalType": "address",
          "name": "",
          "type": "address"
        }
      ],
      "stateMutability": "view",
      "type": "function"
    },
    {
      "inputs": [],
      "name": "eip712Domain",
      "outputs": [
        {
          "internalType": "bytes1",
          "name": "fields",
          "type": "bytes1"
        },
        {
          "internalType": "string",
          "name": "name",
          "type": "string"
        },
        {
          "internalType": "string",
          "name": "version",
          "type": "string"
        },
        {
          "internalType": "uint256",
          "name": "chainId",
          "type": "uint256"
        },
        {
          "internalType": "address",
          "name": "verifyingContract",
          "type": "address"
        },
        {
          "internalType": "bytes32",
          "name": "salt",
          "type": "bytes32"
        },
        {
          "internalType": "uint256[]",
          "name": "extensions",
          "type": "uint256[]"
        }
      ],
      "stateMutability": "view",
      "type": "function"
    },
    {
      "inputs": [
        {
          "internalType": "uint256",
          "name": "timepoint",
          "type": "uint256"
        }
      ],
      "name": "getPastTotalSupply",
      "outputs": [
        {
          "internalType": "uint256",
          "name": "",
          "type": "uint256"
        }
      ],
      "stateMutability": "view",
      "type": "function"
    },
    {
      "inputs": [
        {
          "internalType": "address",
          "name": "account",
          "type": "address"
        },
        {
          "internalType": "uint256",
          "name": "timepoint",
          "type": "uint256"
        }
      ],
      "name": "getPastVotes",
      "outputs": [
        {
          "internalType": "uint256",
          "name": "",
          "type": "uint256"
        }
      ],
      "stateMutability": "view",
      "type": "function"
    },
    {
      "inputs": [
        {
          "internalType": "bytes32",
          "name": "role",
          "type": "bytes32"
        }
      ],
      "name": "getRoleAdmin",
      "outputs": [
        {
          "internalType": "bytes32",
          "name": "",
          "type": "bytes32"
        }
      ],
      "stateMutability": "view",
      "type": "function"
    },
    {
      "inputs": [
        {
          "internalType": "address",
          "name": "account",
          "type": "address"
        }
      ],
      "name": "getVotes",
      "outputs": [
        {
          "internalType": "uint256",
          "name": "",
          "type": "uint256"
        }
      ],
      "stateMutability": "view",
      "type": "function"
    },
    {
      "inputs": [
        {
          "internalType": "bytes32",
          "name": "role",
          "type": "bytes32"
        },
        {
          "internalType": "address",
          "name": "account",
          "type": "address"
        }
      ],
      "name": "grantRole",
      "outputs": [],
      "stateMutability": "nonpayable",
      "type": "function"
    },
    {
      "inputs": [
        {
          "internalType": "bytes32",
          "name": "role",
          "type": "bytes32"
        },
        {
          "internalType": "address",
          "name": "account",
          "type": "address"
        }
      ],
      "name": "hasRole",
      "outputs": [
        {
          "internalType": "bool",
          "name": "",
          "type": "bool"
        }
      ],
      "stateMutability": "view",
      "type": "function"
    },
    {
      "inputs": [
        {
          "internalType": "address",
          "name": "forwarder",
          "type": "address"
        }
      ],
      "name": "isTrustedForwarder",
      "outputs": [
        {
          "internalType": "bool",
          "name": "",
          "type": "bool"
        }
      ],
      "stateMutability": "view",
      "type": "function"
    },
    {
      "inputs": [
        {
          "internalType": "address",
          "name": "to",
          "type": "address"
        },
        {
          "internalType": "uint256",
          "name": "amount",
          "type": "uint256"
        }
      ],
      "name": "mint",
      "outputs": [],
      "stateMutability": "nonpayable",
      "type": "function"
    },
    {
      "inputs": [],
      "name": "name",
      "outputs": [
        {
          "internalType": "string",
          "name": "",
          "type": "string"
        }
      ],
      "stateMutability": "view",
      "type": "function"
    },
    {
      "inputs": [
        {
          "internalType": "address",
          "name": "owner",
          "type": "address"
        }
      ],
      "name": "nonces",
      "outputs": [
        {
          "internalType": "uint256",
          "name": "",
          "type": "uint256"
        }
      ],
      "stateMutability": "view",
      "type": "function"
    },
    {
      "inputs": [
        {
          "internalType": "address",
          "name": "account",
          "type": "address"
        }
      ],
      "name": "numCheckpoints",
      "outputs": [
        {
          "internalType": "uint32",
          "name": "",
          "type": "uint32"
        }
      ],
      "stateMutability": "view",
      "type": "function"
    },
    {
      "inputs": [
        {
          "internalType": "address",
          "name": "owner",
          "type": "address"
        },
        {
          "internalType": "address",
          "name": "spender",
          "type": "address"
        },
        {
          "internalType": "uint256",
          "name": "value",
          "type": "uint256"
        },
        {
          "internalType": "uint256",
          "name": "deadline",
          "type": "uint256"
        },
        {
          "internalType": "uint8",
          "name": "v",
          "type": "uint8"
        },
        {
          "internalType": "bytes32",
          "name": "r",
          "type": "bytes32"
        },
        {
          "internalType": "bytes32",
          "name": "s",
          "type": "bytes32"
        }
      ],
      "name": "permit",
      "outputs": [],
      "stateMutability": "nonpayable",
      "type": "function"
    },
    {
      "inputs": [
        {
          "internalType": "bytes32",
          "name": "role",
          "type": "bytes32"
        },
        {
          "internalType": "address",
          "name": "callerConfirmation",
          "type": "address"
        }
      ],
      "name": "renounceRole",
      "outputs": [],
      "stateMutability": "nonpayable",
      "type": "function"
    },
    {
      "inputs": [
        {
          "internalType": "bytes32",
          "name": "role",
          "type": "bytes32"
        },
        {
          "internalType": "address",
          "name": "account",
          "type": "address"
        }
      ],
      "name": "revokeRole",
      "outputs": [],
      "stateMutability": "nonpayable",
      "type": "function"
    },
    {
      "inputs": [
        {
          "internalType": "bytes4",
          "name": "interfaceId",
          "type": "bytes4"
        }
      ],
      "name": "supportsInterface",
      "outputs": [
        {
          "internalType": "bool",
          "name": "",
          "type": "bool"
        }
      ],
      "stateMutability": "view",
      "type": "function"
    },
    {
      "inputs": [],
      "name": "symbol",
      "outputs": [
        {
          "internalType": "string",
          "name": "",
          "type": "string"
        }
      ],
      "stateMutability": "view",
      "type": "function"
    },
    {
      "inputs": [],
      "name": "totalSupply",
      "outputs": [
        {
          "internalType": "uint256",
          "name": "",
          "type": "uint256"
        }
      ],
      "stateMutability": "view",
      "type": "function"
    },
    {
      "inputs": [
        {
          "internalType": "address",
          "name": "to",
          "type": "address"
        },
        {
          "internalType": "uint256",
          "name": "value",
          "type": "uint256"
        }
      ],
      "name": "transfer",
      "outputs": [
        {
          "internalType": "bool",
          "name": "",
          "type": "bool"
        }
      ],
      "stateMutability": "nonpayable",
      "type": "function"
    },
    {
      "inputs": [
        {
          "internalType": "address",
          "name": "from",
          "type": "address"
        },
        {
          "internalType": "address",
          "name": "to",
          "type": "address"
        },
        {
          "internalType": "uint256",
          "name": "value",
          "type": "uint256"
        }
      ],
      "name": "transferFrom",
      "outputs": [
        {
          "internalType": "bool",
          "name": "",
          "type": "bool"
        }
      ],
      "stateMutability": "nonpayable",
      "type": "function"
    },
    {
      "inputs": [],
      "name": "trustedForwarder",
      "outputs": [
        {
          "internalType": "address",
          "name": "",
          "type": "address"
        }
      ],
      "stateMutability": "view",
      "type": "function"
    }
  ],
  "bytecode": "0x610180604052346200008a576200002062000019620000ed565b9062000199565b6040516126dc9081620011e78239608051816116bd015260a05181611778015260c05181611687015260e0518161170c0152610100518161173201526101205181610ae601526101405181610b100152610160518181816108e701528181610a620152611af40152f35b600080fd5b634e487b7160e01b600052604160045260246000fd5b604081019081106001600160401b03821117620000c157604052565b6200008f565b60405190620000d682620000a5565b565b51906001600160a01b03821682036200008a57565b60405190601f6200392338819003918201601f19168401916001600160401b03831185841017620000c15780859260409485528339810103126200008a576200014460206200013c84620000d8565b9301620000d8565b90565b604051906200015682620000a5565b60048252565b604051906200016b82620000a5565b60018252565b604051906200018082620000a5565b600a82526926a7a226102a37b5b2b760b11b6020830152565b919091620001a662000171565b92620001b162000171565b93620001bc62000147565b90602090631353d11360e21b82840152620001d66200015c565b9180830193603160f81b8552885160018060401b038111620000c1576200020a816200020460035462000353565b62000390565b82601f8211600114620002c057816200025093926200024792620000d69c9d600092620002b4575b50508160011b916000199060031b1c19161790565b600355620004fc565b6200025b8262000845565b610120526200026a8362000952565b61014052815191012060e052519020610100524660a0526200028b62000a5f565b6080523060c05261016052620002a181620005ea565b50620002ad816200068c565b5062000750565b01519050388062000232565b6003600052601f1982169a7fc2575a0e9e593c00f959f8c92f12db2869c3395a3b0502d05e2516446f71f85b9b60005b8181106200033b57509b6001928492620002509695620000d69e9f1062000321575b505050811b01600355620004fc565b015160001960f88460031b161c1916905538808062000312565b838301518e556001909d019c928601928601620002f0565b90600182811c9216801562000385575b60208310146200036f57565b634e487b7160e01b600052602260045260246000fd5b91607f169162000363565b601f81116200039d575050565b60009060036000526020600020906020601f850160051c83019410620003e0575b601f0160051c01915b828110620003d457505050565b818155600101620003c7565b9092508290620003be565b601f8111620003f8575050565b60009060046000526020600020906020601f850160051c830194106200043b575b601f0160051c01915b8281106200042f57505050565b81815560010162000422565b909250829062000419565b601f811162000453575050565b60009060056000526020600020906020601f850160051c8301941062000496575b601f0160051c01915b8281106200048a57505050565b8181556001016200047d565b909250829062000474565b601f8111620004ae575050565b60009060066000526020600020906020601f850160051c83019410620004f1575b601f0160051c01915b828110620004e557505050565b818155600101620004d8565b9092508290620004cf565b80519091906001600160401b038111620000c15762000528816200052260045462000353565b620003eb565b602080601f831160011462000562575081906200055d9394600092620002b45750508160011b916000199060031b1c19161790565b600455565b6004600052601f198316949091907f8a35acfbc15ff81a39ae7d344fd709f28e8600b4aa8c65c6b64bfe7fe36bd19b926000905b878210620005d1575050836001959610620005b7575b505050811b01600455565b015160001960f88460031b161c19169055388080620005ac565b8060018596829496860151815501950193019062000596565b6001600160a01b03811660009081527fdf7de25b7f1fd6d0b5205f0e18f1f35bd7b8d84cce336588d184533ce43a6f76602052604081205460ff166200068757808052600b602090815260408083206001600160a01b038516600090815292529020805460ff191660011790556200066162000b92565b6001600160a01b03908116921690600080516020620038c38339815191528180a4600190565b905090565b6001600160a01b03811660009081527ff70e363b3d7895af770c4a138460777d52eebd3cb9962ccc6b58721f6127bbc860205260408120547f9f2df0fed2c77648de5860a4cc508cd0818c85b8b8a1ab4ceeef8d981c8956a69060ff166200074a57808252600b602090815260408084206001600160a01b038616600090815292529020805460ff19166001179055600080516020620038c38339815191526200073562000b92565b6001600160a01b0390811694169280a4600190565b50905090565b6001600160a01b03811680156200082c576002546a52b7d2dcc80cd2e40000009081810180911162000826576002556001600160a01b038316600090815260208190526040902090815401905560007fddf252ad1be2c89b69c2b068fc378daa952ba7f163c4a11628f55a4df523b3ef60405180620007de81906a52b7d2dcc80cd2e4000000602083019252565b0390a36002546001600160d01b038111620007ff5750620000d69062000bd2565b604051630e58ae9360e11b815260048101919091526001600160d01b036024820152604490fd5b62000b6c565b60405163ec442f0560e01b815260006004820152602490fd5b90815160208082106000146200086357505090620001449062000aef565b6001600160401b038211620000c1576200088a826200088460055462000353565b62000446565b602090601f8311600114620008c757508190620008bf9394600092620002b45750508160011b916000199060031b1c19161790565b60055560ff90565b6005600052601f198316949091907f036b6384b5eca791c62761152d0c79bb0604c104a5fb6f4eb0703f3154bb3db0926000905b878210620009395750508360019596106200091f575b505050811b0160055560ff90565b015160001960f88460031b161c1916905538808062000911565b80600185968294968601518155019501930190620008fb565b90815160208082106000146200097057505090620001449062000aef565b6001600160401b038211620000c15762000997826200099160065462000353565b620004a1565b602090601f8311600114620009d457508190620009cc9394600092620002b45750508160011b916000199060031b1c19161790565b60065560ff90565b6006600052601f198316949091907ff652222313e28459528d920b65115c16c04f3efc82aaedc97be59f3f377c0d3f926000905b87821062000a4657505083600195961062000a2c575b505050811b0160065560ff90565b015160001960f88460031b161c1916905538808062000a1e565b8060018596829496860151815501950193019062000a08565b60e051610100516040519060208201927f8b73c3c69bb8fe3d512ecc4cf759cc79239f7b179b0ffacaa9a75d522b39400f8452604083015260608201524660808201523060a082015260a0815260c0810181811060018060401b03821117620000c15760405251902090565b60208151910151906020811062000ae0575090565b6000199060200360031b1b1690565b601f81511162000b0a5762000b048162000acb565b90511790565b6040519063305a27a960e01b82528160208060048301528251908160248401526000935b82851062000b52575050604492506000838284010152601f80199101168101030190fd5b848101820151868601604401529381019385935062000b2e565b634e487b7160e01b600052601160045260246000fd5b6000198101919082116200082657565b610160516001600160a01b031633148062000bc6575b1562000bc257601319360136811162000826573560601c90565b3390565b50601436101562000ba8565b65ffffffffffff9081431162000ca157600a548062000c6e575062000c0a620000d69262000c0160006200119f565b90431662000fd6565b50506001600160a01b0390811690811562000c5c575b60086020527f5eff886ea0ce6ca488a3d6e336d6c0f75f46d19b42c06ce5ee98e42c96d256c75460009283526040909220548116911662000dac565b62000c6662000cc0565b505062000c20565b91600019908382810111620008265762000c0162000c0a92620000d695600a600052602060002001015460301c6200119f565b6040516306dfcc6560e41b815260306004820152436024820152604490fd5b65ffffffffffff80431162000ca157600a548062000d0e575060005b6001600160d01b039081166a52b7d2dcc80cd2e3ffffff1901908111620008265762000d0a91431662000fd6565b9091565b6000199080828101116200082657600a60005201600080516020620038e3833981519152015460301c62000cdc565b65ffffffffffff9081431162000ca15780548062000d8857506000905b6001600160d01b039182166a52b7d2dcc80cd2e400000001918211620008265762000d0a92431690620010d2565b600019908082810111620008265782600052602060002001015460301c9062000d5a565b6001600160a01b03808316929190811690818414158062000eff575b62000dd4575b50505050565b8162000e42575b50508162000dec575b808062000dce565b6001600160a01b03166000908152600960205260409020600080516020620039038339815191529062000e1f9062000d3d565b604080516001600160d01b039384168152919092166020820152a2388062000de4565b6001600160a01b0316600090815260096020526040902065ffffffffffff9081431162000ca15780548062000ec15750600080516020620039038339815191529162000e9e9162000e946000620011c2565b91431690620010d2565b604080516001600160d01b039384168152919092166020820152a2388062000ddb565b91600019918383810111620008265762000e9462000e9e93600080516020620039038339815191529583600052602060002001015460301c620011c2565b50600162000dc8565b600a549068010000000000000000821015620000c1576001820180600a5582101562000f6a57600a60005280516020919091015160301b65ffffffffffff191665ffffffffffff9190911617600080516020620038e383398151915290910155565b634e487b7160e01b600052603260045260246000fd5b90815468010000000000000000811015620000c1576001810180845581101562000f6a5760009283526020928390208251929093015160301b65ffffffffffff191665ffffffffffff9290921691909117910155565b600a549192918015620010a35762000ff26200100b9162000b82565b600a600052600080516020620038e38339815191520190565b9081549165ffffffffffff90818416918316808311620010915786920362001053576200104c92509065ffffffffffff82549181199060301b169116179055565b60301c9190565b50506200108b906200107662001068620000c7565b65ffffffffffff9092168252565b6001600160d01b038516602082015262000f08565b6200104c565b604051632520601d60e01b8152600490fd5b50620010cc90620010b762001068620000c7565b6001600160d01b038416602082015262000f08565b60009190565b805492939280156200117557620010ed620010fa9162000b82565b8260005260206000200190565b9182549265ffffffffffff9182851692811680841162001091578793036200113c57506200104c92509065ffffffffffff82549181199060301b169116179055565b9150506200108b916200116062001152620000c7565b65ffffffffffff9093168352565b6001600160d01b038616602083015262000f80565b5090620010cc916200118a62001152620000c7565b6001600160d01b038516602083015262000f80565b6001600160d01b039081166a52b7d2dcc80cd2e400000001908111620008265790565b6001600160d01b039081166a52b7d2dcc80cd2e3ffffff190190811162000826579056fe6080604052600436101561001257600080fd5b60003560e01c806301ffc9a71461026757806306fdde0314610262578063095ea7b31461025d57806318160ddd1461025857806323b872dd14610253578063248a9ca31461024e5780632f2ff15d14610249578063313ce5671461024457806332cb6b0c1461023f5780633644e5151461023a57806336568abe146102355780633a46b1a81461023057806340c10f191461022b57806342966c68146102265780634bf5d7e914610221578063572b6c051461021c578063587cde1e146102175780635c19a95c146102125780636fcfff451461020d57806370a082311461020857806379cc6790146102035780637da0a877146101fe5780637ecebe00146101f957806384b0196e146101f45780638e539e8c146101ef57806391d14854146101ea57806391ddadf4146101e557806395d89b41146101e05780639ab24eb0146101db578063a217fddf146101d6578063a9059cbb146101d1578063c3cda520146101cc578063d505accf146101c7578063d5391393146101c2578063d547741f146101bd578063dd62ed3e146101b85763f1127ed8146101b357600080fd5b611131565b6110d9565b61109a565b61105f565b610f2b565b610e67565b610e1f565b610e03565b610dba565b610d12565b610ce6565b610c94565b610bc6565b610acb565b610a91565b610a4c565b610a20565b6109e7565b61097f565b610956565b61091b565b6108c7565b610835565b610811565b6106cf565b6105e7565b610596565b610573565b61054c565b610530565b6104ef565b6104c0565b610481565b610463565b61042b565b610316565b346102bd5760203660031901126102bd5760043563ffffffff60e01b81168091036102bd57602090637965db0b60e01b81149081156102ac575b506040519015158152f35b6301ffc9a760e01b149050386102a1565b600080fd5b919082519283825260005b8481106102ee575050826000602080949584010152601f8019910116010190565b6020818301810151848301820152016102cd565b9060206103139281815201906102c2565b90565b346102bd576000806003193601126103fc5760405190806003549061033a826111fa565b808552916020916001918281169081156103cf5750600114610377575b61037386610367818803826112bf565b60405191829182610302565b0390f35b9350600384527fc2575a0e9e593c00f959f8c92f12db2869c3395a3b0502d05e2516446f71f85b5b8385106103bc575050505081016020016103678261037338610357565b805486860184015293820193810161039f565b90508695506103739693506020925061036794915060ff191682840152151560051b820101929338610357565b80fd5b600435906001600160a01b03821682036102bd57565b602435906001600160a01b03821682036102bd57565b346102bd5760403660031901126102bd576104586104476103ff565b60243590610453611af1565b611b4a565b602060405160018152f35b346102bd5760003660031901126102bd576020600254604051908152f35b346102bd5760603660031901126102bd5761045861049d6103ff565b6104a5610415565b604435916104bb836104b5611af1565b83611324565b61141c565b346102bd5760203660031901126102bd57600435600052600b6020526020600160406000200154604051908152f35b346102bd5760403660031901126102bd5761052e60043561050e610415565b9080600052600b6020526105296001604060002001546115ad565b6115e1565b005b346102bd5760003660031901126102bd57602060405160128152f35b346102bd5760003660031901126102bd5760206040516b033b2e3c9fd0803ce80000008152f35b346102bd5760003660031901126102bd57602061058e611684565b604051908152f35b346102bd5760403660031901126102bd576105af610415565b6001600160a01b03806105c0611af1565b16908216036105d55761052e9060043561179e565b60405163334bd91960e11b8152600490fd5b346102bd5760403660031901126102bd576106006103ff565b6001600160a01b0316600090815260096020526040812090610623602435611824565b91805482938160058111610675575b50906020946106419284611d9b565b8061065b5750505b6040516001600160d01b039091168152f35b91610667849293611865565b92815220015460301c610649565b9461067f86611c07565b86039586116106ca576020956106419385875265ffffffffffff80838a8a20015416908516106000146106b85750915b91925094610632565b9291506106c4906112e1565b906106af565b6111e4565b346102bd5760403660031901126102bd576106e86103ff565b6024356106f3611515565b6002548181018082116106ca576b033b2e3c9fd0803ce8000000106107d7576001600160a01b0383169081156107be5761073083610735926112ef565b600255565b6001600160a01b038316600090815260208181526040808320805486019055518481527fddf252ad1be2c89b69c2b068fc378daa952ba7f163c4a11628f55a4df523b3ef9190a3600254916001600160d01b0383116107985761052e9250612346565b604051630e58ae9360e11b8152600481018490526001600160d01b036024820152604490fd5b60405163ec442f0560e01b815260006004820152602490fd5b60405162461bcd60e51b81526020600482015260126024820152711353d1130e8818d85c08195e18d95959195960721b6044820152606490fd5b346102bd5760203660031901126102bd5761052e600435610830611af1565b611874565b346102bd5760003660031901126102bd5761084f43611bb5565b65ffffffffffff8061086043611bb5565b169116036108b5576103736040516108778161124a565b601d81527f6d6f64653d626c6f636b6e756d6265722666726f6d3d64656661756c7400000060208201526040519182916020835260208301906102c2565b6040516301bfc1c560e61b8152600490fd5b346102bd5760203660031901126102bd5760206108e26103ff565b6040517f00000000000000000000000000000000000000000000000000000000000000006001600160a01b039081169216919091148152f35b346102bd5760203660031901126102bd5760206001600160a01b038061093f6103ff565b166000526008825260406000205416604051908152f35b346102bd5760203660031901126102bd5761052e6109726103ff565b61097a611af1565b611967565b346102bd5760203660031901126102bd576001600160a01b036109a06103ff565b16600052600960205260406000205463ffffffff908181116109c85760209160405191168152f35b604490604051906306dfcc6560e41b8252602060048301526024820152fd5b346102bd5760203660031901126102bd57602061058e610a056103ff565b6001600160a01b031660009081526020819052604090205490565b346102bd5760403660031901126102bd5761052e610a3c6103ff565b60243590610830826104b5611af1565b346102bd5760003660031901126102bd576040517f00000000000000000000000000000000000000000000000000000000000000006001600160a01b03168152602090f35b346102bd5760203660031901126102bd576001600160a01b03610ab26103ff565b1660005260076020526020604060002054604051908152f35b346102bd576000806003193601126103fc57610b6990610b0a7f0000000000000000000000000000000000000000000000000000000000000000611f4e565b90610b347f000000000000000000000000000000000000000000000000000000000000000061204f565b9060405191610b428361126b565b818352610b77602091604051968796600f60f81b885260e0602089015260e08801906102c2565b9086820360408801526102c2565b904660608601523060808601528260a086015284820360c0860152602080855193848152019401925b828110610baf57505050500390f35b835185528695509381019392810192600101610ba0565b346102bd5760203660031901126102bd57610be2600435611824565b600a54906000829160058411610c38575b610bfd9350611d32565b80610c0f575060405160008152602090f35b610c1a602091611865565b600a600052600080516020612687833981519152015460301c610649565b9192610c4381611c07565b81039081116106ca57610bfd93600a60005265ffffffffffff808360008051602061268783398151915201541690851610600014610c82575091610bf3565b929150610c8e906112e1565b90610bf3565b346102bd5760403660031901126102bd57602060ff610cda610cb4610415565b600435600052600b845260406000209060018060a01b0316600052602052604060002090565b54166040519015158152f35b346102bd5760003660031901126102bd576020610d0243611bb5565b65ffffffffffff60405191168152f35b346102bd576000806003193601126103fc57604051908060045490610d36826111fa565b808552916020916001918281169081156103cf5750600114610d625761037386610367818803826112bf565b9350600484527f8a35acfbc15ff81a39ae7d344fd709f28e8600b4aa8c65c6b64bfe7fe36bd19b5b838510610da7575050505081016020016103678261037338610357565b8054868601840152938201938101610d8a565b346102bd5760203660031901126102bd576001600160a01b03610ddb6103ff565b166000526009602052602060018060d01b03610dfa6040600020611a31565b16604051908152f35b346102bd5760003660031901126102bd57602060405160008152f35b346102bd5760403660031901126102bd57610458610e3b6103ff565b602435906104bb611af1565b6064359060ff821682036102bd57565b6084359060ff821682036102bd57565b346102bd5760c03660031901126102bd57610e806103ff565b60443590602435610e8f610e47565b834211610f1257610f0b61052e9461097a926040519060208201927fe48329057bfd03d55e49b547132e39cffd9c1820ad7b9d4c5307691425d15adf845260018060a01b0388166040840152866060840152608083015260808252610ef382611287565b610f0660a4359360843593519020611a5d565b611a83565b9182611a9b565b604051632341d78760e11b815260048101859052602490fd5b346102bd5760e03660031901126102bd57610f446103ff565b610f4c610415565b60443590606435610f5b610e57565b814211611046576001600160a01b0385811660008181526007602090815260409182902080546001810190915582517f6e71edae12b1b97f4d1f60370fef10105fa2faae0126114a169c64845d6126c99281019283529283019390935292861660608201526080810187905260a081019190915260c080820194909452928352610fff929091610fec60e0836112bf565b610f0660c4359360a43593519020611a5d565b6001600160a01b038481169082160361101c575061052e92611b4a565b6040516325c0072360e11b81526001600160a01b0391821660048201529084166024820152604490fd5b60405163313c898160e11b815260048101839052602490fd5b346102bd5760003660031901126102bd5760206040517f9f2df0fed2c77648de5860a4cc508cd0818c85b8b8a1ab4ceeef8d981c8956a68152f35b346102bd5760403660031901126102bd5761052e6004356110b9610415565b9080600052600b6020526110d46001604060002001546115ad565b61179e565b346102bd5760403660031901126102bd5760206111286110f76103ff565b6110ff610415565b6001600160a01b0391821660009081526001855260408082209290931681526020919091522090565b54604051908152f35b346102bd5760403660031901126102bd5761114a6103ff565b6024359063ffffffff821682036102bd576103739161119a9161116b61130b565b5061117461130b565b506001600160a01b0316600090815260096020526040902061119461130b565b5061224c565b50604051906111a88261124a565b5465ffffffffffff811680835260309190911c60209283019081526040805192835290516001600160d01b031692820192909252918291820190565b634e487b7160e01b600052601160045260246000fd5b90600182811c9216801561122a575b602083101461121457565b634e487b7160e01b600052602260045260246000fd5b91607f1691611209565b634e487b7160e01b600052604160045260246000fd5b6040810190811067ffffffffffffffff82111761126657604052565b611234565b6020810190811067ffffffffffffffff82111761126657604052565b60a0810190811067ffffffffffffffff82111761126657604052565b60c0810190811067ffffffffffffffff82111761126657604052565b90601f8019910116810190811067ffffffffffffffff82111761126657604052565b90600182018092116106ca57565b919082018092116106ca57565b604051906113098261124a565b565b604051906113188261124a565b60006020838281520152565b6001600160a01b03818116600081815260016020908152604080832087861684529091529020549294939291906000198310611363575b505050505050565b8483106113ed57156113d4578216156113bb576113af9261139891039360018060a01b03166000526001602052604060002090565b9060018060a01b0316600052602052604060002090565b5538808080808061135b565b604051634a1406b160e11b815260006004820152602490fd5b60405163e602df0560e01b815260006004820152602490fd5b604051637dc7a0d960e11b81526001600160a01b03851660048201526024810184905260448101869052606490fd5b6001600160a01b03808216949392919085156114fc57821680156107be576001600160a01b038216600090815260208190526040902054958487106114cd578461130996970361147e8460018060a01b03166000526000602052604060002090565b556001600160a01b0384166000908152602081815260409182902080548801905590518681527fddf252ad1be2c89b69c2b068fc378daa952ba7f163c4a11628f55a4df523b3ef9190a36123bf565b60405163391434e360e21b81526001600160a01b03841660048201526024810188905260448101869052606490fd5b604051634b637e8f60e11b815260006004820152602490fd5b61151d611af1565b6001600160a01b03811660009081527ff70e363b3d7895af770c4a138460777d52eebd3cb9962ccc6b58721f6127bbc8602052604090207f9f2df0fed2c77648de5860a4cc508cd0818c85b8b8a1ab4ceeef8d981c8956a69060ff905b541615611585575050565b60405163e2517d3f60e01b81526001600160a01b039092166004830152602482015260449150fd5b6115b5611af1565b9080600052600b60205260ff61157a8360406000209060018060a01b0316600052602052604060002090565b600090808252600b60205260ff61160d84604085209060018060a01b0316600052602052604060002090565b541661167e57808252600b602090815260408084206001600160a01b038616600090815292529020805460ff191660011790557f2f8788117e7eff1d82e926ec794901d17c78024a50270940304540a733656f0d611669611af1565b6001600160a01b0390811694169280a4600190565b50905090565b307f00000000000000000000000000000000000000000000000000000000000000006001600160a01b03161480611775575b156116df577f000000000000000000000000000000000000000000000000000000000000000090565b60405160208101907f8b73c3c69bb8fe3d512ecc4cf759cc79239f7b179b0ffacaa9a75d522b39400f82527f000000000000000000000000000000000000000000000000000000000000000060408201527f000000000000000000000000000000000000000000000000000000000000000060608201524660808201523060a082015260a0815261176f816112a3565b51902090565b507f000000000000000000000000000000000000000000000000000000000000000046146116b6565b600090808252600b60205260ff6117ca84604085209060018060a01b0316600052602052604060002090565b54161561167e57808252600b602090815260408084206001600160a01b038616600090815292529020805460ff191690557ff6391f5c32d9c69d2a47ea670b442974b53935d1edc7fd64eb21e047a839171b611669611af1565b65ffffffffffff61183443611bb5565b1680821015611847575061031390611bb5565b6044925060405191637669fc0f60e11b835260048301526024820152fd5b6000198101919082116106ca57565b91906001600160a01b0380841680156114fc576001600160a01b038516600090815260208190526040902054948386106119365790602092916118d0856113099798039160018060a01b03166000526000602052604060002090565b558360025403600255604051848152817fddf252ad1be2c89b69c2b068fc378daa952ba7f163c4a11628f55a4df523b3ef6000958693a36119186119138561227a565b612314565b50508252600860205260408181842054169280805220541690611dfc565b60405163391434e360e21b81526001600160a01b039190911660048201526024810186905260448101849052606490fd5b6001600160a01b03818116600081815260086020526040812080548685166001600160a01b031982168117909255611309969416946119e49390928691907f3134e8a2e6d97e929a7e54011ea5485d7d196dd5f0ba4d4ef95803e8e3fc257f9080a46001600160a01b031660009081526020819052604090205490565b91611dfc565b600a54806119f85750600090565b806000198101116106ca57600a6000527fc65a7bb8d6351c1cf70c95a316cc6a92839c986682d98bc35f958f4883f9d2a7015460301c90565b805480611a3f575050600090565b6000199181838101116106ca57600052602060002001015460301c90565b604290611a68611684565b906040519161190160f01b8352600283015260228201522090565b916103139391611a929361210f565b909291926121bf565b6001600160a01b03811660009081526007602052604090208054600181019091559091819003611ac9575050565b6040516301d4b62360e61b81526001600160a01b039092166004830152602482015260449150fd5b337f00000000000000000000000000000000000000000000000000000000000000006001600160a01b03161480611b3f575b15611b3b5760131936013681116106ca573560601c90565b3390565b506014361015611b23565b6001600160a01b0380821692919083156113d45782169384156113bb5780611bab7f8c5be1e5ebec7d5bd14f71427d1e84f3dd0314c0f7b2291e5b200ac8c7c3b9259461139860209560018060a01b03166000526001602052604060002090565b55604051908152a3565b65ffffffffffff90818111611bc8571690565b604490604051906306dfcc6560e41b8252603060048301526024820152fd5b8115611bf1570490565b634e487b7160e01b600052601260045260246000fd5b600181111561031357600181600160801b811015611d20575b611cc8611cbe611cb4611caa611ca0611c96611cd497600488600160401b611ccf9a1015611d13575b640100000000811015611d06575b62010000811015611cf9575b610100811015611ced575b6010811015611ce1575b1015611cd9575b60030260011c611c8f818b611be7565b0160011c90565b611c8f818a611be7565b611c8f8189611be7565b611c8f8188611be7565b611c8f8187611be7565b611c8f8186611be7565b8093611be7565b821190565b900390565b60011b611c7f565b811c9160021b91611c78565b60081c91811b91611c6e565b60101c9160081b91611c63565b60201c9160101b91611c57565b60401c9160201b91611c49565b50600160401b9050608082901c611c20565b905b828110611d4057505090565b90918082169080831860011c82018092116106ca57600a60005265ffffffffffff808360008051602061268783398151915201541690851610600014611d895750915b90611d34565b929150611d95906112e1565b90611d83565b91905b838210611dab5750505090565b9091928083169080841860011c82018092116106ca5760008581526020902082015465ffffffffffff9081169084161015611dea5750925b9190611d9e565b939250611df6906112e1565b91611de3565b6001600160a01b03808316939291908116908185141580611f45575b611e24575b5050505050565b81611ea9575b505082611e39575b8080611e1d565b6001600160a01b031660009081526009602052604090207fdec2bacdd2f05b59de34da9b523dff8be42e5e38e818c82fdb0bae774387a72491611e8691611e80909161227a565b906122ad565b604080516001600160d01b039384168152919092166020820152a2388080611e32565b6001600160a01b03166000908152600960205260409020611ec98461227a565b611ed243611bb5565b6001600160d01b03918280611ee686611a31565b1691169003928284116106ca577fdec2bacdd2f05b59de34da9b523dff8be42e5e38e818c82fdb0bae774387a72493611f3b92611f22926125ca565b6040805192851683529316602082015291829190820190565b0390a23880611e2a565b50831515611e18565b60ff8114611f8c5760ff811690601f8211611f7a5760405191611f708361124a565b8252602082015290565b604051632cd44ac360e21b8152600490fd5b50604051600554816000611f9f836111fa565b8083529260209060019081811690811561202b5750600114611fca575b5050610313925003826112bf565b91509260056000527f036b6384b5eca791c62761152d0c79bb0604c104a5fb6f4eb0703f3154bb3db0936000925b82841061201357506103139450505081016020013880611fbc565b85548785018301529485019486945092810192611ff8565b9150506020925061031394915060ff191682840152151560051b8201013880611fbc565b60ff81146120715760ff811690601f8211611f7a5760405191611f708361124a565b50604051600654816000612084836111fa565b8083529260209060019081811690811561202b57506001146120ae575050610313925003826112bf565b91509260066000527ff652222313e28459528d920b65115c16c04f3efc82aaedc97be59f3f377c0d3f936000925b8284106120f757506103139450505081016020013880611fbc565b855487850183015294850194869450928101926120dc565b91907f7fffffffffffffffffffffffffffffff5d576e7357a4501ddfe92f46681b20a0841161219357926020929160ff608095604051948552168484015260408301526060820152600092839182805260015afa156121875780516001600160a01b0381161561217e57918190565b50809160019190565b604051903d90823e3d90fd5b50505060009160039190565b600411156121a957565b634e487b7160e01b600052602160045260246000fd5b6121c88161219f565b806121d1575050565b6121da8161219f565b600181036121f45760405163f645eedf60e01b8152600490fd5b6121fd8161219f565b6002810361221e5760405163fce698f760e01b815260048101839052602490fd5b8061222a60039261219f565b146122325750565b6040516335e2f38360e21b81526004810191909152602490fd5b80548210156122645760005260206000200190600090565b634e487b7160e01b600052603260045260246000fd5b6001600160d01b039081811161228e571690565b604490604051906306dfcc6560e41b825260d060048301526024820152fd5b906122b743611bb5565b6001600160d01b039182806122cb86611a31565b169116019182116106ca576122df926125ca565b9091565b6122ec43611bb5565b906001600160d01b039081806123006119ea565b169116019081116106ca576122df916124e1565b61231d43611bb5565b906001600160d01b039081806123316119ea565b16911690039081116106ca576122df916124e1565b906113099161235c6123578361227a565b6122e3565b50506001600160a01b039081169081156123ac575b60086020527f5eff886ea0ce6ca488a3d6e336d6c0f75f46d19b42c06ce5ee98e42c96d256c754600092835260409092205481169116611dfc565b6123b86119138461227a565b5050612371565b61130992916001600160a01b03918216919081908315612417575b16918215612404575b60005260086020528060406000205416916000526040600020541690611dfc565b6124106119138561227a565b50506123e3565b6124236123578661227a565b50506123da565b600a5490600160401b821015611266576001820180600a5582101561226457600a600052805160209091015160301b65ffffffffffff191665ffffffffffff919091161760008051602061268783398151915290910155565b8054600160401b811015611266576124a09160018201815561224c565b6124cb57815160209092015160301b65ffffffffffff191665ffffffffffff92909216919091179055565b634e487b7160e01b600052600060045260246000fd5b600a5491929180156125a0576124f961251191611865565b600a6000526000805160206126878339815191520190565b9081549165ffffffffffff9081841691831680831161258e578692036125565761254f92509065ffffffffffff82549181199060301b169116179055565b60301c9190565b5050612589906125756125676112fc565b65ffffffffffff9092168252565b6001600160d01b038516602082015261242a565b61254f565b604051632520601d60e01b8152600490fd5b506125c4906125b06125676112fc565b6001600160d01b038416602082015261242a565b60009190565b80549293928015612661576125e16125ee91611865565b8260005260206000200190565b9182549265ffffffffffff9182851692811680841161258e5787930361262d575061254f92509065ffffffffffff82549181199060301b169116179055565b9150506125899161264d61263f6112fc565b65ffffffffffff9093168352565b6001600160d01b0386166020830152612483565b50906125c49161267261263f6112fc565b6001600160d01b038516602083015261248356fec65a7bb8d6351c1cf70c95a316cc6a92839c986682d98bc35f958f4883f9d2a8a2646970667358221220c36b70b08bc6e221565867c13d44c06eccaa9103786ab77208ea1422a417246f64736f6c634300081600332f8788117e7eff1d82e926ec794901d17c78024a50270940304540a733656f0dc65a7bb8d6351c1cf70c95a316cc6a92839c986682d98bc35f958f4883f9d2a8dec2bacdd2f05b59de34da9b523dff8be42e5e38e818c82fdb0bae774387a724",
  "linkReferences": {},
  "deployedLinkReferences": {}
}