{
  "_format": "hh-sol-artifact-1",
  "contractName": "TemplateRegistry",
  "sourceName": "contracts/TemplateRegistry.sol",
  "abi": [
    {
      "inputs": [],
      "stateMutability": "nonpayable",
      "type": "constructor"
    },
    {
      "inputs": [],
      "name": "AccessControlBadConfirmation",
      "type": "error"
    },
    {
      "inputs": [
        {
          "internalType": "address",
          "name": "account",
          "type": "address"
        },
        {
          "internalType": "bytes32",
          "name": "neededRole",
          "type": "bytes32"
        }
      ],
      "name": "AccessControlUnauthorizedAccount",
      "type": "error"
    },
    {
      "inputs": [
        {
          "internalType": "address",
          "name": "target",
          "type": "address"
        }
      ],
      "name": "AddressEmptyCode",
      "type": "error"
    },
    {
      "inputs": [
        {
          "internalType": "address",
          "name": "implementation",
          "type": "address"
        }
      ],
      "name": "ERC1967InvalidImplementation",
      "type": "error"
    },
    {
      "inputs": [],
      "name": "ERC1967NonPayable",
      "type": "error"
    },
    {
      "inputs": [],
      "name": "FailedCall",
      "type": "error"
    },
    {
      "inputs": [],
      "name": "InvalidInitialization",
      "type": "error"
    },
    {
      "inputs": [],
      "name": "NotInitializing",
      "type": "error"
    },
    {
      "inputs": [],
      "name": "UUPSUnauthorizedCallContext",
      "type": "error"
    },
    {
      "inputs": [
        {
          "internalType": "bytes32",
          "name": "slot",
          "type": "bytes32"
        }
      ],
      "name": "UUPSUnsupportedProxiableUUID",
      "type": "error"
    },
    {
      "anonymous": false,
      "inputs": [
        {
          "indexed": false,
          "internalType": "string",
          "name": "msg",
          "type": "string"
        }
      ],
      "name": "DebugUpgrade",
      "type": "event"
    },
    {
      "anonymous": false,
      "inputs": [
        {
          "indexed": false,
          "internalType": "uint64",
          "name": "version",
          "type": "uint64"
        }
      ],
      "name": "Initialized",
      "type": "event"
    },
    {
      "anonymous": false,
      "inputs": [
        {
          "indexed": true,
          "internalType": "bytes32",
          "name": "role",
          "type": "bytes32"
        },
        {
          "indexed": true,
          "internalType": "bytes32",
          "name": "previousAdminRole",
          "type": "bytes32"
        },
        {
          "indexed": true,
          "internalType": "bytes32",
          "name": "newAdminRole",
          "type": "bytes32"
        }
      ],
      "name": "RoleAdminChanged",
      "type": "event"
    },
    {
      "anonymous": false,
      "inputs": [
        {
          "indexed": true,
          "internalType": "bytes32",
          "name": "role",
          "type": "bytes32"
        },
        {
          "indexed": true,
          "internalType": "address",
          "name": "account",
          "type": "address"
        },
        {
          "indexed": true,
          "internalType": "address",
          "name": "sender",
          "type": "address"
        }
      ],
      "name": "RoleGranted",
      "type": "event"
    },
    {
      "anonymous": false,
      "inputs": [
        {
          "indexed": true,
          "internalType": "bytes32",
          "name": "role",
          "type": "bytes32"
        },
        {
          "indexed": true,
          "internalType": "address",
          "name": "account",
          "type": "address"
        },
        {
          "indexed": true,
          "internalType": "address",
          "name": "sender",
          "type": "address"
        }
      ],
      "name": "RoleRevoked",
      "type": "event"
    },
    {
      "anonymous": false,
      "inputs": [
        {
          "indexed": true,
          "internalType": "address",
          "name": "user",
          "type": "address"
        }
      ],
      "name": "SubmitterRoleGranted",
      "type": "event"
    },
    {
      "anonymous": false,
      "inputs": [
        {
          "indexed": true,
          "internalType": "bytes32",
          "name": "templateId",
          "type": "bytes32"
        }
      ],
      "name": "TemplateDeprecated",
      "type": "event"
    },
    {
      "anonymous": false,
      "inputs": [
        {
          "indexed": true,
          "internalType": "bytes32",
          "name": "templateId",
          "type": "bytes32"
        },
        {
          "indexed": false,
          "internalType": "address",
          "name": "implementation",
          "type": "address"
        },
        {
          "indexed": false,
          "internalType": "string",
          "name": "name",
          "type": "string"
        },
        {
          "indexed": false,
          "internalType": "string",
          "name": "version",
          "type": "string"
        },
        {
          "indexed": false,
          "internalType": "address",
          "name": "author",
          "type": "address"
        }
      ],
      "name": "TemplateRegistered",
      "type": "event"
    },
    {
      "anonymous": false,
      "inputs": [
        {
          "indexed": true,
          "internalType": "bytes32",
          "name": "templateId",
          "type": "bytes32"
        },
        {
          "indexed": false,
          "internalType": "address",
          "name": "newImplementation",
          "type": "address"
        },
        {
          "indexed": false,
          "internalType": "string",
          "name": "newVersion",
          "type": "string"
        },
        {
          "indexed": false,
          "internalType": "string",
          "name": "newAuditHash",
          "type": "string"
        }
      ],
      "name": "TemplateUpdated",
      "type": "event"
    },
    {
      "anonymous": false,
      "inputs": [
        {
          "indexed": true,
          "internalType": "bytes32",
          "name": "templateId",
          "type": "bytes32"
        },
        {
          "indexed": false,
          "internalType": "address",
          "name": "verifier",
          "type": "address"
        }
      ],
      "name": "TemplateVerified",
      "type": "event"
    },
    {
      "anonymous": false,
      "inputs": [
        {
          "indexed": false,
          "internalType": "address",
          "name": "newForwarder",
          "type": "address"
        }
      ],
      "name": "TrustedForwarderUpdated",
      "type": "event"
    },
    {
      "anonymous": false,
      "inputs": [
        {
          "indexed": true,
          "internalType": "address",
          "name": "implementation",
          "type": "address"
        }
      ],
      "name": "Upgraded",
      "type": "event"
    },
    {
      "inputs": [],
      "name": "ADMIN_ROLE",
      "outputs": [
        {
          "internalType": "bytes32",
          "name": "",
          "type": "bytes32"
        }
      ],
      "stateMutability": "view",
      "type": "function"
    },
    {
      "inputs": [],
      "name": "DEFAULT_ADMIN_ROLE",
      "outputs": [
        {
          "internalType": "bytes32",
          "name": "",
          "type": "bytes32"
        }
      ],
      "stateMutability": "view",
      "type": "function"
    },
    {
      "inputs": [],
      "name": "SUBMITTER_ROLE",
      "outputs": [
        {
          "internalType": "bytes32",
          "name": "",
          "type": "bytes32"
        }
      ],
      "stateMutability": "view",
      "type": "function"
    },
    {
      "inputs": [],
      "name": "UPGRADER_ROLE",
      "outputs": [
        {
          "internalType": "bytes32",
          "name": "",
          "type": "bytes32"
        }
      ],
      "stateMutability": "view",
      "type": "function"
    },
    {
      "inputs": [],
      "name": "UPGRADE_INTERFACE_VERSION",
      "outputs": [
        {
          "internalType": "string",
          "name": "",
          "type": "string"
        }
      ],
      "stateMutability": "view",
      "type": "function"
    },
    {
      "inputs": [],
      "name": "VERIFIER_ROLE",
      "outputs": [
        {
          "internalType": "bytes32",
          "name": "",
          "type": "bytes32"
        }
      ],
      "stateMutability": "view",
      "type": "function"
    },
    {
      "inputs": [
        {
          "internalType": "bytes32",
          "name": "templateId",
          "type": "bytes32"
        }
      ],
      "name": "deprecateTemplate",
      "outputs": [],
      "stateMutability": "nonpayable",
      "type": "function"
    },
    {
      "inputs": [],
      "name": "getAllTemplateIds",
      "outputs": [
        {
          "internalType": "bytes32[]",
          "name": "",
          "type": "bytes32[]"
        }
      ],
      "stateMutability": "view",
      "type": "function"
    },
    {
      "inputs": [
        {
          "internalType": "bytes32",
          "name": "role",
          "type": "bytes32"
        }
      ],
      "name": "getRoleAdmin",
      "outputs": [
        {
          "internalType": "bytes32",
          "name": "",
          "type": "bytes32"
        }
      ],
      "stateMutability": "view",
      "type": "function"
    },
    {
      "inputs": [
        {
          "internalType": "bytes32",
          "name": "templateId",
          "type": "bytes32"
        }
      ],
      "name": "getTemplate",
      "outputs": [
        {
          "components": [
            {
              "internalType": "address",
              "name": "implementation",
              "type": "address"
            },
            {
              "internalType": "string",
              "name": "name",
              "type": "string"
            },
            {
              "internalType": "string",
              "name": "version",
              "type": "string"
            },
            {
              "internalType": "address",
              "name": "author",
              "type": "address"
            },
            {
              "internalType": "bool",
              "name": "verified",
              "type": "bool"
            },
            {
              "internalType": "uint8",
              "name": "templateType",
              "type": "uint8"
            },
            {
              "internalType": "string",
              "name": "auditHash",
              "type": "string"
            }
          ],
          "internalType": "struct TemplateRegistry.Template",
          "name": "",
          "type": "tuple"
        }
      ],
      "stateMutability": "view",
      "type": "function"
    },
    {
      "inputs": [],
      "name": "getTemplateCount",
      "outputs": [
        {
          "internalType": "uint256",
          "name": "",
          "type": "uint256"
        }
      ],
      "stateMutability": "view",
      "type": "function"
    },
    {
      "inputs": [
        {
          "internalType": "uint256",
          "name": "index",
          "type": "uint256"
        }
      ],
      "name": "getTemplateIdByIndex",
      "outputs": [
        {
          "internalType": "bytes32",
          "name": "",
          "type": "bytes32"
        }
      ],
      "stateMutability": "view",
      "type": "function"
    },
    {
      "inputs": [
        {
          "internalType": "bytes32",
          "name": "role",
          "type": "bytes32"
        },
        {
          "internalType": "address",
          "name": "account",
          "type": "address"
        }
      ],
      "name": "grantRole",
      "outputs": [],
      "stateMutability": "nonpayable",
      "type": "function"
    },
    {
      "inputs": [
        {
          "internalType": "address",
          "name": "user",
          "type": "address"
        }
      ],
      "name": "grantSubmitterRole",
      "outputs": [],
      "stateMutability": "nonpayable",
      "type": "function"
    },
    {
      "inputs": [
        {
          "internalType": "bytes32",
          "name": "role",
          "type": "bytes32"
        },
        {
          "internalType": "address",
          "name": "account",
          "type": "address"
        }
      ],
      "name": "hasRole",
      "outputs": [
        {
          "internalType": "bool",
          "name": "",
          "type": "bool"
        }
      ],
      "stateMutability": "view",
      "type": "function"
    },
    {
      "inputs": [
        {
          "internalType": "address",
          "name": "trustedForwarder",
          "type": "address"
        },
        {
          "internalType": "address",
          "name": "_stakeManager",
          "type": "address"
        }
      ],
      "name": "initialize",
      "outputs": [],
      "stateMutability": "nonpayable",
      "type": "function"
    },
    {
      "inputs": [
        {
          "internalType": "address",
          "name": "forwarder",
          "type": "address"
        }
      ],
      "name": "isTrustedForwarder",
      "outputs": [
        {
          "internalType": "bool",
          "name": "",
          "type": "bool"
        }
      ],
      "stateMutability": "view",
      "type": "function"
    },
    {
      "inputs": [
        {
          "internalType": "string",
          "name": "",
          "type": "string"
        },
        {
          "internalType": "string",
          "name": "",
          "type": "string"
        }
      ],
      "name": "nameVersionUsed",
      "outputs": [
        {
          "internalType": "bool",
          "name": "",
          "type": "bool"
        }
      ],
      "stateMutability": "view",
      "type": "function"
    },
    {
      "inputs": [],
      "name": "proxiableUUID",
      "outputs": [
        {
          "internalType": "bytes32",
          "name": "",
          "type": "bytes32"
        }
      ],
      "stateMutability": "view",
      "type": "function"
    },
    {
      "inputs": [
        {
          "internalType": "address",
          "name": "implementation",
          "type": "address"
        },
        {
          "internalType": "string",
          "name": "name",
          "type": "string"
        },
        {
          "internalType": "string",
          "name": "version",
          "type": "string"
        },
        {
          "internalType": "uint8",
          "name": "templateType",
          "type": "uint8"
        }
      ],
      "name": "registerTemplate",
      "outputs": [
        {
          "internalType": "bytes32",
          "name": "templateId",
          "type": "bytes32"
        }
      ],
      "stateMutability": "nonpayable",
      "type": "function"
    },
    {
      "inputs": [
        {
          "internalType": "bytes32",
          "name": "role",
          "type": "bytes32"
        },
        {
          "internalType": "address",
          "name": "callerConfirmation",
          "type": "address"
        }
      ],
      "name": "renounceRole",
      "outputs": [],
      "stateMutability": "nonpayable",
      "type": "function"
    },
    {
      "inputs": [],
      "name": "requestSubmitterRole",
      "outputs": [],
      "stateMutability": "nonpayable",
      "type": "function"
    },
    {
      "inputs": [
        {
          "internalType": "bytes32",
          "name": "role",
          "type": "bytes32"
        },
        {
          "internalType": "address",
          "name": "account",
          "type": "address"
        }
      ],
      "name": "revokeRole",
      "outputs": [],
      "stateMutability": "nonpayable",
      "type": "function"
    },
    {
      "inputs": [],
      "name": "stakeManager",
      "outputs": [
        {
          "internalType": "contract IStakeManager",
          "name": "",
          "type": "address"
        }
      ],
      "stateMutability": "view",
      "type": "function"
    },
    {
      "inputs": [
        {
          "internalType": "bytes4",
          "name": "interfaceId",
          "type": "bytes4"
        }
      ],
      "name": "supportsInterface",
      "outputs": [
        {
          "internalType": "bool",
          "name": "",
          "type": "bool"
        }
      ],
      "stateMutability": "view",
      "type": "function"
    },
    {
      "inputs": [
        {
          "internalType": "bytes32",
          "name": "templateId",
          "type": "bytes32"
        },
        {
          "internalType": "address",
          "name": "newImplementation",
          "type": "address"
        },
        {
          "internalType": "string",
          "name": "newVersion",
          "type": "string"
        },
        {
          "internalType": "string",
          "name": "newAuditHash",
          "type": "string"
        }
      ],
      "name": "updateTemplate",
      "outputs": [],
      "stateMutability": "nonpayable",
      "type": "function"
    },
    {
      "inputs": [
        {
          "internalType": "address",
          "name": "newForwarder",
          "type": "address"
        }
      ],
      "name": "updateTrustedForwarder",
      "outputs": [],
      "stateMutability": "nonpayable",
      "type": "function"
    },
    {
      "inputs": [
        {
          "internalType": "address",
          "name": "newImplementation",
          "type": "address"
        },
        {
          "internalType": "bytes",
          "name": "data",
          "type": "bytes"
        }
      ],
      "name": "upgradeToAndCall",
      "outputs": [],
      "stateMutability": "payable",
      "type": "function"
    },
    {
      "inputs": [
        {
          "internalType": "bytes32",
          "name": "templateId",
          "type": "bytes32"
        }
      ],
      "name": "verifyTemplate",
      "outputs": [],
      "stateMutability": "nonpayable",
      "type": "function"
    }
  ],
  "bytecode": "0x60a080604052346100cc57306080527ff0c57e16840df040f15088dc2f81fe391c3923bec73e23a9662efc9c229c6a009081549060ff8260401c166100bd57506001600160401b036002600160401b031982821601610078575b60405161254190816100d2823960805181818161115d01526112340152f35b6001600160401b031990911681179091556040519081527fc7f505b2f371ae2175ee4913f4499e1f2633a7b5936321eed1cdaeb6115181d290602090a1388080610059565b63f92ee8a960e01b8152600490fd5b600080fdfe608080604052600436101561001357600080fd5b60003560e01c90816301ffc9a714611bef575080632140613914611a80578063248a9ca314611a445780632f2ff15d146119f857806336568abe146119a75780633a5dd0c61461166b578063485cc955146114895780634f1ef286146111e55780635016959a146111c757806352d1902d1461114a578063572b6c051461111557806364a879f6146110ba57806373b96280146110395780637542ff951461101057806375b238fc14610fd55780638615471c14610f4257806391712a0b14610f0757806391d1485414610ead5780639757739b14610d45578063a217fddf14610d29578063ad3cb1cc14610ccd578063ae24ccbc14610c1e578063d547741f14610bd0578063e1e9c30014610b5e578063e4e7b5c314610367578063e7705db61461032c578063ee5eb2a81461028f578063f72c0d8b146102545763f90b03111461015e57600080fd5b3461024f57602036600319011261024f57610177611c58565b61017f611fcc565b6001600160a01b0390811660008181527fb16e88c42fd4e48df2dd6a2eabd6bc9aec654ec170056b470819f8892cc6431c60205260409020549192917fa49807205ce4d355092ef5a8a18f56e8913cf4a201fbe287825b095693c217759060ff1615610231577fa4388ecc389b1390354ae0c65a856c0d7dd4fb648419f5d3ac0b99e38f46fd116020858516610216811515611e81565b600480546001600160a01b03191682179055604051908152a1005b604492506040519163e2517d3f60e01b835260048301526024820152fd5b600080fd5b3461024f57600036600319011261024f5760206040517f189ab7a9244df0848122154315af71fe140f3db0fe014031783b0946b8c9d2e38152f35b3461024f57604036600319011261024f576001600160401b0360043581811161024f576102c0903690600401611d71565b9060243590811161024f57610317602080936102fa826102e660ff963690600401611d71565b928160405193828580945193849201611d29565b810160028152030190208260405194838680955193849201611d29565b82019081520301902054166040519015158152f35b3461024f57600036600319011261024f5760206040517f0ce23c3e399818cfee81a7ab0880f714e53d7672b08df0fa62f2843416e1ea098152f35b3461024f57608036600319011261024f57610380611c58565b6024356001600160401b03811161024f5761039f903690600401611c6e565b6044929192356001600160401b03811161024f576103c1903690600401611c6e565b909160ff606435166064350361024f576001600160a01b03841615610b19578015610ae4578115610aac576103f4611fcc565b6001600160a01b031660009081527f5c3302b5c06292c55b333749a04b055e6741a4d3298d02ec2344f30876d13dfe602052604090205460ff1615610a675760ff6104546040518388823760208185810160028152030190208486611fb3565b5416610a2257610462611fcc565b60405160208101916001600160601b0319809160601b1683524260348301528660601b166054820152828760688301376104c760698286868201818a6068830160008152370160ff60f81b60643560f81b166068820152036049810184520182611cb6565b5190209384600052600060205260018060a01b03604060002054166109dd576104ee611fcc565b604051906104fb82611c9b565b6001600160a01b038316825261051236858a611cf2565b6020830152610522368688611cf2565b604083015260018060a01b031660608201526000608082015260ff6064351660a08201526040518060208101106001600160401b0360208301111761085757602081016040526000815260c0820152856000526000602052604060002060018060a01b038251166001600160601b0360a01b82541617815560208201518051906001600160401b038211610857576105ca826105c16001860154611dd0565b60018601611e0a565b602090601f831160011461096b576105fb929160009183610960575b50508160011b916000199060031b1c19161790565b60018201555b60408201518051906001600160401b03821161085757610631826106286002860154611dd0565b60028601611e0a565b602090601f83116001146108eb578260049360c09593610667936000926108e05750508160011b916000199060031b1c19161790565b60028201555b6003810160018060a01b0360608601511681549060ff60a01b6080880151151560a01b169060ff60a81b60a089015160a81b169269ffffffffffffffffffff60b01b161717179055019101518051906001600160401b038211610857576106de826106d88554611dd0565b85611e0a565b602090601f83116001146108785761070e92916000918361086d5750508160011b916000199060031b1c19161790565b90555b6001549568010000000000000000871015610857576107d786957f566d3e4cd7949af5fca82ce5853971c4c7977c0ec51fe1adbd5648e9f5f8e7c39561075f8a600160209c01600155611f66565b81549060031b908a821b91600019901b1916179055610792604051878682378b8189810160028152030190208284611fb3565b805460ff191660011790556107c96107a8611fcc565b9460405197889760018060a01b0316885260808d8901526080880191611e60565b918583036040870152611e60565b6001600160a01b0390911660608301520390a27f4d261fa58a322c8a1ebf4af41840e89ca50f7110b29070fd5eb4a8df081108c260806040518481526026858201527f54656d706c6174655265676973747279207570677261646564207375636365736040820152657366756c6c7960d01b6060820152a1604051908152f35b634e487b7160e01b600052604160045260246000fd5b015190508a806105e6565b90601f198316918460005260206000209260005b8181106108c857509084600195949392106108af575b505050811b019055610711565b015160001960f88460031b161c191690558980806108a2565b9293602060018192878601518155019501930161088c565b015190508d806105e6565b906002840160005260206000209160005b601f198516811061094857509260c0949260019260049583601f1981161061092f575b505050811b01600282015561066d565b015160001960f88460031b161c191690558c808061091f565b919260206001819286850151815501940192016108fc565b015190508b806105e6565b9190600184016000526020600020906000935b601f19841685106109c2576001945083601f198116106109a9575b505050811b016001820155610601565b015160001960f88460031b161c191690558a8080610999565b8181015183556020948501946001909301929091019061097e565b60405162461bcd60e51b815260206004820152601760248201527f54656d706c61746520616c7265616479206578697374730000000000000000006044820152606490fd5b60405162461bcd60e51b815260206004820152601b60248201527f4e616d65202b2076657273696f6e20616c7265616479207573656400000000006044820152606490fd5b60405162461bcd60e51b815260206004820152601760248201527f5375626d697474657220726f6c652072657175697265640000000000000000006044820152606490fd5b60405162461bcd60e51b815260206004820152601060248201526f15995c9cda5bdb881c995c5d5a5c995960821b6044820152606490fd5b60405162461bcd60e51b815260206004820152600d60248201526c13985b59481c995c5d5a5c9959609a1b6044820152606490fd5b60405162461bcd60e51b815260206004820152601e60248201527f496e76616c696420696d706c656d656e746174696f6e206164647265737300006044820152606490fd5b3461024f57602036600319011261024f57600435600154811015610b9557610b87602091611f66565b90546040519160031b1c8152f35b60405162461bcd60e51b8152602060048201526013602482015272496e646578206f7574206f6620626f756e647360681b6044820152606490fd5b3461024f57604036600319011261024f57610c1c600435610bef611c42565b90806000526000805160206124ec833981519152602052610c1760016040600020015461235c565b6123a3565b005b3461024f57600036600319011261024f576040518060018054928381526020809101809460016000527fb10e2d527612073b26eecdfd717e6a320cf44b4afac2b0732d9fcbe2b7fa0cf69060005b818110610cba5750505083610c82910384611cb6565b60405192818401908285525180915260408401949160005b828110610ca75785870386f35b8351875295810195928101928401610c9a565b8254845292840192918501918501610c6c565b3461024f57600036600319011261024f5760405160408101908082106001600160401b0383111761085757610d259160405260058152640352e302e360dc1b6020820152604051918291602083526020830190611d4c565b0390f35b3461024f57600036600319011261024f57602060405160008152f35b3461024f5760208060031936011261024f5760043590604051610d6781611c9b565b6000815260608181848194015281604082015281810160009052608081016000905260a081016000905260c001528260005260008252600160a01b600190039283604060002054161515610dba90611d8f565b60005260008252604060002060405192610dd384611c9b565b815485168452610de560018301611ec1565b84820190815291610df860028201611ec1565b90604086019182528660038201549286880195828516875260808901938560a01c60ff161515855260a08a019560a81c60ff168652600401610e3990611ec1565b9560c08a019687526040519a8b9a828c525116908a0152516040890160e090526101008901610e6791611d4c565b905190601f1997888a830301908a0152610e8091611d4c565b945116608087015251151560a08601525160ff1660c085015251918382030160e0840152610d2591611d4c565b3461024f57604036600319011261024f57610ec6611c42565b6004356000526000805160206124ec83398151915260205260406000209060018060a01b0316600052602052602060ff604060002054166040519015158152f35b3461024f57600036600319011261024f5760206040517fe1a65d1a914580ff6931bc952f0fb26573e9282358a4458bceb9ccc6d923d0418152f35b3461024f57602036600319011261024f57600435610f5e612311565b8060005260006020527fd6acedf1abaa6daab15f9d4a7876ae1319e048a64f8336efee52631966fb08a2602060018060a01b03610fa381604060002054161515611d8f565b600084815280835260409020600301805460ff60a01b1916600160a01b179055610fcb611fcc565b60405191168152a2005b3461024f57600036600319011261024f5760206040517fa49807205ce4d355092ef5a8a18f56e8913cf4a201fbe287825b095693c217758152f35b3461024f57600036600319011261024f576003546040516001600160a01b039091168152602090f35b3461024f57602036600319011261024f57600435611055612311565b600081815260208190526040902054611078906001600160a01b03161515611d8f565b6000818152602081905260408120600301805460ff60a01b191690557f92593f3d901a229dae348f6b1862d260d77c5359c73fc4f8dc12b36ab4b8aa379080a2005b3461024f57602036600319011261024f576110d3611c58565b6110db612311565b6110e481611ff0565b506001600160a01b03167f35d4c446efc26e906ae8a4920d51abc98076676f42a8762d0b7800296f0e0574600080a2005b3461024f57602036600319011261024f576020611130611c58565b6004546040516001600160a01b0392831691909216148152f35b3461024f57600036600319011261024f577f00000000000000000000000000000000000000000000000000000000000000006001600160a01b031630036111b55760206040517f360894a13ba1a3210667c828492db98dca3e2076cc3735a920a3ca505d382bbc8152f35b60405163703e46dd60e11b8152600490fd5b3461024f57600036600319011261024f576020600154604051908152f35b604036600319011261024f576111f9611c58565b60249081356001600160401b03811161024f573660238201121561024f5761122a9036908481600401359101611cf2565b6001600160a01b037f0000000000000000000000000000000000000000000000000000000000000000811630811490811561145b575b506111b55761126d611fcc565b811660008181527fab71e3f32666744d246edff3f96e4bdafee2e9867098cdd118a979a7464786a86020908152604090912054909291907f189ab7a9244df0848122154315af71fe140f3db0fe014031783b0946b8c9d2e39060ff161561143e5750508316926040516352d1902d60e01b81528281600481885afa6000918161140f575b5061130e57604051634c9c8ce360e01b8152600481018690528690fd5b8490867f360894a13ba1a3210667c828492db98dca3e2076cc3735a920a3ca505d382bbc918281036113fa5750833b156113e4575080546001600160a01b03191682179055604051907fbc7cd75a20ee27fd9adebab32041f755214dbc6bffa90cc0225b39da2e5c2d3b600080a28351156113ca57506000808484610c1c96519101845af4903d156113c1573d6113a481611cd7565b906113b26040519283611cb6565b8152600081943d92013e612468565b60609250612468565b92505050346113d557005b63b398979f60e01b8152600490fd5b604051634c9c8ce360e01b815260048101849052fd5b60405190632a87526960e21b82526004820152fd5b9091508381813d8311611437575b6114278183611cb6565b8101031261024f575190876112f1565b503d61141d565b60449250866040519263e2517d3f60e01b84526004840152820152fd5b9050817f360894a13ba1a3210667c828492db98dca3e2076cc3735a920a3ca505d382bbc5416141585611260565b3461024f57604036600319011261024f576114a2611c58565b6114aa611c42565b7ff0c57e16840df040f15088dc2f81fe391c3923bec73e23a9662efc9c229c6a009182549160ff8360401c1615926001600160401b03811680159081611663575b6001149081611659575b159081611650575b5061163e5767ffffffffffffffff19811660011785558361161f575b506001600160a01b039081169182156115e35716611538811515611e81565b611540612427565b611548612427565b611550612427565b6001600160601b0360a01b90816004541617600455600354161760035561157d611578611fcc565b6120ac565b5061158e611589611fcc565b612145565b5061159f61159a611fcc565b6121f1565b506115a657005b68ff00000000000000001981541690557fc7f505b2f371ae2175ee4913f4499e1f2633a7b5936321eed1cdaeb6115181d2602060405160018152a1005b60405162461bcd60e51b815260206004820152601460248201527324b73b30b634b21029ba30b5b2a6b0b730b3b2b960611b6044820152606490fd5b68ffffffffffffffffff19166801000000000000000117845584611519565b60405163f92ee8a960e01b8152600490fd5b905015866114fd565b303b1591506114f5565b8591506114eb565b3461024f57608036600319011261024f57600435611687611c42565b6001600160401b03919060443583811161024f576116a9903690600401611c6e565b9060643585811161024f576116c2903690600401611c6e565b90916116cc612311565b856000526020946000865260018060a01b03906116f182604060002054161515611d8f565b169384156119625780156119265760008781528087526040902080546001600160a01b0319168617815560028101908983116108575761173b836117358454611dd0565b84611e0a565b60009183601f81116001146118bc578061176e916004956000916118b1575b508160011b916000199060031b1c19161790565b90555b019783116108575761178d836117878a54611dd0565b8a611e0a565b600097601f841160011461182157916118039184936117e98561181198977f9c4f71b43c2f3a66178e345001ec989ca3ea4d0816475443f4808627def3e6d19c9d60009161181657508160011b916000199060031b1c19161790565b90555b606060405198899889528801526060870191611e60565b918483036040860152611e60565b0390a2005b90508801358e61175a565b601f19841681600052876000209060005b81811061189a57509161180393917f9c4f71b43c2f3a66178e345001ec989ca3ea4d0816475443f4808627def3e6d19a9b876118119998979510611880575b5050600185811b0190556117ec565b870135600019600388901b60f8161c191690558b80611871565b878c013583559a89019a6001909201918901611832565b90508701358e61175a565b506000818152898120909385601f1981165b8c81881061190a575060049650106118f0575b5050600184811b019055611771565b860135600019600387901b60f8161c191690558b806118e1565b838a0135855596870196600190940193909201918791506118ce565b60405162461bcd60e51b815260048101879052601460248201527313995dc81d995c9cda5bdb881c995c5d5a5c995960621b6044820152606490fd5b60405162461bcd60e51b815260048101879052601a60248201527f496e76616c6964206e657720696d706c656d656e746174696f6e0000000000006044820152606490fd5b3461024f57604036600319011261024f576119c0611c42565b6001600160a01b03806119d1611fcc565b16908216036119e657610c1c906004356123a3565b60405163334bd91960e11b8152600490fd5b3461024f57604036600319011261024f57610c1c600435611a17611c42565b90806000526000805160206124ec833981519152602052611a3f60016040600020015461235c565b61229d565b3461024f57602036600319011261024f576004356000526000805160206124ec8339815191526020526020600160406000200154604051908152f35b3461024f57600036600319011261024f576003546001600160a01b039081168015611bb3576020826024611ab2611fcc565b6040519485938492630c2eb40360e01b84521660048301525afa8015611ba757600090611b6b575b69010f0cf064dd59200000915010611b2d57611afc611af7611fcc565b611ff0565b50611b05611fcc565b167f35d4c446efc26e906ae8a4920d51abc98076676f42a8762d0b7800296f0e0574600080a2005b60405162461bcd60e51b8152602060048201526016602482015275139bdd08195b9bdd59da081353d113081cdd185ad95960521b6044820152606490fd5b506020813d602011611b9f575b81611b8560209383611cb6565b8101031261024f5769010f0cf064dd592000009051611ada565b3d9150611b78565b6040513d6000823e3d90fd5b60405162461bcd60e51b815260206004820152601460248201527314dd185ad953585b9859d95c881b9bdd081cd95d60621b6044820152606490fd5b3461024f57602036600319011261024f576004359063ffffffff60e01b821680920361024f57602091637965db0b60e01b8114908115611c31575b5015158152f35b6301ffc9a760e01b14905083611c2a565b602435906001600160a01b038216820361024f57565b600435906001600160a01b038216820361024f57565b9181601f8401121561024f578235916001600160401b03831161024f576020838186019501011161024f57565b60e081019081106001600160401b0382111761085757604052565b90601f801991011681019081106001600160401b0382111761085757604052565b6001600160401b03811161085757601f01601f191660200190565b929192611cfe82611cd7565b91611d0c6040519384611cb6565b82948184528183011161024f578281602093846000960137010152565b60005b838110611d3c5750506000910152565b8181015183820152602001611d2c565b90602091611d6581518092818552858086019101611d29565b601f01601f1916010190565b9080601f8301121561024f57816020611d8c93359101611cf2565b90565b15611d9657565b60405162461bcd60e51b815260206004820152601260248201527115195b5c1b185d19481b9bdd08195e1a5cdd60721b6044820152606490fd5b90600182811c92168015611e00575b6020831014611dea57565b634e487b7160e01b600052602260045260246000fd5b91607f1691611ddf565b90601f8111611e1857505050565b6000916000526020600020906020601f850160051c83019410611e56575b601f0160051c01915b828110611e4b57505050565b818155600101611e3f565b9092508290611e36565b908060209392818452848401376000828201840152601f01601f1916010190565b15611e8857565b60405162461bcd60e51b815260206004820152601160248201527024b73b30b634b2103337b93bb0b93232b960791b6044820152606490fd5b90604051918260008254611ed481611dd0565b90818452602094600191600181169081600014611f445750600114611f05575b505050611f0392500383611cb6565b565b600090815285812095935091905b818310611f2c575050611f039350820101388080611ef4565b85548884018501529485019487945091830191611f13565b92505050611f0394925060ff191682840152151560051b820101388080611ef4565b600154811015611f9d5760016000527fb10e2d527612073b26eecdfd717e6a320cf44b4afac2b0732d9fcbe2b7fa0cf60190600090565b634e487b7160e01b600052603260045260246000fd5b6020919283604051948593843782019081520301902090565b600454336001600160a01b0390911603611fec5736601319013560601c90565b3390565b6001600160a01b0390811660008181527f5c3302b5c06292c55b333749a04b055e6741a4d3298d02ec2344f30876d13dfe602052604081205490927fe1a65d1a914580ff6931bc952f0fb26573e9282358a4458bceb9ccc6d923d041916000805160206124ec833981519152919060ff166120a5576000805160206124cc833981519152918386526020526040852084865260205260408520600160ff1982541617905561209c611fcc565b169380a4600190565b5050505090565b6001600160a01b0390811660008181527fb7db2dd08fcb62d0c9e08c51941cae53c267786a0b75803fb7960902fc8ef97d60205260408120549092906000805160206124ec8339815191529060ff1661213f578380526020526040832082845260205260408320600160ff19825416179055612126611fcc565b16916000805160206124cc8339815191528180a4600190565b50505090565b6001600160a01b0390811660008181527fab71e3f32666744d246edff3f96e4bdafee2e9867098cdd118a979a7464786a8602052604081205490927f189ab7a9244df0848122154315af71fe140f3db0fe014031783b0946b8c9d2e3916000805160206124ec833981519152919060ff166120a5576000805160206124cc833981519152918386526020526040852084865260205260408520600160ff1982541617905561209c611fcc565b6001600160a01b0390811660008181527fd56b761303e15a4cbea84f37eba80a5289f49fda0b4884e30ac1d73eb9b8b143602052604081205490927f0ce23c3e399818cfee81a7ab0880f714e53d7672b08df0fa62f2843416e1ea09916000805160206124ec833981519152919060ff166120a5576000805160206124cc833981519152918386526020526040852084865260205260408520600160ff1982541617905561209c611fcc565b60008181526000805160206124ec833981519152602081815260408084206001600160a01b039687168086529252832054929490939260ff166120a5576000805160206124cc833981519152918386526020526040852084865260205260408520600160ff1982541617905561209c611fcc565b612319611fcc565b6001600160a01b031660008181527fb7db2dd08fcb62d0c9e08c51941cae53c267786a0b75803fb7960902fc8ef97d602052604081205460ff1615610231575050565b612364611fcc565b90806000526000805160206124ec83398151915260205260406000209160018060a01b0316918260005260205260ff6040600020541615610231575050565b60008181526000805160206124ec833981519152602081815260408084206001600160a01b039687168086529252832054929490939260ff16156120a5577ff6391f5c32d9c69d2a47ea670b442974b53935d1edc7fd64eb21e047a839171b91838652602052604085208486526020526040852060ff19815416905561209c611fcc565b60ff7ff0c57e16840df040f15088dc2f81fe391c3923bec73e23a9662efc9c229c6a005460401c161561245657565b604051631afcd79f60e31b8152600490fd5b9061248f575080511561247d57805190602001fd5b60405163d6bda27560e01b8152600490fd5b815115806124c2575b6124a0575090565b604051639996b31560e01b81526001600160a01b039091166004820152602490fd5b50803b1561249856fe2f8788117e7eff1d82e926ec794901d17c78024a50270940304540a733656f0d02dd7bc7dec4dceedda775e58dd541e08a116c6c53815c0bd028192f7b626800a2646970667358221220488984c830b7cd0bf6e9fc693f0c02d468e58be62a71273fa893b19cfab180f864736f6c63430008160033",
  "linkReferences": {},
  "deployedLinkReferences": {}
}