{
  "_format": "hh-sol-artifact-1",
  "contractName": "TierSystem",
  "sourceName": "contracts/TierSystem.sol",
  "abi": [
    {
      "inputs": [],
      "stateMutability": "nonpayable",
      "type": "constructor"
    },
    {
      "inputs": [],
      "name": "AccessControlBadConfirmation",
      "type": "error"
    },
    {
      "inputs": [
        {
          "internalType": "address",
          "name": "account",
          "type": "address"
        },
        {
          "internalType": "bytes32",
          "name": "neededRole",
          "type": "bytes32"
        }
      ],
      "name": "AccessControlUnauthorizedAccount",
      "type": "error"
    },
    {
      "inputs": [
        {
          "internalType": "address",
          "name": "target",
          "type": "address"
        }
      ],
      "name": "AddressEmptyCode",
      "type": "error"
    },
    {
      "inputs": [
        {
          "internalType": "address",
          "name": "implementation",
          "type": "address"
        }
      ],
      "name": "ERC1967InvalidImplementation",
      "type": "error"
    },
    {
      "inputs": [],
      "name": "ERC1967NonPayable",
      "type": "error"
    },
    {
      "inputs": [
        {
          "internalType": "address",
          "name": "sender",
          "type": "address"
        },
        {
          "internalType": "uint256",
          "name": "tokenId",
          "type": "uint256"
        },
        {
          "internalType": "address",
          "name": "owner",
          "type": "address"
        }
      ],
      "name": "ERC721IncorrectOwner",
      "type": "error"
    },
    {
      "inputs": [
        {
          "internalType": "address",
          "name": "operator",
          "type": "address"
        },
        {
          "internalType": "uint256",
          "name": "tokenId",
          "type": "uint256"
        }
      ],
      "name": "ERC721InsufficientApproval",
      "type": "error"
    },
    {
      "inputs": [
        {
          "internalType": "address",
          "name": "approver",
          "type": "address"
        }
      ],
      "name": "ERC721InvalidApprover",
      "type": "error"
    },
    {
      "inputs": [
        {
          "internalType": "address",
          "name": "operator",
          "type": "address"
        }
      ],
      "name": "ERC721InvalidOperator",
      "type": "error"
    },
    {
      "inputs": [
        {
          "internalType": "address",
          "name": "owner",
          "type": "address"
        }
      ],
      "name": "ERC721InvalidOwner",
      "type": "error"
    },
    {
      "inputs": [
        {
          "internalType": "address",
          "name": "receiver",
          "type": "address"
        }
      ],
      "name": "ERC721InvalidReceiver",
      "type": "error"
    },
    {
      "inputs": [
        {
          "internalType": "address",
          "name": "sender",
          "type": "address"
        }
      ],
      "name": "ERC721InvalidSender",
      "type": "error"
    },
    {
      "inputs": [
        {
          "internalType": "uint256",
          "name": "tokenId",
          "type": "uint256"
        }
      ],
      "name": "ERC721NonexistentToken",
      "type": "error"
    },
    {
      "inputs": [],
      "name": "FailedCall",
      "type": "error"
    },
    {
      "inputs": [],
      "name": "InvalidInitialization",
      "type": "error"
    },
    {
      "inputs": [],
      "name": "NotInitializing",
      "type": "error"
    },
    {
      "inputs": [],
      "name": "ReentrancyGuardReentrantCall",
      "type": "error"
    },
    {
      "inputs": [
        {
          "internalType": "address",
          "name": "token",
          "type": "address"
        }
      ],
      "name": "SafeERC20FailedOperation",
      "type": "error"
    },
    {
      "inputs": [],
      "name": "UUPSUnauthorizedCallContext",
      "type": "error"
    },
    {
      "inputs": [
        {
          "internalType": "bytes32",
          "name": "slot",
          "type": "bytes32"
        }
      ],
      "name": "UUPSUnsupportedProxiableUUID",
      "type": "error"
    },
    {
      "anonymous": false,
      "inputs": [
        {
          "indexed": true,
          "internalType": "address",
          "name": "owner",
          "type": "address"
        },
        {
          "indexed": true,
          "internalType": "address",
          "name": "approved",
          "type": "address"
        },
        {
          "indexed": true,
          "internalType": "uint256",
          "name": "tokenId",
          "type": "uint256"
        }
      ],
      "name": "Approval",
      "type": "event"
    },
    {
      "anonymous": false,
      "inputs": [
        {
          "indexed": true,
          "internalType": "address",
          "name": "owner",
          "type": "address"
        },
        {
          "indexed": true,
          "internalType": "address",
          "name": "operator",
          "type": "address"
        },
        {
          "indexed": false,
          "internalType": "bool",
          "name": "approved",
          "type": "bool"
        }
      ],
      "name": "ApprovalForAll",
      "type": "event"
    },
    {
      "anonymous": false,
      "inputs": [
        {
          "indexed": true,
          "internalType": "address",
          "name": "user",
          "type": "address"
        },
        {
          "indexed": false,
          "internalType": "uint8",
          "name": "newTier",
          "type": "uint8"
        }
      ],
      "name": "BadgeUpdated",
      "type": "event"
    },
    {
      "anonymous": false,
      "inputs": [
        {
          "indexed": false,
          "internalType": "uint256",
          "name": "_fromTokenId",
          "type": "uint256"
        },
        {
          "indexed": false,
          "internalType": "uint256",
          "name": "_toTokenId",
          "type": "uint256"
        }
      ],
      "name": "BatchMetadataUpdate",
      "type": "event"
    },
    {
      "anonymous": false,
      "inputs": [
        {
          "indexed": true,
          "internalType": "address",
          "name": "user",
          "type": "address"
        },
        {
          "indexed": false,
          "internalType": "uint256",
          "name": "until",
          "type": "uint256"
        }
      ],
      "name": "CooldownSet",
      "type": "event"
    },
    {
      "anonymous": false,
      "inputs": [
        {
          "indexed": false,
          "internalType": "uint64",
          "name": "version",
          "type": "uint64"
        }
      ],
      "name": "Initialized",
      "type": "event"
    },
    {
      "anonymous": false,
      "inputs": [
        {
          "indexed": false,
          "internalType": "uint256",
          "name": "_tokenId",
          "type": "uint256"
        }
      ],
      "name": "MetadataUpdate",
      "type": "event"
    },
    {
      "anonymous": false,
      "inputs": [
        {
          "indexed": true,
          "internalType": "bytes32",
          "name": "role",
          "type": "bytes32"
        },
        {
          "indexed": true,
          "internalType": "bytes32",
          "name": "previousAdminRole",
          "type": "bytes32"
        },
        {
          "indexed": true,
          "internalType": "bytes32",
          "name": "newAdminRole",
          "type": "bytes32"
        }
      ],
      "name": "RoleAdminChanged",
      "type": "event"
    },
    {
      "anonymous": false,
      "inputs": [
        {
          "indexed": true,
          "internalType": "bytes32",
          "name": "role",
          "type": "bytes32"
        },
        {
          "indexed": true,
          "internalType": "address",
          "name": "account",
          "type": "address"
        },
        {
          "indexed": true,
          "internalType": "address",
          "name": "sender",
          "type": "address"
        }
      ],
      "name": "RoleGranted",
      "type": "event"
    },
    {
      "anonymous": false,
      "inputs": [
        {
          "indexed": true,
          "internalType": "bytes32",
          "name": "role",
          "type": "bytes32"
        },
        {
          "indexed": true,
          "internalType": "address",
          "name": "account",
          "type": "address"
        },
        {
          "indexed": true,
          "internalType": "address",
          "name": "sender",
          "type": "address"
        }
      ],
      "name": "RoleRevoked",
      "type": "event"
    },
    {
      "anonymous": false,
      "inputs": [
        {
          "indexed": true,
          "internalType": "address",
          "name": "user",
          "type": "address"
        },
        {
          "indexed": false,
          "internalType": "uint256",
          "name": "amount",
          "type": "uint256"
        }
      ],
      "name": "Staked",
      "type": "event"
    },
    {
      "anonymous": false,
      "inputs": [
        {
          "indexed": true,
          "internalType": "address",
          "name": "from",
          "type": "address"
        },
        {
          "indexed": true,
          "internalType": "address",
          "name": "to",
          "type": "address"
        },
        {
          "indexed": true,
          "internalType": "uint256",
          "name": "tokenId",
          "type": "uint256"
        }
      ],
      "name": "Transfer",
      "type": "event"
    },
    {
      "anonymous": false,
      "inputs": [
        {
          "indexed": false,
          "internalType": "address",
          "name": "newForwarder",
          "type": "address"
        }
      ],
      "name": "TrustedForwarderUpdated",
      "type": "event"
    },
    {
      "anonymous": false,
      "inputs": [
        {
          "indexed": true,
          "internalType": "address",
          "name": "user",
          "type": "address"
        },
        {
          "indexed": false,
          "internalType": "uint256",
          "name": "amount",
          "type": "uint256"
        }
      ],
      "name": "Unstaked",
      "type": "event"
    },
    {
      "anonymous": false,
      "inputs": [
        {
          "indexed": true,
          "internalType": "address",
          "name": "implementation",
          "type": "address"
        }
      ],
      "name": "Upgraded",
      "type": "event"
    },
    {
      "inputs": [],
      "name": "ADMIN_ROLE",
      "outputs": [
        {
          "internalType": "bytes32",
          "name": "",
          "type": "bytes32"
        }
      ],
      "stateMutability": "view",
      "type": "function"
    },
    {
      "inputs": [],
      "name": "COOLDOWN",
      "outputs": [
        {
          "internalType": "uint256",
          "name": "",
          "type": "uint256"
        }
      ],
      "stateMutability": "view",
      "type": "function"
    },
    {
      "inputs": [],
      "name": "DEFAULT_ADMIN_ROLE",
      "outputs": [
        {
          "internalType": "bytes32",
          "name": "",
          "type": "bytes32"
        }
      ],
      "stateMutability": "view",
      "type": "function"
    },
    {
      "inputs": [],
      "name": "ROLLING_WINDOW",
      "outputs": [
        {
          "internalType": "uint256",
          "name": "",
          "type": "uint256"
        }
      ],
      "stateMutability": "view",
      "type": "function"
    },
    {
      "inputs": [],
      "name": "TIER1_EXPLORER",
      "outputs": [
        {
          "internalType": "uint256",
          "name": "",
          "type": "uint256"
        }
      ],
      "stateMutability": "view",
      "type": "function"
    },
    {
      "inputs": [],
      "name": "TIER2_BUILDER",
      "outputs": [
        {
          "internalType": "uint256",
          "name": "",
          "type": "uint256"
        }
      ],
      "stateMutability": "view",
      "type": "function"
    },
    {
      "inputs": [],
      "name": "TIER3_ARCHITECT",
      "outputs": [
        {
          "internalType": "uint256",
          "name": "",
          "type": "uint256"
        }
      ],
      "stateMutability": "view",
      "type": "function"
    },
    {
      "inputs": [],
      "name": "TIER4_SENTINEL",
      "outputs": [
        {
          "internalType": "uint256",
          "name": "",
          "type": "uint256"
        }
      ],
      "stateMutability": "view",
      "type": "function"
    },
    {
      "inputs": [],
      "name": "UPGRADER_ROLE",
      "outputs": [
        {
          "internalType": "bytes32",
          "name": "",
          "type": "bytes32"
        }
      ],
      "stateMutability": "view",
      "type": "function"
    },
    {
      "inputs": [],
      "name": "UPGRADE_INTERFACE_VERSION",
      "outputs": [
        {
          "internalType": "string",
          "name": "",
          "type": "string"
        }
      ],
      "stateMutability": "view",
      "type": "function"
    },
    {
      "inputs": [
        {
          "internalType": "address",
          "name": "to",
          "type": "address"
        },
        {
          "internalType": "uint256",
          "name": "tokenId",
          "type": "uint256"
        }
      ],
      "name": "approve",
      "outputs": [],
      "stateMutability": "nonpayable",
      "type": "function"
    },
    {
      "inputs": [
        {
          "internalType": "address",
          "name": "owner",
          "type": "address"
        }
      ],
      "name": "balanceOf",
      "outputs": [
        {
          "internalType": "uint256",
          "name": "",
          "type": "uint256"
        }
      ],
      "stateMutability": "view",
      "type": "function"
    },
    {
      "inputs": [
        {
          "internalType": "uint256",
          "name": "tokenId",
          "type": "uint256"
        }
      ],
      "name": "getApproved",
      "outputs": [
        {
          "internalType": "address",
          "name": "",
          "type": "address"
        }
      ],
      "stateMutability": "view",
      "type": "function"
    },
    {
      "inputs": [
        {
          "internalType": "bytes32",
          "name": "role",
          "type": "bytes32"
        }
      ],
      "name": "getRoleAdmin",
      "outputs": [
        {
          "internalType": "bytes32",
          "name": "",
          "type": "bytes32"
        }
      ],
      "stateMutability": "view",
      "type": "function"
    },
    {
      "inputs": [
        {
          "internalType": "address",
          "name": "user",
          "type": "address"
        }
      ],
      "name": "getTier",
      "outputs": [
        {
          "internalType": "uint8",
          "name": "",
          "type": "uint8"
        }
      ],
      "stateMutability": "view",
      "type": "function"
    },
    {
      "inputs": [],
      "name": "getTrustedForwarder",
      "outputs": [
        {
          "internalType": "address",
          "name": "",
          "type": "address"
        }
      ],
      "stateMutability": "view",
      "type": "function"
    },
    {
      "inputs": [
        {
          "internalType": "bytes32",
          "name": "role",
          "type": "bytes32"
        },
        {
          "internalType": "address",
          "name": "account",
          "type": "address"
        }
      ],
      "name": "grantRole",
      "outputs": [],
      "stateMutability": "nonpayable",
      "type": "function"
    },
    {
      "inputs": [
        {
          "internalType": "bytes32",
          "name": "role",
          "type": "bytes32"
        },
        {
          "internalType": "address",
          "name": "account",
          "type": "address"
        }
      ],
      "name": "hasRole",
      "outputs": [
        {
          "internalType": "bool",
          "name": "",
          "type": "bool"
        }
      ],
      "stateMutability": "view",
      "type": "function"
    },
    {
      "inputs": [
        {
          "internalType": "address",
          "name": "_modlToken",
          "type": "address"
        },
        {
          "internalType": "address",
          "name": "trustedForwarder",
          "type": "address"
        }
      ],
      "name": "initialize",
      "outputs": [],
      "stateMutability": "nonpayable",
      "type": "function"
    },
    {
      "inputs": [
        {
          "internalType": "address",
          "name": "owner",
          "type": "address"
        },
        {
          "internalType": "address",
          "name": "operator",
          "type": "address"
        }
      ],
      "name": "isApprovedForAll",
      "outputs": [
        {
          "internalType": "bool",
          "name": "",
          "type": "bool"
        }
      ],
      "stateMutability": "view",
      "type": "function"
    },
    {
      "inputs": [
        {
          "internalType": "address",
          "name": "forwarder",
          "type": "address"
        }
      ],
      "name": "isTrustedForwarder",
      "outputs": [
        {
          "internalType": "bool",
          "name": "",
          "type": "bool"
        }
      ],
      "stateMutability": "view",
      "type": "function"
    },
    {
      "inputs": [],
      "name": "modlToken",
      "outputs": [
        {
          "internalType": "contract IERC20",
          "name": "",
          "type": "address"
        }
      ],
      "stateMutability": "view",
      "type": "function"
    },
    {
      "inputs": [],
      "name": "name",
      "outputs": [
        {
          "internalType": "string",
          "name": "",
          "type": "string"
        }
      ],
      "stateMutability": "view",
      "type": "function"
    },
    {
      "inputs": [
        {
          "internalType": "uint256",
          "name": "tokenId",
          "type": "uint256"
        }
      ],
      "name": "ownerOf",
      "outputs": [
        {
          "internalType": "address",
          "name": "",
          "type": "address"
        }
      ],
      "stateMutability": "view",
      "type": "function"
    },
    {
      "inputs": [],
      "name": "proxiableUUID",
      "outputs": [
        {
          "internalType": "bytes32",
          "name": "",
          "type": "bytes32"
        }
      ],
      "stateMutability": "view",
      "type": "function"
    },
    {
      "inputs": [
        {
          "internalType": "bytes32",
          "name": "role",
          "type": "bytes32"
        },
        {
          "internalType": "address",
          "name": "callerConfirmation",
          "type": "address"
        }
      ],
      "name": "renounceRole",
      "outputs": [],
      "stateMutability": "nonpayable",
      "type": "function"
    },
    {
      "inputs": [
        {
          "internalType": "bytes32",
          "name": "role",
          "type": "bytes32"
        },
        {
          "internalType": "address",
          "name": "account",
          "type": "address"
        }
      ],
      "name": "revokeRole",
      "outputs": [],
      "stateMutability": "nonpayable",
      "type": "function"
    },
    {
      "inputs": [
        {
          "internalType": "address",
          "name": "user",
          "type": "address"
        }
      ],
      "name": "rollingAverageStake",
      "outputs": [
        {
          "internalType": "uint256",
          "name": "",
          "type": "uint256"
        }
      ],
      "stateMutability": "view",
      "type": "function"
    },
    {
      "inputs": [
        {
          "internalType": "address",
          "name": "from",
          "type": "address"
        },
        {
          "internalType": "address",
          "name": "to",
          "type": "address"
        },
        {
          "internalType": "uint256",
          "name": "tokenId",
          "type": "uint256"
        }
      ],
      "name": "safeTransferFrom",
      "outputs": [],
      "stateMutability": "nonpayable",
      "type": "function"
    },
    {
      "inputs": [
        {
          "internalType": "address",
          "name": "from",
          "type": "address"
        },
        {
          "internalType": "address",
          "name": "to",
          "type": "address"
        },
        {
          "internalType": "uint256",
          "name": "tokenId",
          "type": "uint256"
        },
        {
          "internalType": "bytes",
          "name": "data",
          "type": "bytes"
        }
      ],
      "name": "safeTransferFrom",
      "outputs": [],
      "stateMutability": "nonpayable",
      "type": "function"
    },
    {
      "inputs": [
        {
          "internalType": "address",
          "name": "",
          "type": "address"
        },
        {
          "internalType": "uint256",
          "name": "",
          "type": "uint256"
        }
      ],
      "name": "segments",
      "outputs": [
        {
          "internalType": "uint256",
          "name": "start",
          "type": "uint256"
        },
        {
          "internalType": "uint256",
          "name": "amount",
          "type": "uint256"
        }
      ],
      "stateMutability": "view",
      "type": "function"
    },
    {
      "inputs": [
        {
          "internalType": "address",
          "name": "operator",
          "type": "address"
        },
        {
          "internalType": "bool",
          "name": "approved",
          "type": "bool"
        }
      ],
      "name": "setApprovalForAll",
      "outputs": [],
      "stateMutability": "nonpayable",
      "type": "function"
    },
    {
      "inputs": [
        {
          "internalType": "address",
          "name": "user",
          "type": "address"
        },
        {
          "internalType": "uint8",
          "name": "tier",
          "type": "uint8"
        }
      ],
      "name": "setTier",
      "outputs": [],
      "stateMutability": "nonpayable",
      "type": "function"
    },
    {
      "inputs": [
        {
          "internalType": "uint256",
          "name": "amount",
          "type": "uint256"
        }
      ],
      "name": "stake",
      "outputs": [],
      "stateMutability": "nonpayable",
      "type": "function"
    },
    {
      "inputs": [
        {
          "internalType": "bytes4",
          "name": "interfaceId",
          "type": "bytes4"
        }
      ],
      "name": "supportsInterface",
      "outputs": [
        {
          "internalType": "bool",
          "name": "",
          "type": "bool"
        }
      ],
      "stateMutability": "view",
      "type": "function"
    },
    {
      "inputs": [],
      "name": "symbol",
      "outputs": [
        {
          "internalType": "string",
          "name": "",
          "type": "string"
        }
      ],
      "stateMutability": "view",
      "type": "function"
    },
    {
      "inputs": [
        {
          "internalType": "uint256",
          "name": "tokenId",
          "type": "uint256"
        }
      ],
      "name": "tokenURI",
      "outputs": [
        {
          "internalType": "string",
          "name": "",
          "type": "string"
        }
      ],
      "stateMutability": "view",
      "type": "function"
    },
    {
      "inputs": [
        {
          "internalType": "address",
          "name": "from",
          "type": "address"
        },
        {
          "internalType": "address",
          "name": "to",
          "type": "address"
        },
        {
          "internalType": "uint256",
          "name": "tokenId",
          "type": "uint256"
        }
      ],
      "name": "transferFrom",
      "outputs": [],
      "stateMutability": "nonpayable",
      "type": "function"
    },
    {
      "inputs": [
        {
          "internalType": "uint256",
          "name": "amount",
          "type": "uint256"
        }
      ],
      "name": "unstake",
      "outputs": [],
      "stateMutability": "nonpayable",
      "type": "function"
    },
    {
      "inputs": [
        {
          "internalType": "address",
          "name": "forwarder",
          "type": "address"
        }
      ],
      "name": "updateTrustedForwarder",
      "outputs": [],
      "stateMutability": "nonpayable",
      "type": "function"
    },
    {
      "inputs": [
        {
          "internalType": "address",
          "name": "newImplementation",
          "type": "address"
        },
        {
          "internalType": "bytes",
          "name": "data",
          "type": "bytes"
        }
      ],
      "name": "upgradeToAndCall",
      "outputs": [],
      "stateMutability": "payable",
      "type": "function"
    },
    {
      "inputs": [
        {
          "internalType": "address",
          "name": "",
          "type": "address"
        }
      ],
      "name": "userStakes",
      "outputs": [
        {
          "internalType": "uint256",
          "name": "currentStake",
          "type": "uint256"
        },
        {
          "internalType": "uint256",
          "name": "unstakeCooldown",
          "type": "uint256"
        },
        {
          "internalType": "uint256",
          "name": "lastTimestamp",
          "type": "uint256"
        },
        {
          "internalType": "uint256",
          "name": "badgeTokenId",
          "type": "uint256"
        },
        {
          "internalType": "uint8",
          "name": "currentTier",
          "type": "uint8"
        }
      ],
      "stateMutability": "view",
      "type": "function"
    }
  ],
  "bytecode": "0x60a080604052346100cd57306080527ff0c57e16840df040f15088dc2f81fe391c3923bec73e23a9662efc9c229c6a009081549060ff8260401c166100be57506001600160401b036002600160401b031982821601610079575b60405161326e9081620000d38239608051818181610e3a0152610ee30152f35b6001600160401b031990911681179091556040519081527fc7f505b2f371ae2175ee4913f4499e1f2633a7b5936321eed1cdaeb6115181d290602090a1388080610059565b63f92ee8a960e01b8152600490fd5b600080fdfe608080604052600436101561001357600080fd5b60003560e01c90816301ffc9a714611b915750806306fdde0314611ae7578063081812fc14611a9c578063095ea7b3146119ad5780630f5cdf4d1461198857806323b872dd14611971578063248a9ca3146119355780632e17de78146117ba5780632f2ff15d1461176e57806336568abe1461171d5780633e62967d146116f957806342842e0e146116cb578063485cc955146110f85780634f1ef28614610ea457806352d1902d14610e27578063572b6c0514610df257806358f43bdd14610dcd5780635b0a8fad14610daf5780636352211e14610d7f57806370a0823114610d2a57806375b238fc14610cef5780638da7ad2314610c8657806391d1485414610c2c57806393e2282d14610a9857806395d89b4114610993578063a217fddf14610977578063a22cb465146108cc578063a2724a4d146108ae578063a694fc3a146106d7578063ad3cb1cc14610691578063b45aae5214610663578063b7a5494714610638578063b88d4fde146105d7578063c87b56dd146104c5578063ca37d26b1461049c578063ce1b815f14610473578063d547741f14610425578063e689951814610401578063e985e9c5146103b3578063f72c0d8b14610378578063f8123adf1461031a5763f90b0311146101ed57600080fd5b3461031557602036600319011261031557610206611c70565b61020e612394565b6001600160a01b0390811660008181527fb16e88c42fd4e48df2dd6a2eabd6bc9aec654ec170056b470819f8892cc6431c60205260409020549192917fa49807205ce4d355092ef5a8a18f56e8913cf4a201fbe287825b095693c217759060ff16156102f75750501680156102be576020817fa4388ecc389b1390354ae0c65a856c0d7dd4fb648419f5d3ac0b99e38f46fd11926001600160601b0360a01b6002541617600255604051908152a1005b60405162461bcd60e51b815260206004820152601160248201527024b73b30b634b2103337b93bb0b93232b960791b6044820152606490fd5b604492506040519163e2517d3f60e01b835260048301526024820152fd5b600080fd5b3461031557604036600319011261031557610333611c70565b6001600160a01b03166000908152600460205260409020805460243591908210156103155760409161036491611dfc565b506001815491015482519182526020820152f35b346103155760003660031901126103155760206040517f189ab7a9244df0848122154315af71fe140f3db0fe014031783b0946b8c9d2e38152f35b34610315576040366003190112610315576103cc611c70565b6103dd6103d7611c86565b91611dc3565b9060018060a01b0316600052602052602060ff604060002054166040519015158152f35b34610315576000366003190112610315576020604051683635c9adc5dea000008152f35b3461031557604036600319011261031557610471600435610444611c86565b908060005260008051602061319983398151915260205261046c60016040600020015461264e565b61290a565b005b34610315576000366003190112610315576002546040516001600160a01b039091168152602090f35b34610315576000366003190112610315576000546040516001600160a01b039091168152602090f35b3461031557602080600319360112610315576004356104e38161234c565b506000527f0542a41881ee128a365a727b282c86fa859579490b9bb45aab8503648c8e7900815260406000209060405191826000825461052281611e2e565b93848452600191866001821691826000146105b5575050600114610576575b505061054f92500383611d07565b600060405161055d81611cec565b52610572604051928284938452830190611c30565b0390f35b85925060005281600020906000915b85831061059d57505061054f93508201018580610541565b80548389018501528794508693909201918101610585565b925093505061054f94915060ff191682840152151560051b8201018580610541565b34610315576080366003190112610315576105f0611c70565b6105f8611c86565b90604435606435926001600160401b0384116103155761061f610471943690600401611d43565b9261062b838383611e68565b610633612394565b612f15565b3461031557602036600319011261031557602061065b610656611c70565b612139565b604051908152f35b34610315576020366003190112610315576020610686610681611c70565b6120bb565b60ff60405191168152f35b34610315576000366003190112610315576105726040516106b181611cd1565b60058152640352e302e360dc1b6020820152604051918291602083526020830190611c30565b346103155760208060031936011261031557600435906106f56123b8565b8115610873576000546001600160a01b0391908216610712612394565b6040516323b872dd60e01b8482015290841660248201523060448201526064808201869052815260a08101916001600160401b0383118284101761085d5761075c9260405261305e565b81610765612394565b166000526003815260406000209161077e848454612050565b83554260028401556203f480420180421161084757836108009160017f9e71bc8eea02a63969f509818f2dafb9254532904319f9dbda79b67bd34a5f3d9601556107ce6107c9612394565b6123fa565b826107d7612394565b16600052600484526040600020905490604051916107f483611cd1565b4283528583015261205d565b610808612394565b1692604051908152a261082161081c612394565b61257d565b60017f9b779b17422d0df92223018b32b4d1fa46e071723d6817e2486d003becc55f0055005b634e487b7160e01b600052601160045260246000fd5b634e487b7160e01b600052604160045260246000fd5b6064906040519062461bcd60e51b825260048201526014602482015273125b9d985b1a59081cdd185ad948185b5bdd5b9d60621b6044820152fd5b346103155760003660031901126103155760206040516203f4808152f35b34610315576040366003190112610315576108e5611c70565b602435801515809103610315576108fa612394565b6001600160a01b039283169290831561095e577f17307eab39ab6107e8899845ad3d59bd9653f200f220920489ca2b5937696c31918161093b602093611dc3565b866000528352604060002060ff1981541660ff87161790556040519485521692a3005b604051630b61174360e31b815260048101859052602490fd5b3461031557600036600319011261031557602060405160008152f35b34610315576000366003190112610315576040517f80bb2b638cc20bc4d0a60d66940f3ab4a00c1d7b313497ca82fb0b4ab007930180548260006109d683611e2e565b9283835260209460019186600182169182600014610a76575050600114610a1a575b5050610a0692500383611d07565b610572604051928284938452830190611c30565b8592506000527ff4bad0a69248f59680a4f2b3000328cec71a413447c96781cfe5996daa8c456e906000915b858310610a5e575050610a06935082010185806109f8565b80548389018501528794508693909201918101610a46565b9250935050610a0694915060ff191682840152151560051b82010185806109f8565b3461031557604036600319011261031557610ab1611c70565b6024359060ff821680830361031557610ac8612394565b6001600160a01b0390811660008181527fb7db2dd08fcb62d0c9e08c51941cae53c267786a0b75803fb7960902fc8ef97d602052604090205491929160ff1615610c0d575060048111610bd957826020927fd1b1921da00aa401db521bf34c84150f98ffb008ed362fbddc594497a952efb09416948560005260038452604060002091600483018460ff19825416179055831580610bcc575b15610b83575050600360009101610b788154612e52565b555b604051908152a2005b610b9f906003610ba5940190815415610baa575b505491612ba2565b90612cbe565b610b7a565b610bc690610bb96001546120ac565b908160015581845561298e565b88610b97565b5060038301541515610b61565b60405162461bcd60e51b815260206004820152600c60248201526b24b73b30b634b2103a34b2b960a11b6044820152606490fd5b6044906040519063e2517d3f60e01b8252600482015260006024820152fd5b3461031557604036600319011261031557610c45611c86565b60043560005260008051602061319983398151915260205260406000209060018060a01b0316600052602052602060ff604060002054166040519015158152f35b34610315576020366003190112610315576001600160a01b03610ca7611c70565b16600052600360205260a06040600020805490600181015490600281015460ff6004600384015493015416926040519485526020850152604084015260608301526080820152f35b346103155760003660031901126103155760206040517fa49807205ce4d355092ef5a8a18f56e8913cf4a201fbe287825b095693c217758152f35b3461031557602036600319011261031557610d43611c70565b6001600160a01b03811615610d6657610d5d602091611d8a565b54604051908152f35b6040516322718ad960e21b815260006004820152602490fd5b34610315576020366003190112610315576020610d9d60043561234c565b6040516001600160a01b039091168152f35b3461031557600036600319011261031557602060405162278d008152f35b3461031557600036600319011261031557602060405169054b40b1f852bda000008152f35b34610315576020366003190112610315576020610e0d611c70565b6002546040516001600160a01b0392831691909216148152f35b34610315576000366003190112610315577f00000000000000000000000000000000000000000000000000000000000000006001600160a01b03163003610e925760206040517f360894a13ba1a3210667c828492db98dca3e2076cc3735a920a3ca505d382bbc8152f35b60405163703e46dd60e11b8152600490fd5b604036600319011261031557610eb8611c70565b6024356001600160401b03811161031557610ed7903690600401611d43565b906001600160a01b03907f000000000000000000000000000000000000000000000000000000000000000082163081149081156110ca575b50610e9257610f1c612394565b821660008181527fab71e3f32666744d246edff3f96e4bdafee2e9867098cdd118a979a7464786a86020908152604090912054909391907f189ab7a9244df0848122154315af71fe140f3db0fe014031783b0946b8c9d2e39060ff16156102f75750508116916040516352d1902d60e01b81528181600481875afa6000918161109b575b50610fbe57604051634c9c8ce360e01b815260048101859052602490fd5b9284937f360894a13ba1a3210667c828492db98dca3e2076cc3735a920a3ca505d382bbc908181036110835750833b1561106a5780546001600160a01b03191682179055604051907fbc7cd75a20ee27fd9adebab32041f755214dbc6bffa90cc0225b39da2e5c2d3b600080a28351156110505750600083819261047195519101845af461104a612ee5565b916130f5565b925050503461105b57005b63b398979f60e01b8152600490fd5b604051634c9c8ce360e01b815260048101839052602490fd5b60249060405190632a87526960e21b82526004820152fd5b9091508281813d83116110c3575b6110b38183611d07565b8101031261031557519086610fa0565b503d6110a9565b9050827f360894a13ba1a3210667c828492db98dca3e2076cc3735a920a3ca505d382bbc5416141584610f0f565b3461031557604036600319011261031557611111611c70565b611119611c86565b906000805160206131f983398151915254906001600160401b038216801590816116bb575b60011490816116b1575b1590816116a8575b506116965760016001600160401b03198316176000805160206131f98339815191525560ff8260401c1615611669575b6001600160a01b038181161561162c57808416156115e7576111a06130c6565b604051936111ad85611cd1565b600f85526e4d4f444c205469657220426164676560881b6020860152604051946111d686611cd1565b600386526226aa2160e91b60208701526111ee6130c6565b6111f66130c6565b8051906001600160401b03821161085d57819061122160008051602061317983398151915254611e2e565b601f8111611566575b50602090601f83116001146114d4576000926114c9575b50508160011b916000199060031b1c191617600080516020613179833981519152555b84516001600160401b03811161085d577f80bb2b638cc20bc4d0a60d66940f3ab4a00c1d7b313497ca82fb0b4ab0079301906112a08254611e2e565b601f8111611465575b506020601f82116001146113e057819060ff986000926113d5575b50508160011b916000199060031b1c19161790555b6112e16130c6565b6112e96130c6565b6112f16130c6565b6112f96130c6565b60017f9b779b17422d0df92223018b32b4d1fa46e071723d6817e2486d003becc55f0055816001600160601b0360a01b93168360005416176000551690600254161760025561134e611349612394565b612695565b5061135f61135a612394565b61272e565b5061137061136b612394565b6127ea565b5060401c161561137c57005b68ff0000000000000000196000805160206131f983398151915254166000805160206131f9833981519152557fc7f505b2f371ae2175ee4913f4499e1f2633a7b5936321eed1cdaeb6115181d2602060405160018152a1005b0151905088806112c4565b601f19821697836000527ff4bad0a69248f59680a4f2b3000328cec71a413447c96781cfe5996daa8c456e9860005b81811061144d57509160ff9991846001959410611434575b505050811b0190556112d9565b015160001960f88460031b161c19169055888080611427565b838301518b556001909a01996020938401930161140f565b826000527ff4bad0a69248f59680a4f2b3000328cec71a413447c96781cfe5996daa8c456e601f830160051c810191602084106114bf575b601f0160051c01905b8181106114b357506112a9565b600081556001016114a6565b909150819061149d565b015190508780611241565b9250600080516020613179833981519152600052600080516020613219833981519152906000935b601f198416851061154b576001945083601f19811610611532575b505050811b0160008051602061317983398151915255611264565b015160001960f88460031b161c19169055878080611517565b818101518355602094850194600190930192909101906114fc565b909150600080516020613179833981519152600052601f830160051c60008051602061321983398151915201602084106115d2575b908392915b601f820160051c6000805160206132198339815191520181106115c3575061122a565b600081558493506001016115a0565b5060008051602061321983398151915261159b565b60405162461bcd60e51b815260206004820152601960248201527f496e76616c696420666f727761726465722061646472657373000000000000006044820152606490fd5b60405162461bcd60e51b8152602060048201526015602482015274496e76616c696420746f6b656e206164647265737360581b6044820152606490fd5b68ffffffffffffffffff19821668010000000000000001176000805160206131f983398151915255611180565b60405163f92ee8a960e01b8152600490fd5b90501584611150565b303b159150611148565b604084901c60ff1615915061113e565b34610315576104716116dc36611c9c565b90604051926116ea84611cec565b6000845261062b838383611e68565b3461031557600036600319011261031557602060405168056bc75e2d631000008152f35b3461031557604036600319011261031557611736611c86565b6001600160a01b0380611747612394565b169082160361175c576104719060043561290a565b60405163334bd91960e11b8152600490fd5b346103155760403660031901126103155761047160043561178d611c86565b90806000526000805160206131998339815191526020526117b560016040600020015461264e565b612896565b346103155760208060031936011261031557600435906117d86123b8565b6001600160a01b0390816117ea612394565b16600052600381526040600020918315158061192a575b156118ec5760018301805442106118b25761181d858554612043565b84554260028501556203f480420193844211610847577f0f5bb82176feb1b5e747e28471aa92156a04d9f3ab9f45f28e2d704232b93f759461186592556107ce6107c9612394565b6108008482600054166118ad611879612394565b60405163a9059cbb60e01b888201526001600160a01b03919091166024820152604480820194909452928352606483611d07565b61305e565b60405162461bcd60e51b815260048101849052601260248201527110dbdbdb191bdddb881a5b881959999958dd60721b6044820152606490fd5b60405162461bcd60e51b8152600481018390526016602482015275125b9d985b1a59081d5b9cdd185ad948185b5bdd5b9d60521b6044820152606490fd5b508254841115611801565b34610315576020366003190112610315576004356000526000805160206131998339815191526020526020600160406000200154604051908152f35b346103155761047161198236611c9c565b91611e68565b3461031557600036600319011261031557602060405169021e19e0c9bab24000008152f35b34610315576040366003190112610315576119c6611c70565b6024356119d1612394565b916119db8261234c565b6001600160a01b0393909190841680151580611a90575b80611a70575b611a58575083169282918491167f8c5be1e5ebec7d5bd14f71427d1e84f3dd0314c0f7b2291e5b200ac8c7c3b925600080a460009081526000805160206131d98339815191526020526040902080546001600160a01b0319169091179055005b6024906040519063a9fbf51f60e01b82526004820152fd5b50611a7a83611dc3565b8160005260205260ff60406000205416156119f8565b508085841614156119f2565b3461031557602036600319011261031557600435611ab98161234c565b506000526000805160206131d9833981519152602052602060018060a01b0360406000205416604051908152f35b34610315576000366003190112610315576040516000805160206131798339815191528054826000611b1883611e2e565b9283835260209460019186600182169182600014610a76575050600114611b47575050610a0692500383611d07565b859250600052600080516020613219833981519152906000915b858310611b79575050610a06935082010185806109f8565b80548389018501528794508693909201918101611b61565b34610315576020366003190112610315576004359063ffffffff60e01b821680920361031557602091632483248360e11b8114908115611bd3575b5015158152f35b6380ac58cd60e01b811491508115611c1f575b8115611bf4575b5083611bcc565b637965db0b60e01b811491508115611c0e575b5083611bed565b6301ffc9a760e01b14905083611c07565b635b5e139f60e01b81149150611be6565b919082519283825260005b848110611c5c575050826000602080949584010152601f8019910116010190565b602081830181015184830182015201611c3b565b600435906001600160a01b038216820361031557565b602435906001600160a01b038216820361031557565b6060906003190112610315576001600160a01b0390600435828116810361031557916024359081168103610315579060443590565b604081019081106001600160401b0382111761085d57604052565b602081019081106001600160401b0382111761085d57604052565b90601f801991011681019081106001600160401b0382111761085d57604052565b6001600160401b03811161085d57601f01601f191660200190565b81601f8201121561031557803590611d5a82611d28565b92611d686040519485611d07565b8284526020838301011161031557816000926020809301838601378301015290565b6001600160a01b031660009081527f80bb2b638cc20bc4d0a60d66940f3ab4a00c1d7b313497ca82fb0b4ab00793036020526040902090565b6001600160a01b031660009081527f80bb2b638cc20bc4d0a60d66940f3ab4a00c1d7b313497ca82fb0b4ab00793056020526040902090565b8054821015611e185760005260206000209060011b0190600090565b634e487b7160e01b600052603260045260246000fd5b90600182811c92168015611e5e575b6020831014611e4857565b634e487b7160e01b600052602260045260246000fd5b91607f1691611e3d565b6001600160a01b038281169391841561202a5782611e84612394565b956000968288526000805160206131b98339815191529788602052604098868a832054169883888b95168015159081611f5d575b50505090611eec7fddf252ad1be2c89b69c2b068fc378daa952ba7f163c4a11628f55a4df523b3ef939285611f3e57611d8a565b8054600101905585825260205289812080546001600160a01b0319168517905580a41692838303611f1d5750505050565b6064945051926364283d7b60e01b8452600484015260248301526044820152fd5b611f4788613032565b611f5086611d8a565b8054600019019055611d8a565b9193955080929496975091611fce575b5015611f8157918794939183808b95611eb8565b8988918a15600014611fa5578151637e27328960e01b815260048101849052602490fd5b905163177e802f60e01b81526001600160a01b0390911660048201526024810191909152604490fd5b8a81149150811561200c575b8115611fe8575b5038611f6d565b90508885526000805160206131d9833981519152602052878b862054161438611fe1565b90506120178a611dc3565b81865260205260ff8b8620541690611fda565b604051633250574960e11b815260006004820152602490fd5b9190820391821161084757565b9190820180921161084757565b80546801000000000000000081101561085d5761207f91600182018155611dfc565b919091612096576020816001925184550151910155565b634e487b7160e01b600052600060045260246000fd5b60001981146108475760010190565b6120c490612139565b69054b40b1f852bda0000081101561211f5769021e19e0c9bab240000081101561211957683635c9adc5dea000008110156121135768056bc75e2d63100000111561210e57600090565b600190565b50600290565b50600390565b50600490565b8051821015611e185760209160051b010190565b6001600160a01b031660009081526004602081815260408084208054939594929390916001600160401b03821161233957916040519261217e868460051b0185611d07565b8284529084528484208491868086015b85851061230c575050505050508051156123065762278cff1942014281116122f357829083908351805b612208575b505090811560001461220057505080516000198101929083116121ed57506121e792939450612125565b51015190565b634e487b7160e01b815260118652602490fd5b049450505050565b60001981018181116122e05761221e9086612125565b51805194865183146000146122ce5788425b858111156122c4578588106122ba575b8761224a91612043565b920151908183029183830414831517156122a7579161226d612273928694612050565b95612050565b941461229f57801561228c5791929160001901806121b8565b634e487b7160e01b865260118952602486fd5b9291926121bd565b634e487b7160e01b895260118c52602489fd5b9496508694612240565b50509450506121bd565b886122d98489612125565b5151612230565b634e487b7160e01b875260118a52602487fd5b634e487b7160e01b835260118652602483fd5b50925050565b600191600291845161231d81611cd1565b865481528487015483820152815201930193019291879061218e565b634e487b7160e01b845260418752602484fd5b60008181526000805160206131b983398151915260205260409020546001600160a01b031690811561237c575090565b60249060405190637e27328960e01b82526004820152fd5b600254336001600160a01b03909116036123b45736601319013560601c90565b3390565b7f9b779b17422d0df92223018b32b4d1fa46e071723d6817e2486d003becc55f0060028154146123e85760029055565b604051633ee5aeb560e01b8152600490fd5b60009060018060a01b031681526004906020908260205260408120918254612423575b50505050565b9091929362278cff19420142811161256a575b84546001908181119081612541575b50156125315784815b6124a2575b508554801561248f57600019019061246b8288611dfc565b61247d57868155018590558555612436565b634e487b7160e01b8752868952602487fd5b634e487b7160e01b865260318852602486fd5b865460001981019081116125195781101561252c57818101808211612519576124cb9088611dfc565b506124d68289611dfc565b919091612507579181848481958295036124f5575b505050019061244e565b805483558101549101553882816124eb565b634e487b7160e01b8852878a52602488fd5b634e487b7160e01b875260118952602487fd5b612453565b505093505050503880808061241d565b9050156125575785855281848620541038612445565b634e487b7160e01b855260328752602485fd5b634e487b7160e01b845260118652602484fd5b6001600160a01b03811660008181526003602052604090209091906125a1826120bb565b916004820160ff8154169160ff8516928314612646577fd1b1921da00aa401db521bf34c84150f98ffb008ed362fbddc594497a952efb09460036020950191825415612624575b50836126115750806125fc60009254612e52565b555b805460ff191682179055604051908152a2565b610b9f61261f925491612ba2565b6125fe565b612640906126336001546120ac565b908160015581855561298e565b386125e8565b505050505050565b612656612394565b908060005260008051602061319983398151915260205260406000209160018060a01b0316918260005260205260ff60406000205416156102f7575050565b6001600160a01b0390811660008181527fb7db2dd08fcb62d0c9e08c51941cae53c267786a0b75803fb7960902fc8ef97d60205260408120549092906000805160206131998339815191529060ff16612728578380526020526040832082845260205260408320600160ff1982541617905561270f612394565b16916000805160206131598339815191528180a4600190565b50505090565b6001600160a01b0390811660008181527fb16e88c42fd4e48df2dd6a2eabd6bc9aec654ec170056b470819f8892cc6431c602052604081205490927fa49807205ce4d355092ef5a8a18f56e8913cf4a201fbe287825b095693c2177591600080516020613199833981519152919060ff166127e357600080516020613159833981519152918386526020526040852084865260205260408520600160ff198254161790556127da612394565b169380a4600190565b5050505090565b6001600160a01b0390811660008181527fab71e3f32666744d246edff3f96e4bdafee2e9867098cdd118a979a7464786a8602052604081205490927f189ab7a9244df0848122154315af71fe140f3db0fe014031783b0946b8c9d2e391600080516020613199833981519152919060ff166127e357600080516020613159833981519152918386526020526040852084865260205260408520600160ff198254161790556127da612394565b6000818152600080516020613199833981519152602081815260408084206001600160a01b039687168086529252832054929490939260ff166127e357600080516020613159833981519152918386526020526040852084865260205260408520600160ff198254161790556127da612394565b6000818152600080516020613199833981519152602081815260408084206001600160a01b039687168086529252832054929490939260ff16156127e3577ff6391f5c32d9c69d2a47ea670b442974b53935d1edc7fd64eb21e047a839171b91838652602052604085208486526020526040852060ff1981541690556127da612394565b90604080519261299d84611cec565b60008085526001600160a01b0394828616948515612b8a578083526000805160206131b98339815191529660209780895282888389882054168015159384612b6b575b6129e98a611d8a565b805460010190558389528c5289882080546001600160a01b031916831790557fddf252ad1be2c89b69c2b068fc378daa952ba7f163c4a11628f55a4df523b3ef8880a4612b5357612a38612394565b943b612a49575b5050505050505050565b90879895969791612a8888519485938493630a85bd0160e11b998a86521660048501528760248501526044840152608060648401526084830190611c30565b0381858a5af190829082612b08575b5050612ace57505050612aa8612ee5565b80519384612ac8578251633250574960e11b815260048101859052602490fd5b84925001fd5b9194506001600160e01b031990911603612af15750503880808080808080612a3f565b602492505190633250574960e11b82526004820152fd5b909192508781813d8311612b4c575b612b218183611d07565b81010312612b485751906001600160e01b031982168203612b455750903880612a97565b80fd5b5080fd5b503d612b17565b85516339e3563760e11b815260048101859052602490fd5b612b7484613032565b612b7d82611d8a565b80546000190190556129e0565b8451633250574960e11b815260048101849052602490fd5b60ff1660018114612c845760028114612c4a5760038114612c1057600414612bd757604051612bd081611cec565b6000815290565b604051612be381611cd1565b601981527f697066733a2f2f626164676553656e74696e656c2e6a736f6e00000000000000602082015290565b50604051612c1d81611cd1565b601a81527f697066733a2f2f62616467654172636869746563742e6a736f6e000000000000602082015290565b50604051612c5781611cd1565b601881527f697066733a2f2f62616467654275696c6465722e6a736f6e0000000000000000602082015290565b50604051612c9181611cd1565b601981527f697066733a2f2f62616467654578706c6f7265722e6a736f6e00000000000000602082015290565b9190916000908082526020917f0542a41881ee128a365a727b282c86fa859579490b9bb45aab8503648c8e7900835260408120908551906001600160401b038211612e3e57612d0d8354611e2e565b601f8111612dfb575b508490601f8311600114612d7757907ff8e1a15aba9398e019f0b49df1a4fde98ee17ae345cb5f6b5e2c27f5033e8ce7969783612d6c575b50508160011b916000199060031b1c19161790555b604051908152a1565b015190503880612d4e565b9196601f198816848452868420935b818110612de457509160019391897ff8e1a15aba9398e019f0b49df1a4fde98ee17ae345cb5f6b5e2c27f5033e8ce7999a9410612dcb575b505050811b019055612d63565b015160001960f88460031b161c19169055388080612dbe565b929387600181928786015181550195019301612d86565b838252858220601f840160051c810191878510612e34575b601f0160051c01905b818110612e295750612d16565b828155600101612e1c565b9091508190612e13565b634e487b7160e01b81526041600452602490fd5b6000818152816000805160206131b9833981519152918260205260018060a01b036040822054168015938415612ec6575b8383526020526040822080546001600160a01b03191690557fddf252ad1be2c89b69c2b068fc378daa952ba7f163c4a11628f55a4df523b3ef8280a461237c5750565b612ecf84613032565b612ed882611d8a565b8054600019019055612e83565b3d15612f10573d90612ef682611d28565b91612f046040519384611d07565b82523d6000602084013e565b606090565b9293823b612f25575b5050505050565b612f699060018060a01b038094169560405194859481630a85bd0160e11b988988521660048701521660248501526044840152608060648401526084830190611c30565b03906020816000938185885af190829082612fe9575b5050612fb75782612f8e612ee5565b8051919082612fb057604051633250574960e11b815260048101839052602490fd5b9050602001fd5b6001600160e01b03191603612fd157503880808080612f1e565b60249060405190633250574960e11b82526004820152fd5b909192506020813d60201161302a575b8161300660209383611d07565b81010312612b485751906001600160e01b031982168203612b455750903880612f7f565b3d9150612ff9565b6000526000805160206131d983398151915260205260406000206001600160601b0360a01b8154169055565b906000602091828151910182855af1156130ba576000513d6130b157506001600160a01b0381163b155b61308f5750565b604051635274afe760e01b81526001600160a01b039091166004820152602490fd5b60011415613088565b6040513d6000823e3d90fd5b60ff6000805160206131f98339815191525460401c16156130e357565b604051631afcd79f60e31b8152600490fd5b9061311c575080511561310a57805190602001fd5b60405163d6bda27560e01b8152600490fd5b8151158061314f575b61312d575090565b604051639996b31560e01b81526001600160a01b039091166004820152602490fd5b50803b1561312556fe2f8788117e7eff1d82e926ec794901d17c78024a50270940304540a733656f0d80bb2b638cc20bc4d0a60d66940f3ab4a00c1d7b313497ca82fb0b4ab007930002dd7bc7dec4dceedda775e58dd541e08a116c6c53815c0bd028192f7b62680080bb2b638cc20bc4d0a60d66940f3ab4a00c1d7b313497ca82fb0b4ab007930280bb2b638cc20bc4d0a60d66940f3ab4a00c1d7b313497ca82fb0b4ab0079304f0c57e16840df040f15088dc2f81fe391c3923bec73e23a9662efc9c229c6a0037c58c799b6609234b945e882912ee9ad34948a1dfaa20a97485e1a7752bbf81a2646970667358221220b2c143b43ac34478bdacdcbf311ae18bb869a17369093ea4798a5b0ae504b96364736f6c63430008160033",
  "linkReferences": {},
  "deployedLinkReferences": {}
}